:020000040800F2
:100000008021002075020008EB1E0008E31C000898
:10001000E91E0008FD070008AD21000800000000EF
:10002000000000000000000000000000DD010008EA
:100030003708000800000000210200083D1F0008EA
:100040008F0200088F0200088F0200088F0200084C
:100050008F0200088F0200088F0200088F0200083C
:100060008F0200088F0200088F02000801080008B4
:100070008F0200088F0200088F0200088F0200081C
:100080008F0200088F0200088F0200088F0200080C
:100090008F0200088F0200088F0200088F020008FC
:1000A0008F0200088F0200088F0200088F020008EC
:1000B0008F0200088F0200088F0200088F020008DC
:1000C0008F0200088F0200088F0200088F020008CC
:1000D0008F0200088F0200088F0200088F020008BC
:1000E0008F0200088F0200088F0200088F020008AC
:1000F0008F0200088F0200088F0200088F0200089C
:100100008F0200088F0200088F0200088F0200088B
:100110008F0200088F020008E51F00088F02000808
:100120008F0200088F0200088F0200088F0200086B
:1001300000F002F800F042F80AA090E8000C8244B7
:100140008344AAF10107DA4501D100F037F8AFF294
:10015000090EBAE80F0013F0010F18BFFB1A43F0A5
:10016000010318475040000070400000103A24BFBF
:1001700078C878C1FAD8520724BF30C830C144BF0C
:1001800004680C607047000000230024002500264E
:10019000103A28BF78C1FBD8520728BF30C148BFEA
:1001A0000B607047642900F0CF80752900F0CC8087
:1001B000002070471FB51FBD10B510BD00F041FAFB
:1001C0001146FFF7F7FF02F00FF800F05FFA03B4F3
:1001D000FFF7F2FF03BC00F067FA0000224B19683A
:1001E0000868B0E8F00F80F30988BFF36F8F4FF015
:1001F000000080F311884EF00D0E704700000000E3
:1002000006480068006880F3088862B661B6BFF3EC
:100210004F8FBFF36F8F00DF00BF00BF08ED00E01E
:10022000EFF30980BFF36F8F0F4B1A6820E9F00FCF
:10023000106008B54FF0500080F31188BFF34F8F66
:10024000BFF36F8F02F0E6FF4FF0000080F31188DC
:10025000BDE8084019680868B0E8F00F80F3098825
:10026000BFF36F8F704700BF20000020EFF30580C1
:10027000704700000948804709480047FEE7FEE74D
:10028000FEE7FEE7FEE7FEE7FEE7FEE7FEE7FEE746
:1002900004480549054A064B70470000E31F000863
:1002A00031010008801B002080210020801D0020DB
:1002B000801D00200FB41CB5084B06AA7B4469467C
:1002C0000090059800F051F904460020694600F0BE
:1002D0005FF920461CBC5DF814FB0000D102000051
:1002E0002DE9F0410E460446002020622046E168D8
:1002F000884730B3252805D0D4E901219047206AEA
:10030000401CF2E7E168204600278847050018D026
:10031000A5F14100192802D820354FF40067324674
:10032000294620462760FFF73DFF40B1012804D051
:10033000F61D26F007060836D8E7361DD6E728460C
:10034000DAE7206ABDE8F0812DE9F0410646002495
:1003500010687529314616A510D0AFF3008000282B
:1003600002DA404213A507E031688A0701D512A5D9
:1003700002E0490704D511A5012401E0AFF3008094
:1003800000210A2206F1240709E0B0FBF2FCB0FBD1
:10039000F2F302FB1C00303078541846491C002848
:1003A000F3D123462A463046BDE8F04100F07FB83D
:1003B000000000002D0000002B00000020000000C5
:1003C000032A40F2308010F0030C00F0158011F881
:1003D000013BBCF1020F624498BF11F801CB00F859
:1003E000013B38BF11F8013BA2F1040298BF00F8AD
:1003F00001CB38BF00F8013B11F0030300F0CD80C2
:10040000083AC0F0088051F8043B083A51F804CB90
:10041000A0E80810F5E7121D5CBF51F8043B40F856
:10042000043BAFF30080D20724BF11F8013B11F861
:1004300001CB48BF11F8012B24BF00F8013B00F8A5
:1004400001CB48BF00F8012B704702F0FF0343EADD
:10045000032242EA024200F0D4B84FF0000200B595
:10046000134694469646203922BFA0E80C50A0E8D7
:100470000C50B1F12001BFF4F7AF090728BFA0E885
:100480000C5048BF0CC05DF804EB890028BF40F851
:10049000042B08BF704748BF20F8022B11F0804F93
:1004A00018BF00F8012B70477047704770472DE95F
:1004B000F0470D4699469246044600F1240801682B
:1004C000880604D5E06921F01001216000E00120D8
:1004D000A84201DD471B00E00027A1697A1902EB61
:1004E0000900081AA0612078C00602D42046AFF3A4
:1004F0000080002608E0D4E901211AF806009047A0
:10050000206A401C761C20624E45F4DB2078C00631
:100510000AD52046AFF3008006E0D4E9012130205F
:100520009047206A401C2062381EA7F10107F4DCC6
:1005300007E0D4E9012118F805009047206A401C23
:100540002062281EA5F10105F3DC2046AFF30080F0
:100550002078000602D50220BDE8F0870120FBE7E5
:1005600001694A1C02610878704700B58FB0CDE977
:1005700001310021059105497944CDE90310114667
:100580006846FFF7ADFE0FB000BD0000E5FFFFFFBE
:100590000A6802F8010B0A60704710B5203AC0F0F3
:1005A0000B80B1E81850203AA0E81850B1E8185074
:1005B000A0E81850BFF4F5AF5FEA027C24BFB1E8B1
:1005C0001850A0E8185044BF18C918C0BDE8104022
:1005D0005FEA827C24BF51F8043B40F8043B08BF2B
:1005E0007047D20728BF31F8023B48BF11F8012BF2
:1005F00028BF20F8023B48BF00F8012B70474FF09E
:1006000000020429C0F0128010F0030C3FF427AF61
:10061000CCF1040CBCF1020F18BF00F8012BA8BFED
:1006200020F8022BA1EB0C01FFF719BF5FEAC17C98
:1006300024BF00F8012B00F8012B48BF00F8012B64
:100640007047754600F02CF8AE46050069465346E3
:1006500020F00700854618B020B5FFF719FEBDE869
:1006600020404FF000064FF000074FF000084FF019
:10067000000B21F00701AC46ACE8C009ACE8C009AA
:10068000ACE8C009ACE8C0098D46704710B5044617
:10069000AFF300802046BDE81040FFF798BD000092
:1006A000004870471C1B002001491820ABBEFEE724
:1006B000260002007047000070B50446006881689B
:1006C000C943C90717D1816821F00101816000F099
:1006D00039FD05460AE000BF00F034FD401B02284A
:1006E00004D920688068C043C00706D020688068AD
:1006F000C043C007F0D0002070BDA06A40F01000D9
:10070000A062E06A40F00100E062012070BD10B517
:100710000146406A826A12F0500F05D0006A026BEF
:10072000BDE8104008461047816A41F400718162BB
:1007300001688968C1F3424107290CD1017B51B995
:10074000816A21F480718162816AC90403D4816A5B
:1007500041F00101816200F0EFF810BD10B5406A70
:10076000816A41F040018162C16A41F00401C162C5
:1007700000F0E4F810BD10B5406A00F0DEF810BDDE
:10078000F8B500260446009600688168C943C90789
:100790002DD0816841F0010181601648164900683A
:1007A000B0FBF1F000E0401E00900028FBD100F00B
:1007B000C9FC054616E000BF00F0C4FC401B02283F
:1007C00010D920688068C043C0070BD0A06A40F0F1
:1007D0001000A062E06A40F00100E06284F824604A
:1007E0000120F8BD20688068C043C007E4D1002024
:1007F000F8BD00001C00002040420F00FEE7000092
:10080000014800F0FBB900002C01002030B590F841
:1008100040500124AC40C56B6C6004686360436861
:10082000102B036803D099600068C26030BD9A60E5
:100830000068C16030BD704772B6FEE7F8B50024AD
:10084000009490F824202546012A12D0012280F835
:1008500024204A681F23072A0DD20668776B521E90
:1008600002EB820293409F430B6893401F437763E0
:1008700019E00220F8BD06680D2A0AD2376BD21F94
:1008800002EB820293409F430B6893401F43376300
:1008900009E0F76A0D3A02EB820293409F430B682E
:1008A00093401F43F7620A68072306680A2A0AD39F
:1008B000F7680A3A02EB420293409F438B689340E9
:1008C0001F43F76008E0376902EB420293409F4301
:1008D0008B6893401F4337610A68102A01D0112AA0
:1008E00020D1124B02689A4217D193681B0219D487
:1008F000936843F4000393600968102912D10C49EE
:100900000C4A0968B1FBF2F101EB8101490000E0FA
:10091000491E00910029FBD104E0816A41F02001C9
:100920008162012480F824502046F8BD0024014053
:100930001C00002040420F007047704770470000C5
:100940002DE9F04104004FF000057FD0A06A002699
:1009500028B9E66284F82460204600F081F8204639
:10096000FFF7AAFEA16AC90600D420B1A06A40F030
:100970001000A0626AE0A16A21F4885141F00201EE
:10098000A162334923688B42E16904D1B1F5402F5C
:1009900001D14FF40021277B4FF4807C41EA4702CC
:1009A00061680A43A168614508D0012906D0002189
:1009B00094F814E0BEF1010F02D00AE06146F7E7B7
:1009C000C7B1A76A47F02007A762E76A47F00107A7
:1009D000E7625F6827F469470F435F60236899689F
:1009E0001C4F394011439960A16861450BD0012922
:1009F00009D00CE0DFF860E0A7690EEB47370F4342
:100A000047F40061E5E7218A0D05A5F58015216809
:100A1000CB6A23F470032B43CB62216889680F4BA8
:100A20001940914208D1E662A16A21F0020141F029
:100A30000101A162BDE8F081A06A20F0020040F04F
:100A40001000A062E06A40F00100E0620120F1E7DE
:100A5000003C0140FDF7E1FF00E0FFFFFE0E1FFF3D
:100A600070B586B000250646009501950295039560
:100A700000681A4988422ED11949886940F40070EB
:100A80008861886900F400700490886940F0100063
:100A900088618869694600F0100004901020009079
:100AA000032001900F4800F043FA104C0E48C4E9AF
:100AB00000058020C4E90250400020618000606190
:100AC0002020C4E90605204600F0BCF908B1FFF774
:100AD000B3FE3462666206B070BD000000240140BF
:100AE0000010024000100140080002402C010020CC
:100AF0002DE9F047894604463B4900683B4F0E1DEF
:100B00009046884201D0B84207D1306810F4702F67
:100B100003D001252846BDE8F08794F82400012879
:100B20000CD0012084F824002046FFF729FE0500A0
:100B30004FF0000004D084F82400EBE70220EAE73D
:100B4000A16A40F60162914341F48071A16221687B
:100B5000B94218D1326812F4702F14D0A16A41F44E
:100B60008011A1623168490505D5A16A21F40051BF
:100B700041F48051A162A16AC9040AD5E16A21F059
:100B80000601E16206E0A26A22F48012A2624968CC
:100B9000E9E7E06284F82400216A15488862216A46
:100BA0001448C862216A1448086321686FF0020083
:100BB00008602068816841F4807181602168434643
:100BC0004A464C31206A00F07BF920688168C1F305
:100BD00042410729816803D041F48011816099E77F
:100BE00041F4A001FAE70000002401400028014080
:100BF0000F070008770700085D0700082DE9F05F80
:100C0000C16B0A6801680B68046C4FF0040808FAAD
:100C100004F8844D844E854FDFF814C2DFF8149237
:100C2000DFF814A2DFF814B2DFF814E218EA020FBA
:100C300065D05FEA437862D50A68920603D40A68F1
:100C400022F004020A60DFF8F0814FF4806201684C
:100C500008F1140813011402414524D9A9420DD00A
:100C6000B1420FD0B9421AD0614515D0494515D0CF
:100C7000514501D1120312E0594501D104220EE081
:100C8000714501D140220AE06D4D1435A94206D0CC
:100C90006B4A2832914201D11A4600E02246674948
:100CA000091F0A6029E0A94213D0B14215D0B94208
:100CB00020D061451BD049451BD0514502D14FF48E
:100CC000800217E0414502D14FF0806212E05945A1
:100CD00001D104220EE0714501D140220AE0584DB5
:100CE0001435A94206D0564A2832914201D11A46FB
:100CF00000E022464B4908394A60C16A71E04FF072
:100D0000020808FA04F818EA020F70D05FEA837844
:100D10006DD50A68920606D40A6822F00A020A60B3
:100D2000012180F82110DFF810814FF40072016872
:100D300008F1140813011402414524D9A9420DD029
:100D4000B1420FD0B9421AD0614515D0494515D0EE
:100D5000514501D1120312E0594501D102220EE0A2
:100D6000714501D120220AE0354D1435A94206D043
:100D7000334A2832914201D11A4600E022462F49D7
:100D8000091F0A6029E0A94213D0B14215D0B94227
:100D900020D061451BD049451BD0514502D14FF4AD
:100DA000001217E0414502D14FF0007212E05945A0
:100DB00001D102220EE0714501D120220AE0204D2E
:100DC0001435A94206D01E4A2832914201D11A4652
:100DD00000E02246134908394A60002180F82010BB
:100DE000816A00291CD0BDE8F05F0847FFE70825AD
:100DF000A540154214D01A0712D50A6822F00E0237
:100E00000A6090F84020C36B012101FA02F25A6097
:100E1000816380F82110002180F82010016BE0E749
:100E2000BDE8F09F080002401C0002403000024074
:100E300044000240580002406C0002400804024096
:100E40001C04024030B560B11A4B026814219A426A
:100E500009D2194B1344B3FBF1F18900016417491E
:100E60000AE0012030BD134B5B421344B3FBF1F1A8
:100E7000890001640F490839C163022180F82110FB
:100E8000136843F6F0718B43F0E901142143D0E974
:100E900002452C4321430469214344692143846969
:100EA00021431943116000214163012242770177F8
:100EB000084630BD08040240F8FFFDBF00000240B4
:100EC00070B5044690F82000002501280CD00120C0
:100ED00084F8200094F821600020012E06D084F8C8
:100EE00020000225284670BD022070BD022684F82D
:100EF0002160A0632068066826F00106066020468F
:100F0000FFF784FCE06A00282068016802D041F005
:100F10000E0106E021F0040101602068016841F043
:100F20000A0101602068016841F001010160D9E710
:100F30002DE9F84FDFF8C8910024A9F1040B2346EE
:100F40000F2709F1040AABF1040ED1E00125A540F9
:100F500006EA0502AA4276D1DFF8A8C14E68A6EBE0
:100F60000C0866452BD00DDC032E34D005DC36B3DF
:100F7000012E19D0022E2FD11BE0112E16D0122EC9
:100F80002AD119E0B8F5881F19D006DCB8F5803FE2
:100F900015D0B8F5801F1FD111E0B8F5001F0ED095
:100FA000B8F5041F18D10AE0CB6815E0CB681B1D0B
:100FB00012E0CB6808330FE0CB680C330CE08B6891
:100FC0002BB1012B4FF0080303D0456104E004234B
:100FD00002E0056100E00023FF2A01D8064601E097
:100FE00000F104064FEA840501D9A5F12005D6F8E1
:100FF000008007FA05FC28EA0C0803FA05F548EA20
:101000000508C6F800804D68ED0070D53E4DAE690C
:1010100046F00106AE61AD6924F0030605F0010556
:1010200000953A4D06EB050CDCF80850A607360F84
:1010300007FA06F825EA0805DFF8D480404503D111
:101040004FF0000825E052E0DFF8C880404502D1AB
:101050004FF001081DE0DFF8C080404502D14FF09D
:10106000020816E0DFF8B480404502D14FF00308D3
:101070000FE0DFF8AC80404502D14FF0040808E0F3
:10108000DFF8A080404502D14FF0050801E04FF0A5
:10109000060808FA06F848EA0508CCF808804D6802
:1010A000D9F80060ED024D4601D5164300E09643A5
:1010B0002E604D68DAF80060AD02554601D5164342
:1010C00000E096432E604D68DBF80060AD035D469E
:1010D00001D5164300E096432E604D68DEF80060AF
:1010E000ED03754601D5164300E096432E60641C5F
:1010F0000A681646E2407FF429AFBDE8F88F000089
:1011000008040140000011100010024000000140DE
:1011100000080140000C0140001001400014014093
:1011200000180140001C0140C26821EA02030A4085
:1011300043EA0241016170470AB101617047090445
:10114000FBE70000014880687047000010000020A5
:1011500002488168027811448160704710000020C5
:10116000074810B5016841F010010160032000F04C
:10117000A7F80F2000F006F800F050F8002010BD8E
:101180000020024030B505461F4887B0C16941F0D4
:101190001001C161C06906A900F01000009001A80B
:1011A00000F0ACF90498B0B100F0C8F9400017495C
:1011B000174AB0FBF1F11748491E0260416040F246
:1011C000E7320021C0E903218160816100F08EFBDC
:1011D000040003D015E000F0B1F9E8E70D4800F095
:1011E000B3FB04000DD1362000F03CF8102D07D2DF
:1011F00000222946362000F043F80748056000E049
:10120000012407B0204630BD0010024040420F00CC
:101210000010004000020020140000200F4808B514
:10122000816941F001018161816901F00101009151
:10123000C16941F08051C161C069002200F0805055
:1012400000900F21901E00F01BF80548416821F026
:10125000E06141F00071416008BD000000100240F3
:1012600000000140002809DB00F01F02012191402D
:101270004009800000F1E020C0F800117047000034
:10128000F0B40E4B1B680C46C3F30223C3F10705F1
:10129000042D00D90425191D072901D2002300E0DF
:1012A000DB1E012606FA05F1491E214099409E40A9
:1012B000761E16403143F0BC00F079BF0CED00E023
:1012C000064900F0070208684FF6FF03184040EA9D
:1012D0000220034A10430860704700000CED00E054
:1012E0000000FA052DE9F84305460078354CC007A3
:1012F00054D0E0690026C00008D4E06940F0805076
:10130000E061E069012600F0805000902E480168FD
:10131000C90512D40168804641F480710160FFF76D
:1013200011FF074605E000BFFFF70CFFC01B642854
:1013300023D8D8F80000C005F6D5206A10F4407014
:1013400021D0A98801F4407181421CD0206A1F4934
:10135000012220F440700A6000220A602062C00767
:1013600011D0FFF7EFFE074641F2883808E000BFD2
:10137000FFF7E8FEC11B414502D90320BDE8F88311
:10138000206A8007F4D5206A696820F44070084319
:1013900020621EB1E06920F08050E061287880076B
:1013A00005D56068A96820F440400843606028784B
:1013B000C00605D56068696920F480000843606054
:1013C0000020DBE700100240007000404004424271
:1013D0002DE9F0470F46050061D0434E306800F01C
:1013E0000700B84209D2306820F007003843306067
:1013F000306800F00700B84251D128683B4C8107A3
:1014000012D5400703D5606840F4E060606028783A
:10141000000703D5606840F4605060606068A968A8
:1014200020F0F000084360602878C00728D0686882
:10143000012810D02168022810D0890700292EDA4F
:10144000616821F0030101436160FFF77BFE804684
:1014500041F288390DE021688903EFE78901EDE762
:10146000FFF770FEA0EB0801494502D90320BDE853
:10147000F0876068696800F00C00B0EB810FEFD175
:10148000306800F00700B8420BD9306820F0070040
:1014900038433060306800F00700B84201D00120C6
:1014A000E5E72878400705D56068E96820F4E06042
:1014B000084360602878000706D56068296920F431
:1014C000605040EAC100606000F058F86168084A66
:1014D000C1F30311515CC840064908600648006822
:1014E000FFF750FE0020C2E700200240001002403B
:1014F000764100081C000020140000200F2202602A
:101500000C4A536803F003034360536803F0F0038D
:101510008360536803F4E063C36052684FF4E06390
:1015200003EAD20202610448006800F00700086084
:1015300070470000001002400020024004480549A6
:1015400000684968044AC1F30221515CC8407047F1
:101550001C00002000100240864100080448054994
:1015600000684968044AC1F3C221515CC840704711
:101570001C00002000100240864100080E4A5168FD
:101580000E4801F00C03042B11D0082B0FD10C488E
:10159000C1F38343C903C05C0AD55168084AC1F34B
:1015A0004041921E515C054A5043B0FBF1F0704738
:1015B00004494843704700000010024000127A00BE
:1015C0006641000800093D002DE9F84F040070D085
:1015D0002078C04DC00749D06868C0F38100012859
:1015E00007D06868C0F38100022809D16868C00389
:1015F00006D52868800339D560680028E7D035E033
:101600006068B0F5803F0BD010B1B0F5A02F11D0BD
:10161000286820F480302860286820F4802002E0C8
:10162000286840F480302860606890B1FFF78AFD38
:1016300006460AE0286840F480202860F0E700BFF2
:10164000FFF780FD801B642873D828688003F7D5D6
:101650000CE0FFF777FD064605E000BFFFF772FDDF
:10166000801B6428F0D828688003F7D420789A4E2D
:1016700080074FF001094FF0000839D5686810F075
:101680000C0F07D06868C0F38100022809D1686890
:10169000C00306D42868800714D52069012808D122
:1016A00010E02069B0B1C6F80090FFF74BFD074687
:1016B00005E00AE1FFF746FDC01B0228C4D82868F0
:1016C0008007F7D52868616920F0F80040EAC1007A
:1016D00028600DE0C6F80080FFF734FD074604E0FF
:1016E000FFF730FDC01B022823D828688007F7D4F5
:1016F000207800072CD57948A169D9B1C0F80090AD
:10170000FFF720FD074604E0FFF71CFDC01B022881
:101710000FD8686A8007F7D571484FF4FA5100680E
:10172000B0FBF1F0009000BF0098411E0091FAD28A
:101730000EE080E0C0F80080FFF704FD074604E0FB
:10174000FFF700FDC01B022875D8686A8007F7D430
:101750002078400760D5E8690027C00008D4E86910
:1017600040F08050E861E869012700F08050009067
:101770005C480168C90513D40168834641F480714F
:101780000160FFF7DFFC824606E000BFFFF7DAFCEE
:10179000A0EB0A0064284ED8DBF80000C005F5D5A0
:1017A000E06801280AD008B1052813D0286A20F083
:1017B00001002862286A20F0040002E0286A40F054
:1017C00001002862E06841F2883B98B1FFF7BAFC5B
:1017D00082460BE0286A40F004002862EEE700BF72
:1017E000FFF7B0FCA0EB0A0159455AD8286A8007D8
:1017F000F6D50CE0FFF7A6FC824605E0FFF7A2FC59
:10180000A0EB0A0159454CD8286A8007F6D41FB1CD
:10181000E86920F08050E861E06988B36968C1F345
:101820008101022944D00228C6F8608004D0FFF765
:1018300089FC044638E034E0FFF784FC074604E006
:10184000FFF780FCC01B02282BD828688001F7D442
:10185000206AB0F5803F05D16868A16820F40030A7
:1018600008436860D4E908010843696821F47411E9
:1018700008436860C6F86090FFF764FC044606E021
:1018800025E000BFFFF75EFC001B022809D828688E
:101890008001F7D51BE000BFFFF754FC001B0228B6
:1018A00002D90320BDE8F88F28688001F4D40EE047
:1018B0000128F7D06868226A00F48031914204D18F
:1018C000616A00F47010884201D00120EAE700202C
:1018D000E8E700000010024000004242800442425B
:1018E0001C000020007000407047704710B50400D5
:1018F00003D094F83D0010B107E0012010BD002096
:1019000084F83C00204600F01EF8022084F83D00D8
:10191000211D206800F06CFB012084F8460084F84B
:101920003E0084F83F0084F8400084F8410084F8C9
:10193000420084F8430084F8440084F8450084F8A9
:101940003D00002010BD704790F83D10012901D0E6
:1019500001207047022180F83D100168CA6842F0FA
:101960000102CA6000680E4988420ED00D498842C3
:101970000BD0B0F1804F08D00B49884205D00B49FD
:10198000884202D00A49884204D1816801F00701E7
:10199000062903D0016841F0010101600020704771
:1019A000002C0140003401400004004000080040C9
:1019B000000C0040704770B50446006801694FF0A4
:1019C0000005C943890715D4C168C943890711D4E3
:1019D000E91E016101202077206880698007204688
:1019E00002D0FFF7E7FF04E000F098F8204600F08F
:1019F00096F8257720680169C943490717D4C1685B
:101A0000C943490713D46FF0040101610220207714
:101A10002068806910F4407F204602D0FFF7CAFF9B
:101A200004E000F07BF8204600F079F82577206884
:101A30000169C943090716D4C168C943090712D40B
:101A40006FF008010161042020772068C0698007D9
:101A5000204602D0FFF7AEFF04E000F05FF820461A
:101A600000F05DF8257720680169C943C90617D4DD
:101A7000C168C943C90613D46FF010010161082081
:101A800020772068C06910F4407F204602D0FFF71D
:101A900091FF04E000F042F8204600F040F825777E
:101AA00020680169C943C90708D1C168C943C9078A
:101AB00004D1891E0161204600F032F820680169D6
:101AC000C943090609D4C168C943090605D46FF0A2
:101AD000800101612046FFF707FF20680169C943C3
:101AE000490609D4C168C943490605D46FF04001CD
:101AF0000161204600F01EF820680169C94389068B
:101B00000BD4C168C943890607D46FF02001016175
:101B10002046BDE87040FFF7E8BE70BD70477047D3
:101B200000680349884201D1FFF712BB70470000EB
:101B300000100040704770B5040004D094F84100D4
:101B4000002510B106E0012070BD84F84050204609
:101B500000F024F8242084F841002068C16821F4B2
:101B60000051C160204600F089FA2068016921F423
:101B7000904101612068416921F02A01416120689A
:101B8000C16841F40051C1606564202084F84100BF
:101B900084F842006563002070BD000070B586B017
:101BA00000240094019402940394234E0368234973
:101BB00002200322224DB34219D18B6943F48043A2
:101BC0008B618B6903F4804304938B6943F00403B6
:101BD0008B618969039201F0040104910102CDE94E
:101BE000001069462846FFF7A3F928151BE0154E9B
:101BF000B3421FD1CB6943F40033CB61CB6903F40B
:101C0000003304938B6943F004038B618969039269
:101C100001F0040104910421CDE900106946284631
:101C2000FFF786F90820CDE90004694628460294AA
:101C3000FFF77EF906B070BD003801400010024089
:101C400000080140004400402DE9F843044690F8A4
:101C500041001F4616460D46202802D00220BDE84E
:101C6000F8837DB176B100206064212084F84100C2
:101C7000FFF768FAA6848046E684A068B0F5805F26
:101C800002D003E00120EAE7206910B12E460025CA
:101C90000EE000260CE08021204600F04BFAA0B9AF
:101CA000AEB116F8010B21684860E08C401EE0845C
:101CB000E08C43464FF0000200970028EBD14FF034
:101CC0004001204600F036FA30B10320C7E735F86E
:101CD000020BC0F30800E6E7202084F84100002052
:101CE000BDE7FEE73EB500211148009101910F4A82
:101CF0000291026001248160047301754FF4602237
:101D00000461C2614160FEF71BFE08B1FEF794FD5D
:101D10000E20CDE900040420029069460448FEF735
:101D20008DFD002801D0FEF787FD3EBD0024014057
:101D3000FC000020094808B5416941F001014161FA
:101D40004069002200F00100009005210B20FFF700
:101D500097FABDE808400B20FFF784BA0010024054
:101D600010B50A4800F0EAFA094C084A0021A060C0
:101D7000483A084800F050FB044A2060243A002109
:101D8000054800F049FB606010BD000054410008A8
:101D900004000020ED1E0008311F00082DE9F04767
:101DA00086B0002430480094019402940394816921
:101DB00041F020018161816901F020010491816974
:101DC00041F004018161816901F00401049181699C
:101DD00041F010018161816901F010010491816974
:101DE00041F0080181618069DFF8808000F008001F
:101DF000049001224FF410714046FFF79DF9002234
:101E00004FF4C0714046FFF797F90122DFF8609068
:101E1000170239464846FFF78FF9DFF858A000222D
:101E200008215046FFF788F94FF47070012503260A
:101E3000CDE90005CDE9024669464046FFF778F84E
:101E400000970396CDE9015469464846FFF770F8BC
:101E50000820CDE90005CDE9024669465046FFF766
:101E600067F806B0BDE8F08700100240001001409E
:101E700000080140000C01400C4810B50A490160FF
:101E80004FF4E1314160002181600C22C160C0E962
:101E900004128161C161FFF74EFE002803D0BDE846
:101EA0001040FEF7C9BC10BD003801407001002091
:101EB0000C4810B50A4901604FF4E131416000213E
:101EC00081600C22C160C0E904128161C161FFF729
:101ED00032FE002803D0BDE81040FEF7ADBC10BDB7
:101EE00000440040B8010020FEE7FEE70C4E0D4C18
:101EF0004FF480754FF0FF3729463046FFF714F94D
:101F00003946A06800F0E4F9052107A001F064FA61
:101F1000A06800F053FA642000F084F9ECE70000B8
:101F2000000801400400002068656C6C6F00000030
:101F300001F0A2F9002001F04FF8F9E710B55020A8
:101F400080F31188BFF34F8FBFF36F8F01F000FF55
:101F500018B104494FF080500860002080F31188C8
:101F600010BD000004ED00E030B595B028216846B2
:101F7000FEF773FA14210AA8FEF76FFA18210FA8CA
:101F8000FEF76BFA01210804CDE900100025029547
:101F900002240491CDE907404FF4E010099068460F
:101FA000FFF712FB08B172B6FEE70AA90F2081E81D
:101FB00031004FF48060CDE90D0502210AA8FFF73A
:101FC00007FA08B172B6FEE74FF4004011900F9483
:101FD0000FA8FFF787F9002801D072B6FEE715B009
:101FE00030BD70470148FFF7E6BC0000000200204A
:101FF000F0B502681C4B1D4D1D4E1E4F1E4C4FF080
:10200000804C984209D0A04207D0604505D0A84234
:1020100003D0B04201D0B84204D122F0700E4A6819
:1020200042EA0E02984209D0A04207D0604505D08E
:10203000A84203D0B04201D0B84203D122F4407587
:10204000CA682A434D6922F080022A4302608A68E6
:10205000C2620A688262984201D0A04201D1096935
:10206000016301214161F0BD002C014000040040EA
:1020700000080040000C00400034014070B50446E8
:1020800000680169E26821F440511143016121694E
:10209000A0680843616908432168CA6841F20C637B
:1020A0009A430243CA6020684169A26921F44071E1
:1020B000114341611E492068884202D1FFF74EFA60
:1020C00001E0FFF73BFA00EBC00101EB0012606892
:1020D00064218000B2FBF0F3B3FBF1F36FF018065C
:1020E0007343B2FBF0F5B2FBF0F605EB8305322348
:1020F00003EB0515B5FBF1F5B6FBF1F605F0F005C0
:1021000005EB0615B2FBF0F6B2FBF0F0B0FBF1F018
:102110006FF01802504306EB800003EB0010B0FB99
:10212000F1F0216800F00F002844886070BD0000C5
:10213000003801402DE9F041984617460E46044606
:10214000069D27E0681C25D02DB1FEF7FBFFA0EB14
:102150000800A8421ED920680C3050E8001F21F466
:10216000D07140E80012002AF5D12068143050E800
:10217000001F21F0010140E80012002AF5D12020C3
:1021800084F8410084F84200002084F840000320D5
:10219000BDE8F0812068006836EA000004D0002025
:1021A000B842CFD00020F3E70120F9E7FEE70907A6
:1021B000090E002804DB00F1E02080F800147047CD
:1021C00000F00F0000F1E02080F8141D704700219E
:1021D0004FF47A7304E00222521C9A42FCD3491C49
:1021E0008142F8D370470000FEF7BAFFFFF7BCFE4C
:1021F000FFF7D4FDFFF79EFDFFF73EFEFFF772FDF0
:10220000FFF756FE012205490548FEF771FC00F074
:1022100023F8FFF7A5FD00F03BF8FEE700000020E3
:10222000FC00002010B5EFF3058149B9EFF31081F0
:1022300031B908490968022905D1EFF3118111B1BB
:102240006FF0050403E0002408B100F09FFE204673
:1022500010BD000070000020EFF3058058B9EFF3C7
:10226000108040B909490868022801D030B109E05E
:10227000EFF3118030B16FF0050070470120086066
:10228000002070474FF0FF307047000070000020C2
:1022900010B5EFF3058060B9EFF3108048B90B4932
:1022A0000868022802D0012806D00BE0EFF3118065
:1022B00040B16FF0050010BD0220086000F05EFF25
:1022C000002010BD4FF0FF3010BD00007000002056
:1022D0002DE9F0410D46014621F0010001F0010118
:1022E0004FF00004EFF305824AB9EFF3108232B9E0
:1022F000114A1268022A05D1EFF3118212B16FF070
:10230000050416E048B100296FF001066FF00207DE
:10231000294608D001F050FC07E06FF0030408E004
:1023200035B1344605E001F08BFB0128F8D100E01F
:102330003C462046BDE8F0817000002070B505469F
:102340004FF00004EFF30580A0BBEFF3108088BBD3
:1023500019480068022802D1EFF3118050BB0DB17B
:10236000686800E00020C10701D0012600E00026D7
:1023700000071FD46DB1D5E9021021B1502819D33F
:102380001EB1042002E020B114E0012001F0E5F8C4
:1023900005E00EB1042000E0012001F0D3F80400B4
:1023A00008D00DB1296800E0002100F0B9FD0EB1A0
:1023B00044F00104204670BD7000002070B5014655
:1023C00021F0010001F001014FF00004EFF305825C
:1023D0004AB9EFF3108232B90E4A1268022A05D1C7
:1023E000EFF3118212B16FF0050411E028B16FF024
:1023F000020529B101F068FA07E06FF0030407E075
:1024000000231A46194601F051F9012800D02C4644
:10241000204670BD70000020F0B585B04FEA010382
:102420004FF00004EFF305810394A1BBEFF310819B
:1024300089BB21490968022902D1EFF3118151BBFF
:1024400048B3802618218DF8104004AD42B31768B8
:1024500007B13D4697691FB139467F1E382F02D21A
:102460001779FF0702D0002005B0F0BD576907B10A
:10247000BE08D2F808C0BCF1000F0DD0D4685C2CA7
:1024800018D312693AB137B18DE8061032462946A1
:1024900001F019FC03900DE0D7685FB912694AB9E1
:1024A00003AACDE90012B2B2294601F0DFFB0128F0
:1024B00000D003940398D7E7700000202DE9F04185
:1024C000134C0F46054666692068001D00F02EFC7F
:1024D000681C07D137B12168BDE8F0410D48091DDE
:1024E00000F074BC20683544B5424560216805D2CF
:1024F000A068BDE8F041091D00F050BC6068091DEE
:1025000000F04CFC206B854200D22563BDE8F081D1
:1025100020000020380700202DE9F041054600F09A
:1025200061FC2D4C2069401C206120682B4F10B1AC
:10253000E06930B32BE025602069012827D100260F
:1025400006EB860007EB800000F01AFC761C382EA4
:10255000F6D3234800F014FC2148143000F010FC9E
:102560001F48283000F00CFC1D483C3000F008FCEF
:102570001B48503000F004FC194860601430A06023
:1025800005E02068E96AC06A884200D82560E06AF0
:10259000401CE0626864E86AA169884200D9A061D1
:1025A00000EB800007EB8000291D00F00FFC00F01D
:1025B00039FCE06900280CD02068E96AC06A8842CA
:1025C00007D208494FF080500860BFF34F8FBFF328
:1025D0006F8FBDE8F08100002000002088020020FD
:1025E000E806002004ED00E038B500F0FBFB104CDD
:1025F000A068C8B90F4800F0C3FB0E48143000F0C3
:10260000BFFB0C482060143060600A4B0020283368
:10261000009003F1500210210A2000F0CFFFA060CB
:1026200010B105A100F07CFCBDE8384000F0FABB19
:102630005C0000204C070020546D72510000000027
:1026400030B4026C0B46002A0BD0C1681144C16043
:102650004468A14201D30168C16030BC1846FDF74F
:10266000AFBE30BC70472DE9F041856B174604467C
:102670000026026C82B1C7B1E068FDF7A1FEE168F7
:10268000206C091AE1602268914202D26168081A3E
:10269000E060022F16D017E02068A8B9606801F04A
:1026A000BBFB0646002060600EE0A068FDF788FED8
:1026B000216CA0680844A0606168884204D3206847
:1026C000A06001E005B16D1E6D1CA5633046BDE83C
:1026D000F08110B5044690F8590058B101280CD08B
:1026E00002280FD0502080F31188BFF34F8FBFF323
:1026F0006F8FFEE7206B00F0A9FB2046BDE810407D
:1027000000F0A4BB10BD000010484FF44061420728
:1027100006D0C01D0D4920F00700411AC1F54061E7
:102720000B4A00230144C2E900030839103A21F0A2
:10273000070111604B600B600B1AC0E90013936036
:102740004FF000405360D060704700001C0F002025
:1027500084000020144E154CA6F29C474FF0805880
:10276000DFF84C9012E000BF00F03CFBF068C56859
:10277000281D00F0DBFA2069401E2061E068401E41
:10278000E06000F04FFB2846FFF7A3FFE068002859
:10279000EAD138680128F9D9C9F80080BFF34F8F12
:1027A000BFF36F8FF2E70000240700202000002015
:1027B00004ED00E0002807D00021416001600B46D5
:1027C0000A46C16000F072BF7047000070B51D4638
:1027D000049C51B1C4F80020C4E90F010121204636
:1027E00000F020FF84F84C5070BD2460F4E72DE920
:1027F000F0470E46DDE90984174682469100994666
:10280000089DA522206BFDF720FE6FF00301206BD1
:1028100001EB8701084420F00707780707D0502014
:1028200080F31188BFF34F8FBFF36F8FFEE722183D
:10283000315C82F83410315C11B1401C1028F6D3A1
:10284000002684F84360382D00D33725E562C4E9BB
:102850001356201D00F09FFA04F1180000F09BFAB7
:102860002461C5F138006462A061666584F858602F
:102870004A465146384600F047FA2060B8F1000F4A
:1028800001D0C8F80040BDE8F087000030B511491C
:1028900000E011460A688242FBD34B685C18844210
:1028A00003D1406818444860084643681C189442A5
:1028B00009D1084C103C2468A24209D052681A443D
:1028C00042600A6812680260814200D0086030BD30
:1028D0000460F9E78400002070B5002441600B4DCE
:1028E0000061914206D8D11A8269914206D2011D37
:1028F000686807E09A4203D2994201D3012403E0B9
:10290000011D286800F04AFA204670BD5C000020D6
:1029100010B5044600F066FAA06B28B15FF0000421
:1029200000F080FA204610BD0124F9E730B589B0E7
:10293000304D55E00498002806DADDE90601059AD5
:102940009047049800284BDB069C606910B1201D5D
:1029500000F0ECF902A800F0B9F8024604980A2841
:102960003ED2DFE800F00505053D263705053D268A
:102970000598A169034601442046FFF7ADFF00B367
:10298000616A20468847E069012829D1002000902B
:102990000598A169002342181946204601F082FBE0
:1029A00078B9502080F31188BFF34F8FBFF36F8F3A
:1029B000FEE70598A06128B1811813462046FFF76D
:1029C0008BFF0DE0502080F31188BFF34F8FBFF3D2
:1029D0006F8FFEE794F82C0010B9204600F036FA0D
:1029E000002204A9A86800F08FFF0028A2D109B036
:1029F00030BD00005C0000202DE9FC410F4605467B
:102A000000F000FC01A800F061F80446019818B13C
:102A100001F0B6FABDE8FC81224EAFB170680068E3
:102A2000A8B30027291B3A46B06800F08DFA01F0E0
:102A3000A7FA0028EED11C494FF080500860BFF380
:102A40004F8FBFF36F8FE5E7A542EBD801F098FAFF
:102A500030682746C068C468201D00F067F9E06947
:102A6000012810D1A0692B4641193A462046FFF7AC
:102A700033FF40B100200346014600902A4620461D
:102A800001F010FB20B1616A20468847C2E707E0E9
:102A9000502080F31188BFF34F8FBFF36F8FFEE795
:102AA0000127BFE75C00002004ED00E00648416814
:102AB000096829B14168C968C968496801637047F4
:102AC0004FF0FF31FAE700002000002070B5054606
:102AD00001F038F9064E04463069844203D200F012
:102AE00009F8012000E0002028602046346170BD14
:102AF0005C000020F8B5194D1FE0C068C468066886
:102B0000201D00F013F9616A20468847E06901281A
:102B100013D1A0693044B04206D924616060211D00
:102B2000286800F03BF908E00020034601460090C9
:102B30003246204601F0B6FA38B12868016800290B
:102B4000DBD16968C5E90010F8BD502080F3118819
:102B5000BFF34F8FBFF36F8FFEE700005C000020D4
:102B600008484068401C4FF0500080F3118804D0A2
:102B7000BFF34F8FBFF36F8FFEE7BFF34F8FBFF3EE
:102B80006F8FFEE78C000020074C2068016841B180
:102B9000C0680021D0F80000FFF72EFFFFF7C6FE47
:102BA000F3E701210020F7E75C0000202DE9F04168
:102BB000044600F017F994F9455004F1240609E0A1
:102BC000606A48B1304601F0A3F908B100F054FA48
:102BD0006D1E6DB2002DF3DC4FF0FF3684F84560BA
:102BE00000F020F900F0FEF894F9445004F11007C9
:102BF00009E0206948B1384601F08AF908B100F0CF
:102C00003BFA6D1E6DB2002DF3DC84F84460BDE824
:102C1000F04100F007B900002DE9F041054600271A
:102C200000F0F0FA314E306808B9FFF76DFDF0683A
:102C300005424BD1C5B3083568070ED005F0070033
:102C4000C0F108000544680707D0502080F31188C0
:102C5000BFF34F8FBFF36F8FFEE72DB370688542D0
:102C600034D82248103001460C6801E020460C465A
:102C70006168A94202D221680029F7D131688C42EB
:102C800024D007682168016060680837411B10295B
:102C90000FD96019420708D0502080F31188BFF384
:102CA0004F8FBFF36F8FFEE710E041606560FFF765
:102CB000EDFD61687068401A7060B268904200D2A1
:102CC000B060F06801430020C4E9000101F058F948
:102CD000780707D0502080F31188BFF34F8FBFF3E0
:102CE0006F8FFEE73846BDE8F081000074000020D9
:102CF0000449086818B10868026D521C026508682A
:102D0000704700002000002010B5031F4FF08074B2
:102D10001C601B1F21F001011960191F024B0B6081
:102D2000143940380A6010BD612B0008D0E9013227
:102D300001699A60D0E901235A604A68824201D150
:102D400082684A60002202610868401E08600868C4
:102D500070470000034B036003F15C0008608020B3
:102D60001060704764080020044B036003F15C00AE
:102D700008604FF48070106070470000C00A0020A7
:102D800000F108014FF0FF32C0E90112C16001619A
:102D900000210160704700210161704730B50B6868
:102DA0005A1C02D000F1080202E0026904E0224647
:102DB000546825689D42FAD953684B6099608A60CF
:102DC000516008610168491C016030BD42684A6079
:102DD00093688B6093685960916008610168491C31
:102DE00001607047502080F31188BFF34F8FBFF30D
:102DF0006F8F0A494868401C486001280CD1084878
:102E0000006810F0FF0F07D0502080F31188BFF347
:102E10004F8FBFF36F8FFEE7704700008C000020DC
:102E200004ED00E00849486828B1401E486001D11F
:102E300080F311887047502080F31188BFF34F8FC3
:102E4000BFF36F8FFEE700008C00002070B50028F4
:102E500027D0144DA0F108046168E868014207D149
:102E6000502080F31188BFF34F8FBFF36F8FFEE7C1
:102E700022683AB1502080F31188BFF34F8FBFF31F
:102E80006F8FFEE78143616000F0BCF9606869689C
:102E9000084468602046FFF7F9FCBDE8704001F087
:102EA0006FB870BD740000204FF0E0200021016178
:102EB000816105494FF47A720968B1FBF2F1491E4C
:102EC00041610721016170471C00002010B5FDF72A
:102ED000CDF9114910280ED300F1E02090F8F0034D
:102EE0000A78904207D2502080F31188BFF34F8FA9
:102EF000BFF36F8FFEE709480068896800F4E0605F
:102F0000884207D9502080F31188BFF34F8FBFF359
:102F10006F8FFEE710BD00008C0000200CED00E07C
:102F200010B5084B002200BF53F832401CB1521CB0
:102F3000082AF9D310BD43F8321003EBC2014860F0
:102F400010BD00004802002070B515460E4604462C
:102F5000FFF748FF94F944100020491C01D184F880
:102F6000440094F94510491C01D184F84500FFF74D
:102F700059FFA06B28B92A46314604F1240000F01D
:102F800099F82046BDE87040FFF710BE10B502006A
:102F900014D00F48806B38B1502080F31188BFF3F4
:102FA0004F8FBFF36F8FFEE700F02CF90021104622
:102FB000FFF784FA00F0E4FF002807D105494FF03D
:102FC00080500860BFF34F8FBFF36F8F10BD0000BC
:102FD0002000002004ED00E070B50546FFF702FF79
:102FE0001E4C05B92568281DFFF7A0FEA86A18B178
:102FF00005F11800FFF79AFEE06A401CE0622068C5
:10300000854207D1291D1648FFF7E0FEE068401C05
:10301000E06007E02069401E20612846FFF759FB69
:10302000FFF744FDFFF7FEFEE069002814D020689A
:10303000854211D1A06B38B1502080F31188BFF3C5
:103040004F8FBFF36F8FFEE706494FF08050086047
:10305000BFF34F8FBFF36F8F70BD000020000020C3
:103060002407002004ED00E002498A6A02604969F1
:1030700041607047200000200149012048627047EC
:103080002000002010B50C4650B1094909681831DC
:10309000FFF784FE2046BDE810400121FFF70EBA7D
:1030A000502080F31188BFF34F8FBFF36F8FFEE77F
:1030B0002000002070B514460D4668B10A49096821
:1030C0001831FFF783FE0CB14FF0FF35214628463B
:1030D000BDE87040FFF7F2B9502080F31188BFF3CC
:1030E0004F8FBFF36F8FFEE72000002070B5040004
:1030F0003ED0226DA2B1E06C884200D30146E06A66
:10310000884235D0012A33D11A4D2A6894420FD112
:10311000502080F31188BFF34F8FBFF36F8FFEE70E
:10312000502080F31188BFF34F8FBFF36F8FFEE7FE
:10313000E162A269002A02DBC1F13801A1610E4EF1
:1031400000EB8000616906EB8000814210D1201DF8
:10315000FFF7ECFDE06AA969884200D9A86100EB9D
:10316000800006EB8000211DBDE87040FFF72EBEF9
:1031700070BD0000200000208802002030B587B01C
:103180000024039405AA04A903A80494FFF7E2FD10
:10319000DDE903010094CDE90110002315A11748D2
:1031A000059A00F090FD164D002868631FD000F0CE
:1031B00049FF012809D0401C19D1502080F3118803
:1031C000BFF34F8FBFF36F8FFEE7502080F311885E
:1031D000BFF34F8FBFF36F8F4FF0FF302863012095
:1031E000E8616C6107B0BDE8304000F057B907B046
:1031F00030BD000049444C45000000005527000840
:10320000200000200248816B491C81637047000048
:1032100020000020164810B5816B11B101214162D8
:1032200010BD002141628169124A01E0B9B1491E15
:1032300001EB810352F82330002BF7D001EB81031F
:1032400002EB830202F1080453685B685360A342F7
:1032500001D15B685360DA680260816110BD502063
:1032600080F31188BFF34F8FBFF36F8FFEE700002D
:10327000200000208802002010B536A13948FDF753
:1032800019F882B24FF6FF74234636493648FEF7E6
:10329000DBFC6420FEF79BFF34A13248FDF70AF8FF
:1032A00082B223462F493048FEF7CEFC6420FEF759
:1032B0008EFF30A12B48FCF7FDFF82B2234629493F
:1032C0002948FEF7C1FC6420FEF781FF2CA12548A8
:1032D000FCF7F0FF82B2234622492348FEF7B4FCF4
:1032E0006420FEF774FF23A11E48FCF7E3FF82B2BF
:1032F00023461C491C48FEF7A7FC6420FEF767FF25
:1033000023A11848FCF7D6FF82B223461549164878
:10331000FEF79AFC6420FEF75AFF24A11148FCF73F
:10332000C9FF82B223460F490F48FEF78DFC642087
:10333000FEF74DFF20A10B48FCF7BCFF82B22346ED
:1033400008490948FEF780FCBDE810406420FEF7FC
:103350003EBF000041542B524553544F52450D0A75
:103360000000000098000020B801002041540D0A20
:103370000000000041542B5253540D0A000000007D
:1033800041542B43574D4F44453D330D0A00000037
:1033900041542B554152543D3131353230302C3867
:1033A0002C312C302C300D0A0000000041542B43EE
:1033B000574C41500D0A000041542B43574A41508D
:1033C0003D2247505454222C223132333435363783
:1033D00038393939220D0A002DE9F0410D460746EA
:1033E0001AA12548FCF766FF82B24FF6FF763346F6
:1033F00021492248FEF728FC2A4621A11E48FCF755
:1034000059FF82B233461C491C48FEF71DFC0024BC
:103410000DE000BF37F814201EA11748FCF74AFF43
:1034200082B2334614491548FEF70EFC641CAC42C8
:10343000F0DB19A11048FCF73DFF3346BDE8F04131
:1034400082B20D490D48FEF7FFBB000041542B43EB
:10345000495053544152543D22544350222C22315E
:1034600039322E3136382E3133372E31222C203856
:103470003038300D0A00000098000020B80100200C
:1034800041542B43495053454E443D302C25640D47
:103490000A000000257500000D0A00001CB5264931
:1034A00008780190FF20087008788DF800009DF8DA
:1034B00000009DF8002000F0F000904207D050205E
:1034C00080F31188BFF34F8FBFF36F8FFEE79DF836
:1034D00000001A4B00F0500018700720986005E0BB
:1034E0009DF8002052008DF80020401E9DF800201D
:1034F0001206F5D49860032807D0502080F3118875
:10350000BFF34F8FBFF36F8FFEE74FF440709860AB
:10351000019808700A48016841F47001016001686F
:1035200041F070410160FFF7BFFC00205860FCF7DC
:1035300067FE00201CBD000000E400E08C000020BD
:1035400020ED00E010B502460021012000F012F845
:103550000446FFF72FF9204610BD38B50B46002270
:1035600000901146012000F029F80446FFF722F9E7
:10357000204638BDF8B517460E46050014D0DEB11A
:1035800005FB06F05030FFF747FB04000AD000208F
:1035900084F8460004F150023B4631462846009428
:1035A000FFF714F92046F8BD502080F31188BFF3CF
:1035B0004F8FBFF36F8FFEE70020E3E738B5049D20
:1035C00018B153B1CAB181B120E0502080F3118805
:1035D000BFF34F8FBFF36F8FFEE7502080F311884A
:1035E000BFF34F8FBFF36F8FFEE7502080F311883A
:1035F000BFF34F8FBFF36F8FFEE739B1502080F3D9
:103600001188BFF34F8FBFF36F8FFEE750241C4626
:10361000012384F846302B460094FFF7D7F8204664
:1036200038BD000070B50D46040025D0FFF7DAFB69
:10363000D4E90F20216802FB001161600021A16321
:103640002168A1600A46D4E90F01401E00FB012158
:10365000E16021464FF0FF3001F8440F487004F15B
:1036600010008DB1FFF78CFB04F12400FFF788FBFD
:10367000FFF7D8FB012070BD502080F31188BFF305
:103680004F8FBFF36F8FFEE721690029F0D000F064
:103690003FFC0028ECD004494FF080500860BFF395
:1036A0004F8FBFF36F8FE3E704ED00E02DE9FF4795
:1036B00082B01D468A464FF00008040003D0BAF1DC
:1036C000000F08D011E0502080F31188BFF34F8F16
:1036D000BFF36F8FFEE7206C38B1502080F3118864
:1036E000BFF34F8FBFF36F8FFEE7022D0AD1E06B60
:1036F000012807D0502080F31188BFF34F8FBFF30C
:103700006F8FFEE700F010FB3F4F4FF000094FF0C6
:10371000805648B9049838B1502080F31188BFF31F
:103720004F8FBFF36F8FFEE7FFF75CFBA06BE16B82
:10373000884207D3022D05D00498D0B1B8F1000F0C
:103740001AD01EE02A4651462046FEF78CFF616AD9
:1037500019B104F1240000F0DBFB20B13E60BFF39F
:103760004F8FBFF36F8FFFF75DFB012006B0BDE801
:10377000F087FFF757FB22E06846FFF775FC4FF034
:103780000108FFF74FFBFFF73DFDFFF72BFB94F917
:103790004400401C01D184F8449094F94500401C39
:1037A00001D184F84590FFF73DFB04A9684600F07D
:1037B00023FA30B12046FFF7F9F900F0E1FB0020D1
:1037C000D4E7FFF70FFBA06BE16B884213D1FFF743
:1037D00029FB04F110000499FFF754FC2046FFF781
:1037E000E5F900F0CDFB00289ED13E60BFF34F8F7E
:1037F000BFF36F8F98E7FFF715FB2046FFF7D6F969
:1038000000F0BEFB90E7000004ED00E02DE9F0477A
:103810001F4690468946040003D0B9F1000F08D036
:1038200011E0502080F31188BFF34F8FBFF36F8FEB
:10383000FEE7206C38B1502080F31188BFF34F8F22
:10384000BFF36F8FFEE7022F0AD1E06B012807D08C
:10385000502080F31188BFF34F8FBFF36F8FFEE7C7
:10386000FFF734FB5020EFF3118680F31188BFF38C
:103870004F8FBFF36F8FA06BE16B884206D3022F8F
:1038800004D0002086F31188BDE8F08794F94550F4
:103890003A4649462046FEF7E6FE681C04D06D1CF9
:1038A00084F845500120EDE7606A0028FAD004F161
:1038B000240000F02DFB0028F4D0B8F1000FF1D067
:1038C0000121C8F80010EDE710B5040009D000F0A0
:1038D00025FA6168884214D1E068401EE06008D093
:1038E0000DE0502080F31188BFF34F8FBFF36F8F2F
:1038F000FEE700231A4619462046FFF7D7FE0120AF
:1039000010BD002010BD00002DE9F747002683B050
:103910008A46040003D0BAF1000F08D011E050200D
:1039200080F31188BFF34F8FBFF36F8FFEE7206CDA
:1039300038B1502080F31188BFF34F8FBFF36F8FE2
:10394000FEE700F0F1F9DFF8F4804FF000094FF0E6
:10395000805748B9059838B1502080F31188BFF3DB
:103960004F8FBFF36F8FFEE7FFF73CFAA56BC5B132
:1039700051462046FEF764FE6D1EA563206950B1D6
:1039800004F1100000F0C4FA28B1C8F80070BFF3C9
:103990004F8FBFF36F8FFFF745FA012006B0BDE8E8
:1039A000F087059808B11EB106E0FFF73BFA27E063
:1039B0006846FFF759FB0126FFF734FAFFF722FCB0
:1039C000FFF710FA94F94400401C01D184F84490A8
:1039D00094F94500401C01D184F84590FFF722FA84
:1039E00005A9684600F008F9002820460AD0FFF72C
:1039F000DDF800F0C5FA2046FEF78AFF0028B3D0B4
:103A00000020CBE7FEF784FF90B104F12400059974
:103A1000FFF738FB2046FFF7C9F800F0B1FA00289D
:103A2000A2D1C8F80070BFF34F8FBFF36F8F9BE731
:103A30002046FFF7BBF800F0A3FA95E704ED00E09D
:103A40002DE9F343002683B00400354609D0206CED
:103A500078B1502080F31188BFF34F8FBFF36F8F81
:103A6000FEE7502080F31188BFF34F8FBFF36F8FB5
:103A7000FEE700F059F9DFF83C814FF000094FF004
:103A8000805748B9049838B1502080F31188BFF3AB
:103A90004F8FBFF36F8FFEE7FFF7A4F9A06BC8B19C
:103AA000401EA063206810B9FFF722F9606020690A
:103AB00050B104F1100000F02BFA28B1C8F80070E2
:103AC000BFF34F8FBFF36F8FFFF7ACF9012005B045
:103AD000BDE8F083049808B166B10FE03DB1502015
:103AE00080F31188BFF34F8FBFF36F8FFEE7FFF7AF
:103AF00099F95DE06846FFF7B7FA0126FFF792F9FA
:103B0000FFF780FBFFF76EF994F94400401C01D1E8
:103B100084F8449094F94500401C01D184F8459004
:103B2000FFF780F904A9684600F066F800282046EF
:103B300012D0FFF73BF800F023FA2046FEF7E8FE2C
:103B40000028A9D09DB3FFF74DF9606A50B3206BF0
:103B50000068C0F1380126E0FEF7DAFEE0B1206827
:103B600038B9FFF73FF9606800F096F90546FFF7AE
:103B700059F904F124000499FFF784FA2046FFF76D
:103B800015F800F0FDF9002886D1C8F80070BFF3E1
:103B90004F8FBFF36F8F7FE72046FFF707F800F0E6
:103BA000EFF979E700216068FFF7A0FA9FE7FFE7E8
:103BB00000208CE704ED00E070B50D46040009D04C
:103BC00000F0ACF8616888420CD1E068401CE0600D
:103BD000012070BD502080F31188BFF34F8FBFF3D9
:103BE0006F8FFEE729462046FFF72AFF0028F0D016
:103BF000E168491CE16070BD2DE9F0410C4605000B
:103C000011D0C4B1FFF7EEF8174B5A696E682068FF
:103C1000911B471C17D02F689B6A9F4219D0964270
:103C200017D8012410E0502080F31188BFF34F8F84
:103C3000BFF36F8FFEE7502080F31188BFF34F8FE3
:103C4000BFF36F8FFEE70024FFF7ECF82046BDE8D6
:103C5000F081884205D9401A20602846FFF704FA0F
:103C6000F1E700202060DCE7200000202DE9FF5F65
:103C70008346DDE90E87994616468A469000FEF790
:103C8000CBFF05001CD05C20FEF7C6FF040014D05B
:103C90000020256384F85900CDE90240CDE9008772
:103CA0004B46324651465846FEF7A1FD2046FEF7E8
:103CB00033FC012004B0BDE8F09F2846FFF7C6F8AA
:103CC0004FF0FF30F6E7F0B585B0DDE90B640A9DF3
:103CD000A6B1DCB15C2700972663022684F8596000
:103CE000002604AFCDE90246CDE90057FEF77FFD7F
:103CF0002046FEF711FC049805B0F0BD502080F37B
:103D00001188BFF34F8FBFF36F8FFEE7502080F312
:103D10001188BFF34F8FBFF36F8FFEE70148006834
:103D200070470000200000200548C16919B1806B70
:103D300018B1002070470120704702207047000032
:103D4000200000200148406970470000200000204A
:103D50002DE9F0412E4C0027A06B40B1206A401C99
:103D60002062606A00B101273846BDE8F0816669CB
:103D7000761C666113D16068006838B1502080F30A
:103D80001188BFF34F8FBFF36F8FFEE76068A168A4
:103D90006160A060A06A401CA062FEF787FE206BF5
:103DA000DFF87080864209D36068006880B160687F
:103DB000C068C568686886420DD220632068C06A02
:103DC00000EB800158F821000128CAD90127C8E773
:103DD0004FF0FF30F1E7281DFEF7A8FFA86A18B1E1
:103DE00005F11800FEF7A2FFE86AA169884200D930
:103DF000A06100EB800108EB8100291DFEF7E6FFC2
:103E0000E86A2168C96A8842CED30127CCE700005E
:103E1000200000208802002070B504004FF000014F
:103E200033D01B4D2868844207D0502080F311887E
:103E3000BFF34F8FBFF36F8FFEE7206D38B1401E89
:103E40002065E36CE26A9A421FD040B11DE0502029
:103E500080F31188BFF34F8FBFF36F8FFEE7201DF4
:103E6000FEF764FFE06CE062C0F13800A061E06A38
:103E7000A969884200D9A861064900EB800001EBDE
:103E80008000211DFEF7A2FF0121084670BD000041
:103E9000200000208802002070B504004FF00000D0
:103EA0002BD0194DE16A2A68D26A914226D2A069C4
:103EB000002804DB2868C06AC0F13800A061134EF6
:103EC00001EB8101606906EB8101884211D1201D5F
:103ED000FEF72CFF2868C06AE062A969884200D911
:103EE000A86100EB800006EB8000211DFEF76EFF4D
:103EF00002E02868C06AE062012070BDE16C2A68B7
:103F0000D26A9142F8D370BD2000002088020020C0
:103F100070B5C068C46854B104F118000646FEF7D5
:103F200005FF144DA86B50B13146134815E05020E1
:103F300080F31188BFF34F8FBFF36F8FFEE7201D13
:103F4000FEF7F4FEE06AA969884200D9A8610B492E
:103F500000EB800001EB8000211DFEF737FFE06AD7
:103F60002968C96A884202D90120686270BD0020B0
:103F700070BD0000200000201007002088020020F3
:103F80002DE9F0472C4D00242746A86B38B1FEF7E9
:103F900029FFA86B401EA863A86B40B146E05020E3
:103FA00080F31188BFF34F8FBFF36F8FFEE729694E
:103FB000224E0120D1B3A6F5916980463068E0B168
:103FC000F068C46804F11800FEF7B0FE201DFEF78B
:103FD000ADFEE06AA969884200D9A86100EB8001C2
:103FE00009EB8100211DFEF7F1FEE06A2968C96A2C
:103FF0008842E3D3C5F82480E0E70CB1FEF756FD14
:104000002C6A4CB14FEA0806FFF7A2FE00B16E62BF
:10401000641EF9D100202862686A38B10849012776
:1040200038070860BFF34F8FBFF36F8FFEF7FAFEBC
:104030003846BDE8F087000020000020100700206F
:1040400004ED00E010B586B0FEF7CEFA114CA06882
:10405000B8B100200390049005AA04A903A8FEF7B4
:1040600083FEDDE9032102208DE8070000230AA179
:104070000B48059AFFF727FEE06010B106B001205B
:1040800010BD502080F31188BFF34F8FBFF36F8FA7
:10409000FEE700005C000020546D72205376630040
:1040A000892B00082DE9FF411E46134602000A9D98
:1040B0004FF0000016D0144CA768002F0FD0CDE9A8
:1040C00000130292062917DAFFF72EFE02284FF09E
:1040D00000030FD000226946A068FFF7E7FA04B09A
:1040E000BDE8F081502080F31188BFF34F8FBFF3FC
:1040F0006F8FFEE72A46EEE70023324669463846D0
:10410000FFF784FBEBE700005C0000209041000813
:10411000000000000000000000000000000000009F
:104120000002000018000000000000000000000075
:104130009C4100080000000000000000000000009A
:10414000000000000002000020000000000000004D
:1041500000000000A841000800000000000000006E
:1041600000000000010202030405060708090A0B0B
:104170000C0D0E0F101000000000000000000102E6
:104180000304060708090000000001020304000000
:104190006D795461736B3031000000006D795461AA
:1041A000736B3032000000004332434D7574657804
:1041B00000000000D441000800000020980000002A
:1041C0006C0100086C42000898000020E820000004
:1041D000880100080000000000000000000000004E
:1041E00000000000010000001000000000000000BE
:1041F0000024F400000000000000000000000000A7
:1042000000000000000000000000000000000000AE
:10421000000000000000000000000000000000009E
:10422000000000000000000000000000000000008E
:10423000000000000000000000000000000000007E
:10424000000000000000000000000000000000006E
:10425000000000000000000000000000000000005E
:0C42600000000000AAAAAAAA00000000AA
:0400000508000131BD
:00000001FF
