:020000040800F2
:10000000A0320020750200085F2A0008AD27000812
:100010005D2A00089D080008B532000800000000B5
:10002000000000000000000000000000DD010008EA
:100030005F0A00080000000021020008C92C000827
:100040008F0200088F0200088F0200088F0200084C
:100050008F0200088F0200088F0200088F0200083C
:100060008F0200088F0200088F020008290A00088A
:100070008F0200088F0200088F0200088F0200081C
:100080008F0200088F0200088F0200088F0200080C
:100090008F0200088F0200088F0200088F020008FC
:1000A0008F0200088F0200088F0200088F020008EC
:1000B0008F0200088F0200088F0200088F020008DC
:1000C0008F0200088F0200088F0200088F020008CC
:1000D0008F0200089D320008A93200088F02000834
:1000E0008F0200088F0200088F0200088F020008AC
:1000F0008F0200088F0200088F0200088F0200089C
:100100008F0200088F0200088F0200088F0200088B
:100110008F0200088F020008712D00088F0200086E
:100120008F0200088F0200088F0200088F0200086B
:1001300000F002F800F042F80AA090E8000C8244B7
:100140008344AAF10107DA4501D100F037F8AFF294
:10015000090EBAE80F0013F0010F18BFFB1A43F0A5
:1001600001031847485D0000685D0000103A24BF95
:1001700078C878C1FAD8520724BF30C830C144BF0C
:1001800004680C607047000000230024002500264E
:10019000103A28BF78C1FBD8520728BF30C148BFEA
:1001A0000B607047642900F0F980732900F03D82EC
:1001B000002070471FB51FBD10B510BD00F096FAA6
:1001C0001146FFF7F7FF03F0C9F900F0B4FA03B4E2
:1001D000FFF7F2FF03BC00F0B7FA0000224B1968EA
:1001E0000868B0E8F00F80F30988BFF36F8F4FF015
:1001F000000080F311884EF00D0E704700000000E3
:1002000006480068006880F3088862B661B6BFF3EC
:100210004F8FBFF36F8F00DF00BF00BF08ED00E01E
:10022000EFF30980BFF36F8F0F4B1A6820E9F00FCF
:10023000106008B54FF0500080F31188BFF34F8F66
:10024000BFF36F8F04F064FA4FF0000080F3118861
:10025000BDE8084019680868B0E8F00F80F3098825
:10026000BFF36F8F704700BF78000020EFF3058069
:10027000704700000948804709480047FEE7FEE74D
:10028000FEE7FEE7FEE7FEE7FEE7FEE7FEE7FEE746
:1002900004480549054A064B704700006F2D0008C9
:1002A00031010008A02C0020A0320020A02E002048
:1002B000A02E00200FB41CB5084B06AA7B4469464B
:1002C0000090059800F087F904460020694600F088
:1002D00095F920461CBC5DF814FB00003D030000AE
:1002E0002DE9F0410E460446002020622046E168D8
:1002F000884730B3252805D0D4E901219047206AEA
:10030000401CF2E7E168204600278847050018D026
:10031000A5F14100192802D820354FF40067324674
:10032000294620462760FFF73DFF40B1012804D051
:10033000F61D26F007060836D8E7361DD6E728460C
:10034000DAE7206ABDE8F08170B50C460546012A5F
:1003500005D02878800600D5EA69002302E0012351
:1003600005E05B1C934202D2E05C0028F9D1A86949
:10037000E618C01AA861286A184428622846AFF314
:10038000008004E0D5E9012114F8010B9047B44244
:10039000F8D32846AFF3008070BD00002DE9F0418E
:1003A0000646002410687529314616A510D0AFF313
:1003B0000080002802DA404213A507E031688A076E
:1003C00001D512A502E0490704D511A5012401E0D9
:1003D000AFF3008000210A2206F1240709E0B0FBF8
:1003E000F2FCB0FBF2F302FB1C00303078541846EC
:1003F000491C0028F3D123462A463046BDE8F04187
:1004000000F08AB8000000002D0000002B00000062
:1004100020000000032A40F2308010F0030C00F0AE
:10042000158011F8013BBCF1020F624498BF11F82E
:1004300001CB00F8013B38BF11F8013BA2F10402E7
:1004400098BF00F801CB38BF00F8013B11F003035F
:1004500000F0EF80083AC0F0088051F8043B083AF9
:1004600051F804CBA0E80810F5E7121D5CBF51F865
:10047000043B40F8043BAFF30080D20724BF11F8DF
:10048000013B11F801CB48BF11F8012B24BF00F844
:10049000013B00F801CB48BF00F8012B704702F088
:1004A000FF0343EA032242EA024200F0F6B84FF0AB
:1004B000000200B5134694469646203922BFA0E8B4
:1004C0000C50A0E80C50B1F12001BFF4F7AF0907C0
:1004D00028BFA0E80C5048BF0CC05DF804EB8900B1
:1004E00028BF40F8042B08BF704748BF20F8022BF4
:1004F00011F0804F18BF00F8012B7047704770470C
:10050000704710B500F0EAF8006810BD10B5044659
:1005100000F0E4F8046010BD2DE9F0470D4699465F
:100520009246044600F124080168880604D5E06973
:1005300021F01001216000E00120A84201DD471BED
:1005400000E00027A1697A1902EB0900081AA061EE
:100550002078C00602D42046AFF30080002608E0D1
:10056000D4E901211AF806009047206A401C761C45
:1005700020624E45F4DB2078C0060AD52046AFF352
:10058000008006E0D4E9012130209047206A401C19
:100590002062381EA7F10107F4DC07E0D4E901214D
:1005A00018F805009047206A401C2062281EA5F11B
:1005B0000105F3DC2046AFF300802078000602D569
:1005C0000220BDE8F0870120FBE7000001694A1C1A
:1005D00002610878704700B58FB0CDE90131002184
:1005E000059105497944CDE9031011466846FFF7A6
:1005F00077FE0FB000BD0000E5FFFFFF0A6802F8BC
:10060000010B0A60704710B5436913B1AFF3008066
:1006100001E0FFF799FE012010BD127800F12401DE
:100620000A7000224A700122EDE711684FF0FF3294
:10063000E9E710B5203AC0F00B80B1E81850203A35
:10064000A0E81850B1E81850A0E81850BFF4F5AF72
:100650005FEA027C24BFB1E81850A0E8185044BFFC
:1006600018C918C0BDE810405FEA827C24BF51F869
:10067000043B40F8043B08BF7047D20728BF31F85D
:10068000023B48BF11F8012B28BF20F8023B48BFAE
:1006900000F8012B70474FF000020429C0F01280CF
:1006A00010F0030C3FF405AFCCF1040CBCF1020FC9
:1006B00018BF00F8012BA8BF20F8022BA1EB0C01FA
:1006C000FFF7F7BE5FEAC17C24BF00F8012B00F8FA
:1006D000012B48BF00F8012B70470000004870470D
:1006E000402C002000487047402C00207546FFF742
:1006F000F9FFAE4605006946534620F007008546DF
:1007000018B020B5FFF7C4FDBDE820404FF000064B
:100710004FF000074FF000084FF0000B21F00701E9
:10072000AC46ACE8C009ACE8C009ACE8C009ACE82C
:10073000C0098D46704710B50446AFF300802046CF
:10074000BDE81040FFF743BD01491820ABBEFEE7EE
:10075000260002007047000070B5044600688168FA
:10076000C943C90717D1816821F00101816000F0F8
:10077000C7FE05460AE000BF00F0C2FE401B02288B
:1007800004D920688068C043C00706D0206880680C
:10079000C043C007F0D0002070BDA06A40F0100038
:1007A000A062E06A40F00100E062012070BD10B577
:1007B0000146406A826A12F0500F05D0006A026B4F
:1007C000BDE8104008461047816A41F4007181621B
:1007D00001688968C1F3424107290CD1017B51B9F5
:1007E000816A21F480718162816AC90403D4816ABB
:1007F00041F00101816200F0C3F910BD10B5406AFB
:10080000816A41F040018162C16A41F00401C16224
:1008100000F0B8F910BD10B5406A00F0B2F910BD93
:10082000F8B500260446009600688168C943C907E8
:100830002DD0816841F00101816016481649006899
:10084000B0FBF1F000E0401E00900028FBD100F06A
:1008500057FE054616E000BF00F052FE401B02287E
:1008600010D920688068C043C0070BD0A06A40F050
:100870001000A062E06A40F00100E06284F82460A9
:100880000120F8BD20688068C043C007E4D1002083
:10089000F8BD00007400002040420F00FEE72DE983
:1008A000FF5F0D461C4616465968286905F068F832
:1008B00083462168E86805F063F882467168A86895
:1008C00005F05EF8376881463946686805F058F8E3
:1008D00080462968009805F053F8414604F0BEFEB2
:1008E000494604F0BBFE514605F050F9594605F063
:1008F0004DF97760009931602168C4E9000104B0C6
:10090000BDE8F09F2DE9F041194E05460022402137
:10091000304600F0F0FD0120401C0A28FCDB0024DA
:100920004FF400774FF6FF78280401D5012200E04C
:1009300000228021304600F0DEFD0022394630469C
:1009400000F0D9FD0220401C1428FCDB01223946AE
:10095000304600F0D0FD641CE4B208EA4505102CD6
:10096000E2D33046BDE8F0410122402100F0C3BD92
:10097000001001402DE9F04704460E461E4803F0E2
:1009800097FB0546014604F0FBFF814631462846A9
:1009900004F0CCFE4FF07E578046394604F05EFEF0
:1009A000494604F05BFE0146384604F0BFFE0646A9
:1009B0000146484604F0E4FF05460121206005F0A9
:1009C0008CF9C4E901053946484605F0DFF80121F4
:1009D00005F083F9314604F0D3FFE0604046394624
:1009E00005F0CAF8494604F039FE314604F0C8FF64
:1009F0002061BDE8F0870000FA04C13E40F25722B2
:100A00000849A0F20970904208D2088A642802D0EE
:100A1000401C088270470120087070470020087051
:100A2000F7E700003C000020014800F0C9BA0000D0
:100A30000812002030B590F840500124AC40C56B3E
:100A40006C60046863604368102B036803D099608E
:100A50000068C26030BD9A600068C16030BD7047F8
:100A60000249097840EAC130704700003C0000208C
:100A700072B6FEE701490248FFF77CBFF4FD343F40
:100A800004010020F8B50024009490F824202546A5
:100A9000012A12D0012280F824204A681F23072A45
:100AA0000DD20668776B521E02EB820293409F4381
:100AB0000B6893401F43776319E00220F8BD066876
:100AC0000D2A0AD2376BD21F02EB820293409F435A
:100AD0000B6893401F43376309E0F76A0D3A02EB56
:100AE000820293409F430B6893401F43F7620A685A
:100AF000072306680A2A0AD3F7680A3A02EB420279
:100B000093409F438B6893401F43F76008E0376929
:100B100002EB420293409F438B6893401F4337612F
:100B20000A68102A01D0112A20D1124B02689A4279
:100B300017D193681B0219D4936843F400039360A0
:100B40000968102912D10C490C4A0968B1FBF2F16D
:100B500001EB8101490000E0491E00910029FBD111
:100B600004E0816A41F020018162012480F8245070
:100B70002046F8BD002401407400002040420F00D0
:100B800070477047704700002DE9F04104004FF0B6
:100B9000000514D0A06A002628B9E66284F8246013
:100BA000204600F083F82046FFF7D6FDA16A01F049
:100BB0001001014304D0A06A40F01000A0626BE075
:100BC000A16A21F4885141F00201A16233492368EE
:100BD0008B42E16904D1B1F5402F01D14FF40021DE
:100BE000277B4FF4807C41EA470261680A43A16891
:100BF000614509D0012907D05FF0000194F814E0A5
:100C0000BEF1010F02D00AE06146F7E7C7B1A76A5B
:100C100047F02007A762E76A47F00107E7625F68CD
:100C200027F469470F435F60236899681C4F394078
:100C300011439960A16861450BD0012909D00CE0EE
:100C4000DFF860E0A7690EEB47370F4347F4006118
:100C5000E5E7218A0D05A5F580152168CB6A23F407
:100C600070032B43CB62216889680F4B1940914276
:100C700008D1E662A16A21F0020141F00101A162FE
:100C8000BDE8F081A06A20F0020040F01000A062F0
:100C9000E06A40F00100E0620120F1E7003C014021
:100CA000FDF7E1FF00E0FFFFFE0E1FFF70B586B00D
:100CB00000250646009501950295039500681A499E
:100CC00088422ED11949886940F40070886188698A
:100CD00000F400700490886940F010008861886911
:100CE000694600F01000049010200090032001904D
:100CF0000F4800F0FFFA104C0E48C4E900058020B0
:100D0000C4E9025040002061800060612020C4E9F5
:100D10000605204600F078FA08B1FFF7A9FE346214
:100D2000666206B070BD0000002401400010024061
:100D30000010014008000240081200202DE9F04791
:100D4000894604463B4900683B4F0E1D9046884249
:100D500001D0B84207D1306810F4702F03D00125BC
:100D60002846BDE8F08794F8240001280CD0012023
:100D700084F824002046FFF753FD05004FF00000E3
:100D800004D084F82400EBE70220EAE7A16A40F6E9
:100D90000162914341F48071A1622168B94218D186
:100DA000326812F4702F14D0A16A41F48011A1624C
:100DB0003168490505D5A16A21F4005141F48051FB
:100DC000A162A16AC9040AD5E16A21F00601E162C3
:100DD00006E0A26A22F48012A2624968E9E7E062B2
:100DE00084F82400216A15488862216A1448C86280
:100DF000216A1448086321686FF0020008602068C7
:100E0000816841F480718160216843464A464C31D3
:100E1000206A00F037FA20688168C1F3424107294F
:100E2000816803D041F48011816099E741F4A00109
:100E3000FAE700000024014000280140AF07000845
:100E400017080008FD07000810B590F821100022CF
:100E5000022905D00421816380F82020012010BDE3
:100E600001680B6823F00E030B6001680B6823F028
:100E700001030B6090F84030C46B012101FA03F3C9
:100E8000636080F8211080F82020104610BD00001B
:100E90002DE9F05F90F821100024022903D00421ED
:100EA0008163012485E001680A6822F00E020A606D
:100EB00001680A6822F001020A603F4E3E4FB215F7
:100EC000DFF8F4C0DFF8F090DFF8ECA0DFF8E8B06E
:100ED000DFF8E4E00168783F13011502ACF1640C1F
:100EE000A9F15009AAF13C0AABF1280BAEF1140E9E
:100EF0004FF48018B14227D9B9420ED0614512D0C3
:100F000049451DD0514518D0594518D0714501D1DA
:100F1000424615E0294EB14201D1012210E0274E90
:100F20001436B14201D110220AE0244E2836B142D3
:100F300006D0224A3C32914201D11A4600E02A46AC
:100F40001E49091F0A602BE0B94213D0614517D032
:100F5000494522D051451DD059451DD0714501D17B
:100F600042461AE0B14202D14FF0807215E0134EB2
:100F7000B14201D1012210E0104E1436B14201D12C
:100F800010220AE00D4E2836B14206D00B4A3C3200
:100F9000914201D11A4600E02A46074980394A6049
:100FA000012180F82110002180F82010416B01B14F
:100FB00088472046BDE8F09F8000024008040240B8
:100FC0002DE9F05FC16B0A6801680B68046C4FF093
:100FD000040808FA04F8844D844E854FDFF814C2E3
:100FE000DFF81492DFF814A2DFF814B2DFF814E28D
:100FF00018EA020F65D05FEA437862D50A68920664
:1010000003D40A6822F004020A60DFF8F0814FF48A
:101010008062016808F1140813011402414524D9C3
:10102000A9420DD0B1420FD0B9421AD0614515D0B6
:10103000494515D0514501D1120312E0594501D15E
:1010400004220EE0714501D140220AE06D4D1435B5
:10105000A94206D06B4A2832914201D11A4600E0DB
:1010600022466749091F0A6029E0A94213D0B1420C
:1010700015D0B94220D061451BD049451BD0514500
:1010800002D14FF4800217E0414502D14FF0806257
:1010900012E0594501D104220EE0714501D14022F0
:1010A0000AE0584D1435A94206D0564A28329142DA
:1010B00001D11A4600E022464B4908394A60C16A0C
:1010C00071E04FF0020808FA04F818EA020F70D035
:1010D0005FEA83786DD50A68920606D40A6822F022
:1010E0000A020A60012180F82110DFF810814FF414
:1010F0000072016808F1140813011402414524D953
:10110000A9420DD0B1420FD0B9421AD0614515D0D5
:10111000494515D0514501D1120312E0594501D17D
:1011200002220EE0714501D120220AE0354D14352E
:10113000A94206D0334A2832914201D11A4600E032
:1011400022462F49091F0A6029E0A94213D0B14263
:1011500015D0B94220D061451BD049451BD051451F
:1011600002D14FF4001217E0414502D14FF0007256
:1011700012E0594501D102220EE0714501D1202231
:101180000AE0204D1435A94206D01E4A2832914269
:1011900001D11A4600E02246134908394A6000216D
:1011A00080F82010816A00291CD0BDE8F05F084754
:1011B000FFE70825A540154214D01A0712D50A6882
:1011C00022F00E020A6090F84020C36B012101FA60
:1011D00002F25A60816380F82110002180F820100B
:1011E000016BE0E7BDE8F09F080002401C000240F0
:1011F0003000024044000240580002406C000240AF
:10120000080402401C04024030B560B11A4B026869
:1012100014219A4209D2194B1344B3FBF1F189000E
:10122000016417490AE0012030BD134B5B421344AF
:10123000B3FBF1F1890001640F490839C163022150
:1012400080F82110136843F6F0718B43F0E9011424
:101250002143D0E902452C432143046921434469D9
:101260002143846921431943116000214163012214
:1012700042770177084630BD08040240F8FFFDBF01
:101280000000024070B5044690F8200000250128B7
:101290000CD0012084F8200094F821600020012E59
:1012A00006D084F820000225284670BD022070BDBB
:1012B000022684F82160A0632068066826F00106F3
:1012C00006602046FFF7B6FBE06A00282068016848
:1012D00002D041F00E0106E021F004010160206817
:1012E000016841F00A0101602068016841F00101D4
:1012F0000160D9E72DE9F84FDFF8C8910024A9F182
:10130000040B23460F2709F1040AABF1040ED1E0C8
:101310000125A54006EA0502AA4276D1DFF8A8C158
:101320004E68A6EB0C0866452BD00DDC032E34D09E
:1013300005DC36B3012E19D0022E2FD11BE0112E61
:1013400016D0122E2AD119E0B8F5881F19D006DC64
:10135000B8F5803F15D0B8F5801F1FD111E0B8F562
:10136000001F0ED0B8F5041F18D10AE0CB6815E0B5
:10137000CB681B1D12E0CB6808330FE0CB680C3341
:101380000CE08B682BB1012B4FF0080303D04561B3
:1013900004E0042302E0056100E00023FF2A01D8F5
:1013A000064601E000F104064FEA840501D9A5F1E3
:1013B0002005D6F8008007FA05FC28EA0C0803FA95
:1013C00005F548EA0508C6F800804D68ED0070D5BF
:1013D0003E4DAE6946F00106AE61AD6924F00306EC
:1013E00005F0010500953A4D06EB050CDCF80850B8
:1013F000A607360F07FA06F825EA0805DFF8D480B5
:10140000404503D14FF0000825E052E0DFF8C880E6
:10141000404502D14FF001081DE0DFF8C080404593
:1014200002D14FF0020816E0DFF8B480404502D147
:101430004FF003080FE0DFF8AC80404502D14FF0D9
:10144000040808E0DFF8A080404502D14FF005080D
:1014500001E04FF0060808FA06F848EA0508CCF85B
:1014600008804D68D9F80060ED024D4601D516435D
:1014700000E096432E604D68DAF80060AD025546F4
:1014800001D5164300E096432E604D68DBF80060FE
:10149000AD035D4601D5164300E096432E604D68CE
:1014A000DEF80060ED03754601D5164300E0964373
:1014B0002E60641C0A681646E2407FF429AFBDE83E
:1014C000F88F0000080401400000111000100240D5
:1014D0000000014000080140000C014000100140E4
:1014E0000014014000180140001C014080680840C1
:1014F00000D0012070470AB1016170470904FBE781
:101500000148806870470000680000200248816838
:10151000027811448160704768000020074810B5C8
:10152000016841F010010160032000F0A7F80F20CE
:1015300000F006F800F050F8002010BD0020024036
:1015400030B505461F4887B0C16941F01001C1613F
:10155000C06906A900F01000009001A800F0ACF9E5
:101560000498B0B100F0C8F940001749174AB0FB21
:10157000F1F11748491E0260416040F2E732002154
:10158000C0E903218160816100F0CCFB040003D03D
:1015900015E000F0B1F9E8E70D4800F003FC0400A5
:1015A0000DD1362000F03CF8102D07D2002229463C
:1015B000362000F043F80748056000E0012407B03A
:1015C000204630BD0010024040420F000010004095
:1015D000241300206C0000200F4808B5816941F0F9
:1015E00001018161816901F001010091C16941F04E
:1015F0008051C161C069002200F0805000900F212D
:10160000901E00F01BF80548416821F0E06141F0B0
:101610000071416008BD0000001002400000014060
:10162000002809DB00F01F020121914040098000E1
:1016300000F1E020C0F8001170470000F0B40E4B3C
:101640001B680C46C3F30223C3F10705042D00D920
:101650000425191D072901D2002300E0DB1E012605
:1016600006FA05F1491E214099409E40761E16401B
:101670003143F0BC01F0A1BE0CED00E0064900F0E2
:10168000070208684FF6FF03184040EA0220034AA9
:1016900010430860704700000CED00E00000FA0500
:1016A0002DE9F84305460078354CC00754D0E06971
:1016B0000026C00008D4E06940F08050E061E06995
:1016C000012600F0805000902E480168C90512D410
:1016D0000168804641F480710160FFF711FF074601
:1016E00005E000BFFFF70CFFC01B642823D8D8F823
:1016F0000000C005F6D5206A10F4407021D0A988FA
:1017000001F4407181421CD0206A1F49012220F45B
:1017100040700A6000220A602062C00711D0FFF703
:10172000EFFE074641F2883808E000BFFFF7E8FE09
:10173000C11B414502D90320BDE8F883206A800718
:10174000F4D5206A696820F44070084320621EB115
:10175000E06920F08050E0612878800705D5606856
:10176000A96820F44040084360602878C00605D589
:101770006068696920F48000084360600020DBE74E
:101780000010024000700040400442422DE9F04742
:101790000F46050061D0434E306800F00700B842A4
:1017A00009D2306820F0070038433060306800F01C
:1017B0000700B84251D128683B4C810712D5400739
:1017C00003D5606840F4E06060602878000703D5C6
:1017D000606840F4605060606068A96820F0F000C4
:1017E000084360602878C00728D06868012810D0B6
:1017F0002168022810D0890700292EDA616821F0BB
:10180000030101436160FFF77BFE804641F28839A6
:101810000DE021688903EFE78901EDE7FFF770FE2E
:10182000A0EB0801494502D90320BDE8F0876068B4
:10183000696800F00C00B0EB810FEFD1306800F068
:101840000700B8420BD9306820F0070038433060F9
:10185000306800F00700B84201D00120E5E72878A1
:10186000400705D56068E96820F4E06008436060DF
:101870002878000706D56068296920F4605040EA9E
:10188000C100606000F058F86168084AC1F30311B4
:10189000515CC8400649086006480068FFF750FEE2
:1018A0000020C2E700200240001002400A5E00084B
:1018B000740000206C0000200F2202600C4A536864
:1018C00003F003034360536803F0F003836053683D
:1018D00003F4E063C36052684FF4E06303EAD202AA
:1018E00002610448006800F00700086070470000CB
:1018F0000010024000200240044805490068496881
:10190000044AC1F30221515CC840704774000020B2
:10191000001002401A5E0008044805490068496842
:10192000044AC1F3C221515CC840704774000020D2
:10193000001002401A5E00080E4A51680E4801F07D
:101940000C03042B11D0082B0FD10C48C1F3834397
:10195000C903C05C0AD55168084AC1F34041921ED0
:10196000515C054A5043B0FBF1F0704704494843CD
:10197000704700000010024000127A00FA5D000873
:1019800000093D002DE9F84F040070D02078C04DCB
:10199000C00749D06868C0F38100012807D0686893
:1019A000C0F38100022809D16868C00306D5286801
:1019B000800339D560680028E7D035E06068B0F56D
:1019C000803F0BD010B1B0F5A02F11D0286820F4C3
:1019D00080302860286820F4802002E0286840F4E5
:1019E00080302860606890B1FFF78AFD06460AE003
:1019F000286840F480202860F0E700BFFFF780FDF2
:101A0000801B642873D828688003F7D50CE0FFF7A3
:101A100077FD064605E000BFFFF772FD801B6428D6
:101A2000F0D828688003F7D420789A4E80074FF0CA
:101A300001094FF0000839D5686810F00C0F07D085
:101A40006868C0F38100022809D16868C00306D421
:101A50002868800714D52069012808D110E0206982
:101A6000B0B1C6F80090FFF74BFD074605E00AE16C
:101A7000FFF746FDC01B0228C4D828688007F7D5A9
:101A80002868616920F0F80040EAC10028600DE094
:101A9000C6F80080FFF734FD074604E0FFF730FD8D
:101AA000C01B022823D828688007F7D420780007B5
:101AB0002CD57948A169D9B1C0F80090FFF720FD75
:101AC000074604E0FFF71CFDC01B02280FD8686A18
:101AD0008007F7D571484FF4FA510068B0FBF1F078
:101AE000009000BF0098411E0091FAD20EE080E005
:101AF000C0F80080FFF704FD074604E0FFF700FD93
:101B0000C01B022875D8686A8007F7D42078400780
:101B100060D5E8690027C00008D4E86940F080502B
:101B2000E861E869012700F0805000905C48016896
:101B3000C90513D40168834641F480710160FFF741
:101B4000DFFC824606E000BFFFF7DAFCA0EB0A00EC
:101B500064284ED8DBF80000C005F5D5E068012800
:101B60000AD008B1052813D0286A20F001002862A5
:101B7000286A20F0040002E0286A40F00100286290
:101B8000E06841F2883B98B1FFF7BAFC82460BE06F
:101B9000286A40F004002862EEE700BFFFF7B0FCBF
:101BA000A0EB0A0159455AD8286A8007F6D50CE0FF
:101BB000FFF7A6FC824605E0FFF7A2FCA0EB0A01B6
:101BC00059454CD8286A8007F6D41FB1E86920F03F
:101BD0008050E861E06988B36968C1F38101022936
:101BE00044D00228C6F8608004D0FFF789FC044680
:101BF00038E034E0FFF784FC074604E0FFF780FCA0
:101C0000C01B02282BD828688001F7D4206AB0F5C1
:101C1000803F05D16868A16820F4003008436860FF
:101C2000D4E908010843696821F474110843686025
:101C3000C6F86090FFF764FC044606E025E000BFAC
:101C4000FFF75EFC001B022809D828688001F7D541
:101C50001BE000BFFFF754FC001B022802D9032041
:101C6000BDE8F88F28688001F4D40EE00128F7D091
:101C70006868226A00F48031914204D1616A00F4FC
:101C80007010884201D00120EAE70020E8E7000058
:101C900000100240000042428004424274000020D2
:101CA000007000407047704770B590F83C20012AE2
:101CB0002CD0012480F83C40022280F83D200368AB
:101CC0005A689D6822F070060A6832435A60104BC9
:101CD00002689A420ED00F4B9A420BD0B2F1804F5D
:101CE00008D00D4B9A4205D00C4B9A4202D00C4BB7
:101CF0009A4204D1496825F080031943916080F825
:101D00003D40002180F83C10084670BD022070BDA7
:101D1000002C014000340140000400400008004055
:101D2000000C004010B5040003D094F83D0010B141
:101D300007E0012010BD002084F83C00204600F0A0
:101D40001FF8022084F83D00211D206801F016F8DC
:101D5000012084F8460084F83E0084F83F0084F8AF
:101D6000400084F8410084F8420084F8430084F87D
:101D7000440084F8450084F83D00002010BD0000B8
:101D800008B50068B0F1804F08D10548C16941F03D
:101D90000101C161C06900F00100009008BD0000B0
:101DA0000010024090F83D10012901D00120704739
:101DB000022180F83D100168CA6842F00102CA6041
:101DC00000680E4988420ED00D4988420BD0B0F110
:101DD000804F08D00B49884205D00B49884202D079
:101DE0000A49884204D1816801F00701062903D01D
:101DF000016841F00101016000207047002C0140A2
:101E0000003401400004004000080040000C004085
:101E100070B5044690F83C000025012817D0012633
:101E200084F83C60022084F83D002068826822F03B
:101E3000770222F47F4282600868502838D00DDC97
:101E400020284FD005DC90B3102811D14AE00220A1
:101E500070BD302846D040280AD13BE060282FD002
:101E600070280DD0B0F5805F03D0B0F5005F12D0C0
:101E7000012584F83D60002084F83C00284670BDB0
:101E8000CB68D1E90121206800F0CBFF2068816890
:101E900041F0770109E0CB68D1E90121206800F029
:101EA000C0FF2068816841F480418160E1E719E06A
:101EB000CA684968206801F089F85021206806E066
:101EC000CA684968206801F092F86021206800F033
:101ED000B2FFCEE7CA684968206801F077F8402170
:101EE0002068F4E7226801461046F0E7704770B5B5
:101EF0000446006801694FF00005C943890715D4FD
:101F0000C168C943890711D4E91E01610120207706
:101F1000206880698007204602D0FFF7E7FF04E0D1
:101F200000F0C8F8204600F05AF9257720680169CA
:101F3000C943490717D4C168C943490713D46FF08F
:101F400004010161022020772068806910F4407F3D
:101F5000204602D0FFF7CAFF04E000F0ABF82046AD
:101F600000F03DF9257720680169C943090716D4B7
:101F7000C168C943090712D46FF008010161042048
:101F800020772068C0698007204602D0FFF7AEFFA7
:101F900004E000F08FF8204600F021F92577206852
:101FA0000169C943C90617D4C168C943C90613D416
:101FB0006FF010010161082020772068C06910F4DB
:101FC000407F204602D0FFF791FF04E000F072F856
:101FD000204600F004F9257720680169C943C90744
:101FE00008D1C168C943C90704D1891E01612046CF
:101FF00000F050F920680169C943090609D4C16895
:10200000C943090605D46FF0800101612046FFF73E
:1020100049FE20680169C943490609D4C168C9431A
:10202000490605D46FF040010161204600F03CF9FB
:1020300020680169C94389060BD4C168C943890670
:1020400007D46FF0200101612046BDE87040FFF722
:102050002ABE70BD00B585B00021009101910291AA
:1020600003910068B0F1804F1BD10F48816941F0A6
:10207000080181618069694600F0080004904FF40E
:10208000006000900220019003900848FFF732F9A9
:102090000748416821F4407141F0E06141F400716A
:1020A000416005B000BD000000100240000C01407E
:1020B00000000140704770B5044690F83C000026CF
:1020C0000D4601280FD0012084F83C006AB1042A93
:1020D0001DD0082A2FD00C2A3FD00126002084F8DA
:1020E0003C00304670BD022070BD206800F0ACFEA0
:1020F0002068816941F0080181612068816921F0CF
:1021000004018161206881692A69114311E0206816
:1021100000F0CAFE2068816941F400618161206895
:10212000816921F480618161206881692A6941EABD
:1021300002218161D2E7206800F0ECFE2068C169CD
:1021400041F00801C1612068C16921F00401C16149
:102150002068C1692A69114311E0206800F00EFF70
:102160002068C16941F40061C1612068C16921F43E
:102170008061C1612068C1692A6941EA0221C161A7
:10218000ACE710B5040003D094F83D0010B107E0AF
:10219000012010BD002084F83C00204600F01EF80D
:1021A000022084F83D00211D206800F0E7FD012099
:1021B00084F8460084F83E0084F83F0084F840002C
:1021C00084F8410084F8420084F8430084F8440015
:1021D00084F8450084F83D00002010BD704770472A
:1021E00010B50446022249B104290ED0082913D0A3
:1021F00094F84100012816D0012010BD94F83E004B
:102200000128F9D184F83E200FE094F83F0001281E
:10221000F2D184F83F2008E094F840000128EBD187
:1022200084F8402001E084F841200122206800F079
:10223000EBFD13492068134A884201D0904203D134
:10224000436C43F400434364206888420DD09042BD
:102250000BD0B0F1804F08D00B49884205D00B4914
:10226000884202D00A49884204D1816801F00701FE
:10227000062903D0016841F001010160002010BD72
:10228000002C0140003401400004004000080040E0
:10229000000C004000680349884201D1FFF736B9BD
:1022A0007047000000100040704770477047000002
:1022B000F8B5016804460868CA684B6910F00F0F4A
:1022C0004FF000055AD003F0010602F4907737432F
:1022D00065D0C10705D0D10503D5616C41F001017E
:1022E0006164410705D5D90703D0616C41F0020153
:1022F0006164810705D5D90703D0616C41F0040101
:102300006164010707D502F02001314303D0616CFD
:1023100041F008016164616C00293BD0800604D55E
:10232000900602D5204600F0A3FE20684069616C4B
:10233000C0F3801001F00801014320462BD000F0CB
:1023400070FE20684069400621D52068143050E8AE
:10235000001F21F0400140E80012002AF5D1E06B97
:10236000A8B16D494163E06BFEF792FD002811D0E2
:10237000E06B416B01B0BDE8F040084783060ED525
:1023800093060CD52046BDE8F84000F071BE20460B
:10239000FFF78CFFF8BDFFF789FF6564F8BD266B7A
:1023A0002023012E7CD1C6067AD5D60678D50868BA
:1023B0004868009048694FF00206400640D5E16B3E
:1023C000086840680004000CE8D0A28D8242E5D97C
:1023D000E085886920282DD020680C3050E8001F47
:1023E00021F4807140E80012002AF5D121681431EF
:1023F00051E8000F20F0010041E80002002AF5D169
:102400002068143050E8001F21F0400140E800121D
:10241000002AF5D184F84230256320680C3050E85A
:10242000001F21F0100140E80012002AF5D1E06BF6
:10243000FEF70AFD6663A08DE18D401A81B22AE0A5
:10244000A08DE18D401A81B2E08D0028A6D0002930
:10245000A4D022680C3252E8000F20F4907042E8B9
:102460000007002FF5D12068143050E8002F22F02B
:10247000010240E80027002FF5D184F8423025639F
:1024800020680C3050E8002F22F0100240E80023B2
:10249000002BF5D166632046FFF707FFF8BDFFE785
:1024A00005062BD5150629D594F841002128F5D12C
:1024B000A068B0F5805F01D12069B0B1206A411CED
:1024C0002162216800784860E08C401E0004000C06
:1024D000E084E3D12068C16821F08001C1602068F8
:1024E000C16841F04001C160D8E7206A0088C0F3AC
:1024F00008004860206A801C2062E5E74006CDD5D0
:102500005006CBD5CA68204622F04002CA6084F843
:10251000413000F04AF9C1E71330000870B50400FB
:1025200004D094F84100002510B106E0012070BDF0
:1025300084F84050204600F023F8242084F841001D
:102540002068C16821F40051C160204600F0F2FD0E
:102550002068016921F4904101612068416921F0FE
:102560002A0141612068C16841F40051C16065647D
:10257000202084F8410084F842006563002070BD8B
:1025800070B586B0002400940194029403942E4EFA
:1025900003682E49022003222D4DB34226D18B69B8
:1025A00043F480438B618B6903F4804304938B690C
:1025B00043F004038B618969039201F004010491E3
:1025C0000102CDE9001069462846FEF793FE281562
:1025D000CDE90004694628460294FEF78BFE0022EE
:1025E00005212520FFF72AF8252028E0194EB342BF
:1025F00027D1CB6943F40033CB61CB6903F40033BB
:1026000004938B6943F004038B618969039201F0A1
:10261000040104910421CDE9001069462846FEF723
:1026200069FE0820CDE90004694628460294FEF7B9
:1026300061FE002205212620FFF700F82620FEF784
:10264000EFFF06B070BD00000038014000100240EE
:10265000000801400044004090F84230202B01D097
:102660000220704721B11AB10023036300F0BEBD00
:102670000120704770B5054600682049204C88420B
:102680000ED10023012221461E4800F041F8207897
:102690004FF001020A2821462CD01B48FFF7DCFF2F
:1026A0001A492868884227D1002301221449164874
:1026B00000F02EF82178002002F070F82178012037
:1026C00002F06CF82178022002F068F821780320EB
:1026D00002F064F82178042002F060F80122084931
:1026E0000948FFF7B9FFBDE87040012204490548D9
:1026F000FFF7B2BF0348D1E770BD000000380140CA
:1027000034000020DC12002094120020004400401D
:102710002DE9F843044690F841001F4616460D4641
:10272000202802D00220BDE8F8837DB176B10020D8
:102730006064212084F84100FEF7E2FEA684804612
:10274000E684A068B0F5805F02D003E00120EAE7EC
:10275000206910B12E4600250EE000260CE08021F5
:10276000204600F05EFDA0B9AEB116F8010B21685D
:102770004860E08C401EE084E08C43464FF000024D
:1027800000970028EBD14FF04001204600F049FDB2
:1027900030B10320C7E735F8020BC0F30800E6E7C5
:1027A000202084F841000020BDE77047FEE70000CC
:1027B0003EB500211148009101910F4A029102603B
:1027C00001248160047301754FF460220461C261C9
:1027D0004160FEF7D9F908B1FEF74AF90E20CDE9BC
:1027E00000040420029069460448FEF74BF90028D3
:1027F00001D0FEF73DF93EBD00240140D811002074
:10280000094808B5416941F0010141614069002270
:1028100000F00100009005210B20FEF70FFFBDE83E
:1028200008400B20FEF7FCBE0010024010B50D481A
:1028300000F046FF0C4C0B4A0021A062903A0B4876
:1028400000F0ACFF074AA0616C3A0021084800F094
:10285000A5FF044AE061243A0021064800F09EFFEB
:10286000606210BDE85D00083C000020612A00089D
:10287000F52B0008512C00082DE9F04786B0002404
:1028800031480094019402940394816941F020013D
:102890008161816901F020010491816941F00401A5
:1028A0008161816901F004010491816941F01001A5
:1028B0008161816901F010010491816941F0080191
:1028C00081618069DFF8848000F0080004900122B3
:1028D0004FF410714046FEF70EFE00224FF4C07117
:1028E0004046FEF708FEDFF868904FF4807700223C
:1028F00039464846FEF7FFFDDFF858A000220821C0
:102900005046FEF7F8FD4FF4707001250326CDE91F
:102910000005CDE9024669464046FEF7EBFC00970C
:102920000396CDE9015469464846FEF7E3FC0820CA
:10293000CDE90005CDE9024669465046FEF7DAFCCE
:1029400006B0BDE8F0870000001002400010014012
:1029500000080140000C014010B58EB0002407941F
:10296000089409940A940B941C2168460C94FDF772
:102970009EFD1D484FF08041C0E900144FF6FF71E5
:10298000C0E9024104618461FFF7CCF908B1FEF7A8
:102990006FF84FF48050079007A91348FFF738FAF3
:1029A00008B1FEF765F81048FFF7EBFB08B1FEF73A
:1029B0005FF80B940BA90C480C94FFF775F908B15C
:1029C000FEF756F86020CDE9000402940C22694617
:1029D00005480494FFF76FFB08B1FEF749F8024879
:1029E000FFF738FB0EB010BD4C1200200C4810B59C
:1029F0000A4901604FF4E1314160002181600C22FD
:102A0000C160C0E904128161C161FFF787FD002840
:102A100003D0BDE81040FEF72BB810BD00380140D0
:102A2000941200200C4810B50A4901604FF4E131BE
:102A30004160002181600C22C160C0E90412816103
:102A4000C161FFF76BFD002803D0BDE81040FEF721
:102A50000FB810BD00440040DC120020FEE7FEE786
:102A6000ADF5167DFEF706F8DFF864B1594C6D46FA
:102A70000DF5C87A0DF1C80800264FF0FF394F4612
:102A80004946A06A00F0E6FDBBF8000080B2E08194
:102A900002F062FF504B514A5149FDF700FF60615F
:102AA000A06A00F04DFE607860B93946A06A00F077
:102AB000D1FD606902F018FF80B2FDF79FFFA06AA8
:102AC00000F03EFE5FF0630005EB400131F8021CB0
:102AD00025F81010401E10F0FF00F5D1B946394618
:102AE000A06A00F0B7FD606902F0FEFEADF80000DC
:102AF000A06A00F025FE4FF496710A204FEA0A0200
:102B000005EB400335F810C033F8147CBC4502D9FE
:102B100022F8106006E0B7EB0C0301D5ACEB07031D
:102B200022F8103032F810308B4200D31946B3EB44
:102B3000510F04D9A3EB510328F8103001E028F815
:102B40001060401CC0B26428DAD3BDF8DE00BDF8C6
:102B5000DC1088421FD9BDF8E01088421BD9FEF76F
:102B6000CFFC6081A189411A2181A0814946A06AD8
:102B700000F070FD20894EF66021B1FBF0F060821C
:102B800001202071A06A00F0DBFD6078C8B9E08800
:102B900000F092FB00E02671607890B94946A06A87
:102BA00000F058FD628A0FA11048FDF783FB82B246
:102BB0004FF6FF730D490E48FFF7AAFDA06A00F01B
:102BC000BFFD00F095FB032001F05EFC57E700001D
:102BD000380000203C0000202C00002024000020B1
:102BE0000401002025640D0A0000000018010020E7
:102BF00094120020154C4FF0FF360F25A078401C92
:102C0000C0B2A0700F2801D12079C0B13146A06AAE
:102C100000F020FD606902F067FE80B2FDF720FF42
:102C2000FDF770FEA06A00F08BFDA078B0FBF5F117
:102C300005FB1100A070022001F026FCDEE7314602
:102C4000A06A00F007FD608AE8E700003C00002071
:102C50004FF4FA74204601F0C9FD012207490848E3
:102C6000FFF7FAFC012205490648FFF7F5FC01F0E1
:102C700015FE002001F02EFCECE7000034000020DF
:102C800094120020DC1200200E4C4FF0FF354FF460
:102C9000A4774FF47A762946A06A00F0DBFC608ABC
:102CA000A0F11501B9420AD8217841B101F0ACFD7B
:102CB000A06A00F045FD304600F076FCEBE700200E
:102CC000F4E700003C00002010B5502080F311888C
:102CD000BFF34F8FBFF36F8F02F0E2FA18B10449D0
:102CE0004FF080500860002080F3118810BD000074
:102CF00004ED00E030B595B028216846FDF7D7FB1C
:102D000014210AA8FDF7D3FB18210FA8FDF7CFFB6C
:102D100001210804CDE90010002502950224049148
:102D2000CDE907404FF4E01009906846FEF72AFE0F
:102D300008B172B6FEE70AA90F2081E831004FF40E
:102D40008060CDE90D0502210AA8FEF71FFD08B13C
:102D500072B6FEE74FF4004011900F940FA8FEF7F3
:102D60009FFC002801D072B6FEE715B030BD704759
:102D70000148FFF7BCB8000024130020F0B502683A
:102D80001C4B1D4D1D4E1E4F1E4C4FF0804C98424B
:102D900009D0A04207D0604505D0A84203D0B04278
:102DA00001D0B84204D122F0700E4A6842EA0E0205
:102DB000984209D0A04207D0604505D0A84203D070
:102DC000B04201D0B84203D122F44075CA682A4308
:102DD0004D6922F080022A4302608A68C2620A6852
:102DE0008262984201D0A04201D1096901630121A8
:102DF0004161F0BD002C014000040040000800408B
:102E0000000C00400034014010B501F01F03012107
:102E1000046A99408C430462016A9A40114301623A
:102E200010BD10B5846842EA032224F47F440A43AB
:102E30002243826010BD826822F070020A4342F091
:102E40000701816070470000F0B5036A026A22F052
:102E50000102026242688469124E24F073050C6814
:102E60002C4323F002058B682B430D4DA84201D063
:102E7000B04205D123F00807CB683B4323F004039D
:102E8000A84201D0B04205D14D6922F440721543E9
:102E90008A692A4342608461496841630362F0BDE4
:102EA000002C014000340140F0B5026A036A23F0AF
:102EB00010030362436884690D6824F4E64444EA1D
:102EC00005248D6822F0200242EA05120F4D104EB3
:102ED000A84201D0B04206D1CF6822F0800242EA77
:102EE000071222F04002A84201D0B04207D14D693A
:102EF00023F4406343EA85038D6943EA8503436015
:102F00008461496881630262F0BD0000002C0140C9
:102F100000340140F0B5026A036A23F4807303624F
:102F20004368C46922F4007224F073050C68124EE1
:102F30002C438D6842EA05220E4DA84201D0B042D2
:102F400006D1CF6822F4006242EA072222F48062AE
:102F5000A84201D0B04207D14D6923F4405343EA5F
:102F600005138D6943EA05134360C4614968C16371
:102F70000262F0BD002C01400034014030B5046A0B
:102F8000026A22F4805202624268C3690D6823F427
:102F9000E64343EA05238D6824F4005444EA0534EB
:102FA000084DA84202D0084DA84204D14D6922F430
:102FB000804242EA85124260C3614968016404624A
:102FC00030BD0000002C01400034014010B5036A00
:102FD000046A24F001040462846924F0F00444EAE1
:102FE000021423F00A020A438461026210BD10B584
:102FF000036A046A24F010040462846923F0A003C5
:1030000024F4704444EA023243EA0111826101620D
:1030100010BD10B5406A0021C185C184FFF746F993
:1030200010BD01680C3151E8002F22F4907241E884
:103030000023002BF5D10168143151E8002F22F054
:10304000010241E80023002BF5D1016B012909D1D0
:1030500001680C3151E8002F22F0100241E80023F2
:10306000002BF5D1202180F8421000210163704728
:1030700008B590F84210222901D0022008BD8268CC
:103080004FF480539A4201D1016921B1816A9A4279
:103090001BD04AB10AE00268816A5268C2F3080292
:1030A0000A80816A891C08E0026972B1026852686C
:1030B00002F07F020A70816A491C8162C18D491E3B
:1030C0000904090CC18503D01BE002685268F1E7CE
:1030D0000168CA6822F02002CA600168CA6822F446
:1030E0008072CA6001684A6922F001024A612021A7
:1030F00080F8421000214163026B012A03D0FFF7E0
:10310000B9FA002008BD016301680C3151E8002FB5
:1031100022F0100241E80023002BF5D101680A6873
:10312000D20602D50A6849680091818DFFF7BDF883
:10313000E7E7000070B5044600680169E26821F421
:103140004051114301612169A06808436169084346
:103150002168CA6841F20C639A430243CA6020683E
:103160004169A26921F44071114341611E492068FF
:10317000884202D1FEF7D0FB01E0FEF7BDFB00EB79
:10318000C00101EB0012606864218000B2FBF0F323
:10319000B3FBF1F36FF018067343B2FBF0F5B2FB2B
:1031A000F0F605EB8305322303EB0515B5FBF1F5CE
:1031B000B6FBF1F605F0F00505EB0615B2FBF0F6EF
:1031C000B2FBF0F0B0FBF1F06FF01802504306EBE9
:1031D000800003EB0010B0FBF1F0216800F00F005D
:1031E0002844886070BD00000038014081628285FB
:1031F000C28500214164222180F84210016921B179
:103200000168CA6842F48072CA6001684A6942F083
:1032100001024A610068C16841F02001C1600020DC
:1032200070472DE9F041984617460E460446069D24
:1032300027E0681C25D02DB1FEF762F9A0EB08004D
:10324000A8421ED920680C3050E8001F21F4D0712C
:1032500040E80012002AF5D12068143050E8001F21
:1032600021F0010140E80012002AF5D1202084F865
:10327000410084F84200002084F840000320BDE8AB
:10328000F0812068006836EA000004D00020B842CF
:10329000CFD00020F3E70120F9E700000148FFF755
:1032A00007B80000941200200148FFF701B80000A1
:1032B000DC120020FEE700000C494FF080424B8AF0
:1032C000834210D9087870B1C878052802D0401C14
:1032D000C8707047116C4FF4C870814201D14FF42F
:1032E0001670106470470020C870FAE73C00002098
:1032F0002DE9F041214C234FDFF884806078BE1522
:10330000002540B931463846FEF7F0F801281CD0B8
:103310006078002817D031463846FEF7E7F80028D5
:1033200011D16570002231464046FEF7E4F8164A96
:103330000021164800F032FAE061206A002802D02D
:1033400001F0C8F82562BDE8F081012060700246F6
:1033500031464046FEF7CFF80B4A002124320C4894
:1033600000F01CFA20624FF080400564E0690028FC
:10337000E9D001F0AFF8E561E5E700003C0000208E
:1033800000080140001001407C5D0008F52B00089A
:10339000892C00084100080218BF04200A0E18BF3B
:1033A00040F001004FF07F4232EA010108BF40F0D7
:1033B0000200012808BF052070470907090E0028F0
:1033C00004DB00F1E02080F80014704700F00F00EB
:1033D00000F1E02080F8141D7047012102F07DBC4F
:1033E0000021084602F0A2B96FF05E01080702F062
:1033F00074BC00002DE9F04D0D4614464FF07F419E
:10340000B1EB440F9EBF4FF0FF312960BDE8F08D56
:103410004FF0004040EA0421C4F3C750783810F060
:103420001F024A4B4FEA601CC2F120067B44C4F3E2
:10343000C750A0F178004FEA601003EB800053F80A
:103440002C3008BFD0E901C612D0D0F804C0934098
:103450002CFA06F73B4387680CFA02FC27FA06F8B9
:10346000C06807FA02F2F0404CEA080C42EA000693
:10347000A3FB0132ACFB01C0A6FB016101EB0C0612
:103480008E4234BF4FF0010C4FF0000CC118614464
:10349000BCF1000F02D0814202D903E0814201D287
:1034A000012000E00020104400F120024FEA9218B1
:1034B0008006CA0C40EA42304F03C5F8008002F093
:1034C00033FA8246384602F047FA6FF0120102F0F2
:1034D00004FC0746304602F03FFA6FF0250102F087
:1034E000FCFB83463946504602F0B8F8594602F0D4
:1034F000B5F800F500666FF30B065146304602F052
:1035000045FB394602F042FB594602F035FB1049B3
:1035100002F036FA07460F49304602F031FA3946D2
:1035200002F09CF807460C49304602F029FA394669
:1035300002F094F814F0004F08BFBDE8F08DC8F118
:10354000805180F000402960BDE8F08DF429000032
:10355000DB0FC92F22AAFD290000C92FFDF7DEFFCE
:10356000FFF7C8FBFFF788F9FFF74AF9FFF73EFAC4
:10357000FFF71EF9FFF756FAFFF7EEF901220749A8
:103580000748FDF7DBFB0C210648FEF729FE00F09B
:1035900025F8FFF74BF900F03DF8FEE73800002072
:1035A000D81100204C12002010B5EFF3058149B965
:1035B000EFF3108131B908490968022905D1EFF309
:1035C000118111B16FF0050403E0002408B100F08F
:1035D0005BFF204610BD0000C8000020EFF305800F
:1035E00058B9EFF3108040B909490868022801D0A2
:1035F00030B109E0EFF3118030B16FF00500704792
:1036000001200860002070474FF0FF307047000035
:10361000C800002010B5EFF3058060B9EFF310800B
:1036200048B90B490868022802D0012806D00BE0EF
:10363000EFF3118040B16FF0050010BD022008606B
:1036400001F01AF8002010BD4FF0FF3010BD00004F
:10365000C80000202DE9F0410D46014620F0010090
:1036600001F001014FF00004EFF305824AB9EFF3D6
:10367000108232B9114A1268022A05D1EFF3118281
:1036800012B16FF0050416E048B100296FF0010691
:103690006FF00207294608D001F036FD07E06FF011
:1036A000030408E035B1344605E001F071FC01285F
:1036B000F8D100E03C462046BDE8F081C80000207B
:1036C00070B505464FF00004EFF30580A0BBEFF3A3
:1036D000108088BB19480068022802D1EFF31180DE
:1036E00050BB0DB1686800E00020C10701D0012681
:1036F00000E0002600071FD46DB1D5E9021021B10A
:10370000502819D31EB1042002E020B114E001209A
:1037100001F0CBF905E00EB1042000E0012001F03A
:10372000B9F9040008D00DB1296800E0002100F0CB
:1037300075FE0EB144F00104204670BDC8000020A3
:1037400070B5014620F0010001F001014FF00004C6
:10375000EFF305824AB9EFF3108232B90E4A1268CC
:10376000022A05D1EFF3118212B16FF0050411E0C6
:1037700028B16FF0020529B101F04EFB07E06FF0B0
:10378000030407E000231A46194601F037FA01281E
:1037900000D02C46204670BDC8000020F0B585B092
:1037A0000B464FF00004EFF305810394A1BBEFF348
:1037B000108189BB21490968022902D1EFF31181E7
:1037C00051BB48B3802618218DF8104004AD42B398
:1037D000176807B13D4697691FB139467F1E382FDC
:1037E00002D21779FF0702D0002005B0F0BD57695B
:1037F00007B1BE08D2F808C0BCF1000F0DD0D468E4
:103800005C2C18D312693AB137B18DE806103246F4
:10381000294601F000FD03900DE0D7685FB91269F9
:103820004AB903AACDE90012B2B2294601F0C6FC9A
:10383000012800D003940398D7E70000C8000020B7
:103840002DE9F041134C0F46054666692068001DBE
:1038500000F0E8FC681C07D137B12168BDE8F041F1
:103860000D48091D00F02FBD20683544B542456064
:10387000216805D2A068BDE8F041091D00F00BBD2C
:103880006068091D00F007FD206B854200D22563AA
:10389000BDE8F081780000205C1800202DE9F0419F
:1038A000054600F01DFD2D4C2069401C206120685C
:1038B0002B4F10B1E06930B32BE02560206901285F
:1038C00027D1002606EB860007EB800000F0D5FC30
:1038D000761C382EF6D3234800F0CFFC2148143054
:1038E00000F0CBFC1F48283000F0C7FC1D483C30DE
:1038F00000F0C3FC1B48503000F0BFFC194860606A
:103900001430A06005E02068E96AC06A884200D8E7
:103910002560E06A401CE0626864E86AA169884248
:1039200000D9A06100EB800007EB8000291D00F0AA
:10393000CAFC00F0F5FCE06900280CD02068E96AB8
:10394000C06A884207D208494FF080500860BFF330
:103950004F8FBFF36F8FBDE8F0810000780000202B
:10396000AC1300200C18002004ED00E038B500F086
:10397000B7FC104CA068C8B90F4800F07EFC0E4898
:10398000143000F07AFC0C482060143060600A4B60
:1039900000202833009003F1500210210A2001F08A
:1039A000B5F8A06010B105A100F038FDBDE83840C1
:1039B00000F0B6BCB400002070180020546D7251A5
:1039C0000000000030B4026C0B46002A0BD0C16826
:1039D0001144C1604468A14201D30168C16030BC98
:1039E0001846FCF717BD30BC70472DE9F041856BD8
:1039F000174604460026026C82B1C7B1E068FCF7A6
:103A000009FDE168206C091AE1602268914202D246
:103A10006168081AE060022F16D017E02068A8B984
:103A2000606801F0A1FC0646002060600EE0A0681E
:103A3000FCF7F0FC216CA0680844A0606168884233
:103A400004D32068A06001E005B16D1E6D1CA56364
:103A50003046BDE8F08110B5044690F8590058B1E1
:103A600001280CD002280FD0502080F31188BFF31A
:103A70004F8FBFF36F8FFEE7206B00F065FC204691
:103A8000BDE8104000F060BC10BD000010484FF4CD
:103A90004061420706D0C01D0D4920F00700411AC1
:103AA000C1F540610B4A00230144C2E90003083913
:103AB000103A21F0070111604B600B600B1AC0E94E
:103AC000001393604FF000405360D06070470000D7
:103AD00040200020DC000020144E154CA6F29C472C
:103AE0004FF08058DFF84C9012E000BF00F0F8FB78
:103AF000F068C568281D00F095FB2069401E206114
:103B0000E068401EE06000F00BFC2846FFF7A3FFD2
:103B1000E0680028EAD138680128F9D9C9F800809E
:103B2000BFF34F8FBFF36F8FF2E7000048180020FC
:103B30007800002004ED00E0002807D0002141605B
:103B400001600B460A46C16001F058B8704700009A
:103B500070B51D46049C51B1C4F80020C4E90F01A2
:103B60000121204601F006F884F84C5070BD246015
:103B7000F4E72DE9F0470E46DDE909841746824651
:103B800091009946089DA522206BFCF788FC6FF0F8
:103B90000301206B01EB8701084420F00707780739
:103BA00007D0502080F31188BFF34F8FBFF36F8F82
:103BB000FEE72218315C82F83410315C11B1401CF0
:103BC0001028F6D3002684F84360382D00D337251B
:103BD000E562C4E91356201D00F05AFB04F11800F9
:103BE00000F056FB2461C5F138006462A06166658F
:103BF00084F858604A465146384600F047FA20603B
:103C0000B8F1000F01D0C8F80040BDE8F08700000F
:103C100030B5114900E011460A688242FBD34B6877
:103C20005C18844203D140681844486008464368E1
:103C30001C18944209D1084C103C2468A24209D0B7
:103C400052681A4442600A6812680260814200D0D9
:103C5000086030BD0460F9E7DC00002070B5002486
:103C600041600B4D0061914206D8D11A82699142A0
:103C700006D2011D686807E09A4203D2994201D337
:103C8000012403E0011D286800F005FB204670BDFB
:103C9000B400002010B5044600F022FBA06B28B150
:103CA0005FF0000400F03CFB204610BD0124F9E762
:103CB00030B589B0304D55E00498002806DADDE9CA
:103CC0000601059A9047049800284BDB069C606922
:103CD00010B1201D00F0A6FA02A800F0B9F80246C3
:103CE00004980A283ED2DFE800F00505053D263796
:103CF00005053D260598A169034601442046FFF7C6
:103D0000ADFF00B3616A20468847E069012829D1E8
:103D1000002000900598A16900234218194620460A
:103D200001F068FC78B9502080F31188BFF34F8F01
:103D3000BFF36F8FFEE70598A06128B18118134685
:103D40002046FFF78BFF0DE0502080F31188BFF372
:103D50004F8FBFF36F8FFEE794F82C0010B9204609
:103D600000F0F2FA002204A9A86801F075F8002812
:103D7000A2D109B030BD0000B40000202DE9FC4103
:103D80000F46054600F0BCFC01A800F061F80446AF
:103D9000019818B101F09CFBBDE8FC81224EAFB147
:103DA00070680068A8B30027291B3A46B06800F085
:103DB00049FB01F08DFB0028EED11C494FF08050EB
:103DC0000860BFF34F8FBFF36F8FE5E7A542EBD8D5
:103DD00001F07EFB30682746C068C468201D00F0F3
:103DE00021FAE069012810D1A0692B4641193A4611
:103DF0002046FFF733FF40B1002003460146009004
:103E00002A46204601F0F6FB20B1616A2046884729
:103E1000C2E707E0502080F31188BFF34F8FBFF354
:103E20006F8FFEE70127BFE7B400002004ED00E03C
:103E300006484168096829B14168C968C968496884
:103E4000016370474FF0FF31FAE70000780000206F
:103E500070B5054601F01EFA064E044630698442EC
:103E600003D200F009F8012000E00020286020467D
:103E7000346170BDB4000020F8B5194D1FE0C06872
:103E8000C4680668201D00F0CDF9616A20468847A5
:103E9000E069012813D1A0693044B04206D92461F9
:103EA0006060211D286800F0F6F908E00020034654
:103EB000014600903246204601F09CFB38B128684C
:103EC00001680029DBD16968C5E90010F8BD502000
:103ED00080F31188BFF34F8FBFF36F8FFEE70000B1
:103EE000B400002008484068401C4FF0500080F3A8
:103EF000118804D0BFF34F8FBFF36F8FFEE7BFF37E
:103F00004F8FBFF36F8FFEE7E4000020074C20685F
:103F1000016841B1C0680021D0F80000FFF72EFF12
:103F2000FFF7C6FEF3E701210020F7E7B400002009
:103F30002DE9F041044600F0D3F994F9455004F11D
:103F4000240609E0606A48B1304601F089FA08B1F8
:103F500000F010FB6D1E6DB2002DF3DC4FF0FF364C
:103F600084F8456000F0DCF900F0BAF994F94450A7
:103F700004F1100709E0206948B1384601F070FAF1
:103F800008B100F0F7FA6D1E6DB2002DF3DC84F875
:103F90004460BDE8F04100F0C3B900002DE9F041F4
:103FA0000546002700F0ACFB314E306808B9FFF73A
:103FB0006DFDF06805424BD1C5B3083568070ED0DA
:103FC00005F00700C0F108000544680707D050203D
:103FD00080F31188BFF34F8FBFF36F8FFEE72DB3D0
:103FE0007068854234D82248103001460C6801E0E0
:103FF00020460C466168A94202D221680029F7D107
:1040000031688C4224D007682168016060680837F5
:10401000411B10290FD96019420708D0502080F3A6
:104020001188BFF34F8FBFF36F8FFEE710E0416041
:104030006560FFF7EDFD61687068401A7060B268F6
:10404000904200D2B060F06801430020C4E9000152
:1040500001F03EFA780707D0502080F31188BFF3B3
:104060004F8FBFF36F8FFEE73846BDE8F081000049
:10407000CC0000200449086818B10868026D521C81
:1040800002650868704700007800002010B5031F23
:104090004FF080741C601B1F21F001011960191F73
:1040A000024B0B60143940380A6010BDE53E000831
:1040B0002DE9F843044602464C486946B0EB420FEE
:1040C00009D94FF0E640B0EB420F94BF00204FF00B
:1040D000FF30009030E0464B22F00040834265D92B
:1040E0004449204601F04CFC01F016FD804601F0E9
:1040F000DFFB00F0030000903F49404601F040FC28
:1041000005463E49404601F03BFC06463C494046D8
:1041100001F036FC07463B49404601F031FC2146A0
:1041200001F02AFD394601F031FD314601F02EFD46
:10413000294601F02BFD0446009D002D3ADB214667
:10414000084601F01DFC06462F4901F019FC2F49D5
:1041500001F084FA314601F013FC2D4901F07EFA9A
:10416000314601F00DFC2B4901F078FA314601F09F
:1041700007FC294901F072FA314601F001FC274998
:1041800001F06CFA314601F0FBFB214601F0F8FB2F
:10419000214601F063FA15F0010F08BFBDE8F8836E
:1041A0000146BDE8F8431E4801F0C0BA1046FFF7CB
:1041B00021F9C0E76000B0F17F4F09D22046FFF738
:1041C000E9F8042808BFFFF70FF92046BDE8F88397
:1041D00006D10120FCF79AF9BDE8F843FFF700B9D2
:1041E0002046BDE8F843FFF7F8B80000B61F927EFE
:1041F000490E494683F9223F1A61342C0020A2332C
:1042000000A0FD390000C93FBBE9223C0C6D063B14
:104210008A76CE3CACB5593D35A1083E29AAAA3EC6
:10422000000080BFD0E9013201699A60D0E9012322
:104230005A604A68824201D182684A600022026163
:104240000868401E0860086870470000034B036060
:1042500003F15C000860802010607047881900201E
:10426000044B036003F15C0008604FF48070106041
:1042700070470000E41B0020704700F108014FF078
:10428000FF32C0E90112C160016100210160704785
:1042900000210161704730B50B685A1C02D000F153
:1042A000080202E0026904E02246546825689D4243
:1042B000FAD953684B6099608A605160086101685F
:1042C000491C016030BD42684A6093688B60936806
:1042D0005960916008610168491C016070470000E5
:1042E000502080F31188BFF34F8FBFF36F8F0A49BF
:1042F0004868401C486001280CD10848006810F04C
:10430000FF0F07D0502080F31188BFF34F8FBFF30A
:104310006F8FFEE770470000E400002004ED00E02E
:104320000849486828B1401E486001D180F31188CF
:104330007047502080F31188BFF34F8FBFF36F8F0A
:10434000FEE70000E400002070B5002827D0144DDF
:10435000A0F108046168E868014207D1502080F3A9
:104360001188BFF34F8FBFF36F8FFEE722683AB11A
:10437000502080F31188BFF34F8FBFF36F8FFEE79C
:104380008143616000F0BCF9606869680844686056
:104390002046FFF73DFCBDE8704001F099B870BDC4
:1043A000CC0000204FF0E02000210161816105492F
:1043B0004FF47A720968B1FBF2F1491E416107219D
:1043C000016170477400002010B5FBF74FFF1149E1
:1043D00010280ED300F1E02090F8F0030A78904204
:1043E00007D2502080F31188BFF34F8FBFF36F8F38
:1043F000FEE709480068896800F4E060884207D950
:10440000502080F31188BFF34F8FBFF36F8FFEE70B
:1044100010BD0000E40000200CED00E010B5084BDA
:10442000002200BF53F832401CB1521C082AF9D3B5
:1044300010BD43F8321003EBC201486010BD00000C
:104440006C13002070B515460E460446FFF748FF72
:1044500094F944100020491C01D184F8440094F9D7
:104460004510491C01D184F84500FFF759FFA06BA6
:1044700028B92A46314604F1240000F099F8204674
:10448000BDE87040FFF754BD10B5020014D00F48CE
:10449000806B38B1502080F31188BFF34F8FBFF38A
:1044A0006F8FFEE700F02CF900211046FFF7C8F9E6
:1044B00001F00EF8002807D105494FF08050086040
:1044C000BFF34F8FBFF36F8F10BD00007800002047
:1044D00004ED00E070B50546FFF702FF1E4C05B97C
:1044E0002568281DFFF79EFEA86A18B105F118007F
:1044F000FFF798FEE06A401CE0622068854207D121
:10450000291D1648FFF7DFFEE068401CE06007E069
:104510002069401E20612846FFF79DFAFFF788FCBE
:10452000FFF7FEFEE069002814D02068854211D113
:10453000A06B38B1502080F31188BFF34F8FBFF3C9
:104540006F8FFEE706494FF080500860BFF34F8F32
:10455000BFF36F8F70BD0000780000204818002066
:1045600004ED00E002498A6A0260496941607047CF
:10457000780000200149012048627047780000203F
:1045800010B50C4650B1094909681831FFF783FE90
:104590002046BDE810400121FFF752B9502080F3BA
:1045A0001188BFF34F8FBFF36F8FFEE778000020B5
:1045B00070B514460D4668B10A4909681831FFF70D
:1045C00082FE0CB14FF0FF3521462846BDE8704011
:1045D000FFF736B9502080F31188BFF34F8FBFF338
:1045E0006F8FFEE77800002070B504003ED0226D8A
:1045F000A2B1E06C884200D30146E06A884235D01F
:10460000012A33D11A4D2A6894420FD1502080F3E9
:104610001188BFF34F8FBFF36F8FFEE7502080F3F9
:104620001188BFF34F8FBFF36F8FFEE7E162A2697E
:10463000002A02DBC1F13801A1610E4E00EB8000BF
:10464000616906EB8000814210D1201DFFF7EAFD71
:10465000E06AA969884200D9A86100EB800006EBF6
:104660008000211DBDE87040FFF72DBE70BD000029
:1046700078000020AC13002030B587B000240394EC
:1046800005AA04A903A80494FFF7E0FDDDE90301EE
:104690000094CDE90110002315A11748059A00F0F8
:1046A000BAFD164D002868631FD000F073FF012883
:1046B00009D0401C19D1502080F31188BFF34F8FCF
:1046C000BFF36F8FFEE7502080F31188BFF34F8F49
:1046D000BFF36F8F4FF0FF3028630120E8616C61FA
:1046E00007B0BDE8304000F081B907B030BD000030
:1046F00049444C4500000000D93A000878000020E9
:104700000248816B491C81637047000078000020DB
:1047100010B5204CA06B10B10120606210BD0020CC
:10472000606220684FF0A531006B02688A4208D1B0
:1047300042688A4205D182688A4202D1C0688842B2
:1047400004D0216820683431FFF796FDA069124932
:1047500001E0B8B1401E00EB800251F82220002A8F
:10476000F7D000EB800201EB820101F108034A68F7
:1047700052684A609A4201D152684A60D168216009
:10478000A06110BD502080F31188BFF34F8FBFF39D
:104790006F8FFEE778000020AC13002070B50E4C40
:1047A000225C002A16D104F10B0252F82050921F0D
:1047B000135CEE5C00258E4202D15B1C135400E0BA
:1047C0001554054B115C5B1F1B5C994202D11554BB
:1047D0000121215470BD000005000020024A002183
:1047E0001154521D115470470500002000224FF44F
:1047F000FA7306E00021491C89B29942FBD3521C8E
:1048000092B28242F6D3704710B5164B044619791E
:1048100029B10220FFF7E2FF0420FFF7DFFF9878BD
:1048200000281ED0224610A11248FBF743FD024685
:1048300011A11648FBF73EFD82B24FF6FF742346E6
:1048400012491348FDF764FF0A4A12A10F48FBF70B
:1048500031FD234682B2BDE810400C490C48FDF7FB
:1048600057BF10BD05000020484541442025642065
:10487000454E4400F000002041542B43495053451D
:104880004E443D302C25640D0A0000001801002024
:10489000DC12002025730D0A0000000010B52BA1CA
:1048A0002E48FBF707FD82B24FF6FF7423462B49D3
:1048B0002B48FDF72DFF002000F086F829A127489E
:1048C000FBF7F8FC82B2234624492548FDF720FF78
:1048D000012000F079F80020FFF780FF24A11F4895
:1048E000FBF7E8FC82B223461C491D48FDF710FF88
:1048F000002000F069F821A11848FBF7DBFC82B228
:10490000234616491648FDF703FF002000F05CF827
:104910001EA11248FBF7CEFC82B223460F49104875
:10492000FDF7F6FE002000F04FF81EA10B48FBF744
:10493000C1FC82B2234609490948FDF7E9FE00207F
:1049400000F042F81F490120487010BD41542B432C
:10495000574D4F44453D320D0A000000180100201C
:10496000DC12002041542B5253540D0A0000000069
:1049700041542B43494653520D0A000041542B43E6
:1049800049504D55583D310D0A00000041542B430C
:1049900049505345525645523D312C383038300D30
:1049A0000A00000041542B43575341503D224750C9
:1049B00054222C223132333435363738222C312CE4
:1049C000330D0A000500002030B50446064D02E014
:1049D0000120FFF70BFF285D0028F9D02046BDE835
:1049E0003040FFF7FBBE0000050000201CB5264943
:1049F00008780190FF20087008788DF800009DF875
:104A000000009DF8002000F0F000904207D05020F8
:104A100080F31188BFF34F8FBFF36F8FFEE79DF8D0
:104A200000001A4B00F0500018700720986005E055
:104A30009DF8002052008DF80020401E9DF80020B7
:104A40001206F5D49860032807D0502080F311880F
:104A5000BFF34F8FBFF36F8FFEE74FF44070986046
:104A6000019808700A48016841F47001016001680A
:104A700041F070410160FFF795FC00205860FBF7A2
:104A8000BFFB00201CBD000000E400E0E4000020AB
:104A900020ED00E010B502460021012000F012F8E0
:104AA0000446FFF749F8204610BD38B50B460022F2
:104AB00000901146012000F029F80446FFF73CF869
:104AC000204638BDF8B517460E46050014D0DEB1B5
:104AD00005FB06F05030FFF761FA04000AD0002011
:104AE00084F8460004F150023B46314628460094C3
:104AF000FFF72EF82046F8BD502080F31188BFF351
:104B00004F8FBFF36F8FFEE70020E3E738B5049DBA
:104B100018B153B1CAB181B120E0502080F311889F
:104B2000BFF34F8FBFF36F8FFEE7502080F31188E4
:104B3000BFF34F8FBFF36F8FFEE7502080F31188D4
:104B4000BFF34F8FBFF36F8FFEE739B1502080F373
:104B50001188BFF34F8FBFF36F8FFEE750241C46C1
:104B6000012384F846302B460094FEF7F1FF2046DF
:104B700038BD000070B50D46040025D0FFF7B0FB2E
:104B8000D4E90F20216802FB001161600021A163BC
:104B90002168A1600A46D4E90F01401E00FB0121F3
:104BA000E16021464FF0FF3001F8440F487004F1F6
:104BB00010008DB1FFF761FB04F12400FFF75DFBEE
:104BC000FFF7AEFB012070BD502080F31188BFF3CA
:104BD0004F8FBFF36F8FFEE721690029F0D000F0FF
:104BE0003FFC0028ECD004494FF080500860BFF330
:104BF0004F8FBFF36F8FE3E704ED00E02DE9FF4730
:104C000082B01D468A464FF00008040003D0BAF176
:104C1000000F08D011E0502080F31188BFF34F8FB0
:104C2000BFF36F8FFEE7206C38B1502080F31188FE
:104C3000BFF34F8FBFF36F8FFEE7022D0AD1E06BFA
:104C4000012807D0502080F31188BFF34F8FBFF3A6
:104C50006F8FFEE700F010FB3F4F4FF000094FF061
:104C6000805648B9049838B1502080F31188BFF3BA
:104C70004F8FBFF36F8FFEE7FFF732FBA06BE16B47
:104C8000884207D3022D05D00498D0B1B8F1000FA7
:104C90001AD01EE02A4651462046FEF7A6FE616A5B
:104CA00019B104F1240000F0DBFB20B13E60BFF33A
:104CB0004F8FBFF36F8FFFF733FB012006B0BDE8C6
:104CC000F087FFF72DFB22E06846FFF74BFC4FF023
:104CD0000108FFF725FBFFF713FDFFF701FB94F930
:104CE0004400401C01D184F8449094F94500401CD4
:104CF00001D184F84590FFF713FB04A9684600F042
:104D000023FA30B12046FFF713F900F0E1FB002051
:104D1000D4E7FFF7E5FAA06BE16B884213D1FFF708
:104D2000FFFA04F110000499FFF72AFC2046FFF770
:104D3000FFF800F0CDFB00289ED13E60BFF34F8FFF
:104D4000BFF36F8F98E7FFF7EBFA2046FFF7F0F815
:104D500000F0BEFB90E7000004ED00E02DE9F04715
:104D60001F4690468946040003D0B9F1000F08D0D1
:104D700011E0502080F31188BFF34F8FBFF36F8F86
:104D8000FEE7206C38B1502080F31188BFF34F8FBD
:104D9000BFF36F8FFEE7022F0AD1E06B012807D027
:104DA000502080F31188BFF34F8FBFF36F8FFEE762
:104DB000FFF70AFB5020EFF3118680F31188BFF351
:104DC0004F8FBFF36F8FA06BE16B884206D3022F2A
:104DD00004D0002086F31188BDE8F08794F945508F
:104DE0003A4649462046FEF700FE681C04D06D1C7A
:104DF00084F845500120EDE7606A0028FAD004F1FC
:104E0000240000F02DFB0028F4D0B8F1000FF1D001
:104E10000121C8F80010EDE710B5040009D000F03A
:104E200025FA6168884214D1E068401EE06008D02D
:104E30000DE0502080F31188BFF34F8FBFF36F8FC9
:104E4000FEE700231A4619462046FFF7D7FE012049
:104E500010BD002010BD00002DE9F747002683B0EB
:104E60008A46040003D0BAF1000F08D011E05020A8
:104E700080F31188BFF34F8FBFF36F8FFEE7206C75
:104E800038B1502080F31188BFF34F8FBFF36F8F7D
:104E9000FEE700F0F1F9DFF8F4804FF000094FF081
:104EA000805748B9059838B1502080F31188BFF376
:104EB0004F8FBFF36F8FFEE7FFF712FAA56BC5B1F7
:104EC00051462046FEF77EFD6D1EA563206950B158
:104ED00004F1100000F0C4FA28B1C8F80070BFF364
:104EE0004F8FBFF36F8FFFF71BFA012006B0BDE8AD
:104EF000F087059808B11EB106E0FFF711FA27E028
:104F00006846FFF72FFB0126FFF70AFAFFF7F8FBC9
:104F1000FFF7E6F994F94400401C01D184F844906D
:104F200094F94500401C01D184F84590FFF7F8F949
:104F300005A9684600F008F9002820460AD0FEF7C7
:104F4000F7FF00F0C5FA2046FEF7A4FE0028B3D014
:104F50000020CBE7FEF79EFE90B104F124000599F6
:104F6000FFF70EFB2046FEF7E3FF00F0B1FA002842
:104F7000A2D1C8F80070BFF34F8FBFF36F8F9BE7CC
:104F80002046FEF7D5FF00F0A3FA95E704ED00E018
:104F90002DE9F343002683B00400354609D0206C88
:104FA00078B1502080F31188BFF34F8FBFF36F8F1C
:104FB000FEE7502080F31188BFF34F8FBFF36F8F50
:104FC000FEE700F059F9DFF83C814FF000094FF09F
:104FD000805748B9049838B1502080F31188BFF346
:104FE0004F8FBFF36F8FFEE7FFF77AF9A06BC8B161
:104FF000401EA063206810B9FFF73CF8606020698C
:1050000050B104F1100000F02BFA28B1C8F800707C
:10501000BFF34F8FBFF36F8FFFF782F9012005B009
:10502000BDE8F083049808B166B10FE03DB15020AF
:1050300080F31188BFF34F8FBFF36F8FFEE7FFF749
:105040006FF95DE06846FFF78DFA0126FFF768F912
:10505000FFF756FBFFF744F994F94400401C01D1D7
:1050600084F8449094F94500401C01D184F845909F
:10507000FFF756F904A9684600F066F800282046B4
:1050800012D0FEF755FF00F023FA2046FEF702FE8D
:105090000028A9D09DB3FFF723F9606A50B3206BB5
:1050A0000068C0F1380126E0FEF7F4FDE0B12068A9
:1050B00038B9FFF715F9606800F096F90546FFF773
:1050C0002FF904F124000499FFF75AFA2046FEF75D
:1050D0002FFF00F0FDF9002886D1C8F80070BFF35B
:1050E0004F8FBFF36F8F7FE72046FEF721FF00F061
:1050F000EFF979E700216068FFF776FA9FE7FFE7AD
:1051000000208CE704ED00E070B50D46040009D0E6
:1051100000F0ACF8616888420CD1E068401CE060A7
:10512000012070BD502080F31188BFF34F8FBFF373
:105130006F8FFEE729462046FFF72AFF0028F0D0B0
:10514000E168491CE16070BD2DE9F0410C460500A5
:1051500011D0C4B1FFF7C4F8174B5A696E682068C4
:10516000911B471C17D02F689B6A9F4219D096420B
:1051700017D8012410E0502080F31188BFF34F8F1F
:10518000BFF36F8FFEE7502080F31188BFF34F8F7E
:10519000BFF36F8FFEE70024FFF7C2F82046BDE89B
:1051A000F081884205D9401A20602846FFF7DAF9D5
:1051B000F1E700202060DCE7780000202DE9FF5FA8
:1051C0008346DDE90E87994616468A469000FEF72B
:1051D000E5FE05001CD05C20FEF7E0FE040014D0C4
:1051E0000020256384F85900CDE90240CDE900870D
:1051F0004B46324651465846FEF7BBFC2046FEF76A
:105200004DFB012004B0BDE8F09F2846FFF79CF855
:105210004FF0FF30F6E7F0B585B0DDE90B640A9D8D
:10522000A6B1DCB15C2700972663022684F859609A
:10523000002604AFCDE90246CDE90057FEF799FC00
:105240002046FEF72BFB049805B0F0BD502080F3FC
:105250001188BFF34F8FBFF36F8FFEE7502080F3AD
:105260001188BFF34F8FBFF36F8FFEE701480068CF
:1052700070470000780000200548C16919B1806BB3
:1052800018B10020704701207047022070470000CD
:105290007800002001484069704700007800002035
:1052A0002DE9F0412E4C0027A06B40B1206A401C34
:1052B0002062606A00B101273846BDE8F081666966
:1052C000761C666113D16068006838B1502080F3A5
:1052D0001188BFF34F8FBFF36F8FFEE76068A1683F
:1052E0006160A060A06A401CA062FEF7A1FD206B77
:1052F000DFF87080864209D36068006880B160681A
:10530000C068C568686886420DD220632068C06A9C
:1053100000EB800158F821000128CAD90127C8E70D
:105320004FF0FF30F1E7281DFEF77CFFA86A18B1A7
:1053300005F11800FEF776FFE86AA169884200D9F6
:10534000A06100EB800108EB8100291DFEF7BBFF87
:10535000E86A2168C96A8842CED30127CCE70000F9
:1053600078000020AC13002070B504004FF000015D
:1053700033D01B4D2868844207D0502080F3118819
:10538000BFF34F8FBFF36F8FFEE7206D38B1401E24
:105390002065E36CE26A9A421FD040B11DE05020C4
:1053A00080F31188BFF34F8FBFF36F8FFEE7201D8F
:1053B000FEF738FFE06CE062C0F13800A061E06AFF
:1053C000A969884200D9A861064900EB800001EB79
:1053D0008000211DFEF777FF0121084670BD000007
:1053E00078000020AC13002070B504004FF00000DE
:1053F0002BD0194DE16A2A68D26A914226D2A0695F
:10540000002804DB2868C06AC0F13800A061134E90
:1054100001EB8101606906EB8101884211D1201DF9
:10542000FEF700FF2868C06AE062A969884200D9D7
:10543000A86100EB800006EB8000211DFEF743FF12
:1054400002E02868C06AE062012070BDE16C2A6851
:10545000D26A9142F8D370BD78000020AC130020CE
:1054600070B5C068C46854B104F118000646FEF770
:10547000D9FE144DA86B50B13146134815E05020A9
:1054800080F31188BFF34F8FBFF36F8FFEE7201DAE
:10549000FEF7C8FEE06AA969884200D9A8610B49F5
:1054A00000EB800001EB8000211DFEF70CFFE06A9D
:1054B0002968C96A884202D90120686270BD00204B
:1054C00070BD00007800002034180020AC130020CC
:1054D0002DE9F0472C4D00242746A86B38B1FEF784
:1054E000FFFEA86B401EA863A86B40B146E05020A9
:1054F00080F31188BFF34F8FBFF36F8FFEE72969E9
:10550000224E0120D1B3A6F5916980463068E0B102
:10551000F068C46804F11800FEF784FE201DFEF751
:1055200081FEE06AA969884200D9A86100EB800188
:1055300009EB8100211DFEF7C6FEE06A2968C96AF1
:105540008842E3D3C5F82480E0E70CB1FEF770FC95
:105550002C6A4CB14FEA0806FFF7A2FE00B16E625A
:10556000641EF9D100202862686A38B10849012711
:1055700038070860BFF34F8FBFF36F8FFEF7D0FE81
:105580003846BDE8F087000078000020341800207D
:1055900004ED00E010B586B0FEF7E8F9114CA06804
:1055A000B8B100200390049005AA04A903A8FEF74F
:1055B00057FEDDE9032102208DE8070000230AA140
:1055C0000B48059AFFF727FEE06010B106B00120F6
:1055D00010BD502080F31188BFF34F8FBFF36F8F42
:1055E000FEE70000B4000020546D72205376630083
:1055F0000D3F00082DE9FF411E46134602000A9D9B
:105600004FF0000016D0144CA768002F0FD0CDE942
:1056100000130292062917DAFFF72EFE02284FF038
:1056200000030FD000226946A068FFF7E7FA04B034
:10563000BDE8F081502080F31188BFF34F8FBFF396
:105640006F8FFEE72A46EEE700233246694638466A
:10565000FFF784FBEBE70000B400002090EA010FA5
:1056600048BF81F0004100F19882421A3CBF801A85
:1056700089184FEAD0524FF07F4C1CEA410FA2EB41
:10568000D15318BF9CEA026F00F03B804FF0004CF2
:105690004CEA00204CEA012121FA03FC10EB0C0C2F
:1056A0001ED202F1FF325FEA1C2040EBC25038BF2D
:1056B00070471CF07F0F4FEA400C18BFBCF17F4FC2
:1056C00038BF7047C3F12003994008BF20F00100A4
:1056D000BCF17F4F38BF7047A0F1C04000F017BA4F
:1056E0004FEA3C00000A40EBC25028BF1CF0FF0FFD
:1056F0004FEA400CE6D018BFBCF17F4F38BF70476F
:10570000EAE79CEA026F05D010EA5C0F08BF00F0E0
:105710000040704710B500F0B4F900BF64FBBE3E16
:10572000014800F0A8BA00BF0000C07F4FF47F0C12
:105730001CEAD0121EBF1CEAD11392EA0C0F93EAA6
:105740000C0F00F0858090EA010F48BF42F4807290
:1057500040F4000C41F400002CF07F4120F07F4029
:1057600000B58142A2EB03020FF2081CACEB504ED5
:10577000C0F100009EF800E04FEA4E0E00FB0EFC68
:1057800038BF49004FEA2C1C02F5FA020CFB0EF35D
:105790004FEACE1E4FEA112C4FEAC1210EEB635E99
:1057A00042EB22420EFB0CFC4FEA1C5300FB0311A0
:1057B0004FEA112C4FEA01310EFB0CFC4FEADC4C96
:1057C00000FB0C11C14228BF09184CEB03335DF8F4
:1057D00004EB10EB410143EBC250B2F57C0F38BF34
:1057E000704729D512F0F00F1CBF00F1C04000F047
:1057F00000407047008182838485868788898B8CEE
:105800008D8E8F919293959697999A9C9D9FA0A229
:10581000A3A5A7A8AAACAEB0B2B3B5B7B9BCBEC079
:10582000C2C5C7C9CCCED1D4D7D9DCDFE2E6E9EC1A
:10583000F0F3F7FAFE0000004FEA400C0CF1807C18
:10584000BCF17E4F28BF7047B0F1C04000F05FB997
:1058500090EA010F0CEAD11348BF42F4807262450E
:1058600038BF634507D213F47F0F16D080EA0100DA
:1058700000F00040704710B500F003F9097EFC3ECF
:1058800000F005B880EA010000F00040704780EAAF
:10589000010000F0004000F03AB912F47F0F04BF9D
:1058A0000248704780EA010000F031B90000C07F73
:1058B00041000B0ED3F19E0208D950F400034FEAC9
:1058C000032323FA02F048BF4042704710B500F0AE
:1058D000D8F800BF49922480002070476FF0004242
:1058E00082EA200070470000C10DD1F19E0206DB64
:1058F0004FEA002343F0004323FA02F070470042CE
:1059000007D54FEA4001B1F1FE4F02D24FF000003F
:10591000704710B500F0B5F8499224800020704718
:105920006FEA20007047000010F0004148BF40427D
:10593000B0FA80F310FA03F2C3F19D030BD051EAE1
:10594000C35101EB1220530638BF704700F101002C
:1059500008BF20F001007047B0FA80F310FA03F29C
:10596000C3F19D030AD0D90501EB1220530638BFBD
:10597000704700F1010008BF20F0010070470000EF
:105980004FF47F0C1CEAD0121EBF1CEAD11392EA1E
:105990000C0F93EA0C0F00F0478090EA010F48BF0C
:1059A00042F480724FF0004C4CEA00204CEA012196
:1059B00002EB0302A0FB0113A2F50002002918BFAD
:1059C00043F001035B0028BF4FEA330342EB22425E
:1059D0005FEA132C4CEBC2502EBFBCEB436FB2F509
:1059E0007C0F70474FEA036CBCF1004F08BF20F0FA
:1059F0000100B2F57C0F38BF70470BD582F0FF0273
:105A000012F5803FC8BF704700F1C040D8BF00F01A
:105A10000040704700F5000C5FEA4C0C48BF70472F
:105A2000B0F1C04000F073B890EA010F0CEAD11356
:105A300048BF42F48072624538BF634504D280EAB1
:105A4000010000F00040704710B500F01AF800BFE8
:105A50008900013E00F007B800F009B85FEA410C88
:105A60005FEA1C6C08D080EA010000F050B85FEAE1
:105A7000400C5FEA1C6CF6D14FF00040A0F58000AE
:105A800070470EF1020E2EF0030E5EF8044B244216
:105A900004D44FEA4102B2F17F4F11D84FEA4003DC
:105AA000B3F17F4F0CD80ED14FEAD07CB2F17F4FCB
:105AB0000CEB4C0C0CF1020C08BF4CEBD17C04E05D
:105AC0004FF0080C01E04FEAD17C0CEB4C0324FAB8
:105AD00003F404F00704B4F1040C06D20EEB840CBA
