:020000040800F2
:100000009821002069020008F7220008C920000892
:10001000F5220008C9060008352700080000000086
:10002000000000000000000000000000D1010008F6
:10003000730700080000000015020008552300089F
:10004000830200088302000883020008830200087C
:10005000830200088302000883020008830200086C
:100060008302000883020008830200083D0700089D
:10007000830200088302000883020008830200084C
:10008000830200088302000883020008830200083C
:10009000830200088302000883020008830200082C
:1000A000830200088302000883020008830200081C
:1000B000830200088302000883020008830200080C
:1000C00083020008830200088302000883020008FC
:1000D000830200081D270008292700088302000862
:1000E00083020008830200088302000883020008DC
:1000F00083020008830200088302000883020008CC
:1001000083020008830200088302000883020008BB
:100110008302000883020008FD2300088302000810
:10012000830200088302000883020008830200089B
:1001300000F002F800F03CF80AA090E8000C8244BD
:100140008344AAF10107DA4501D100F031F8AFF29A
:10015000090EBAE80F0013F0010F18BFFB1A43F0A5
:10016000010318470046000020460000103A24BF53
:1001700078C878C1FAD8520724BF30C830C144BF0C
:1001800004680C607047000000230024002500264E
:10019000103A28BF78C1FBD8520728BF30C148BFEA
:1001A0000B607047002070471FB51FBD10B510BD14
:1001B00000F0B2F91146FFF7F7FF02F0D9FA00F0AC
:1001C000D0F903B4FFF7F2FF03BC00F0D3F900004D
:1001D000224B19680868B0E8F00F80F30988BFF374
:1001E0006F8F4FF0000080F311884EF00D0E7047B6
:1001F0000000000006480068006880F3088862B6C6
:1002000061B6BFF34F8FBFF36F8F00DF00BF00BF3A
:1002100008ED00E0EFF30980BFF36F8F0F4B1A6812
:1002200020E9F00F106008B54FF0500080F31188FE
:10023000BFF34F8FBFF36F8F03F0C2FA4FF0000090
:1002400080F31188BDE8084019680868B0E8F00F2D
:1002500080F30988BFF36F8F704700BF380000201C
:10026000EFF30580704700000948804709480047C0
:10027000FEE7FEE7FEE7FEE7FEE7FEE7FEE7FEE756
:10028000FEE7FEE704480549054A064B70470000B3
:10029000FB23000831010008981B00209821002052
:1002A000981D0020981D00200FB41CB5084B06AA0D
:1002B0007B4469460090059800F0BDF80446002094
:1002C000694600F0CBF820461CBC5DF814FB00002A
:1002D000A90100002DE9F0410E46044600202062ED
:1002E0002046E168884730B3252805D0D4E90121AC
:1002F0009047206A401CF2E7E168204600278847C3
:10030000050018D0A5F14100192802D820354FF476
:1003100000673246294620462760FFF743FF40B179
:10032000012804D0F61D26F007060836D8E7361D4A
:10033000D6E72846DAE7206ABDE8F081032A40F2D2
:10034000308010F0030C00F0158011F8013BBCF177
:10035000020F624498BF11F801CB00F8013B38BF8F
:1003600011F8013BA2F1040298BF00F801CB38BF9D
:1003700000F8013B11F0030300F07580083AC0F06B
:10038000088051F8043B083A51F804CBA0E8081063
:10039000F5E7121D5CBF51F8043B40F8043BAFF396
:1003A0000080D20724BF11F8013B11F801CB48BFF0
:1003B00011F8012B24BF00F8013B00F801CB48BF26
:1003C00000F8012B704702F0FF0343EA032242EAE0
:1003D000024200F07CB84FF0000200B5134694468C
:1003E0009646203922BFA0E80C50A0E80C50B1F18D
:1003F0002001BFF4F7AF090728BFA0E80C5048BFA1
:100400000CC05DF804EB890028BF40F8042B08BF3E
:10041000704748BF20F8022B11F0804F18BF00F83A
:10042000012B7047704770477047000001694A1CF4
:1004300002610878704700B58FB0CDE90131002125
:10044000059105497944CDE9031011466846FFF747
:1004500041FF0FB000BD0000E5FFFFFF0A6802F892
:10046000010B0A60704710B5203AC0F00B80B1E86C
:100470001850203AA0E81850B1E81850A0E81850D9
:10048000BFF4F5AF5FEA027C24BFB1E81850A0E8E2
:10049000185044BF18C918C0BDE810405FEA827CFC
:1004A00024BF51F8043B40F8043B08BF7047D20713
:1004B00028BF31F8023B48BF11F8012B28BF20F8B4
:1004C000023B48BF00F8012B70474FF0000204299F
:1004D000C0F0128010F0030C3FF47FAFCCF1040C9D
:1004E000BCF1020F18BF00F8012BA8BF20F8022BA7
:1004F000A1EB0C01FFF771BF5FEAC17C24BF00F8DC
:10050000012B00F8012B48BF00F8012B70470000B9
:1005100000487047341B00207546FFF7F9FFAE46D0
:1005200005006946534620F00700854618B020B5FF
:10053000FFF7A8FEBDE820404FF000064FF000078F
:100540004FF000084FF0000B21F00701AC46ACE87B
:10055000C009ACE8C009ACE8C009ACE8C0098D46E8
:10056000704710B50446AFF300802046BDE8104048
:10057000FFF727BE01491820ABBEFEE726000200A8
:100580007047000070B5044600688168C943C90718
:1005900017D1816821F00101816000F02FFE05462E
:1005A0000AE000BF00F02AFE401B022804D92068A0
:1005B0008068C043C00706D020688068C043C00779
:1005C000F0D0002070BDA06A40F01000A062E06A88
:1005D00040F00100E062012070BD10B50146406AA4
:1005E000826A12F0500F05D0006A026BBDE810401D
:1005F00008461047816A41F4007181620168896888
:10060000C1F3424107290CD1017B51B9816A21F420
:1006100080718162816AC90403D4816A41F0010159
:10062000816200F027F910BD10B5406A816A41F07F
:1006300040018162C16A41F00401C16200F01CF90D
:1006400010BD10B5406A00F016F910BDF8B50026CF
:100650000446009600688168C943C9072DD08168A7
:1006600041F001018160164816490068B0FBF1F0C5
:1006700000E0401E00900028FBD100F0BFFD0546C1
:1006800016E000BF00F0BAFD401B022810D9206818
:100690008068C043C0070BD0A06A40F01000A06281
:1006A000E06A40F00100E06284F824600120F8BDB7
:1006B00020688068C043C007E4D10020F8BD000076
:1006C0003400002040420F00FEE700002DE9F04119
:1006D000194E054600224021304600F089FD0120D8
:1006E000401C0A28FCDB00244FF400774FF6FF780B
:1006F000280401D5012200E000228021304600F0CC
:1007000077FD00223946304600F072FD0220401C81
:100710001428FCDB01223946304600F069FD641CD8
:10072000E4B208EA4505102CE2D33046BDE8F041BA
:100730000122402100F05CBD00100140014800F0A2
:10074000B9BA00004401002030B590F840500124AF
:10075000AC40C56B6C60046863604368102B036831
:1007600003D099600068C26030BD9A600068C160C3
:1007700030BD704772B6FEE7F8B50024009490F8DB
:1007800024202546012A12D0012280F824204A681C
:100790001F23072A0DD20668776B521E02EB8202D6
:1007A00093409F430B6893401F43776319E00220F7
:1007B000F8BD06680D2A0AD2376BD21F02EB8202FF
:1007C00093409F430B6893401F43376309E0F76AE8
:1007D0000D3A02EB820293409F430B6893401F4304
:1007E000F7620A68072306680A2A0AD3F7680A3AF2
:1007F00002EB420293409F438B6893401F43F76094
:1008000008E0376902EB420293409F438B689340B4
:100810001F4337610A68102A01D0112A20D1124BD8
:1008200002689A4217D193681B0219D4936843F463
:10083000000393600968102912D10C490C4A096819
:10084000B1FBF2F101EB8101490000E0491E00918A
:100850000029FBD104E0816A41F02001816201247A
:1008600080F824502046F8BD0024014034000020C8
:1008700040420F0070477047704700002DE9F0417B
:1008800004004FF0000514D0A06A002628B9E662E3
:1008900084F82460204600F083F82046FFF772FEBB
:1008A000A16A01F01001014304D0A06A40F01000D9
:1008B000A0626BE0A16A21F4885141F00201A162BB
:1008C000334923688B42E16904D1B1F5402F01D14E
:1008D0004FF40021277B4FF4807C41EA4702616896
:1008E0000A43A168614509D0012907D05FF00001E2
:1008F00094F814E0BEF1010F02D00AE06146F7E778
:10090000C7B1A76A47F02007A762E76A47F0010767
:10091000E7625F6827F469470F435F60236899685F
:100920001C4F394011439960A16861450BD00129E2
:1009300009D00CE0DFF860E0A7690EEB47370F4302
:1009400047F40061E5E7218A0D05A5F580152168CA
:10095000CB6A23F470032B43CB62216889680F4B69
:100960001940914208D1E662A16A21F0020141F0EA
:100970000101A162BDE8F081A06A20F0020040F010
:100980001000A062E06A40F00100E0620120F1E79F
:10099000003C0140FDF7E1FF00E0FFFFFE0E1FFFFE
:1009A00070B586B000250646009501950295039521
:1009B00000681A4988422ED11949886940F40070AC
:1009C0008861886900F400700490886940F0100024
:1009D00088618869694600F010000490102000903A
:1009E000032001900F4800F0FFFA104C0E48C4E9B4
:1009F00000058020C4E90250400020618000606151
:100A00002020C4E90605204600F078FA08B1FFF777
:100A1000B1FE3462666206B070BD00000024014081
:100A20000010024000100140080002404401002074
:100A30002DE9F047894604463B4900683B4F0E1DAF
:100A40009046884201D0B84207D1306810F4702F28
:100A500003D001252846BDE8F08794F8240001283A
:100A60000CD0012084F824002046FFF7EFFD05009C
:100A70004FF0000004D084F82400EBE70220EAE7FE
:100A8000A16A40F60162914341F48071A16221683C
:100A9000B94218D1326812F4702F14D0A16A41F40F
:100AA0008011A1623168490505D5A16A21F4005180
:100AB00041F48051A162A16AC9040AD5E16A21F01A
:100AC0000601E16206E0A26A22F48012A26249688D
:100AD000E9E7E06284F82400216A15488862216A07
:100AE0001448C862216A1448086321686FF0020044
:100AF00008602068816841F4807181602168434604
:100B00004A464C31206A00F037FA20688168C1F308
:100B100042410729816803D041F48011816099E73F
:100B200041F4A001FAE70000002401400028014040
:100B3000DB050008430600082906000810B590F8F8
:100B400021100022022905D00421816380F8202091
:100B5000012010BD01680B6823F00E030B600168D3
:100B60000B6823F001030B6090F84030C46B012147
:100B700001FA03F3636080F8211080F8202010460A
:100B800010BD00002DE9F05F90F82110002402292B
:100B900003D004218163012485E001680A6822F002
:100BA0000E020A6001680A6822F001020A603F4EE4
:100BB0003E4FB215DFF8F4C0DFF8F090DFF8ECA09C
:100BC000DFF8E8B0DFF8E4E00168783F13011502D0
:100BD000ACF1640CA9F15009AAF13C0AABF1280B65
:100BE000AEF1140E4FF48018B14227D9B9420ED09D
:100BF000614512D049451DD0514518D0594518D0EE
:100C0000714501D1424615E0294EB14201D1012280
:100C100010E0274E1436B14201D110220AE0244ED2
:100C20002836B14206D0224A3C32914201D11A46BE
:100C300000E02A461E49091F0A602BE0B94213D082
:100C4000614517D0494522D051451DD059451DD089
:100C5000714501D142461AE0B14202D14FF0807293
:100C600015E0134EB14201D1012210E0104E1436AE
:100C7000B14201D110220AE00D4E2836B14206D011
:100C80000B4A3C32914201D11A4600E02A460749FC
:100C900080394A60012180F82110002180F820105D
:100CA000416B01B188472046BDE8F09F80000240BB
:100CB000080402402DE9F05FC16B0A6801680B6807
:100CC000046C4FF0040808FA04F8844D844E854FF4
:100CD000DFF814C2DFF81492DFF814A2DFF814B2C0
:100CE000DFF814E218EA020F65D05FEA437862D5B4
:100CF0000A68920603D40A6822F004020A60DFF848
:100D0000F0814FF48062016808F1140813011402A5
:100D1000414524D9A9420DD0B1420FD0B9421AD0D1
:100D2000614515D0494515D0514501D1120312E056
:100D3000594501D104220EE0714501D140220AE05B
:100D40006D4D1435A94206D06B4A2832914201D12B
:100D50001A4600E022466749091F0A6029E0A942B5
:100D600013D0B14215D0B94220D061451BD04945BE
:100D70001BD0514502D14FF4800217E0414502D10A
:100D80004FF0806212E0594501D104220EE0714516
:100D900001D140220AE0584D1435A94206D0564AE6
:100DA0002832914201D11A4600E022464B490839C7
:100DB0004A60C16A71E04FF0020808FA04F818EAC4
:100DC000020F70D05FEA83786DD50A68920606D468
:100DD0000A6822F00A020A60012180F82110DFF877
:100DE00010814FF40072016808F114081301140215
:100DF000414524D9A9420DD0B1420FD0B9421AD0F1
:100E0000614515D0494515D0514501D1120312E075
:100E1000594501D102220EE0714501D120220AE09C
:100E2000354D1435A94206D0334A2832914201D1BA
:100E30001A4600E022462F49091F0A6029E0A9420C
:100E400013D0B14215D0B94220D061451BD04945DD
:100E50001BD0514502D14FF4001217E0414502D199
:100E60004FF0007212E0594501D102220EE07145A7
:100E700001D120220AE0204D1435A94206D01E4A95
:100E80002832914201D11A4600E02246134908391E
:100E90004A60002180F82010816A00291CD0BDE83A
:100EA000F05F0847FFE70825A540154214D01A0750
:100EB00012D50A6822F00E020A6090F84020C36B37
:100EC000012101FA02F25A60816380F821100021A9
:100ED00080F82010016BE0E7BDE8F09F08000240B9
:100EE0001C00024030000240440002405800024012
:100EF0006C000240080402401C04024030B560B19E
:100F00001A4B026814219A4209D2194B1344B3FBBD
:100F1000F1F18900016417490AE0012030BD134B4B
:100F20005B421344B3FBF1F1890001640F490839B6
:100F3000C163022180F82110136843F6F0718B43DE
:100F4000F0E901142143D0E902452C43214304690F
:100F500021434469214384692143194311600021DD
:100F60004163012242770177084630BD0804024000
:100F7000F8FFFDBF0000024070B5044690F8200065
:100F8000002501280CD0012084F8200094F821606D
:100F90000020012E06D084F820000225284670BDCE
:100FA000022070BD022684F82160A06320680668D4
:100FB00026F0010606602046FFF7C6FBE06A00281F
:100FC0002068016802D041F00E0106E021F0040122
:100FD00001602068016841F00A0101602068016831
:100FE00041F001010160D9E72DE9F84FDFF8C89120
:100FF0000024A9F1040B23460F2709F1040AABF1E1
:10100000040ED1E00125A54006EA0502AA4276D1E8
:10101000DFF8A8C14E68A6EB0C0866452BD00DDCA6
:10102000032E34D005DC36B3012E19D0022E2FD179
:101030001BE0112E16D0122E2AD119E0B8F5881F08
:1010400019D006DCB8F5803F15D0B8F5801F1FD148
:1010500011E0B8F5001F0ED0B8F5041F18D10AE052
:10106000CB6815E0CB681B1D12E0CB6808330FE09E
:10107000CB680C330CE08B682BB1012B4FF00803CD
:1010800003D0456104E0042302E0056100E0002391
:10109000FF2A01D8064601E000F104064FEA840564
:1010A00001D9A5F12005D6F8008007FA05FC28EA49
:1010B0000C0803FA05F548EA0508C6F800804D68F3
:1010C000ED0070D53E4DAE6946F00106AE61AD69EA
:1010D00024F0030605F0010500953A4D06EB050CDA
:1010E000DCF80850A607360F07FA06F825EA0805C7
:1010F000DFF8D480404503D14FF0000825E052E0EE
:10110000DFF8C880404502D14FF001081DE0DFF84C
:10111000C080404502D14FF0020816E0DFF8B480ED
:10112000404502D14FF003080FE0DFF8AC804045A6
:1011300002D14FF0040808E0DFF8A080404502D15A
:101140004FF0050801E04FF0060808FA06F848EAF3
:101150000508CCF808804D68D9F80060ED024D46CE
:1011600001D5164300E096432E604D68DAF8006022
:10117000AD02554601D5164300E096432E604D68FA
:10118000DBF80060AD035D4601D5164300E09643F1
:101190002E604D68DEF80060ED03754601D51643FC
:1011A00000E096432E60641C0A681646E2407FF415
:1011B00029AFBDE8F88F00000804014000001110BD
:1011C000001002400000014000080140000C0140F6
:1011D000001001400014014000180140001C0140B3
:1011E000C26821EA02030A4043EA024101617047F2
:1011F0000AB1016170470904FBE7000001488068FB
:1012000070470000280000200248816802781144DD
:101210008160704728000020074810B5016841F040
:1012200010010160032000F0A7F80F2000F006F87D
:1012300000F050F8002010BD0020024030B50546F7
:101240001F4887B0C16941F01001C161C06906A99A
:1012500000F01000009001A800F0ACF90498B0B1C3
:1012600000F0C8F940001749174AB0FBF1F11748E0
:10127000491E0260416040F2E7320021C0E90321CB
:101280008160816100F08EFB040003D015E000F066
:10129000B1F9E8E70D4800F0B3FB04000DD13620AA
:1012A00000F03CF8102D07D200222946362000F02D
:1012B00043F80748056000E0012407B0204630BD30
:1012C0000010024040420F000010004018020020B1
:1012D0002C0000200F4808B5816941F001018161AF
:1012E000816901F001010091C16941F08051C16142
:1012F000C069002200F0805000900F21901E00F085
:101300001BF80548416821F0E06141F0007141603F
:1013100008BD00000010024000000140002809DB69
:1013200000F01F02012191404009800000F1E020FF
:10133000C0F8001170470000F0B40E4B1B680C465B
:10134000C3F30223C3F10705042D00D90425191D99
:10135000072901D2002300E0DB1E012606FA05F171
:10136000491E214099409E40761E16403143F0BCF4
:1013700001F0E1B90CED00E0064900F00702086851
:101380004FF6FF03184040EA0220034A104308606A
:10139000704700000CED00E00000FA052DE9F8436D
:1013A00005460078354CC00754D0E0690026C000DF
:1013B00008D4E06940F08050E061E069012600F067
:1013C000805000902E480168C90512D401688046FB
:1013D00041F480710160FFF711FF074605E000BF8F
:1013E000FFF70CFFC01B642823D8D8F80000C00505
:1013F000F6D5206A10F4407021D0A98801F440711C
:1014000081421CD0206A1F49012220F440700A60EA
:1014100000220A602062C00711D0FFF7EFFE0746E6
:1014200041F2883808E000BFFFF7E8FEC11B4145E4
:1014300002D90320BDE8F883206A8007F4D5206A2A
:10144000696820F44070084320621EB1E06920F012
:101450008050E0612878800705D56068A96820F48D
:101460004040084360602878C00605D56068696917
:1014700020F48000084360600020DBE70010024099
:1014800000700040400442422DE9F0470F4605003D
:1014900061D0434E306800F00700B84209D230688E
:1014A00020F0070038433060306800F00700B84291
:1014B00051D128683B4C810712D5400703D560689D
:1014C00040F4E06060602878000703D5606840F46D
:1014D000605060606068A96820F0F00008436060B8
:1014E0002878C00728D06868012810D02168022811
:1014F00010D0890700292EDA616821F00301014329
:101500006160FFF77BFE804641F288390DE021687B
:101510008903EFE78901EDE7FFF770FEA0EB080113
:10152000494502D90320BDE8F0876068696800F08A
:101530000C00B0EB810FEFD1306800F00700B8422B
:101540000BD9306820F0070038433060306800F075
:101550000700B84201D00120E5E72878400705D50B
:101560006068E96820F4E06008436060287800075C
:1015700006D56068296920F4605040EAC1006060C7
:1015800000F058F86168084AC1F30311515CC84083
:101590000649086006480068FFF750FE0020C2E7D1
:1015A00000200240001002401647000834000020CE
:1015B0002C0000200F2202600C4A536803F0030342
:1015C0004360536803F0F0038360536803F4E063FF
:1015D000C36052684FF4E06303EAD2020261044838
:1015E000006800F00700086070470000001002402B
:1015F000002002400448054900684968044AC1F3D4
:101600000221515CC84070473400002000100240A5
:10161000264700080448054900684968044AC1F3A0
:10162000C221515CC84070473400002000100240C5
:10163000264700080E4A51680E4801F00C03042B9F
:1016400011D0082B0FD10C48C1F38343C903C05CF0
:101650000AD55168084AC1F34041921E515C054ABF
:101660005043B0FBF1F07047044948437047000015
:101670000010024000127A000647000800093D00F1
:101680002DE9F84F040070D02078C04DC00749D034
:101690006868C0F38100012807D06868C0F3810042
:1016A000022809D16868C00306D52868800339D5A7
:1016B00060680028E7D035E06068B0F5803F0BD067
:1016C00010B1B0F5A02F11D0286820F48030286028
:1016D000286820F4802002E0286840F480302860E8
:1016E000606890B1FFF78AFD06460AE0286840F47A
:1016F00080202860F0E700BFFFF780FD801B642892
:1017000073D828688003F7D50CE0FFF777FD06460D
:1017100005E000BFFFF772FD801B6428F0D8286841
:101720008003F7D420789A4E80074FF001094FF0DC
:10173000000839D5686810F00C0F07D06868C0F34E
:101740008100022809D16868C00306D42868800790
:1017500014D52069012808D110E02069B0B1C6F87D
:101760000090FFF74BFD074605E00AE1FFF746FD55
:10177000C01B0228C4D828688007F7D5286861698B
:1017800020F0F80040EAC10028600DE0C6F80080B3
:10179000FFF734FD074604E0FFF730FDC01B0228C9
:1017A00023D828688007F7D4207800072CD57948FB
:1017B000A169D9B1C0F80090FFF720FD074604E009
:1017C000FFF71CFDC01B02280FD8686A8007F7D5F9
:1017D00071484FF4FA510068B0FBF1F0009000BF7F
:1017E0000098411E0091FAD20EE080E0C0F800801F
:1017F000FFF704FD074604E0FFF700FDC01B0228C9
:1018000075D8686A8007F7D42078400760D5E86902
:101810000027C00008D4E86940F08050E861E8691A
:10182000012700F0805000905C480168C90513D47E
:101830000168834641F480710160FFF7DFFC824656
:1018400006E000BFFFF7DAFCA0EB0A0064284ED8E0
:10185000DBF80000C005F5D5E06801280AD008B122
:10186000052813D0286A20F001002862286A20F099
:10187000040002E0286A40F001002862E06841F2BA
:10188000883B98B1FFF7BAFC82460BE0286A40F02B
:1018900004002862EEE700BFFFF7B0FCA0EB0A01EE
:1018A00059455AD8286A8007F6D50CE0FFF7A6FC00
:1018B000824605E0FFF7A2FCA0EB0A0159454CD88F
:1018C000286A8007F6D41FB1E86920F08050E861EB
:1018D000E06988B36968C1F38101022944D0022814
:1018E000C6F8608004D0FFF789FC044638E034E095
:1018F000FFF784FC074604E0FFF780FCC01B0228CA
:101900002BD828688001F7D4206AB0F5803F05D134
:101910006868A16820F4003008436860D4E90801D1
:101920000843696821F4741108436860C6F8609040
:10193000FFF764FC044606E025E000BFFFF75EFC0D
:10194000001B022809D828688001F7D51BE000BFDA
:10195000FFF754FC001B022802D90320BDE8F88FD2
:1019600028688001F4D40EE00128F7D06868226A64
:1019700000F48031914204D1616A00F47010884211
:1019800001D00120EAE70020E8E700000010024053
:1019900000004242800442423400002000700040B7
:1019A0007047704710B5040003D094F83D0010B1A3
:1019B00007E0012010BD002084F83C00204600F024
:1019C0001EF8022084F83D00211D206800F01CFD57
:1019D000012084F8460084F83E0084F83F0084F833
:1019E000400084F8410084F8420084F8430084F801
:1019F000440084F8450084F83D00002010BD704785
:101A000090F83D10012901D001207047022180F893
:101A10003D100168CA6842F00102CA6000680E49C0
:101A200088420ED00D4988420BD0B0F1804F08D0CB
:101A30000B49884205D00B49884202D00A498842A6
:101A400004D1816801F00701062903D0016841F043
:101A50000101016000207047002C0140003401406A
:101A60000004004000080040000C0040704770B5C2
:101A70000446006801694FF00005C943890715D481
:101A8000C168C943890711D4E91E0161012020778B
:101A9000206880698007204602D0FFF7E7FF04E056
:101AA00000F098F8204600F096F825772068016944
:101AB000C943490717D4C168C943490713D46FF014
:101AC00004010161022020772068806910F4407FC2
:101AD000204602D0FFF7CAFF04E000F07BF8204662
:101AE00000F079F8257720680169C943090716D401
:101AF000C168C943090712D46FF0080101610420CD
:101B000020772068C0698007204602D0FFF7AEFF2B
:101B100004E000F05FF8204600F05DF825772068CB
:101B20000169C943C90617D4C168C943C90613D49A
:101B30006FF010010161082020772068C06910F45F
:101B4000407F204602D0FFF791FF04E000F042F80A
:101B5000204600F040F8257720680169C943C9078D
:101B600008D1C168C943C90704D1891E0161204653
:101B700000F032F820680169C943090609D4C16838
:101B8000C943090605D46FF0800101612046FFF7C3
:101B900007FF20680169C943490609D4C168C943E0
:101BA000490605D46FF040010161204600F01EF89F
:101BB00020680169C94389060BD4C168C9438906F5
:101BC00007D46FF0200101612046BDE87040FFF7A7
:101BD000E8BE70BD7047704700680349884201D174
:101BE000FFF712BB704700000010004070477047BD
:101BF00070470000F8B5016804460868CA684B6978
:101C000010F00F0F4FF000055AD003F0010602F458
:101C10009077374365D0C10705D0D10503D5616CF6
:101C200041F001016164410705D5D90703D0616C1A
:101C300041F002016164810705D5D90703D0616CC9
:101C400041F004016164010707D502F0200131432E
:101C500003D0616C41F008016164616C00293BD0E4
:101C6000800604D5900602D5204600F042FC20688C
:101C70004069616CC0F3801001F008010143204607
:101C80002BD000F00FFC20684069400621D5206869
:101C9000143050E8001F21F0400140E80012002AF3
:101CA000F5D1E06BA8B16D494163E06BFEF76AFFC7
:101CB000002811D0E06B416B01B0BDE8F04008474F
:101CC00083060ED593060CD52046BDE8F84000F0FB
:101CD00010BC2046FFF78CFFF8BDFFF789FF656455
:101CE000F8BD266B2023012E7CD1C6067AD5D606F8
:101CF00078D508684868009048694FF002064006A9
:101D000040D5E16B086840680004000CE8D0A28D63
:101D10008242E5D9E085886920282DD020680C30E2
:101D200050E8001F21F4807140E80012002AF5D12C
:101D30002168143151E8000F20F0010041E8000251
:101D4000002AF5D12068143050E8001F21F040012E
:101D500040E80012002AF5D184F84230256320685B
:101D60000C3050E8001F21F0100140E80012002A5A
:101D7000F5D1E06BFEF7E2FE6663A08DE18D401ABF
:101D800081B22AE0A08DE18D401A81B2E08D002859
:101D9000A6D00029A4D022680C3252E8000F20F40B
:101DA000907042E80007002FF5D12068143050E809
:101DB000002F22F0010240E80027002FF5D184F81F
:101DC0004230256320680C3050E8002F22F01002CA
:101DD00040E80023002BF5D166632046FFF707FF9C
:101DE000F8BDFFE705062BD5150629D594F8410067
:101DF0002128F5D1A068B0F5805F01D12069B0B18C
:101E0000206A411C2162216800784860E08C401EF5
:101E10000004000CE084E3D12068C16821F0800157
:101E2000C1602068C16841F04001C160D8E7206A04
:101E30000088C0F308004860206A801C2062E5E743
:101E40004006CDD55006CBD5CA68204622F04002C8
:101E5000CA6084F8413000F036F9C1E795240008E3
:101E600070B5040004D094F84100002510B106E0DC
:101E7000012070BD84F84050204600F023F8242053
:101E800084F841002068C16821F40051C1602046F7
:101E900000F090FB2068016921F490410161206805
:101EA000416921F02A0141612068C16841F4005173
:101EB000C1606564202084F8410084F842006563B5
:101EC000002070BD70B586B0002400940194029487
:101ED00003942E4E03682E49022003222D4DB34257
:101EE00026D18B6943F480438B618B6903F4804373
:101EF00004938B6943F004038B618969039201F0B9
:101F0000040104910102CDE9001069462846FFF75B
:101F10006BF82815CDE90004694628460294FFF7BE
:101F200063F8002205212520FFF706FA252028E086
:101F3000194EB34227D1CB6943F40033CB61CB694F
:101F400003F4003304938B6943F004038B618969C4
:101F5000039201F0040104910421CDE900106946C7
:101F60002846FFF741F80820CDE9000469462846D5
:101F70000294FFF739F8002205212620FFF7DCF94B
:101F80002620FFF7CBF906B070BD000000380140F5
:101F900000100240000801400044004090F8423028
:101FA000202B01D00220704721B11AB10023036316
:101FB00000F05CBB0120704710B50446006816496C
:101FC00088420FD1002301221449154800F02EF851
:101FD000012212491248FFF7E1FF01220F4911487F
:101FE000FFF7DCFF10492068884213D1002301224B
:101FF0000A490C4800F01AF8084808494FF0010255
:1020000000780A2804D00648BDE81040FFF7C6BF94
:102010000448F9E710BD0000004400400000002023
:1020200088010020D0010020003801402DE9F8434C
:10203000044690F841001F4616460D46202802D05F
:102040000220BDE8F8837DB176B1002060642120D4
:1020500084F84100FFF7D2F8A6848046E684A068A1
:10206000B0F5805F02D003E00120EAE7206910B1FB
:102070002E4600250EE000260CE08021204600F0D0
:1020800010FBA0B9AEB116F8010B21684860E08CD6
:10209000401EE084E08C43464FF000020097002889
:1020A000EBD14FF04001204600F0FBFA30B10320A5
:1020B000C7E735F8020BC0F30800E6E7202084F8F4
:1020C00041000020BDE77047FEE700003EB500215B
:1020D0001148009101910F4A029102600124816030
:1020E000047301754FF460220461C2614160FEF720
:1020F000C5FB08B1FEF73EFB0E20CDE9000404202D
:10210000029069460448FEF737FB002801D0FEF72D
:1021100031FB3EBD0024014014010020094808B5F0
:10212000416941F0010141614069002200F0010074
:10213000009005210B20FFF7FFF8BDE808400B20B9
:10214000FFF7ECB80010024010B50D4800F0CAFBD4
:102150000C4C0B4A0021E0616C3A0B4800F030FC5B
:10216000074A2061483A0021084800F029FC044A47
:102170006061243A0021064800F022FCA06110BDF5
:10218000F446000808000020F92200083523000862
:10219000292300082DE9F04786B000243548009433
:1021A000019402940394816941F020018161816965
:1021B00001F020010491816941F00401816181698C
:1021C00001F004010491816941F01001816181698C
:1021D00001F010010491816941F008018161806979
:1021E000DFF8948000F00800049001224FF4107191
:1021F0004046FEF7FDFF00224FF4C0714046FEF757
:10220000F7FFDFF878904FF4807700223946484690
:10221000FEF7EEFFDFF868A0002208215046FEF727
:10222000E7FF4FF4707001250326CDE90005CDE9E5
:10223000024669464046FEF7D7FE00970396CDE971
:10224000015469464846FEF7CFFE0820CDE9000557
:10225000CDE9024669465046FEF7C6FE1020CDE99C
:102260000004694650460294FEF7BEFE06B0BDE883
:10227000F0870000001002400010014000080140FB
:10228000000C01400C4810B50A4901604FF4E131DF
:102290004160002181600C22C160C0E904128161AB
:1022A000C161FFF7DDFD002803D0BDE81040FEF757
:1022B00061BA10BD00380140880100200C4810B5FB
:1022C0000A4901604FF4E1314160002181600C2234
:1022D000C160C0E904128161C161FFF7C1FD00283E
:1022E00003D0BDE81040FEF745BA10BD00440040E1
:1022F000D0010020FEE7FEE7094C0A4D4FF0FF3603
:102300003146E06900F0B8FA288880B2FEF7DEF9BD
:10231000E06900F027FB042000F058FAF0E7000025
:10232000080000200400002001F090FA002001F0D5
:1023300029F9F9E7064D4FF480744FF4FA762146F7
:102340002846FEF74DFF304600F040FAF7E7000060
:102350000008014010B5502080F31188BFF34F8F63
:10236000BFF36F8F01F0B2FF18B104494FF08050F6
:102370000860002080F3118810BD000004ED00E02B
:1023800030B595B028216846FEF725F814210AA833
:10239000FEF721F818210FA8FEF71DF80121080407
:1023A000CDE900100025029502240491CDE90740F3
:1023B0004FF4E01009906846FFF762F908B172B671
:1023C000FEE70AA90F2081E831004FF48060CDE9D3
:1023D0000D0502210AA8FFF757F808B172B6FEE70B
:1023E0004FF4004011900F940FA8FEF7D7FF00287C
:1023F00001D072B6FEE715B030BD70470148FFF757
:1024000036BB000018020020F0B502681C4B1D4DC1
:102410001D4E1E4F1E4C4FF0804C984209D0A042DA
:1024200007D0604505D0A84203D0B04201D0B842E1
:1024300004D122F0700E4A6842EA0E02984209D096
:10244000A04207D0604505D0A84203D0B04201D0D9
:10245000B84203D122F44075CA682A434D6922F07C
:1024600080022A4302608A68C2620A6882629842D5
:1024700001D0A04201D10969016301214161F0BD90
:10248000002C01400004004000080040000C004007
:102490000034014010B5406A0021C185C184FFF7B6
:1024A000A7FB10BD01680C3151E8002F22F4907297
:1024B00041E80023002BF5D10168143151E8002FC9
:1024C00022F0010241E80023002BF5D1016B012924
:1024D00009D101680C3151E8002F22F0100241E8C7
:1024E0000023002BF5D1202180F842100021016348
:1024F000704708B590F84210222901D0022008BD8B
:1025000082684FF480539A4201D1016921B1816AF6
:102510009A421BD04AB10AE00268816A5268C2F34B
:1025200008020A80816A891C08E0026972B10268A7
:10253000526802F07F020A70816A491C8162C18D73
:10254000491E0904090CC18503D01BE002685268CA
:10255000F1E70168CA6822F02002CA600168CA680F
:1025600022F48072CA6001684A6922F001024A615D
:10257000202180F8421000214163026B012A03D020
:10258000FFF71AFD002008BD016301680C3151E816
:10259000002F22F0100241E80023002BF5D1016842
:1025A0000A68D20602D50A6849680091818DFFF752
:1025B0001EFBE7E770B5044600680169E26821F494
:1025C0004051114301612169A068084361690843D2
:1025D0002168CA6841F20C639A430243CA602068CA
:1025E0004169A26921F44071114341611E4920688B
:1025F000884202D1FFF70EF801E0FEF7FBFF00EB87
:10260000C00101EB0012606864218000B2FBF0F3AE
:10261000B3FBF1F36FF018067343B2FBF0F5B2FBB6
:10262000F0F605EB8305322303EB0515B5FBF1F559
:10263000B6FBF1F605F0F00505EB0615B2FBF0F67A
:10264000B2FBF0F0B0FBF1F06FF01802504306EB74
:10265000800003EB0010B0FBF1F0216800F00F00E8
:102660002844886070BD0000003801408162828586
:10267000C28500214164222180F84210016921B104
:102680000168CA6842F48072CA6001684A6942F00F
:1026900001024A610068C16841F02001C160002068
:1026A00070472DE9F041984617460E460446069DB0
:1026B00027E0681C25D02DB1FEF7A0FDA0EB080097
:1026C000A8421ED920680C3050E8001F21F4D071B8
:1026D00040E80012002AF5D12068143050E8001FAD
:1026E00021F0010140E80012002AF5D1202084F8F1
:1026F000410084F84200002084F840000320BDE837
:10270000F0812068006836EA000004D00020B8425A
:10271000CFD00020F3E70120F9E700000148FFF7E0
:1027200069BA0000880100200148FFF763BA000081
:10273000D0010020FEE70907090E002804DB00F1A4
:10274000E02080F80014704700F00F0000F1E02056
:1027500080F8141D704700214FF47A7304E00222C0
:10276000521C9A42FCD3491C8142F8D370470000A6
:10277000FEF752FDFFF704FEFFF70CFDFFF7CEFC5E
:10278000FFF780FDFFF7A2FCFFF798FD01220B4940
:102790000B48FEF74DF909490122091F0948FFF7C7
:1027A000FDFB06490122091F0748FFF7F7FB00F070
:1027B00027F8FFF7C9FC00F03FF8FEE7040000200F
:1027C0001401002088010020D001002010B5EFF393
:1027D000058149B9EFF3108131B908490968022927
:1027E00005D1EFF3118111B16FF0050403E000246E
:1027F00008B100F0A1FE204610BD000088000020B6
:10280000EFF3058058B9EFF3108040B90949086823
:10281000022801D030B109E0EFF3118030B16FF040
:102820000500704701200860002070474FF0FF301E
:10283000704700008800002010B5EFF3058060B9F4
:10284000EFF3108048B90B490868022802D001282C
:1028500006D00BE0EFF3118040B16FF0050010BD22
:102860000220086000F060FF002010BD4FF0FF3034
:1028700010BD0000880000202DE9F0410D46014602
:1028800020F0010001F001014FF00004EFF3058298
:102890004AB9EFF3108232B9114A1268022A05D1FF
:1028A000EFF3118212B16FF0050416E048B1002970
:1028B0006FF001066FF00207294608D001F03AFCDC
:1028C00007E06FF0030408E035B1344605E001F09D
:1028D00075FB0128F8D100E03C462046BDE8F081B8
:1028E0008800002070B505464FF00004EFF3058026
:1028F000A0BBEFF3108088BB19480068022802D102
:10290000EFF3118050BB0DB1686800E00020C107F3
:1029100001D0012600E0002600071FD46DB1D5E9E3
:10292000021021B1502819D31EB1042002E020B1B9
:1029300014E0012001F0CFF805E00EB1042000E022
:10294000012001F0BDF8040008D00DB1296800E0B5
:10295000002100F0BBFD0EB144F00104204670BD23
:102960008800002070B5014620F0010001F001014F
:102970004FF00004EFF305824AB9EFF3108232B949
:102980000E4A1268022A05D1EFF3118212B16FF0DC
:10299000050411E028B16FF0020529B101F052FAE7
:1029A00007E06FF0030407E000231A46194601F020
:1029B0003BF9012800D02C46204670BD880000203D
:1029C000F0B585B00B464FF00004EFF3058103949A
:1029D000A1BBEFF3108189BB21490968022902D10B
:1029E000EFF3118151BB48B3802618218DF81040B8
:1029F00004AD42B3176807B13D4697691FB1394628
:102A00007F1E382F02D21779FF0702D0002005B0B1
:102A1000F0BD576907B1BE08D2F808C0BCF1000F7D
:102A20000DD0D4685C2C18D312693AB137B18DE857
:102A300006103246294601F004FC03900DE0D768E9
:102A40005FB912694AB903AACDE90012B2B22946A8
:102A500001F0CAFB012800D003940398D7E70000D7
:102A6000880000202DE9F041134C0F4605466669A9
:102A70002068001D00F02EFC681C07D137B12168CA
:102A8000BDE8F0410D48091D00F075BC20683544D3
:102A9000B5424560216805D2A068BDE8F041091D36
:102AA00000F051BC6068091D00F04DFC206B8542B0
:102AB00000D22563BDE8F0813800002050070020D7
:102AC0002DE9F041054600F063FC2D4C2069401CC7
:102AD000206120682B4F10B1E06930B32BE02560F6
:102AE0002069012827D1002606EB860007EB80002D
:102AF00000F01BFC761C382EF6D3234800F015FCA2
:102B00002148143000F011FC1F48283000F00DFC63
:102B10001D483C3000F009FC1B48503000F005FC1B
:102B2000194860601430A06005E02068E96AC06A56
:102B3000884200D82560E06A401CE0626864E86A68
:102B4000A169884200D9A06100EB800007EB8000FA
:102B5000291D00F010FC00F03BFCE06900280CD0BF
:102B60002068E96AC06A884207D208494FF080505D
:102B70000860BFF34F8FBFF36F8FBDE8F081000097
:102B800038000020A00200200007002004ED00E033
:102B900038B500F0FDFB104CA068C8B90F4800F034
:102BA000C4FB0E48143000F0C0FB0C482060143009
:102BB00060600A4B00202833009003F1500210217E
:102BC0000A2000F0B9FFA06010B105A100F07EFC62
:102BD000BDE8384000F0FCBB740000206407002012
:102BE000546D72510000000030B4026C0B46002A94
:102BF0000BD0C1681144C1604468A14201D301688F
:102C0000C16030BC1846FDF799BB30BC70472DE958
:102C1000F041856B174604460026026C82B1C7B1AD
:102C2000E068FDF78BFBE168206C091AE16022681F
:102C3000914202D26168081AE060022F16D017E0B4
:102C40002068A8B9606801F0A5FB06460020606016
:102C50000EE0A068FDF772FB216CA0680844A0603C
:102C60006168884204D32068A06001E005B16D1E50
:102C70006D1CA5633046BDE8F08110B5044690F8A0
:102C8000590058B101280CD002280FD0502080F3F1
:102C90001188BFF34F8FBFF36F8FFEE7206B00F0FB
:102CA000ABFB2046BDE8104000F0A6BB10BD000005
:102CB00010484FF44061420706D0C01D0D4920F076
:102CC0000700411AC1F540610B4A00230144C2E9E3
:102CD00000030839103A21F0070111604B600B60C6
:102CE0000B1AC0E9001393604FF000405360D060AE
:102CF00070470000340F00209C000020144E154C3B
:102D0000A6F29C474FF08058DFF84C9012E000BFCD
:102D100000F03EFBF068C568281D00F0DBFA206972
:102D2000401E2061E068401EE06000F051FB284634
:102D3000FFF7A3FFE0680028EAD138680128F9D935
:102D4000C9F80080BFF34F8FBFF36F8FF2E7000029
:102D50003C0700203800002004ED00E0002807D0E8
:102D60000021416001600B460A46C16000F05CBF73
:102D70007047000070B51D46049C51B1C4F8002096
:102D8000C4E90F010121204600F00AFF84F84C50ED
:102D900070BD2460F4E72DE9F0470E46DDE90984B3
:102DA0001746824691009946089DA522206BFDF7A3
:102DB0000AFB6FF00301206B01EB8701084420F050
:102DC0000707780707D0502080F31188BFF34F8F93
:102DD000BFF36F8FFEE72218315C82F83410315C4C
:102DE00011B1401C1028F6D3002684F84360382D1A
:102DF00000D33725E562C4E91356201D00F0A0FA80
:102E000004F1180000F09CFA2461C5F138006462F6
:102E1000A061666584F858604A465146384600F01D
:102E200047FA2060B8F1000F01D0C8F80040BDE8B3
:102E3000F087000030B5114900E011460A6882426F
:102E4000FBD34B685C18844203D140681844486047
:102E5000084643681C18944209D1084C103C246869
:102E6000A24209D052681A4442600A68126802609D
:102E7000814200D0086030BD0460F9E79C0000206A
:102E800070B5002441600B4D0061914206D8D11A03
:102E90008269914206D2011D686807E09A4203D216
:102EA000994201D3012403E0011D286800F04BFA88
:102EB000204670BD7400002010B5044600F068FA8A
:102EC000A06B28B15FF0000400F082FA204610BD2C
:102ED0000124F9E730B589B0304D55E00498002859
:102EE00006DADDE90601059A9047049800284BDBD5
:102EF000069C606910B1201D00F0ECF902A800F0FA
:102F0000B9F8024604980A283ED2DFE800F0050529
:102F1000053D263705053D260598A1690346014470
:102F20002046FFF7ADFF00B3616A20468847E0699D
:102F3000012829D1002000900598A169002342189A
:102F40001946204601F06CFB78B9502080F31188B7
:102F5000BFF34F8FBFF36F8FFEE70598A06128B1D5
:102F6000811813462046FFF78BFF0DE0502080F3B9
:102F70001188BFF34F8FBFF36F8FFEE794F82C00DB
:102F800010B9204600F038FA002204A9A86800F021
:102F900079FF0028A2D109B030BD000074000020E4
:102FA0002DE9FC410F46054600F002FC01A800F0A7
:102FB00061F80446019818B101F0A0FABDE8FC815F
:102FC000224EAFB170680068A8B30027291B3A46AB
:102FD000B06800F08FFA01F091FA0028EED11C4998
:102FE0004FF080500860BFF34F8FBFF36F8FE5E75E
:102FF000A542EBD801F082FA30682746C068C46861
:10300000201D00F067F9E069012810D1A0692B4666
:1030100041193A462046FFF733FF40B100200346EE
:10302000014600902A46204601F0FAFA20B1616A72
:1030300020468847C2E707E0502080F31188BFF39D
:103040004F8FBFF36F8FFEE70127BFE774000020AB
:1030500004ED00E006484168096829B14168C96883
:10306000C9684968016370474FF0FF31FAE7000013
:103070003800002070B5054601F022F9064E0446DE
:103080003069844203D200F009F8012000E00020FA
:1030900028602046346170BD74000020F8B5194DD9
:1030A0001FE0C068C4680668201D00F013F9616A5B
:1030B00020468847E069012813D1A0693044B04216
:1030C00006D924616060211D286800F03CF908E001
:1030D00000200346014600903246204601F0A0FA47
:1030E00038B1286801680029DBD16968C5E900109A
:1030F000F8BD502080F31188BFF34F8FBFF36F8F5F
:10310000FEE700007400002008484068401C4FF0B3
:10311000500080F3118804D0BFF34F8FBFF36F8F3F
:10312000FEE7BFF34F8FBFF36F8FFEE7A4000020D1
:10313000074C2068016841B1C0680021D0F8000048
:10314000FFF72EFFFFF7C6FEF3E701210020F7E7A8
:10315000740000202DE9F041044600F019F994F9BB
:10316000455004F1240609E0606A48B1304601F098
:103170008DF908B100F056FA6D1E6DB2002DF3DC2A
:103180004FF0FF3684F8456000F022F900F000F9B6
:1031900094F9445004F1100709E0206948B1384619
:1031A00001F074F908B100F03DFA6D1E6DB2002D0A
:1031B000F3DC84F84460BDE8F04100F009B9000098
:1031C0002DE9F0410546002700F0F2FA314E306853
:1031D00008B9FFF76DFDF06805424BD1C5B308355E
:1031E00068070ED005F00700C0F108000544680725
:1031F00007D0502080F31188BFF34F8FBFF36F8F3C
:10320000FEE72DB37068854234D82248103001465D
:103210000C6801E020460C466168A94202D2216890
:103220000029F7D131688C4224D0076821680160F9
:1032300060680837411B10290FD96019420708D070
:10324000502080F31188BFF34F8FBFF36F8FFEE7DD
:1032500010E041606560FFF7EDFD61687068401A3D
:103260007060B268904200D2B060F0680143002004
:10327000C4E9000101F042F9780707D0502080F33B
:103280001188BFF34F8FBFF36F8FFEE73846BDE85D
:10329000F08100008C0000200449086818B108681B
:1032A000026D521C0265086870470000380000205B
:1032B00010B5031F4FF080741C601B1F21F001012B
:1032C0001960191F024B0B60143940380A6010BD99
:1032D00009310008D0E9013201699A60D0E901237F
:1032E0005A604A68824201D182684A6000220261C3
:1032F0000868401E0860086870470000034B0360C0
:1033000003F15C0008608020106070477C0800209A
:10331000044B036003F15C0008604FF480701060A0
:1033200070470000D80A0020704700F108014FF0F4
:10333000FF32C0E90112C1600161002101607047E4
:1033400000210161704730B50B685A1C02D000F1B2
:10335000080202E0026904E02246546825689D42A2
:10336000FAD953684B6099608A60516008610168BE
:10337000491C016030BD42684A6093688B60936865
:103380005960916008610168491C01607047000044
:10339000502080F31188BFF34F8FBFF36F8F0A491E
:1033A0004868401C486001280CD10848006810F0AB
:1033B000FF0F07D0502080F31188BFF34F8FBFF36A
:1033C0006F8FFEE770470000A400002004ED00E0CE
:1033D0000849486828B1401E486001D180F311882F
:1033E0007047502080F31188BFF34F8FBFF36F8F6A
:1033F000FEE70000A400002070B5002827D0144D7F
:10340000A0F108046168E868014207D1502080F308
:103410001188BFF34F8FBFF36F8FFEE722683AB179
:10342000502080F31188BFF34F8FBFF36F8FFEE7FB
:103430008143616000F0BCF96068696808446860B5
:103440002046FFF7F7FCBDE8704001F057B870BDAB
:103450008C0000204FF0E0200021016181610549CE
:103460004FF47A720968B1FBF2F1491E41610721FC
:10347000016170473400002010B5FCF7F1FE1149DE
:1034800010280ED300F1E02090F8F0030A78904263
:1034900007D2502080F31188BFF34F8FBFF36F8F97
:1034A000FEE709480068896800F4E060884207D9AF
:1034B000502080F31188BFF34F8FBFF36F8FFEE76B
:1034C00010BD0000A40000200CED00E010B5084B7A
:1034D000002200BF53F832401CB1521C082AF9D315
:1034E00010BD43F8321003EBC201486010BD00006C
:1034F0006002002070B515460E460446FFF748FFEF
:1035000094F944100020491C01D184F8440094F936
:103510004510491C01D184F84500FFF759FFA06B05
:1035200028B92A46314604F1240000F099F82046D3
:10353000BDE87040FFF70EBE10B5020014D00F4872
:10354000806B38B1502080F31188BFF34F8FBFF3E9
:103550006F8FFEE700F02CF900211046FFF782FA8A
:1035600000F0CCFF002807D105494FF080500860DB
:10357000BFF34F8FBFF36F8F10BD000038000020E6
:1035800004ED00E070B50546FFF702FF1E4C05B9DB
:103590002568281DFFF79EFEA86A18B105F11800DE
:1035A000FFF798FEE06A401CE0622068854207D180
:1035B000291D1648FFF7DFFEE068401CE06007E0C9
:1035C0002069401E20612846FFF757FBFFF742FDA8
:1035D000FFF7FEFEE069002814D02068854211D173
:1035E000A06B38B1502080F31188BFF34F8FBFF329
:1035F0006F8FFEE706494FF080500860BFF34F8F92
:10360000BFF36F8F70BD0000380000203C07002022
:1036100004ED00E002498A6A02604969416070472E
:10362000380000200149012048627047380000201E
:1036300010B50C4650B1094909681831FFF783FEEF
:103640002046BDE810400121FFF70CBA502080F35E
:103650001188BFF34F8FBFF36F8FFEE73800002054
:1036600070B514460D4668B10A4909681831FFF76C
:1036700082FE0CB14FF0FF3521462846BDE8704070
:10368000FFF7F0B9502080F31188BFF34F8FBFF3DD
:103690006F8FFEE73800002070B504003ED0226D29
:1036A000A2B1E06C884200D30146E06A884235D07E
:1036B000012A33D11A4D2A6894420FD1502080F349
:1036C0001188BFF34F8FBFF36F8FFEE7502080F359
:1036D0001188BFF34F8FBFF36F8FFEE7E162A269DE
:1036E000002A02DBC1F13801A1610E4E00EB80001F
:1036F000616906EB8000814210D1201DFFF7EAFDD1
:10370000E06AA969884200D9A86100EB800006EB55
:103710008000211DBDE87040FFF72DBE70BD000088
:1037200038000020A002002030B587B000240394A8
:1037300005AA04A903A80494FFF7E0FDDDE903014D
:103740000094CDE90110002315A11748059A00F057
:1037500078FD164D002868631FD000F031FF012866
:1037600009D0401C19D1502080F31188BFF34F8F2E
:10377000BFF36F8FFEE7502080F31188BFF34F8FA8
:10378000BFF36F8F4FF0FF3028630120E8616C6159
:1037900007B0BDE8304000F03FB907B030BD0000D1
:1037A00049444C4500000000FD2C00083800002072
:1037B0000248816B491C816370470000380000207B
:1037C00010B5204CA06B10B10120606210BD00202C
:1037D000606220684FF0A531006B02688A4208D110
:1037E00042688A4205D182688A4202D1C068884212
:1037F00004D0216820683431FFF796FDA069124992
:1038000001E0B8B1401E00EB800251F82220002AEE
:10381000F7D000EB800201EB820101F108034A6856
:1038200052684A609A4201D152684A60D168216068
:10383000A06110BD502080F31188BFF34F8FBFF3FC
:103840006F8FFEE738000020A002002010B543A1D2
:103850004448FCF729FD82B24FF6FF7423464149E4
:103860004148FEF7E3FB6420FEF775FF3FA13D48AA
:10387000FCF71AFD82B223463A493B48FEF7D6FBD5
:103880006420FEF768FF3CA13648FCF70DFD82B2CC
:10389000234634493448FEF7C9FB6420FEF75BFF3A
:1038A00038A13048FCF700FD82B223462D492E484E
:1038B000FEF7BCFB6420FEF74EFF35A12948FCF75C
:1038C000F3FC82B2234627492748FEF7AFFB64206A
:1038D000FEF741FF32A12348FCF7E6FC82B2234603
:1038E00020492148FEF7A2FB6420FEF734FF35A1F2
:1038F0001C48FCF7D9FC82B223461A491A48FEF745
:1039000095FB6420FEF727FF32A11648FCF7CCFC9C
:1039100082B2234613491448FEF788FB6420FEF761
:103920001AFF32A10F48FCF7BFFC82B223460D49B3
:103930000D48FEF77BFB6420FEF70DFF2FA1094821
:10394000FCF7B2FC82B2234606490748FEF76EFB3D
:10395000BDE810406420FEF7FEBE000041540D0A91
:1039600000000000B0000020D001002041542B5284
:1039700053540D0A0000000041542B474D520D0ACC
:103980000000000041542B5359534D53470D0A007A
:1039900041542B43574D4F44453D320D0A00000022
:1039A00041542B43575341503D22455350383236F2
:1039B00036222C22313233343536373839220D0A4B
:1039C0000000000041542B4349504D55583D310DE6
:1039D0000A00000041542B4349505345525645526A
:1039E0003D312C383038300D0A00000041542B4353
:1039F000495053544F3D3530300D0A0041542B553A
:103A00004152543D3131353230302C382C312C304C
:103A10002C300D0A000000001CB5264908780190E2
:103A2000FF20087008788DF800009DF800009DF8D0
:103A3000002000F0F000904207D0502080F3118861
:103A4000BFF34F8FBFF36F8FFEE79DF800001A4B57
:103A500000F0500018700720986005E09DF80020E5
:103A600052008DF80020401E9DF800201206F5D46B
:103A70009860032807D0502080F31188BFF34F8F40
:103A8000BFF36F8FFEE74FF44070986001980870A5
:103A90000A48016841F470010160016841F0704119
:103AA0000160FFF7D7FC00205860FCF7A3FB002063
:103AB0001CBD000000E400E0A400002020ED00E0B8
:103AC00010B502460021012000F012F80446FFF76D
:103AD00045F9204610BD38B50B460022009011462E
:103AE000012000F029F80446FFF738F9204638BDD8
:103AF000F8B517460E46050014D0DEB105FB06F0FA
:103B00005030FFF75DFB04000AD0002084F8460027
:103B100004F150023B46314628460094FFF72AF94B
:103B20002046F8BD502080F31188BFF34F8FBFF3BC
:103B30006F8FFEE70020E3E738B5049D18B153B15D
:103B4000CAB181B120E0502080F31188BFF34F8FBC
:103B5000BFF36F8FFEE7502080F31188BFF34F8FC4
:103B6000BFF36F8FFEE7502080F31188BFF34F8FB4
:103B7000BFF36F8FFEE739B1502080F31188BFF398
:103B80004F8FBFF36F8FFEE750241C46012384F84C
:103B900046302B460094FFF7EDF8204638BD000074
:103BA00070B50D46040025D0FFF7F2FBD4E90F20D5
:103BB000216802FB001161600021A1632168A160FE
:103BC0000A46D4E90F01401E00FB0121E1602146B5
:103BD0004FF0FF3001F8440F487004F110008DB130
:103BE000FFF7A3FB04F12400FFF79FFBFFF7F0FBB7
:103BF000012070BD502080F31188BFF34F8FBFF3B9
:103C00006F8FFEE721690029F0D000F03FFC00280B
:103C1000ECD004494FF080500860BFF34F8FBFF3E2
:103C20006F8FE3E704ED00E02DE9FF4782B01D460A
:103C30008A464FF00008040003D0BAF1000F08D004
:103C400011E0502080F31188BFF34F8FBFF36F8FC7
:103C5000FEE7206C38B1502080F31188BFF34F8FFE
:103C6000BFF36F8FFEE7022D0AD1E06B012807D06A
:103C7000502080F31188BFF34F8FBFF36F8FFEE7A3
:103C800000F010FB3F4F4FF000094FF0805648B94D
:103C9000049838B1502080F31188BFF34F8FBFF3E1
:103CA0006F8FFEE7FFF774FBA06BE16B884207D3D1
:103CB000022D05D00498D0B1B8F1000F1AD01EE043
:103CC0002A4651462046FEF7A2FF616A19B104F167
:103CD000240000F0DBFB20B13E60BFF34F8FBFF349
:103CE0006F8FFFF775FB012006B0BDE8F087FFF787
:103CF0006FFB22E06846FFF78DFC4FF00108FFF7ED
:103D000067FBFFF755FDFFF743FB94F94400401CA8
:103D100001D184F8449094F94500401C01D184F805
:103D20004590FFF755FB04A9684600F023FA30B12F
:103D30002046FFF70FFA00F0E1FB0020D4E7FFF781
:103D400027FBA06BE16B884213D1FFF741FB04F125
:103D500010000499FFF76CFC2046FFF7FBF900F018
:103D6000CDFB00289ED13E60BFF34F8FBFF36F8F16
:103D700098E7FFF72DFB2046FFF7ECF900F0BEFBBC
:103D800090E7000004ED00E02DE9F0471F46904663
:103D90008946040003D0B9F1000F08D011E050208B
:103DA00080F31188BFF34F8FBFF36F8FFEE7206C56
:103DB00038B1502080F31188BFF34F8FBFF36F8F5E
:103DC000FEE7022F0AD1E06B012807D0502080F3D4
:103DD0001188BFF34F8FBFF36F8FFEE7FFF74CFBE8
:103DE0005020EFF3118680F31188BFF34F8FBFF39C
:103DF0006F8FA06BE16B884206D3022F04D00020A6
:103E000086F31188BDE8F08794F945503A46494653
:103E10002046FEF7FCFE681C04D06D1C84F845505B
:103E20000120EDE7606A0028FAD004F1240000F0D8
:103E30002DFB0028F4D0B8F1000FF1D00121C8F813
:103E40000010EDE710B5040009D000F025FA616814
:103E5000884214D1E068401EE06008D00DE0502098
:103E600080F31188BFF34F8FBFF36F8FFEE70023FE
:103E70001A4619462046FFF7D7FE012010BD002044
:103E800010BD00002DE9F747002683B08A460400E4
:103E900003D0BAF1000F08D011E0502080F3118850
:103EA000BFF34F8FBFF36F8FFEE7206C38B1502008
:103EB00080F31188BFF34F8FBFF36F8FFEE700F0E1
:103EC000F1F9DFF8F4804FF000094FF0805748B95E
:103ED000059838B1502080F31188BFF34F8FBFF39E
:103EE0006F8FFEE7FFF754FAA56BC5B15146204628
:103EF000FEF77AFE6D1EA563206950B104F1100033
:103F000000F0C4FA28B1C8F80070BFF34F8FBFF3B8
:103F10006F8FFFF75DFA012006B0BDE8F0870598C6
:103F200008B11EB106E0FFF753FA27E06846FFF735
:103F300071FB0126FFF74CFAFFF73AFCFFF728FA6E
:103F400094F94400401C01D184F8449094F9450050
:103F5000401C01D184F84590FFF73AFA05A968465C
:103F600000F008F9002820460AD0FFF7F3F800F027
:103F7000C5FA2046FEF7A0FF0028B3D00020CBE70B
:103F8000FEF79AFF90B104F124000599FFF750FB6A
:103F90002046FFF7DFF800F0B1FA0028A2D1C8F8F8
:103FA0000070BFF34F8FBFF36F8F9BE72046FFF783
:103FB000D1F800F0A3FA95E704ED00E02DE9F34312
:103FC000002683B00400354609D0206C78B150201B
:103FD00080F31188BFF34F8FBFF36F8FFEE7502040
:103FE00080F31188BFF34F8FBFF36F8FFEE700F0B0
:103FF00059F9DFF83C814FF000094FF0805748B97C
:10400000049838B1502080F31188BFF34F8FBFF36D
:104010006F8FFEE7FFF7BCF9A06BC8B1401EA0632D
:10402000206810B9FFF738F96060206950B104F1D9
:10403000100000F02BFA28B1C8F80070BFF34F8FC2
:10404000BFF36F8FFFF7C4F9012005B0BDE8F0831F
:10405000049808B166B10FE03DB1502080F311889B
:10406000BFF34F8FBFF36F8FFEE7FFF7B1F95DE04E
:104070006846FFF7CFFA0126FFF7AAF9FFF798FB8A
:10408000FFF786F994F94400401C01D184F844906C
:1040900094F94500401C01D184F84590FFF798F948
:1040A00004A9684600F066F80028204612D0FFF701
:1040B00051F800F023FA2046FEF7FEFE0028A9D0B2
:1040C0009DB3FFF765F9606A50B3206B0068C0F1DB
:1040D000380126E0FEF7F0FEE0B1206838B9FFF7BE
:1040E00057F9606800F096F90546FFF771F904F199
:1040F00024000499FFF79CFA2046FFF72BF800F004
:10410000FDF9002886D1C8F80070BFF34F8FBFF3C8
:104110006F8F7FE72046FFF71DF800F0EFF979E792
:1041200000216068FFF7B8FA9FE7FFE700208CE7FF
:1041300004ED00E070B50D46040009D000F0ACF8C5
:10414000616888420CD1E068401CE060012070BDCD
:10415000502080F31188BFF34F8FBFF36F8FFEE7BE
:1041600029462046FFF72AFF0028F0D0E168491CC5
:10417000E16070BD2DE9F0410C46050011D0C4B1DD
:10418000FFF706F9174B5A696E682068911B471CA8
:1041900017D02F689B6A9F4219D0964217D80124E6
:1041A00010E0502080F31188BFF34F8FBFF36F8F63
:1041B000FEE7502080F31188BFF34F8FBFF36F8F5E
:1041C000FEE70024FFF704F92046BDE8F0818842AD
:1041D00005D9401A20602846FFF71CFAF1E70020B5
:1041E0002060DCE7380000202DE9FF5F8346DDE931
:1041F0000E87994616468A469000FEF7E1FF0500B5
:104200001CD05C20FEF7DCFF040014D000202563E6
:1042100084F85900CDE90240CDE900874B4632468B
:1042200051465846FEF7B7FD2046FEF749FC0120EF
:1042300004B0BDE8F09F2846FFF7DEF84FF0FF30EE
:10424000F6E7F0B585B0DDE90B640A9DA6B1DCB1F7
:104250005C2700972663022684F85960002604AF85
:10426000CDE90246CDE90057FEF795FD2046FEF761
:1042700027FC049805B0F0BD502080F31188BFF3EF
:104280004F8FBFF36F8FFEE7502080F31188BFF38D
:104290004F8FBFF36F8FFEE7014800687047000043
:1042A000380000200548C16919B1806B18B10020A1
:1042B000704701207047022070470000380000203E
:1042C0000148406970470000380000202DE9F041A6
:1042D0002E4C0027A06B40B1206A401C2062606A0F
:1042E00000B101273846BDE8F0816669761C666139
:1042F00013D16068006838B1502080F31188BFF393
:104300004F8FBFF36F8FFEE76068A1686160A060A8
:10431000A06A401CA062FEF79DFE206BDFF8708053
:10432000864209D36068006880B16068C068C5686B
:10433000686886420DD220632068C06A00EB800165
:1043400058F821000128CAD90127C8E74FF0FF30EB
:10435000F1E7281DFEF7BEFFA86A18B105F11800A5
:10436000FEF7B8FFE86AA169884200D9A06100EBB6
:10437000800108EB8100291DFEF7FDFFE86A216836
:10438000C96A8842CED30127CCE70000380000205C
:10439000A002002070B504004FF0000133D01B4D87
:1043A0002868844207D0502080F31188BFF34F8FD4
:1043B000BFF36F8FFEE7206D38B1401E2065E36CC0
:1043C000E26A9A421FD040B11DE0502080F311886C
:1043D000BFF34F8FBFF36F8FFEE7201DFEF77AFF0D
:1043E000E06CE062C0F13800A061E06AA96988422F
:1043F00000D9A861064900EB800001EB8000211D77
:10440000FEF7B9FF0121084670BD0000380000200A
:10441000A002002070B504004FF000002BD0194D11
:10442000E16A2A68D26A914226D2A069002804DB98
:104430002868C06AC0F13800A061134E01EB810109
:10444000606906EB8101884211D1201DFEF742FF11
:104450002868C06AE062A969884200D9A86100EBB7
:10446000800006EB8000211DFEF785FF02E0286832
:10447000C06AE062012070BDE16C2A68D26A914294
:10448000F8D370BD38000020A002002070B5C068CD
:10449000C46854B104F118000646FEF71BFF144D22
:1044A000A86B50B13146134815E0502080F31188B5
:1044B000BFF34F8FBFF36F8FFEE7201DFEF70AFF9C
:1044C000E06AA969884200D9A8610B4900EB800025
:1044D00001EB8000211DFEF74EFFE06A2968C96AE2
:1044E000884202D90120686270BD002070BD0000C2
:1044F0003800002028070020A00200202DE9F04706
:104500002C4D00242746A86B38B1FEF741FFA86B5D
:10451000401EA863A86B40B146E0502080F311888C
:10452000BFF34F8FBFF36F8FFEE72969224E012043
:10453000D1B3A6F5916980463068E0B1F068C468EF
:1045400004F11800FEF7C6FE201DFEF7C3FEE06A68
:10455000A969884200D9A86100EB800109EB8100BC
:10456000211DFEF708FFE06A2968C96A8842E3D383
:10457000C5F82480E0E70CB1FEF76CFD2C6A4CB165
:104580004FEA0806FFF7A2FE00B16E62641EF9D181
:1045900000202862686A38B1084901273807086096
:1045A000BFF34F8FBFF36F8FFEF712FF3846BDE8A2
:1045B000F0870000380000202807002004ED00E00C
:1045C00010B586B0FEF7E4FA114CA068B8B100202F
:1045D0000390049005AA04A903A8FEF799FEDDE95B
:1045E000032102208DE8070000230AA10B48059A49
:1045F000FFF727FEE06010B106B0012010BD50208B
:1046000080F31188BFF34F8FBFF36F8FFEE7000079
:1046100074000020546D722053766300313100081D
:104620002DE9FF411E46134602000A9D4FF000008F
:1046300016D0144CA768002F0FD0CDE900130292BA
:10464000062917DAFFF72EFE02284FF000030FD0DD
:1046500000226946A068FFF7E7FA04B0BDE8F081E0
:10466000502080F31188BFF34F8FBFF36F8FFEE7A9
:104670002A46EEE70023324669463846FFF784FBB8
:10468000EBE7000074000020304700080000000045
:104690000000000000000000000000000002000018
:1046A000180000000000000000000000384700086B
:1046B00000000000000000000000000000000000FA
:1046C00000020000180000000000000000000000D0
:1046D0004847000800000000000000000000000043
:1046E00000000000000200002000000000000000A8
:1046F0000000000058470008000000000000000013
:1047000000000000010202030405060708090A0B65
:104710000C0D0E0F10100000000000000000010240
:10472000030406070809000000000102030400005A
:104730004332435461736B004C4544446562756772
:104740005461736B00000000496E697457696669B3
:104750005461736B000000004332434D75746578FB
:10476000000000008447000800000020B0000000A6
:104770006C01000834480008B0000020E820000068
:104780008801000800000000000000006400000034
:104790000000000000000000000000000000000019
:1047A0000000000000000000000000000100000008
:1047B00010000000000000000024F40000000000D1
:1047C00000000000000000000000000000000000E9
:1047D00000000000000000000000000000000000D9
:1047E00000000000000000000000000000000000C9
:1047F00000000000000000000000000000000000B9
:1048000000000000000000000000000000000000A8
:104810000000000000000000000000000000000098
:10482000000000000000000000000000AAAAAAAAE0
:044830000000000084
:0400000508000131BD
:00000001FF
