:020000040800F2
:10000000784C0020990100087905000807050008D0
:100010007505000855020008930E00080000000056
:1000200000000000000000000000000001010008C6
:10003000590300080000000045010008BD0A00083F
:10004000B3010008B3010008B3010008B3010008C0
:10005000B3010008B3010008B3010008B3010008B0
:10006000B3010008B3010008B3010008B3010008A0
:10007000B3010008B3010008B3010008B301000890
:10008000B3010008B3010008B3010008B301000880
:10009000B3010008B3010008B3010008B301000870
:1000A000B3010008B3010008B3010008B301000860
:1000B0002D0B0008B3010008690B0008B30100080C
:1000C000B3010008B3010008B3010008B301000840
:1000D000B3010008010D0008B3010008B3010008D6
:1000E000B3010008B3010008B3010008DFF80CD029
:1000F00000F09EF80048004759100008784C002096
:10010000224B19680868B0E8F00F80F30988BFF344
:100110006F8F4FF0000080F311884EF00D0E704786
:100120000000000006480068006880F3088862B696
:1001300061B6BFF34F8FBFF36F8F00DF00BF00BF0B
:1001400008ED00E0EFF30980BFF36F8F0F4B1A68E3
:1001500020E9F00F106008B54FF0BF0080F3118860
:10016000BFF34F8FBFF36F8F01F084FE4FF000009D
:1001700080F31188BDE8084019680868B0E8F00FFE
:1001800080F30988BFF36F8F704700BF180000200D
:10019000EFF3058070470000064880470648004797
:1001A000FEE7FEE7FEE7FEE7FEE7FEE7FEE7FEE727
:1001B000FEE7FEE7CD0A0008ED00000840EA010373
:1001C0009B0703D009E008C9121F08C0042AFAD20D
:1001D00003E011F8013B00F8013B521EF9D27047D1
:1001E000D2B201E000F8012B491EFBD27047002279
:1001F000F6E710B513460A4604461946FFF7F0FF26
:10020000204610BD30B50B460146002020220124B7
:1002100009E021FA02F59D4205D303FA02F5491BD4
:1002200004FA02F52844151EA2F10102F1DC30BDEA
:10023000064C074D06E0E06840F0010394E8070033
:1002400098471034AC42F6D3FFF754FF442C000813
:10025000642C000800BFFEE77FB505460C4601216F
:10026000084600F05BFB0020ADF80600ADF8020088
:10027000ADF80450ADF800408DF8080069464FF025
:10028000804000F0ADFC01221146900700F09EFC7A
:100290001C208DF80C0001208DF80F008DF80D004A
:1002A0008DF80E0003A800F075F90121880700F011
:1002B00070FC7FBD7FB505460C460121042000F08F
:1002C0002DFB0020ADF80A00ADF80600ADF808508F
:1002D000ADF804408DF80C0001A90D4800F080FC39
:1002E000012211460A4800F071FC1E208DF8000022
:1002F00001208DF803008DF801008DF8020068469A
:1003000000F048F90121024800F043FC7FBD0000E5
:100310000008004030B50346002016E0B3F9005055
:100320009C68645D0C541C88641C24B21C80B3F966
:100330000040B3F90450AC4201DB00241C80441C93
:1003400020B2DC88641E24B2DC80B3F90640002CA5
:1003500001DD9042E2DB30BD704770B503460020FE
:1003600016E00C5CB3F902609D68AC555C88641CB7
:1003700024B25C80B3F90240B3F90450AC4201DB13
:1003800000245C80441C20B2DC88641C24B2DC8025
:10039000B3F90640B3F90450AC4201DA9042E0DB15
:1003A00070BD00001CB50648012100238022CDE964
:1003B000001004A1064801F0E9FE01F017FD1CBD84
:1003C0000400002053746172745F5461736B000009
:1003D000690A00082DE9F0410246002500260020A8
:1003E00000230024002791F803C00CF00F0591F8BA
:1003F00003C00CF0100CBCF1000F03D091F802C048
:100400004CEA050591F800C0BCF1000F31D014682A
:1004100000202BE04FF0010C0CFA00F3B1F800C003
:100420000CEA03069E4220D183004FF00F0C0CFA19
:1004300003F7BC4305FA03FC4CEA040491F803C03B
:10044000BCF1280F06D14FF0010C0CFA00FCC2F8E9
:1004500014C00AE091F803C0BCF1480F05D14FF079
:10046000010C0CFA00FCC2F810C0401C0828D1D3C3
:100470001460B1F800C0BCF1FF0F34DD54680020F7
:100480002EE000F1080C4FF0010808FA0CF3B1F867
:1004900000C00CEA03069E4221D183004FF00F0CEE
:1004A0000CFA03F7BC4305FA03FC4CEA040491F888
:1004B00003C0BCF1280F05D100F1080C08FA0CF8B4
:1004C000C2F8148091F803C0BCF1480F07D100F1C5
:1004D000080C4FF0010808FA0CF8C2F81080401C14
:1004E0000828CED35460BDE8F08102460020D368CE
:1004F0000B400BB1012000E0002070470AB1016100
:1005000000E04161704700BFFEE710B500F010F950
:1005100000F0E8FB00F02AF810BD000008B501214A
:10052000102000F00BFA4FF40050ADF8000003204B
:100530008DF8020010208DF8030069460148FFF78E
:1005400049FF08BD0010014010B54FF400510648A6
:10055000FFF7CBFFC0F10100C4B222464FF40051B7
:100560000148FFF7CBFF10BD0010014010B5FFF7A9
:10057000D5FF10BD00BFFEE77047000000F01F026E
:1005800001219140024A430942F8231070470000BC
:1005900080E200E070B5002100230F22C47804B38C
:1005A000154C246804F4E064C4F5E064210AC1F148
:1005B0000403CA40447804FA03F1847814402143C8
:1005C00009010E4C0678A155047804F01F0501249A
:1005D000AC4005786D11AD0005F1E025C5F800418E
:1005E00009E0047804F01F050124AC40044D0678AE
:1005F000761145F8264070BD0CED00E000E400E007
:1006000080E100E070B500240EE00021204600F0FB
:10061000E6F8002504E0002000F050F9681CC5B29F
:10062000802DF8DB601CC4B2082CEEDB70BD00002E
:1006300008B50121082000F081F914208DF803008D
:1006400003208DF802004FF48070ADF80000694679
:100650000A48FFF7BFFE4FF40070ADF8000069468E
:100660000648FFF7B7FE012211020448FFF746FFD4
:10067000012251020148FFF741FF08BD000C014073
:1006800070B50546002415E08020204100EA0502EF
:100690004FF400710E48FFF731FF012211020C48A0
:1006A000FFF72CFF00224FF480710948FFF726FF67
:1006B000601CC4B2082CE7DB012211020448FFF7DA
:1006C0001DFF00224FF480710148FFF717FF70BD36
:1006D000000C014010B5012251020A48FFF70EFF3D
:1006E000012211020748FFF709FF00224FF40071B1
:1006F0000448FFF703FF00224FF480710148FFF721
:10070000FDFE10BD000C014010B500224FF4007139
:100710000648FFF7F3FE012211020448FFF7EEFE40
:10072000012251020148FFF7E9FE10BD000C014013
:1007300070B5002406E0002500E06D1CB5F57A7F59
:10074000FBD3641CB4F57A7FF5D3FFF771FFAE20BD
:1007500000F0A4F8D52000F0A1F8802000F09EF869
:10076000A82000F09BF83F2000F098F8D32000F07C
:1007700095F8002000F092F8402000F08FF8A120BA
:1007800000F08CF8C82000F089F8DA2000F086F834
:10079000122000F083F8812000F080F8CF2000F0D4
:1007A0007DF8D92000F07AF8F12000F077F8DB200E
:1007B00000F074F8302000F071F8A42000F06EF81A
:1007C000A62000F06BF88D2000F068F8142000F0EF
:1007D00065F8AF2000F062F8FFF714FF70BD70B548
:1007E00005460C4645F0B00000F058F8102141EAEB
:1007F000141000F053F804F00F0000F04FF870BD33
:100800002DE9F04105460E461746721ED206110E1E
:100810006A1E5206100EFFF7E2FF002409E0A7F15E
:100820002001134A02EB0111085D00F047F8601C3B
:10083000C4B2082CF3DB721ED206110E6A1E01230D
:1008400003EB4202D0B2FFF7CAFF00240BE0A7F18E
:100850002001074A02EB011204F10801505C00F08C
:100860002DF8601CC4B2082CF1DBBDE8F08100005B
:10087000542600082DE9F04107460E46154600248F
:1008800007E02A5D3019C1B23846FFF7B9FF601C96
:10089000C4B2285D0028F4D1BDE8F08110B504464B
:1008A000FFF718FF7820FFF7EBFE0020FFF7E8FEC8
:1008B0002046FFF7E5FEFFF727FF10BD10B5044601
:1008C000FFF708FF7820FFF7DBFE4020FFF7D8FE98
:1008D0002046FFF7D5FEFFF717FF10BD10B500F05B
:1008E000FBF978B108480088642804DBFFF72CFE88
:1008F00000200549088004480088401C02490880FF
:1009000000F0E4F910BD0000000000200146C88896
:1009100008B9012070470020FCE7000029B1064A11
:10092000D2690243044BDA6104E0034AD26982438C
:10093000014BDA61704700000010024029B1064AFD
:1009400092690243044B9A6104E0034A926982432C
:10095000014B9A61704700000010024070B50446D8
:100960000025012221460348FFF7D4FCC5B22846E2
:1009700070BD00008C00002010B500F001F810BD23
:100980000CB50020019000903348006840F480309E
:100990003149086000BF3048006800F40030009022
:1009A0000198401C0190009818B90198B0F5A06F0B
:1009B000F1D12948006800F4003010B10120009006
:1009C00001E0002000900098012843D123480068EE
:1009D00040F01000214908600846006820F003003C
:1009E00008600846006840F0020008601A48406845
:1009F000194948600846406848600846406840F425
:100A0000806048600846406820F47C1048600846D2
:100A1000406840F4E81048600846006840F0807084
:100A2000086000BF0C48006800F000700028F9D092
:100A30000948406820F003000749486008464068BC
:100A400040F00200486000BF0348406800F00C001E
:100A50000828F9D10CBD000000100240002002401F
:100A600010B5FFF79FFC10BD1CB504460B480221D2
:100A700000238022CDE9001009A10B4801F086FB7C
:100A80000A48032100238022CDE9001008A10A486A
:100A900001F07CFB002001F0F7F81CBD08000020ED
:100AA0005461736B31000000850C00080C000020BD
:100AB0005461736B32000000950C000810B501F012
:100AC00099FB012801D001F01FFA10BD10B51348A1
:100AD000006840F00100114908600846406810496C
:100AE00008400E494860084600680E4908400B4916
:100AF00008600846006820F48020086008464068C6
:100B000020F4FE0048604FF41F008860FFF734FFB8
:100B10004FF000600449086010BD00000010024062
:100B20000000FFF8FFFFF6FE08ED00E010B5012120
:100B3000880700F03AF8012811D109480078401CD4
:100B40000749087008460078022804DB0020087076
:100B50000120044908700121880700F017F810BD32
:100B6000140000201200002010B50121054800F0FB
:100B70001CF8012805D1044908700121014800F042
:100B800005F810BD0008004013000020CA4302828F
:100B9000704721B1028842F00102028004E002881D
:100BA0004FF6FE731A400280704730B502460020AF
:100BB00000230024158A05EA0103958905EA01044A
:100BC00013B10CB1012000E0002030BD1AB18389BF
:100BD0000B43838102E083898B438381704700004C
:100BE000002202881D4B98420ED01D4B98420BD01C
:100BF000B0F1804F08D01B4B984205D01A4B984259
:100C000002D01A4B984204D14FF68F731A404B888A
:100C10001A43174B984207D0164B984204D04FF610
:100C2000FF431A40CB881A4302808B8883850B8848
:100C300003850A4B98420BD0094B984208D00E4BC3
:100C4000984205D00D4B984202D00D4B984201D1ED
:100C50000B7A03860123838270470000002C014039
:100C6000003401400004004000080040000C004037
:100C700000100040001400400040014000440140CA
:100C80000048014005E0FFF75FFC4FF4FA7000F008
:100C9000E1FFF8E708B514E00A4802880AA16846AF
:100CA00000F006F96A4601210846FFF7E3FD054812
:100CB0000088401C034908804FF4FA7000F0CAFF16
:100CC00000BFE9E710000020256400000020014972
:100CD000087070471200002001480078704700003B
:100CE0001200002010B5472140F2E730FFF7B4FAB8
:100CF00041F61F4142F20F70FFF7DCFA10BD000011
:100D000008B50020009040F22551204800F069F815
:100D100058B12520FFF732FC1C4800F0B1F8C0B2F2
:100D200000909DF8000000F0B7F80821174800F087
:100D30004BF8012806D10821144800F02DF813487B
:100D400000F09EF840F22771104800F04AF8E0B138
:100D500040F227710D4800F028F82520FFF70EFC1F
:100D60006846FFF7FBFD9DF80010084800F08DF87D
:100D70000748FFF7CBFD40B100200649087000226C
:100D800040F22771014800F056F808BD00380140D4
:100D90008C0000201500002001F40072B2F5007FE5
:100DA00000D100BFCA430280704710B50022002363
:100DB00040F66A14A14200D100BF0A1201249440F7
:100DC000A3B2DC43048010BD02460020B1F5007FD1
:100DD00000D100BF13880B400BB1012000E00020C0
:100DE000704770B50246002400230025002040F61D
:100DF0006A16B14200D100BFC1F3421501F01F03D2
:100E0000012606FA03F3012D02D19689334006E04C
:100E1000022D02D1168A334001E0968A33400C122B
:100E2000012606FA04F41688344013B10CB10120EF
:100E300000E0002070BDF0B5034600240026002528
:100E4000002040F66A17B94200D100BF1846C1F32E
:100E5000421401F01F06012707FA06F5012C01D103
:100E60000C3004E0022C01D1103000E014301AB133
:100E700007682F43076002E00768AF430760F0BDD3
:100E800001468888C0F308007047C1F308028280D9
:100E9000704700BFFEE7000031B50024012269461B
:100EA0000248FFF75AFAC4B2204638BD9800002025
:100EB0000FB4084B10B504A902AA039800F01CF85F
:100EC000044602A9002000F0C1F8204610BC5DF8DD
:100ED00014FB00004D10000802E008C8121F08C1F2
:100EE000002AFAD170477047002001E001C1121FAB
:100EF000002AFBD1704700002DE9FF4F89B09B46C7
:100F00000446002506E025280BD05A460B99904749
:100F1000641C6D1C20780028F5D10DB02846BDE872
:100F2000F08F0027B8460122474900E0074314F834
:100F3000013F203B02FA03F00842F7D120782E2827
:100F400019D114F8010F47F004072A280ED06FF0CA
:100F50002F022078A0F1300109290CD808EB880174
:100F600002EB410100EB0108641CF2E70A98641CE3
:100F700050F8048B0A9020780028CED0642808D03E
:100F8000692806D075281ED05A460B9990476D1CCB
:100F900058E00A994FF00A0901C90A91002802DABB
:100FA00040422D2102E0390504D52B218DF8201077
:100FB000012103E0F90704D02021F7E78A4608AEB3
:100FC0000DE00021FAE70A994FF00A0901C90A91D8
:100FD000F7E74946FFF716F9303106F8011D0028FA
:100FE000F7D1ADEB060000F12009780701D44FF0EE
:100FF0000108C84502DDA8EB090000E0002080469A
:10100000002706E008A85A46C05D0B9990476D1C62
:101010007F1C5745F6DB04E030205A460B99904779
:101020006D1CB8F10001A8F10108F5DC05E016F827
:10103000010B5A460B9990476D1CB9F10001A9F1BB
:101040000109F4DC641C65E7092801000A68531CE7
:101050000B60107070470000FFF757FAFFF700FDB4
:1010600004A201210846FFF705FC01E0FFF736FC6A
:10107000FCE7000050726F6772616D206973204F4A
:101080004B2100002DE9F04105460E462648076831
:1010900026480068001D00F013FD50B92348006881
:1010A00090F82C100120884021490968814320488C
:1010B0000160681CD8B9D6B11E4948681B49096847
:1010C00088601A4982680968CA6018490968091D58
:1010D0008268516015490968091D8160154A1349E4
:1010E00009684A6111460968491C11601AE07C19B7
:1010F0000E4800684460BC4207D20C480168091DD4
:101100000D48006800F006FD0CE008480168091D64
:101110000A48006800F0FEFC09480068844201D2D9
:1011200007480460BDE8F0812C0000201800002072
:10113000300000203C040020200000201C00002083
:101140004800002010B5044600F00AFD3148006850
:10115000401C304908603048006840B92E4804609F
:101160000846006801280DD100F0BCF90AE02B48C0
:10117000006838B928480068C06AE16A884201D826
:101180002548046026480068401C25490860084638
:101190000068606494F82C10012088402149096897
:1011A000084320490860E16A01EB81011E4A02EB15
:1011B00081014868A0608268E260211D82685160F8
:1011C0008160E16A01EB8101174A02EB81026261F1
:1011D000E16A01EB8101144A52F82110491CE26ACC
:1011E00002EB8202104B43F8221000F0CBFC0B48BC
:1011F000006868B108480068C06AE16A884207D29E
:101200004FF0805009490860BFF34F8FBFF36F8FD5
:1012100010BD00002800002018000020340000202D
:1012200044000020300000206C01002004ED00E0AC
:1012300010B500F095FC0C48006890B90B4800F020
:1012400059FC0B4800F056FC08480A490860084859
:101250000949086000220C21052000F06FFE0249B8
:10126000086000F08FFC10BD6000002050040020DA
:1012700064040020580000205C00002010B516E037
:1012800000F06EFC0C48C068C468201D00F018FC1B
:101290000A480068401E0949086009480068401E65
:1012A0000749086000F06EFC204600F055F804483D
:1012B00000680028E4D110BD280400202800002088
:1012C0002400002070B504460D46206C70B1216CDE
:1012D000E0680144E160D4E90210884201D321684A
:1012E000E1602846226CE168FEF768FF70BD2DE9D9
:1012F000F04104460F4615464FF00008A66B206CDF
:1013000028B37DB93946226C6068FEF757FF216C1F
:10131000606808446060D4E90101884217D32068FE
:10132000606014E03946226CE068FEF747FF216CEC
:10133000E068411AE1602168E068884203D2216CCC
:10134000A068411AE160022D01D106B1761E701C21
:10135000A0634046BDE8F08110B50446206B00F064
:1013600021FC204600F01EFC10BD00000146084A8A
:10137000126812680AB9012200E000220A600A68B5
:1013800022B9034A1268D268106800E00020704752
:101390005800002030B54FF48843154800F007048A
:1013A0002CB1C01D20F00700114C041B1B1B024672
:1013B000104C226000240F4D6C60D018083820F0CB
:1013C00007000D4C206000240B4D2D686C600A4D09
:1013D0002D682C601146441A4C60074C24680C6040
:1013E000064D4C682C60064D4C682C6030BD0000EA
:1013F0007804002070000020780000208000002089
:101400007C00002000BFFFF739FF06480068012874
:10141000F9D94FF0805004490860BFF34F8FBFF3F4
:101420006F8FF0E76C01002004ED00E02DE9F04142
:1014300006460D4617469846069C0DB9246000E006
:101440002760E66325640121204600F09DFD84F8B5
:1014500050800020A064BDE8F0812DE9F05F814656
:101460000E4617469A46DDF828800C9CB900A52246
:10147000206BFEF7B5FE781E216B01EB800B2BF085
:10148000070B7EB1002507E0715D04F13400415582
:10149000705D00B902E06D1C102DF5D300BF002176
:1014A00043200155B8F1200F01D34FF01F08C4F8B5
:1014B0002C80201D00F02BFB04F1180000F027FB0E
:1014C0002461C8F12000A061646252464946584632
:1014D00000F0E4FA20600B9808B10B980460BDE8B6
:1014E000F09F000010B5002407E004EB84010F4AD0
:1014F00002EB810000F0FEFA641C202CF5D30C48AE
:1015000000F0F8FA0B4800F0F5FA0B4800F0F2FA98
:101510000A4800F0EFFA0A4800F0ECFA04480949DA
:10152000086004480849086010BD00006C010020F4
:10153000EC030020000400201404002028040020F4
:101540003C0400201C0000202000002010B50146B3
:10155000164800E0006803688B42FBD302464368EC
:1015600013448B4204D143684C68234443600146D2
:101570000A464B6813440468A34211D10C4C03681B
:101580002468A34208D04B680468646823444B6015
:1015900003681B680B6005E0054B1B680B6001E0EE
:1015A00003680B60884200D0016010BD700000200D
:1015B000780000202DE9F04104460D4616461F46EE
:1015C0004FF0000865602461B5420CD8F01BA1699A
:1015D000884202D34FF0010811E0211D094800683C
:1015E00000F098FA0BE0BE4204D2BD4202D34FF0A5
:1015F000010804E0211D0448006800F08BFA404611
:10160000BDE8F0815C0000205800002070B5054660
:1016100000F0A6FAA86B08B9012400E0002400F04D
:10162000B1FA204670BDF1B50098846C0026A06B1D
:10163000E16B884221D294F9455000226946204648
:10164000FFF755FE0646681C60B9606A08B90120BC
:1016500000E0002080B904F1240000F0A9FE58B198
:10166000012609E000F040FA0746BD4203D2681C9B
:1016700040B284F8450000BF00BF3046F8BD00000E
:1016800070B505460E460E480068C068C468201D47
:1016900000F016FA94F8280000F0040028B1324651
:1016A0002946204600F0C4F805E094F8280000F030
:1016B000FE0084F828002046216A884770BD00009B
:1016C000580000207FB56EE0019800286BDB039C7A
:1016D000606908B9012000E0002010B9201D00F069
:1016E000EFF9684600F0D0F8054601980A2858D26C
:1016F000DFE800F05705072E364706082F3700BFF2
:1017000000BF00BF94F8280040F0010084F82800D2
:101710000298A269811803462A462046FFF74AFF2D
:10172000A8B194F8280000F0040038B10298A2692A
:1017300081182A46204600F07BF805E094F828003E
:1017400000F0FE0084F828002046216A884729E03E
:1017500000BF94F8280000F0FE0084F8280021E083
:1017600000BF94F8280040F0010084F82800029897
:10177000A061A06941192B462A462046FFF71AFFAF
:1017800010E094F8280000F0020018B9204600F09C
:1017900009FA05E094F8280000F0FE0084F828001B
:1017A00000E000BF00BF002201A90348006800F06C
:1017B0003BFC002888D17FBD60000020F8B50546BD
:1017C0000C4600F04FFB684600F05EF806460098B5
:1017D00020BB44B9B54206D800F06EFE314628461B
:1017E000FFF74EFF1CE03CB10E480068006808B9E6
:1017F000012000E000200446A91B22460A48006898
:1018000000F002FA00F058FE50B94FF0805007493E
:101810000860BFF34F8FBFF36F8F01E000F04CFE05
:10182000F8BD00005C0000206000002004ED00E036
:1018300070B504460D46164604E0A06905442046EE
:10184000216A8847A06941192B4632462046FFF796
:10185000B1FE0028F1D170BD09480068006808B9E0
:10186000012000E0002020B14FF0FF300549086062
:1018700005E003480068C0680068024908607047D6
:101880001C0000204800002070B5044600F0C2FC97
:10189000054607480068854204D200F00BF8012095
:1018A000206001E00020206001480560284670BDEE
:1018B0006800002070B508E00D480068C068046842
:1018C0004FF0FF312046FFF7DBFE09480068006853
:1018D00008B9012000E000200028EDD00448056888
:1018E00004480068024908600248056070BD0000B5
:1018F000580000205C00002000BFBF2080F311884A
:10190000BFF34F8FBFF36F8F00BF00BFFEE708B577
:1019100000BF6846FFF72AFD044620460099FFF7FE
:101920004DFFFFF7CFFEF4E770B5044600F018F95D
:1019300094F9455019E0A06C30B12046FFF773FED2
:1019400088B100F017FA0EE0606A08B9012000E0E3
:10195000002038B904F1240000F02AFD18B100F08D
:1019600009FA00E003E0681E45B2002DE3DC00BF89
:10197000FF2084F8450000F005F900F0F1F894F933
:10198000445010E0206908B9012000E0002048B967
:1019900004F1100000F00CFD08B100F0EBF9681E36
:1019A00045B200E001E0002DECDC00BFFF2084F830
:1019B000440000F0E7F870BD2DE9F04705464FF010
:1019C000000900F04FFA3048006808B9FFF7E2FC60
:1019D00075B105F00700C0F11008C8F1FF30A8424A
:1019E00001D2012000E0002008B9454400E00025B4
:1019F000012000EBE570002841D0002D3FD02348A6
:101A0000006885423BD8224E3046046801E02646F5
:101A100024686068A84202D220680028F7D11A48DA
:101A2000006884422BD0306800F1080920683060DB
:101A30006068401B102807D967196068401B7860F0
:101A400065603846FFF782FD104960680968081A2A
:101A50000E490860084600680E490968884203D2AA
:101A60000A4800680B490860606840F00040606008
:101A70000020206008480068401C0749086000F00A
:101A80001BFD4846BDE8F087780000207C00002060
:101A9000700000208000002084000020001F4FF014
:101AA00080730360001F21F001030360001F034BDC
:101AB000036014380260203870470000F9180008ED
:101AC00001460A69D1E901309860D1E90103586003
:101AD0005068884201D18868506000200861106811
:101AE000401E106010687047014800687047000091
:101AF0002800002000F1080141604FF0FF318160B3
:101B000000F10801C16001610021016070470021FE
:101B10000161704710B502460B685C1C0CB9106976
:101B200007E002F1080000E04068446824689C4235
:101B3000FAD944684C604C68A160886041600A61D1
:101B40001468641C146010BD42684A6093688B601E
:101B5000936859609160086103685B1C036070477B
:101B600000BFBF2080F31188BFF34F8FBFF36F8F8B
:101B700000BF03480068401C01490860704700002E
:101B80006C00002006480068401E054908600846B1
:101B9000006820B9002080F3118800BF00BF7047A3
:101BA0006C00002070B506463546E6B1083D2C466F
:101BB0006068C00FB8B12068A8B9606820F0004024
:101BC000606000F04FF908496068096808440649F8
:101BD00008602046FFF7BAFC04480068401C03492F
:101BE000086000F069FC70BD7C00002088000020C7
:101BF00000204FF0E0210861886102484861072019
:101C0000086170473F1901002DE9F04105460E4675
:101C100017462C46FFF7A4FF94F94400401C10B966
:101C2000002084F8440094F94500401C10B90020BD
:101C300084F84500FFF7A6FFA06B28B93A46314665
:101C400004F1240000F0ACF82046FFF76DFEBDE87B
:101C5000F081000070B50446002544B100F002F99F
:101C600000212046FFF70EFA00F026FC05463DB99C
:101C70004FF0805003490860BFF34F8FBFF36F8F61
:101C800070BD000004ED00E070B50546FFF768FF89
:101C900015B92948006800E028460446201DFFF7D2
:101CA0000FFF78B9E06A00EB8000244951F820006A
:101CB00040B994F82C1001208840214909688143DB
:101CC0001F480160A06A18B104F11800FFF7F8FE80
:101CD0001C480068401C1B49086017480068844283
:101CE00009D1211D1848FFF72FFF18480068401C34
:101CF0001649086006E016480068401E144908604E
:101D0000FFF7AAFDFFF73EFF0B480068844202D0B0
:101D10002046FFF721FB0F48006858B106480068CD
:101D2000844207D14FF080500B490860BFF34F8FBA
:101D3000BFF36F8F70BD0000180000206C01002001
:101D4000300000204400002028040020240000204F
:101D5000280000203400002004ED00E00349096859
:101D6000016003490968416070470000400000209D
:101D70002C00002001200149086070473C00002031
:101D800070B505460C460548016818312846FFF72E
:101D9000C1FE01212046FFF775F970BD1800002033
:101DA00070B504460E46154660680F490968C8615B
:101DB0000D49826809680A620B490968183182680E
:101DC00051600949096818318160074909688C62C6
:101DD0002168491C21600DB14FF0FF36294630467D
:101DE000FFF750F970BD0000180000201CB5154821
:101DF00000210B468022CDE9001013A1144800F009
:101E0000C5F90446012C02D100F004FC0446012C63
:101E100014D100BFBF2080F31188BFF34F8FBFF3F1
:101E20006F8F00BF4FF0FF300A49086001200A4958
:101E3000086000200949086000F04CF80848006874
:101E40001CBD00004C00002049444C45000000002F
:101E50000514000848000020340000202C00002059
:101E60005000002002480068401C0149086070478B
:101E7000540000201248006818B101201149086080
:101E80001DE000200F4908600F480068B0FA80F09C
:101E9000C0F11F0101EB81020C4B03EB8200426891
:101EA0005268426000F108024368934202D14268DE
:101EB000526842604268D268054B1A6000BF7047A2
:101EC000540000203C000020300000206C01002065
:101ED0001800002010B50A48006840F47F00084947
:101EE00008600846006840F07F400860FFF780FE09
:101EF000002004490860FEF715F9002010BD00001D
:101F000020ED00E06C00002010B500BFBF2080F382
:101F10001188BFF34F8FBFF36F8F00BF00F080F9C0
:101F200018B14FF080500449086000BF002080F3D2
:101F3000118800BF10BD000004ED00E02DE9F8435A
:101F400004460E4617460025DCB1681EB0FBF4F0CF
:101F5000B04216D304FB06F010F1550F11D804FB64
:101F600006F909F15400FFF727FD05464DB1A846D3
:101F700008F154083B464246314620460095FFF79B
:101F800055FA2846BDE8F8832DE9F04105460E468E
:101F900001272C46002C41D0E06B00283ED0B91E12
:101FA000E06BB1FBF0F0216C884237D3FFF7D8FD2E
:101FB000D4E90F12206801FB0200A0600020A0639A
:101FC00020686060E06B401E226C216800FB0211FB
:101FD000E160FF2084F8440084F845009EB9206940
:101FE00008B9012000E00020A8B904F1100000F0B9
:101FF000DFF980B14FF080500A490860BFF34F8F7E
:10200000BFF36F8F07E004F11000FFF773FD04F1D9
:102010002400FFF76FFDFFF7B5FD00E0002738460D
:10202000BDE8F08104ED00E02DE9F74183B00546FD
:102030000F464FF000082C4600BFFFF791FDA66B3E
:10204000F6B139462046FFF73DF9701EA0632069BE
:1020500008B9012000E0002060B904F1100000F090
:10206000A7F938B14FF080502F490860BFF34F8F68
:10207000BFF36F8FFFF786FD012006B0BDE8F0814A
:10208000059818B9FFF77EFD0020F6E7B8F1000FBC
:1020900004D101A8FFF762FE4FF00108FFF772FDBF
:1020A000FFF7E0FEFFF75CFD94F94400401C10B917
:1020B000002084F8440094F94500401C10B9002029
:1020C00084F84500FFF75EFD05A901A800F02EF891
:1020D000F0B92046FFF79AFAA0B104F1240005995F
:1020E000FFF74EFE2046FFF71FFC00F0E5F9002841
:1020F000A3D14FF080500C490860BFF34F8FBFF35E
:102100006F8F9AE72046FFF70FFC00F0D5F994E7B0
:102110002046FFF709FC00F0CFF92046FFF776FADA
:1021200000288AD00020A8E704ED00E070B506463C
:102130000C46FFF715FD134802687068131A2068F3
:10214000401C08B9002519E00F4930680968884229
:1021500006D07068904203D80125002020600DE071
:102160002068984207D92068C01A20603046FFF7DF
:10217000F5FD002502E0002020600125FFF702FDAB
:10218000284670BD2C000020400000202DE9FF4FA4
:1021900085B0804689461746DDE912ABB800FFF7E7
:1021A0000BFC064676B15420FFF706FC04462CB122
:1021B00054212046FEF71BF8266304E03046FFF763
:1021C000F1FC00E000247CB10020CDE900ABCDE9BA
:1021D00002403A4649464046089BFFF73EF92046F2
:1021E000FEF7B0FF012501E04FF0FF35284609B0AA
:1021F000BDE8F08F0549096809B9012005E00449E7
:10220000096809B9022000E000207047340000206E
:102210005400002001490868704700002C0000208D
:102220002DE9F04100275748006800287ED1564824
:102230000068451C544805608DB95448D0F80080AA
:1022400053480068514908605148C0F8008051481F
:102250000068401C4F490860FFF7FEFA00BF4E4877
:102260000068854276D300BF48480068006808B916
:10227000012000E0002020B14FF0FF304649086007
:1022800067E042480068C068C4686668B54202D228
:10229000414806605DE06069D4E902128A60D4E9D1
:1022A00002214A60211D42688A4201D1E1684160F1
:1022B000002262610168491E0160A06A98B1A06AAB
:1022C000D4E907128A60D4E907214A6004F11801B1
:1022D00042688A4201D1216A41600022A2620168FB
:1022E000491E016000BF94F82C10012088402B4942
:1022F0000968084329490860E16A01EB8101284A1D
:1023000002EB81014868A0608268E260211D82685A
:1023100051608160E16A01EB8101214A02EB810297
:102320006261E16A01EB81011D4A00E022E052F89E
:102330002110491CE26A02EB8202194B43F8221079
:102340001849E06A0968C96A88428DD901278BE774
:1023500000E000BF13480068C06A00EB800010492D
:1023600051F82000012800D901270F48006800B16A
:10237000012704E00D480068401C0C4908603846FD
:10238000BDE8F081540000202C0000201C0000203B
:1023900020000020400000204800002030000020E5
:1023A0006C010020180000203C00002038000020B4
:1023B00070B50346D868C168886AD1E90745A56049
:1023C000D1E90754656001F118044568A54201D1BF
:1023D0000C6A446000258D620468641E0460304805
:1023E000006800283DD14869D1E90245A560D1E9DE
:1023F000025465600C1D4568A54201D1CC6844605B
:1024000000254D610468641E046091F82C40012091
:10241000A040244C24682043224C2060CC6A04EB6A
:102420008404214D05EB8404606888608568CD6074
:102430000C1D85686C608460CC6A04EB84041A4DC2
:1024400005EB84054D61CC6A04EB8404164D55F808
:102450002440641CCD6A05EB8505134E46F82540E3
:1024600010E0124C6068C86185680D6201F11804C3
:1024700085686C6084600D4D8D622C462468641CF8
:102480002C6000BF0A4CC86A2468E46AA04204D9E0
:1024900001220120074C206000E00022104670BDA0
:1024A00054000020300000206C01002014040020A3
:1024B000180000203C00002070B500240026FFF723
:1024C0004FFB4B480068401E4949086008460068B9
:1024D00000287DD147480068002879D05BE0464855
:1024E000C068C468A06AD4E907128A60D4E90721E9
:1024F0004A6004F1180142688A4201D1216A4160B0
:102500000022A2620168491E01606069D4E90212DA
:102510008A60D4E902214A60211D42688A4201D1C1
:10252000E1684160002262610168491E016094F81F
:102530002C10012088403149096808432F49086060
:10254000E16A01EB81012E4A02EB81014868A0603B
:102550008268E260211D826851608160E16A01EB5E
:102560008101274A02EB81026261E16A01EB81018C
:10257000234A52F82110491CE26A02EB8202204BE6
:1025800043F822101F49E06A0968C96A884202D3E9
:1025900001201D4908601848006808B9012000E0C2
:1025A000002000289BD00CB1FFF756F917480568AA
:1025B00065B100BFFFF734FE10B101201249086079
:1025C0006D1E002DF6D10020104908600E4800E075
:1025D00009E0006838B1012630070D490860BFF3F3
:1025E0004F8FBFF36F8FFFF7CDFA304670BD0000FD
:1025F0005400002028000020140400203000002097
:102600006C010020180000203C0000203800002051
:1026100004ED00E01CB50024FEF70AFE084800683F
:1026200058B108481F2100234FF48072CDE90010F3
:1026300005A10748FFF7AAFD044620461CBD00007F
:102640006000002064000020546D72205376630007
:102650000F1900080000000000000000000000004A
:1026600000000000000000F800000000000000333F
:102670003000000000100C06100C060000000000E6
:102680000000000040C07840C0784000043F0404CF
:102690003F040400007088FC08300000001820FF90
:1026A000211E0000F008F000E018000000211C03CB
:1026B0001E211E0000F00888700000001E21232447
:1026C0001927211010160E00000000000000000065
:1026D00000000000000000E01804020000000007F5
:1026E0001820400000020418E000000000402018FC
:1026F00007000000404080F0804040000202010FCF
:1027000001020200000000F0000000000101011FB2
:1027100001010100000000000000000080B0700016
:1027200000000000000000000000000000010101A6
:102730000101010100000000000000000030300035
:10274000000000000000000080601804006018060F
:102750000100000000E010080810E000000F102049
:1027600020100F00001010F8000000000020203F93
:10277000202000000070080808887000003028241D
:1027800022213000003008888848300000182020BE
:1027900020110E000000C02010F8000000070424E3
:1027A000243F240000F80888880808000019212028
:1027B00020110E0000E0108888180000000F112082
:1027C00020110E0000380808C83808000000003F3B
:1027D000000000000070880808887000001C22219A
:1027E00021221C0000E010080810E0000000312247
:1027F00022110F00000000C0C000000000000030E7
:102800003000000000000080000000000000806038
:1028100000000000000080402010080000010204B9
:1028200008102000404040404040400004040404A0
:10283000040404000008102040800000002010085C
:1028400004020100007048080808F0000000003091
:1028500036010000C030C828E810E000071827241F
:1028600023140B000000C038E0000000203C2302CD
:102870000227382008F8888888700000203F202030
:1028800020110E00C0300808080838000718202062
:102890002010080008F808080810E000203F202059
:1028A00020100F0008F88888E8081000203F20203A
:1028B0002320180008F88888E8081000203F20002E
:1028C00003000000C0300808083800000718202066
:1028D000221E020008F808000008F808203F210125
:1028E00001213F20000808F8080800000020203FD0
:1028F0002020000000000808F8080800C080808040
:102900007F00000008F888C028180800203F200138
:102910002638200008F8080000000000203F202092
:102920002020300008F8F800F8F80800203F003FA9
:10293000003F200008F830C00008F808203F2000C1
:1029400007183F00E01008080810E0000F102020D2
:1029500020100F0008F808080808F000203F2101A7
:1029600001010000E01008080810E0000F182424FE
:1029700038504F0008F8888888887000203F200071
:10298000030C302000708808080838000038202127
:1029900021221C00180808F8080818000000203F31
:1029A0002000000008F808000008F808001F202098
:1029B00020201F000878880000C838080000073869
:1029C0000E010000F80800F80008F800033C0700BA
:1029D000073C0300081868808068180820302C0322
:1029E000032C30200838C800C83808000000203FF9
:1029F0002000000010080808C838080020382621E8
:102A000020201800000000FE020202000000007FEB
:102A100040404000000C30C00000000000000001F9
:102A20000638C00000020202FE00000000404040E4
:102A30007F00000000000402020204000000000009
:102A40000000000000000000000000008080808086
:102A5000808080800002020400000000000000006E
:102A60000000000000008080808000000019242207
:102A700022223F2008F8008080000000003F112043
:102A800020110E000000008080800000000E112048
:102A900020201100000000808088F800000E112026
:102AA00020103F200000808080800000001F222234
:102AB00022221300008080F0888888180020203FA0
:102AC000202000000000808080808000006B9494B3
:102AD0009493600008F8008080800000203F21006F
:102AE00000203F2000809898000000000020203F38
:102AF00020200000000000809898000000C0808026
:102B0000807F000008F8000080808000203F2402C1
:102B10002D302000000808F8000000000020203FB1
:102B2000202000008080808080808000203F200066
:102B30003F20003F8080008080800000203F2100F7
:102B400000203F200000808080800000001F2020A7
:102B500020201F00808000808000000080FFA120D6
:102B600020110E000000008080808000000E1120E7
:102B700020A0FF80808080008080800020203F2176
:102B80002000010000008080808080000033242429
:102B900024241900008080E0808000000000001FD5
:102BA000202000008080000000808000001F202086
:102BB00020103F20808080000080808000010E3047
:102BC0000806010080800080008080800F300C03A8
:102BD0000C300F0000808000808080000020312EAB
:102BE0000E312000808080000080808080818E7087
:102BF0001806010000808080808080000021302C39
:102C00002221300000000000807C02020000000051
:102C1000003F404000000000FF00000000000000F6
:102C2000FF0000000002027C800000000040403FE6
:102C30000000000000060101020204040000000080
:102C400000000000642C0008000000208C00000040
:102C5000D80E0008F02C00088C000020EC4B00007F
:102C6000E80E000800000000000000000000000066
:102C70000000000000000000000000000000000054
:102C80000000000000000000000000000000000044
:102C90000000000000000000000000000000000034
:102CA0000000000000000000000000000000000024
:102CB000000000001F0000000000000000000000F5
:102CC0000000000000000000000000000000000004
:102CD000AAAAAAAA0000000000000000000000004C
:102CE00000000000000000000000000000000000E4
:04000005080000ED02
:00000001FF
