:020000040800F2
:10000000A84C0020DD010008010C00084D07000885
:10001000FD0B00086D0200086716000800000000D4
:100020000000000000000000000000004501000882
:10003000BD0400080000000089010008211100082B
:10004000F7010008F7010008F7010008F7010008B0
:10005000F7010008F7010008F7010008F7010008A0
:10006000F7010008F7010008F7010008F701000890
:10007000F7010008F7010008F7010008F701000880
:10008000F7010008F7010008F7010008F701000870
:10009000F7010008F7010008F7010008F701000860
:1000A000F7010008F7010008F7010008F701000850
:1000B000F9110008F7010008F7010008F70100082E
:1000C000F7010008F7010008F7010008F701000830
:1000D000F7010008CD130008F7010008F701000838
:1000E000F7010008F7010008F7010008F701000810
:1000F000F7010008F7010008F7010008F701000800
:10010000F7010008F701000835120008F7010008A0
:10011000F7010008F7010008F7010008F7010008DF
:10012000F7010008F7010008F7010008F7010008CF
:10013000DFF80CD000F088F800480047A31600084C
:10014000A84C0020224B19680868B0E8F00F80F333
:100150000988BFF36F8F4FF0000080F311884EF0D5
:100160000D0E70470000000006480068006880F32C
:10017000088862B661B6BFF34F8FBFF36F8F00DFA1
:1001800000BF00BF08ED00E0EFF30980BFF36F8F01
:100190000F4B1A6820E9F00F106008B54FF0BF0050
:1001A00080F31188BFF34F8FBFF36F8F02F07CF99C
:1001B0004FF0000080F31188BDE808401968086816
:1001C000B0E8F00F80F30988BFF36F8F704700BF6E
:1001D00044000020EFF30580704700000648804788
:1001E00006480047FEE7FEE7FEE7FEE7FEE7FEE71C
:1001F000FEE7FEE7FEE7FEE799110008310100087F
:1002000040EA01039B0703D009E008C9121F08C098
:10021000042AFAD203E011F8013B00F8013B521E18
:10022000F9D27047D2B201E000F8012B491EFBD28F
:1002300070470022F6E710B513460A4604461946F1
:10024000FFF7F0FF204610BD064C074D06E0E068C2
:1002500040F0010394E8070098471034AC42F6D30D
:10026000FFF76AFF882C0008A82C000800BFFEE7F3
:100270000020014908707047130000200020014948
:10028000087070471200002010B54FF4A06000F015
:10029000FDFC10BD10B500F045FD4FF4803000F0BE
:1002A00003FE00F05FFE0446012C24D1102000F074
:1002B00037F9022000F042F9002000F0E9FD0020AB
:1002C00000F024FEA00200F015FE4FF4E01120041F
:1002D00000F02EFE012000F025FE00BF392000F0C6
:1002E000B1FD0028FAD0022000F030FE00BF00F07F
:1002F000C7FD0828FBD110BD7FB505460C4601217E
:10030000084600F0EFFCADF80850ADF804400020BE
:10031000ADF80A00ADF8060001A94FF0804000F0EA
:10032000D7FF01221146900700F0C8FF1C208DF86E
:10033000000000208DF8010003208DF8020001204C
:100340008DF80300684600F069FC0121880700F081
:1003500098FF7FBD7FB505460C460121082000F0BF
:10036000C1FCADF80850ADF804400020ADF80A001B
:10037000ADF8060001A90E4800F0AAFF01221146BF
:100380000B4800F09BFF32208DF8000000208DF814
:10039000010003208DF8020001208DF8030068465B
:1003A00000F03CFC0121024800F06BFF7FBD000023
:1003B000000C004010B586B004460121880300F00F
:1003C000A1FC0121042000F09DFC4FF40070ADF869
:1003D000140018208DF8170003208DF8160005A9C9
:1003E000224800F0CFF84FF48060ADF814000420EC
:1003F0008DF8170005A91D4800F0C4F801A801F008
:1004000026F901940020ADF80800ADF80A00ADF817
:100410000C000C20ADF80E000020ADF8100001A972
:10042000134801F09FF825208DF8000001208DF879
:1004300001008DF802008DF80300684600F0EEFB25
:10044000012240F225510A4801F067F8012240F2EA
:100450002771074801F061F80121054801F01AF8F9
:1004600000200449087006B010BD000000080140DB
:10047000003801401800002030B50346002016E087
:10048000B3F900509C68645D0C541C88641C24B251
:100490001C80B3F90040B3F90450AC4201DB0024E6
:1004A0001C80441C20B2DC88641E24B2DC80B3F9BA
:1004B0000640002C01DD9042E2DB30BD704701B503
:1004C000009806E0002101E04A1CD1B20729FBDBBD
:1004D000401E0028F6D108BD70B50346002016E086
:1004E0000C5CB3F902609D68AC555C88641C24B256
:1004F0005C80B3F90240B3F90450AC4201DB002444
:100500005C80441C20B2DC88641C24B2DC80B3F91B
:100510000640B3F90450AC4201DA9042E0DB70BD12
:100520000549096821F01001034A11601146096864
:100530000143116070470000002002400146002086
:10054000034A106800F0380008431060704700004C
:10055000002002401CB50648012100238022CDE97D
:10056000001004A1064802F02BF901F059FF1CBD50
:100570000000002053746172745F5461736B00005B
:10058000A11000082DE9F0410246002500260020B8
:1005900000230024002791F803C00CF00F0591F808
:1005A00003C00CF0100CBCF1000F03D091F802C096
:1005B0004CEA050591F800C0BCF1000F31D0146879
:1005C00000202BE04FF0010C0CFA00F3B1F800C052
:1005D0000CEA03069E4220D183004FF00F0C0CFA68
:1005E00003F7BC4305FA03FC4CEA040491F803C08A
:1005F000BCF1280F06D14FF0010C0CFA00FCC2F838
:1006000014C00AE091F803C0BCF1480F05D14FF0C7
:10061000010C0CFA00FCC2F810C0401C0828D1D311
:100620001460B1F800C0BCF1FF0F34DD5468002045
:100630002EE000F1080C4FF0010808FA0CF3B1F8B5
:1006400000C00CEA03069E4221D183004FF00F0C3C
:100650000CFA03F7BC4305FA03FC4CEA040491F8D6
:1006600003C0BCF1280F05D100F1080C08FA0CF802
:10067000C2F8148091F803C0BCF1480F07D100F113
:10068000080C4FF0010808FA0CF8C2F81080401C62
:100690000828CED35460BDE8F0810000F0B50A46CA
:1006A000002300240021002500F00046B6F1004F91
:1006B00002D11D4EF16901E01B4E7168C0F3034584
:1006C00083B200F44016B6F5401F08D121F07061E6
:1006D000154E766826F07066134F7E6012E000F4C7
:1006E0008016B6F5801F06D1032606FA05F4A1434D
:1006F00041F0706106E0460D360103FA06F6B1439B
:1007000041F0706122B1460D360103FA06F631431D
:1007100000F00046B6F1004F02D1034EF16101E056
:10072000014E7160F0BD0000000001404161704762
:1007300001617047014800787047000013000020F5
:1007400001480078704700001200002000BFFEE75B
:1007500010B500F021FD00F00DF800F021F84FF485
:10076000E13000F031F800F023F800F0E1FC00F097
:1007700023FA10BD10B5FFF787FD10BD30B50B464D
:100780000024048044808280C4808360002104E0CF
:10079000002485686C544C1C21B29142F8DB30BDBA
:1007A00010B5FFF777FD10BD10B5FFF7D3FE10BDF4
:1007B00010B5472140F2E730FFF79EFD472140F298
:1007C000E730FFF7C7FD10BD10B5044600F004F890
:1007D0002046FFF7EFFD10BD10B5002406E0002015
:1007E0000949085509490855601C04B2642CF6DB18
:1007F000642205490648FFF7C1FF64220349054802
:10080000FFF7BCFF10BD0000D00000203401002025
:10081000B8000020C40000202DE9F04107460C4636
:1008200015461E462A2000F089F9384600F077F96F
:10083000284600F074F92B2000F080F9204600F0E3
:100840006EF9304600F06BF92C2000F077F9BDE826
:10085000F08170B504460D4616462B4622462946C1
:100860002046FFF7D9FF304600F059F970BD2DE959
:10087000F04706460F4614461D46DDF820A0681EC8
:1008800083B2601E82B239463046FFF7C5FFB846D4
:100890000EE0B14606E0504600F041F909F10100D2
:1008A0001FFA80F9A145F6DB08F101001FFA80F874
:1008B000A845EEDBBDE8F08708B50121092000F06E
:1008C00021FA01211048FFF7E9FE4FF46C70ADF8F2
:1008D000000010208DF8030003208DF80200694607
:1008E0000A48FFF74FFE4FF46C710848FFF720FFEE
:1008F0004020ADF8000048208DF803006946034809
:10090000FFF740FE08BD000000023000000C01406F
:1009100010B5FFF7D1FF10217348FFF709FF7348A7
:10092000FFF7CDFD112000F009F97148FFF7C7FD71
:10093000B12000F003F9052000F0FAF83C2000F0A7
:10094000F7F83C2000F0F4F8B22000F0F7F80520AA
:1009500000F0EEF83C2000F0EBF83C2000F0E8F866
:10096000B32000F0EBF8052000F0E2F83C2000F0A6
:10097000DFF83C2000F0DCF8052000F0D9F83C203E
:1009800000F0D6F83C2000F0D3F8B42000F0D6F800
:10099000032000F0CDF8C02000F0D0F8282000F0AF
:1009A000C7F8082000F0C4F8042000F0C1F8C12006
:1009B00000F0C4F8C02000F0BBF8C22000F0BEF880
:1009C0000D2000F0B5F8002000F0B2F8C32000F0D0
:1009D000B5F88D2000F0ACF82A2000F0A9F8C4206A
:1009E00000F0ACF88D2000F0A3F8EE2000F0A0F8A5
:1009F000C52000F0A3F81A2000F09AF8362000F085
:100A00009DF8C02000F094F8E02000F097F8042052
:100A100000F08EF8222000F08BF8072000F088F814
:100A20000A2000F085F82E2000F082F8302000F037
:100A30007FF8252000F07CF82A2000F079F82820A3
:100A400000F076F8262000F073F82E2000F070F801
:100A50003A2000F06DF8002000F06AF8012000F064
:100A600067F8032000F064F8132000F061F8E1203B
:100A700000F064F8042000F05BF8162000F058F84D
:100A8000062000F055F80D2000F052F82D2000F05F
:100A90004FF8262000F04CF8232000F049F82720DA
:100AA00000F046F8272000F043F8252000F040F839
:100AB0002D2000F03DF83B2000F03AF8002000F037
:100AC00037F8012000F034F8042000F031F813204A
:100AD00000F02EF83A2000F031F8052000F028F858
:100AE000292000F02BF810BD000C0140A086010069
:100AF000C0D4010038B50446FFF70AFF01F0CCFC72
:100B00004FF47840A0238022002100900846FFF790
:100B1000AEFE01F0EBFF002001F0D0FB38BD10B5B8
:100B20000446201200F01AF8E0B200F017F810BDE9
:100B300010B50446204600F011F810BD10B504466B
:100B400020210548FFF7F2FD204600F007F820219C
:100B50000148FFF7EDFD10BD000C014070B50446E3
:100B600080211448FFF7E2FD00251BE04FF480715F
:100B70001048FFF7DBFD04F0800028B14FF400714E
:100B80000C48FFF7D5FD04E04FF400710948FFF76A
:100B9000CDFD4FF480710748FFF7CAFD6006040ED3
:100BA000681CC5B2082DE1DB80210248FFF7C0FDBB
:100BB00070BD0000000C014008B50121052000F0C7
:100BC000A1F801210B48FFF769FD4FF48070ADF8E3
:100BD000000010208DF8030003208DF80200694604
:100BE0000548FFF7CFFC4FF480710348FFF79EFDE7
:100BF00008BD0000000230000008014000BFFEE711
:100C00007047000000F01F0201219140024A430991
:100C100042F823107047000080E200E070B5002128
:100C200000230F22C47804B3154C246804F4E06454
:100C3000C4F5E064210AC1F10403CA40447804FA0F
:100C400003F184781440214309010E4C0678A15524
:100C5000047804F01F050124AC4005786D11AD0047
:100C600005F1E025C5F8004109E0047804F01F050E
:100C70000124AC40044D0678761145F8264070BD3D
:100C80000CED00E000E400E080E100E002490143F7
:100C9000024A1160704700000000FA050CED00E008
:100CA00010B5FFF747FD08B1FFF7E2FA10BD0000ED
:100CB00010B5FFF745FD38B104480068C04304494A
:100CC000C1F8A001FFF7DAFA10BD0000A00121422F
:100CD000000021420146C88808B901207047002061
:100CE000FCE7000029B1064AD2690243044BDA61ED
:100CF00004E0034AD2698243014BDA617047000085
:100D00000010024029B1064A92690243044B9A61DD
:100D100004E0034A92698243014B9A6170470000E4
:100D2000001002400F48006840F001000D490860C3
:100D3000084640680C4908400A494860084600686F
:100D40000A490840074908600846006820F48020E6
:100D500008600846406820F4FE0048604FF41F0019
:100D600088607047001002400000FFF8FFFFF6FEA9
:100D700030B500210022002400232D4D6D6805F0C0
:100D80000C0121B1042905D0082923D105E0294D02
:100D9000056022E0274D05601FE0254D6D6805F4D4
:100DA0007012234D6D6805F48034022505EB9242E4
:100DB0001CB9214D554305600BE01D4D6D6805F4D0
:100DC00000351DB11C4D5543056002E0194D5543DA
:100DD000056002E0174D056000BF00BF144D6D684F
:100DE00005F0F0010909154D6B5C0568DD404560B3
:100DF0000F4D6D6805F4E061090A104D6B5C4568A4
:100E0000DD4085600A4D6D6805F46051C90A0B4DDF
:100E10006B5C4568DD40C560054D6D6805F440417B
:100E2000890B074D6B5CC568B5FBF3F5056130BDFB
:100E30000010024000127A0000093D001900002055
:100E40002900002010B501460022002300204A118D
:100E5000012A02D1094C236806E0022A02D1074C7C
:100E6000236A01E0054C636A01F01F0201249440EB
:100E70001C400CB1012000E0002010BD0010024019
:100E80000248406800F00C0070470000001002406B
:100E900001460020034A506820F0F00008435060EB
:100EA00070470000001002401149096821F48031A8
:100EB0000F4A11601146096821F480211160B0F5D4
:100EC000803F03D0B0F5802F0ED106E008490968B5
:100ED00041F48031064A116007E00549096841F490
:100EE000A021034A116000E000BF00BF704700006E
:100EF0000010024001460020034A506820F4E060E0
:100F00000843506070470000001002400146002076
:100F1000034A506820F4605040EAC10050607047B6
:100F2000001002400149086670470000000042427C
:100F300002460020044B586820F47C1042EA01036A
:100F40001843014B586070470010024001460020D2
:100F5000034A506820F003000843506070470000C7
:100F60000010024038B5002000900024002500BF8A
:100F70003120FFF767FF05460098401C009000985D
:100F8000B0F5A06F01D0002DF2D03120FFF75AFF4D
:100F900008B1012400E00024204638BD70B50446A5
:100FA0000025012221460348FFF766FAC5B228460C
:100FB00070BD0000B800002010B500F001F810BDB1
:100FC0000CB50020019000903348006840F4803058
:100FD0003149086000BF3048006800F400300090DC
:100FE0000198401C0190009818B90198B0F5A06FC5
:100FF000F1D12948006800F4003010B101200090C0
:1010000001E0002000900098012843D123480068A7
:1010100040F01000214908600846006820F00300F5
:1010200008600846006840F0020008601A484068FE
:10103000194948600846406848600846406840F4DE
:10104000806048600846406820F47C10486008468C
:10105000406840F4E81048600846006840F080703E
:10106000086000BF0C48006800F000700028F9D04C
:101070000948406820F00300074948600846406876
:1010800040F00200486000BF0348406800F00C00D8
:101090000828F9D10CBD00000010024000200240D9
:1010A0001CB504461048022100238022CDE900101F
:1010B0000EA1104801F084FB0F4803210023802279
:1010C000CDE900100DA10F4801F07AFB0E48012177
:1010D00000238022CDE900100CA1104801F070FB24
:1010E000002001F0EBF81CBD040000205461736B7C
:1010F0003100000075130008080000205461736B74
:1011000032000000951300080C0000204C43445F9F
:10111000496E69745F7461736B000000F50A000822
:1011200010B501F081FB012801D001F007FA10BDD4
:1011300030B5164800684FF47A72B0FBF2F1B1F1A5
:10114000807F01D301201DE021F07F40401E4FF041
:10115000E022506150170F22002807DA13071D0EF6
:101160000B4B00F00F04241F1D5503E013071C0E4A
:10117000084B1C5400BF00204FF0E0229061072074
:101180001061002008B100BFFEE730BD3000002034
:1011900018ED00E000E400E010B51348006840F0EE
:1011A00001001149086008464068104908400E498E
:1011B0004860084600680E4908400B490860084628
:1011C000006820F4802008600846406820F4FE0093
:1011D00048604FF41F008860FFF7EEFE4FF000609C
:1011E0000449086010BD0000001002400000FFF834
:1011F000FFFFF6FE08ED00E010B50121880700F0C2
:101200004CF8012803D10121800700F037F8074886
:101210000088401C0549088008460088022804DB35
:101220000020088001200249087010BD1400002031
:101230001200002010B501210D4800F02EF8012801
:1012400003D101210A4800F019F80A480088401C1F
:1012500000B2084908800846B0F90000B0F57A7F6E
:1012600004DB0020088001200349087010BD000045
:10127000000C00401600002013000020CA43028228
:10128000704721B1028842F00102028004E0028826
:101290004FF6FE731A400280704730B502460020B8
:1012A00000230024158A05EA0103958905EA010453
:1012B00013B10CB1012000E0002030BD1AB18389C8
:1012C0000B43838102E083898B4383817047000055
:1012D000002202881D4B98420ED01D4B98420BD025
:1012E000B0F1804F08D01B4B984205D01A4B984262
:1012F00002D01A4B984204D14FF68F731A404B8894
:101300001A43174B984207D0164B984204D04FF619
:10131000FF431A40CB881A4302808B8883850B8851
:1013200003850A4B98420BD0094B984208D00E4BCC
:10133000984205D00D4B984202D00D4B984201D1F6
:101340000B7A03860123838270470000002C014042
:10135000003401400004004000080040000C004040
:1013600000100040001400400040014000440140D3
:101370000048014009E005480068C0430449C1F83D
:10138000A0014FF4FA7000F07FFFF4E7A0012142C2
:101390000000214215E04FF6FF720A4801780A4822
:1013A0000078FFF756FA08480078401C0649087094
:1013B00004480078401C034908704FF4FA7000F0AC
:1013C00063FFE8E7110000201000002008B50020AE
:1013D000009040F22551204800F075F858B12520C2
:1013E000FFF710FC1C4800F029F9C0B200909DF8EE
:1013F000000000F03BF90821174800F057F80128D9
:1014000006D10821144800F02DF8134800F016F911
:1014100040F22771104800F056F8E0B140F2277111
:101420000D4800F028F82520FFF7ECFB6846FFF791
:10143000B5FD9DF80010084800F005F90748FFF7D2
:1014400049FC40B1002006490870002240F2277193
:10145000014800F062F808BD00380140B8000020E3
:101460001800002001F40072B2F5007F00D100BF27
:10147000CA430280704710B50022002340F66A1468
:10148000A14200D100BF0A1201249440A3B2DC4360
:10149000048010BD21B1828942F40052828104E0AF
:1014A00082894DF6FF731A40828170470246002000
:1014B000B1F5007F00D100BF13880B400BB10120B4
:1014C00000E00020704770B502460024002300258C
:1014D000002040F66A16B14200D100BFC1F34215A8
:1014E00001F01F03012606FA03F3012D02D19689AC
:1014F000334006E0022D02D1168A334001E0968A7D
:1015000033400C12012606FA04F41688344013B155
:101510000CB1012000E0002070BDF0B503460024AE
:1015200000260025002040F66A17B94200D100BF0E
:101530001846C1F3421401F01F06012707FA06F509
:10154000012C01D10C3004E0022C01D1103000E05C
:1015500014301AB107682F43076002E00768AF43F1
:101560000760F0BD2DE9F04786B005460E46002421
:10157000A24600BFA1460027B08900B100BF2F4698
:101580002C8A4CF6FF700440F08804432C82AC890E
:101590004EF6F3100440B08831890843718908433E
:1015A0000443AC81AC8A4FF6FF400440B089044349
:1015B000AC8201A8FFF7DCFB1F48874202D1DDF8AF
:1015C00010A001E0DDF80CA0A88900F4004040B1B3
:1015D0000AEBCA0000EB0A1031684900B0FBF1F8D1
:1015E00007E00AEBCA0000EB0A1031688900B0FB83
:1015F000F1F86420B8FBF0F004012009642101FB3C
:101600001089A88900F4004040B1322000EBC900E5
:10161000B0FBF1F000F00700044308E0322000EBDB
:1016200009106421B0FBF1F000F00F0004432C819D
:1016300006B0BDE8F0870000003801400146888808
:10164000C0F308007047C1F30802828070474FF46E
:101650001651016000218180C18001810C214181EE
:1016600000218181704700BFFEE7000031B50024F2
:10167000012269460248FEF72FFFC4B2204638BD5A
:10168000C400002002E008C8121F08C1002AFAD1D5
:1016900070477047002001E001C1121F002AFBD1F2
:1016A0007047FFF755F8FFF77FF803E0FFF700FBFF
:1016B000FFF7F6FAFAE700002DE9F04105460E467D
:1016C0002648076826480068001D00F013FD50B941
:1016D0002348006890F82C100120884021490968AF
:1016E000814320480160681CD8B9D6B11E494868BA
:1016F0001B49096888601A4982680968CA601849E4
:101700000968091D8268516015490968091D8160D1
:10171000154A134909684A6111460968491C116054
:101720001AE07C190E4800684460BC4207D20C489D
:101730000168091D0D48006800F006FD0CE008482E
:101740000168091D0A48006800F0FEFC09480068AD
:10175000844201D207480460BDE8F08158000020AF
:10176000440000205C000020680400204C000020A1
:10177000480000207400002010B5044600F00AFD67
:1017800031480068401C304908603048006840B962
:101790002E4804600846006801280DD100F0BCF90D
:1017A0000AE02B48006838B928480068C06AE16A36
:1017B000884201D82548046026480068401C254915
:1017C000086008460068606494F82C100120884086
:1017D00021490968084320490860E16A01EB810159
:1017E0001E4A02EB81014868A0608268E260211D08
:1017F000826851608160E16A01EB8101174A02EB66
:1018000081026261E16A01EB8101144A52F8211000
:10181000491CE26A02EB8202104B43F8221000F0EE
:10182000CBFC0B48006868B108480068C06AE16AF0
:10183000884207D24FF0805009490860BFF34F8FAC
:10184000BFF36F8F10BD0000540000204400002043
:1018500060000020700000205C0000209801002043
:1018600004ED00E010B500F095FC0C48006890B95C
:101870000B4800F059FC0B4800F056FC08480A4998
:10188000086008480949086000220C21052000F082
:101890006FFE0249086000F08FFC10BD8C00002034
:1018A0007C04002090040020840000208800002098
:1018B00010B516E000F06EFC0C48C068C468201D2E
:1018C00000F018FC0A480068401E094908600948F1
:1018D0000068401E0749086000F06EFC204600F0DA
:1018E00055F8044800680028E4D110BD54040020D5
:1018F000540000205000002070B504460D46206CB6
:1019000070B1216CE0680144E160D4E902108842C2
:1019100001D32168E1602846226CE168FEF770FC83
:1019200070BD2DE9F04104460F4615464FF0000802
:10193000A66B206C28B37DB93946226C6068FEF72F
:101940005FFC216C606808446060D4E90101884252
:1019500017D32068606014E03946226CE068FEF717
:101960004FFC216CE068411AE1602168E068884220
:1019700003D2216CA068411AE160022D01D106B1A9
:10198000761E701CA0634046BDE8F08110B5044689
:10199000206B00F021FC204600F01EFC10BD000072
:1019A0000146084A126812680AB9012200E00022C2
:1019B0000A600A6822B9034A1268D268106800E017
:1019C000002070478400002030B54FF4884315484C
:1019D00000F007042CB1C01D20F00700114C041BBF
:1019E0001B1B0246104C226000240F4D6C60D01867
:1019F000083820F007000D4C206000240B4D2D68A6
:101A00006C600A4D2D682C601146441A4C60074CDE
:101A100024680C60064D4C682C60064D4C682C60A8
:101A200030BD0000A404002098000020A000002089
:101A3000A8000020A400002000BFFFF739FF0648DF
:101A400000680128F9D94FF0805004490860BFF3BD
:101A50004F8FBFF36F8FF0E79801002004ED00E097
:101A60002DE9F04106460D4617469846069C0DB9ED
:101A7000246000E02760E66325640121204600F031
:101A80009DFD84F850800020A064BDE8F0812DE920
:101A9000F05F81460E4617469A46DDF828800C9C7A
:101AA000B900A522206BFEF7BDFB781E216B01EB70
:101AB000800B2BF0070B7EB1002507E0715D04F170
:101AC00034004155705D00B902E06D1C102DF5D356
:101AD00000BF002143200155B8F1200F01D34FF082
:101AE0001F08C4F82C80201D00F02BFB04F1180007
:101AF00000F027FB2461C8F12000A0616462524617
:101B00004946584600F0E4FA20600B9808B10B985B
:101B10000460BDE8F09F000010B5002407E004EB6E
:101B200084010F4A02EB810000F0FEFA641C202CB5
:101B3000F5D30C4800F0F8FA0B4800F0F5FA0B4822
:101B400000F0F2FA0A4800F0EFFA0A4800F0ECFA66
:101B500004480949086004480849086010BD0000AD
:101B600098010020180400202C04002040040020CC
:101B70005404002068040020480000204C0000208D
:101B800010B50146164800E0006803688B42FBD39D
:101B90000246436813448B4204D143684C68234493
:101BA000436001460A464B6813440468A34211D1BE
:101BB0000C4C03682468A34208D04B68046864682E
:101BC00023444B6003681B680B6005E0054B1B68F2
:101BD0000B6001E003680B60884200D0016010BD1B
:101BE00098000020A00000202DE9F04104460D4699
:101BF00016461F464FF0000865602461B5420CD8B8
:101C0000F01BA169884202D34FF0010811E0211DA9
:101C10000948006800F098FA0BE0BE4204D2BD42C9
:101C200002D34FF0010804E0211D0448006800F0D1
:101C30008BFA4046BDE8F081880000208400002037
:101C400070B5054600F0A6FAA86B08B9012400E0BB
:101C5000002400F0B1FA204670BDF1B50098846C04
:101C60000026A06BE16B884221D294F945500022F6
:101C700069462046FFF755FE0646681C60B9606A53
:101C800008B9012000E0002080B904F1240000F030
:101C9000A9FE58B1012609E000F040FA0746BD420E
:101CA00003D2681C40B284F8450000BF00BF304634
:101CB000F8BD000070B505460E460E480068C068C5
:101CC000C468201D00F016FA94F8280000F0040003
:101CD00028B132462946204600F0C4F805E094F8C1
:101CE000280000F0FE0084F828002046216A88477A
:101CF00070BD0000840000207FB56EE001980028D0
:101D00006BDB039C606908B9012000E0002010B97A
:101D1000201D00F0EFF9684600F0D0F80546019864
:101D20000A2858D2DFE800F05705072E3647060884
:101D30002F3700BF00BF00BF94F8280040F001001B
:101D400084F828000298A269811803462A46204692
:101D5000FFF74AFFA8B194F8280000F0040038B15A
:101D60000298A26981182A46204600F07BF805E017
:101D700094F8280000F0FE0084F828002046216A2C
:101D8000884729E000BF94F8280000F0FE0084F89E
:101D9000280021E000BF94F8280040F0010084F8FA
:101DA00028000298A061A06941192B462A462046C6
:101DB000FFF71AFF10E094F8280000F0020018B9AD
:101DC000204600F009FA05E094F8280000F0FE0033
:101DD00084F8280000E000BF00BF002201A90348EA
:101DE000006800F03BFC002888D17FBD8C000020FB
:101DF000F8B505460C4600F04FFB684600F05EF86B
:101E00000646009820BB44B9B54206D800F06EFEE5
:101E100031462846FFF74EFF1CE03CB10E480068F3
:101E2000006808B9012000E000200446A91B2246F2
:101E30000A48006800F002FA00F058FE50B94FF06E
:101E4000805007490860BFF34F8FBFF36F8F01E0E9
:101E500000F04CFEF8BD0000880000208C0000203F
:101E600004ED00E070B504460D46164604E0A06996
:101E700005442046216A8847A06941192B4632460D
:101E80002046FFF7B1FE0028F1D170BD0948006877
:101E9000006808B9012000E0002020B14FF0FF30B9
:101EA0000549086005E003480068C0680068024909
:101EB00008607047480000207400002070B5044698
:101EC00000F0C2FC054607480068854204D200F0D5
:101ED0000BF80120206001E000202060014805602F
:101EE000284670BD9400002070B508E00D480068D9
:101EF000C06804684FF0FF312046FFF7DBFE094859
:101F00000068006808B9012000E000200028EDD03A
:101F100004480568044800680249086002480560F2
:101F200070BD0000840000208800002000BFBF209A
:101F300080F31188BFF34F8FBFF36F8F00BF00BFD7
:101F4000FEE708B500BF6846FFF72AFD04462046B5
:101F50000099FFF74DFFFFF7CFFEF4E770B5044699
:101F600000F018F994F9455019E0A06C30B1204602
:101F7000FFF773FE88B100F017FA0EE0606A08B947
:101F8000012000E0002038B904F1240000F02AFD0F
:101F900018B100F009FA00E003E0681E45B2002D18
:101FA000E3DC00BFFF2084F8450000F005F900F0F5
:101FB000F1F894F9445010E0206908B9012000E0DC
:101FC000002048B904F1100000F00CFD08B100F049
:101FD000EBF9681E45B200E001E0002DECDC00BF2B
:101FE000FF2084F8440000F0E7F870BD2DE9F047C9
:101FF00005464FF0000900F04FFA3048006808B974
:10200000FFF7E2FC75B105F00700C0F11008C8F158
:10201000FF30A84201D2012000E0002008B9454469
:1020200000E00025012000EBE570002841D0002DE4
:102030003FD02348006885423BD8224E3046046892
:1020400001E0264624686068A84202D22068002881
:10205000F7D11A48006884422BD0306800F1080993
:10206000206830606068401B102807D967196068D5
:10207000401B786065603846FFF782FD1049606854
:102080000968081A0E490860084600680E49096880
:10209000884203D20A4800680B490860606840F033
:1020A000004060600020206008480068401C07492C
:1020B000086000F01BFD4846BDE8F087A000002046
:1020C000A400002098000020A8000020AC00002000
:1020D000001F4FF080730360001F21F001030360B5
:1020E000001F034B03601438026020387047000063
:1020F0002D1F000801460A69D1E901309860D1E935
:10210000010358605068884201D1886850600020FF
:1021100008611068401E1060106870470148006830
:10212000704700005400002000F1080141604FF0AA
:10213000FF31816000F10801C1600161002101608F
:10214000704700210161704710B502460B685C1CA6
:102150000CB9106907E002F1080000E0406844682B
:1021600024689C42FAD944684C604C68A16088603D
:1021700041600A611468641C146010BD42684A60C2
:1021800093688B60936859609160086103685B1C79
:102190000360704700BFBF2080F31188BFF34F8FEB
:1021A000BFF36F8F00BF03480068401C01490860FF
:1021B00070470000B400002006480068401E054932
:1021C00008600846006820B9002080F3118800BF2D
:1021D00000BF7047B400002070B506463546E6B132
:1021E000083D2C466068C00FB8B12068A8B9606887
:1021F00020F00040606000F04FF90849606809680D
:102200000844064908602046FFF7BAFC0448006805
:10221000401C0349086000F069FC70BDA400002068
:10222000B000002000204FF0E021086188610248E2
:1022300048610720086170473F1901002DE9F0410E
:1022400005460E4617462C46FFF7A4FF94F94400B6
:10225000401C10B9002084F8440094F94500401C4B
:1022600010B9002084F84500FFF7A6FFA06B28B93D
:102270003A46314604F1240000F0ACF82046FFF75E
:102280006DFEBDE8F081000070B50446002544B144
:1022900000F002F900212046FFF70EFA00F026FCBC
:1022A00005463DB94FF0805003490860BFF34F8F9A
:1022B000BFF36F8F70BD000004ED00E070B5054600
:1022C000FFF768FF15B92948006800E02846044672
:1022D000201DFFF70FFF78B9E06A00EB800024496A
:1022E00051F8200040B994F82C1001208840214971
:1022F000096881431F480160A06A18B104F1180001
:10230000FFF7F8FE1C480068401C1B49086017488E
:102310000068844209D1211D1848FFF72FFF184893
:102320000068401C1649086006E016480068401E18
:1023300014490860FFF7AAFDFFF73EFF0B4800684D
:10234000844202D02046FFF721FB0F48006858B1B5
:1023500006480068844207D14FF080500B4908605E
:10236000BFF34F8FBFF36F8F70BD0000440000209C
:10237000980100205C000020700000205404002020
:1023800050000020540000206000002004ED00E018
:10239000034909680160034909684160704700000A
:1023A0006C0000205800002001200149086070479F
:1023B0006800002070B505460C46054801681831D4
:1023C0002846FFF7C1FE01212046FFF775F970BDD1
:1023D0004400002070B504460E46154660680F495B
:1023E0000968C8610D49826809680A620B49096871
:1023F00018318268516009490968183181600749BC
:1024000009688C622168491C21600DB14FF0FF36CC
:1024100029463046FFF750F970BD00004400002007
:102420001CB5154800210B468022CDE9001013A1F0
:10243000144800F0C5F90446012C02D100F004FC58
:102440000446012C14D100BFBF2080F31188BFF3D4
:102450004F8FBFF36F8F00BF4FF0FF300A49086006
:1024600001200A49086000200949086000F04CF882
:10247000084800681CBD00007800002049444C4515
:1024800000000000391A00087400002060000020DD
:10249000580000207C00002002480068401C0149D0
:1024A00008607047800000201248006818B10120C1
:1024B000114908601DE000200F4908600F480068BE
:1024C000B0FA80F0C0F11F0101EB81020C4B03EB6D
:1024D000820042685268426000F1080243689342F9
:1024E00002D14268526842604268D268054B1A6065
:1024F00000BF704780000020680000205C000020C2
:10250000980100204400002010B50A48006840F4FB
:102510007F00084908600846006840F07F40086076
:10252000FFF780FE002004490860FDF71DFE002033
:1025300010BD000020ED00E0B400002010B500BF89
:10254000BF2080F31188BFF34F8FBFF36F8F00BFA1
:1025500000F080F918B14FF080500449086000BFC6
:10256000002080F3118800BF10BD000004ED00E0E2
:102570002DE9F84304460E4617460025DCB1681ED7
:10258000B0FBF4F0B04216D304FB06F010F1550F87
:1025900011D804FB06F909F15400FFF727FD0546A1
:1025A0004DB1A84608F154083B4642463146204604
:1025B0000095FFF755FA2846BDE8F8832DE9F0416C
:1025C00005460E4601272C46002C41D0E06B002822
:1025D0003ED0B91EE06BB1FBF0F0216C884237D3DE
:1025E000FFF7D8FDD4E90F12206801FB0200A060BC
:1025F0000020A06320686060E06B401E226C2168B0
:1026000000FB0211E160FF2084F8440084F84500DB
:102610009EB9206908B9012000E00020A8B904F1A2
:10262000100000F0DFF980B14FF080500A490860D7
:10263000BFF34F8FBFF36F8F07E004F11000FFF778
:1026400073FD04F12400FFF76FFDFFF7B5FD00E017
:1026500000273846BDE8F08104ED00E02DE9F741A0
:1026600083B005460F464FF000082C4600BFFFF729
:1026700091FDA66BF6B139462046FFF73DF9701E75
:10268000A063206908B9012000E0002060B904F1CE
:10269000100000F0A7F938B14FF080502F490860C2
:1026A000BFF34F8FBFF36F8FFFF786FD012006B09A
:1026B000BDE8F081059818B9FFF77EFD0020F6E728
:1026C000B8F1000F04D101A8FFF762FE4FF0010836
:1026D000FFF772FDFFF7E0FEFFF75CFD94F94400A1
:1026E000401C10B9002084F8440094F94500401CB7
:1026F00010B9002084F84500FFF75EFD05A901A888
:1027000000F02EF8F0B92046FFF79AFAA0B104F1D4
:1027100024000599FFF74EFE2046FFF71FFC00F04E
:10272000E5F90028A3D14FF080500C490860BFF3B1
:102730004F8FBFF36F8F9AE72046FFF70FFC00F033
:10274000D5F994E72046FFF709FC00F0CFF92046C1
:10275000FFF776FA00288AD00020A8E704ED00E011
:1027600070B506460C46FFF715FD13480268706801
:10277000131A2068401C08B9002519E00F49306879
:102780000968884206D07068904203D8012500206D
:1027900020600DE02068984207D92068C01A2060A8
:1027A0003046FFF7F5FD002502E0002020600125FE
:1027B000FFF702FD284670BD580000206C00002085
:1027C0002DE9FF4F85B0804689461746DDE912ABFB
:1027D000B800FFF70BFC064676B15420FFF706FC65
:1027E00004462CB154212046FDF723FD266304E066
:1027F0003046FFF7F1FC00E000247CB10020CDE979
:1028000000ABCDE902403A4649464046089BFFF7F7
:102810003EF92046FEF7B0FF012501E04FF0FF35FD
:10282000284609B0BDE8F08F0549096809B90120BB
:1028300005E00449096809B9022000E0002070475A
:1028400060000020800000200149086870470000F7
:10285000580000202DE9F041002757480068002863
:102860007ED156480068451C544805608DB95448CF
:10287000D0F8008053480068514908605148C0F8BA
:10288000008051480068401C4F490860FFF7FEFA7D
:1028900000BF4E480068854276D300BF48480068B4
:1028A000006808B9012000E0002020B14FF0FF309F
:1028B0004649086067E042480068C068C4686668C6
:1028C000B54202D2414806605DE06069D4E9021277
:1028D0008A60D4E902214A60211D42688A4201D1FE
:1028E000E1684160002262610168491E0160A06ADE
:1028F00098B1A06AD4E907128A60D4E907214A6036
:1029000004F1180142688A4201D1216A4160002223
:10291000A2620168491E016000BF94F82C100120DA
:1029200088402B490968084329490860E16A01EB9E
:102930008101284A02EB81014868A0608268E26058
:10294000211D826851608160E16A01EB8101214AA9
:1029500002EB81026261E16A01EB81011D4A00E044
:1029600022E052F82110491CE26A02EB8202194B64
:1029700043F822101849E06A0968C96A88428DD96B
:1029800001278BE700E000BF13480068C06A00EB36
:102990008000104951F82000012800D901270F4874
:1029A000006800B1012704E00D480068401C0C4994
:1029B00008603846BDE8F081800000205800002003
:1029C000480000204C0000206C0000207400002013
:1029D0005C000020980100204400002068000020D6
:1029E0006400002070B50346D868C168886AD1E9E0
:1029F0000745A560D1E90754656001F118044568F1
:102A0000A54201D10C6A446000258D620468641EF1
:102A100004603048006800283DD14869D1E902458A
:102A2000A560D1E9025465600C1D4568A54201D13D
:102A3000CC68446000254D610468641E046091F810
:102A40002C400120A040244C24682043224C2060CC
:102A5000CC6A04EB8404214D05EB84046068886033
:102A60008568CD600C1D85686C608460CC6A04EB61
:102A700084041A4D05EB84054D61CC6A04EB840493
:102A8000164D55F82440641CCD6A05EB8505134EA0
:102A900046F8254010E0124C6068C86185680D62F8
:102AA00001F1180485686C6084600D4D8D622C46C0
:102AB0002468641C2C6000BF0A4CC86A2468E46A5D
:102AC000A04204D901220120074C206000E000222E
:102AD000104670BD800000205C000020980100209E
:102AE00040040020440000206800002070B500244D
:102AF0000026FFF74FFB4B480068401E494908601D
:102B00000846006800287DD147480068002879D031
:102B10005BE04648C068C468A06AD4E907128A60CE
:102B2000D4E907214A6004F1180142688A4201D1C0
:102B3000216A41600022A2620168491E0160606949
:102B4000D4E902128A60D4E902214A60211D426858
:102B50008A4201D1E1684160002262610168491E38
:102B6000016094F82C10012088403149096808431D
:102B70002F490860E16A01EB81012E4A02EB8101D5
:102B80004868A0608268E260211D826851608160AF
:102B9000E16A01EB8101274A02EB81026261E16A8D
:102BA00001EB8101234A52F82110491CE26A02EB31
:102BB0008202204B43F822101F49E06A0968C96A63
:102BC000884202D301201D4908601848006808B9EE
:102BD000012000E0002000289BD00CB1FFF756F93F
:102BE0001748056865B100BFFFF734FE10B101203A
:102BF000124908606D1E002DF6D1002010490860B2
:102C00000E4800E009E0006838B1012630070D49A0
:102C10000860BFF34F8FBFF36F8FFFF7CDFA3046D9
:102C200070BD0000800000205400002040040020FF
:102C30005C00002098010020440000206800002073
:102C40006400002004ED00E01CB50024FEF70AFE3D
:102C50000848006858B108481F2100234FF48072CB
:102C6000CDE9001005A10748FFF7AAFD044620465C
:102C70001CBD00008C00002090000020546D7220CC
:102C800053766300431F0008A82C000800000020B2
:102C9000B800000084160008602D0008B80000206D
:102CA000F04B000094160008000000000000000037
:102CB0000000000000000000000000000000000014
:102CC00000000000000102030401020304060708DB
:102CD000090204060800000000A24A0400000000E7
:102CE00000000000010203040607080900000000BC
:102CF00000000000000000000000000000000000D4
:102D000000000000000000000000000000000000C3
:102D100000000000000000000000000000000000B3
:102D2000000000001F000000000000000000000084
:102D30000000000000000000000000000000000093
:102D40000000000000000000000000000000000083
:102D5000000000000000000000000000AAAAAAAACB
:0400000508000131BD
:00000001FF
