:020000040800F2
:1000000070270020650200082F17000897100008CD
:100010002D170008AF040008611E00080000000052
:10002000000000000000000000000000CD010008FA
:10003000B104000800000000110200083D1D000886
:100040007F0200087F0200087F0200087F0200088C
:100050007F0200087F0200087F0200087F0200087C
:100060007F0200087F0200087F0200087F0200086C
:100070007F0200087F0200087F0200087F0200085C
:100080007F0200087F0200087F0200087F0200084C
:100090007F0200087F0200087F020008E9040008D0
:1000A0007F0200087F0200087F0200087F0200082C
:1000B0007F0200087F0200087F0200087F0200081C
:1000C0007F0200087F0200087F0200087F0200080C
:1000D0007F0200087F0200087F0200087F020008FC
:1000E000CB0400087F0200087F0200087F0200089E
:1000F0007F0200087F0200087F0200087F020008DC
:100100007F0200087F0200087F0200087F020008CB
:100110007F0200087F020008C91D00087F02000856
:100120007F0200087F0200087F0200087F020008AB
:1001300000F002F800F03AF80AA090E8000C8244BF
:100140008344AAF10107DA4501D100F02FF8AFF29C
:10015000090EBAE80F0013F0010F18BFFB1A43F0A5
:100160000103184788C20000A8C20000103A24BF4B
:1001700078C878C1FAD8520724BF30C830C144BF0C
:1001800004680C607047000000230024002500264E
:10019000103A28BF78C1FBD8520728BF30C148BFEA
:1001A0000B6070471FB51FBD10B510BD00F045F9BD
:1001B0001146FFF7F7FF01F064FE00F063F903B4A6
:1001C000FFF7F2FF03BC00F06BF90000224B196847
:1001D0000868B0E8F00F80F30988BFF36F8F4FF025
:1001E000000080F311884EF00D0E704700000000F3
:1001F00006480068006880F3088862B661B6BFF3FD
:100200004F8FBFF36F8F00DF00BF00BF08ED00E02E
:10021000EFF30980BFF36F8F0F4B1A6820E9F00FDF
:10022000106008B54FF0500080F31188BFF34F8F76
:10023000BFF36F8F02F084FD4FF0000080F3118850
:10024000BDE8084019680868B0E8F00F80F3098835
:10025000BFF36F8F704700BF64000020EFF305808D
:10026000704700000948804709480047FEE7FEE75D
:10027000FEE7FEE7FEE7FEE7FEE7FEE7FEE7FEE756
:1002800004480549054A064B70470000C71D000891
:100290003101000870210020702700207023002009
:1002A00070230020032A40F2308010F0030C00F08D
:1002B000158011F8013BBCF1020F624498BF11F8A0
:1002C00001CB00F8013B38BF11F8013BA2F1040259
:1002D00098BF00F801CB38BF00F8013B11F00303D1
:1002E00000F05780083AC0F0088051F8043B083A03
:1002F00051F804CBA0E80810F5E7121D5CBF51F8D7
:10030000043B40F8043BAFF30080D20724BF11F850
:10031000013B11F801CB48BF11F8012B24BF00F8B5
:10032000013B00F801CB48BF00F8012B704702F0F9
:10033000FF0343EA032242EA024200F05EB84FF0B4
:10034000000200B5134694469646203922BFA0E825
:100350000C50A0E80C50B1F12001BFF4F7AF090731
:1003600028BFA0E80C5048BF0CC05DF804EB890022
:1003700028BF40F8042B08BF704748BF20F8022B65
:1003800011F0804F18BF00F8012B7047704770477D
:10039000704710B5203AC0F00B80B1E81850203AF1
:1003A000A0E81850B1E81850A0E81850BFF4F5AF15
:1003B0005FEA027C24BFB1E81850A0E8185044BF9F
:1003C00018C918C0BDE810405FEA827C24BF51F80C
:1003D000043B40F8043B08BF7047D20728BF31F800
:1003E000023B48BF11F8012B28BF20F8023B48BF51
:1003F00000F8012B70474FF000020429C0F0128072
:1004000010F0030C3FF49DAFCCF1040CBCF1020FD3
:1004100018BF00F8012BA8BF20F8022BA1EB0C019C
:10042000FFF78FBF5FEAC17C24BF00F8012B00F803
:10043000012B48BF00F8012B7047754600F02CF8DF
:10044000AE4605006946534620F00700854618B0C1
:1004500020B5FFF715FFBDE820404FF000064FF034
:1004600000074FF000084FF0000B21F00701AC46E9
:10047000ACE8C009ACE8C009ACE8C009ACE8C00908
:100480008D46704710B50446AFF300802046BDE8A6
:100490001040FFF794BE0000004870470C21002078
:1004A00001491820ABBEFEE7260002007047FEE7B8
:1004B000704700F400431380C0F30E0008807047BB
:1004C00042F21070401EFDD2704710B54FF48060AC
:1004D00000F05CF84FF4006000F058F8BDE8104000
:1004E0004FF4805000F052B810B5402000F04EF8A4
:1004F000BDE810404FF4007000F048B810B5204936
:100500000122204C0978B0F5806F31D006DC4028FC
:100510000ED0B0F5007F00D1227110BDB0F5006F94
:100520002AD0B0F5805FF8D10029F6D1A27010BDB5
:1005300020790028FBD0E0884FF6FF7101EA4000E7
:10054000E0804FF48071104800F028F9012803D1B1
:10055000E08840F00100E080E078401CC0B2E0702C
:100560001028E4D10020E070E1882181207110BDC5
:100570000029FCD1227010BD0029FCD1627010BD91
:10058000010000204800002000100140044910B57F
:100590000A68024202D00860FFF7B0FF10BD0000F9
:1005A000140401402DE9F84FDFF8C8910024A9F1A7
:1005B000040B23460F2709F1040AABF1040ED1E026
:1005C0000125A54006EA0502AA4276D1DFF8A8C1B6
:1005D0004E68A6EB0C0866452BD00DDC032E34D0FC
:1005E00005DC36B3012E19D0022E2FD11BE0112EBF
:1005F00016D0122E2AD119E0B8F5881F19D006DCC2
:10060000B8F5803F15D0B8F5801F1FD111E0B8F5BF
:10061000001F0ED0B8F5041F18D10AE0CB6815E012
:10062000CB681B1D12E0CB6808330FE0CB680C339E
:100630000CE08B682BB1012B4FF0080303D0456110
:1006400004E0042302E0056100E00023FF2A01D852
:10065000064601E000F104064FEA840501D9A5F140
:100660002005D6F8008007FA05FC28EA0C0803FAF2
:1006700005F548EA0508C6F800804D68ED0070D51C
:100680003E4DAE6946F00106AE61AD6924F0030649
:1006900005F0010500953A4D06EB050CDCF8085015
:1006A000A607360F07FA06F825EA0805DFF8D48012
:1006B000404503D14FF0000825E052E0DFF8C88044
:1006C000404502D14FF001081DE0DFF8C0804045F1
:1006D00002D14FF0020816E0DFF8B480404502D1A5
:1006E0004FF003080FE0DFF8AC80404502D14FF037
:1006F000040808E0DFF8A080404502D14FF005086B
:1007000001E04FF0060808FA06F848EA0508CCF8B8
:1007100008804D68D9F80060ED024D4601D51643BA
:1007200000E096432E604D68DAF80060AD02554651
:1007300001D5164300E096432E604D68DBF800605B
:10074000AD035D4601D5164300E096432E604D682B
:10075000DEF80060ED03754601D5164300E09643D0
:100760002E60641C0A681646E2407FF429AFBDE89B
:10077000F88F000008040140000011100010024032
:100780000000014000080140000C01400010014041
:100790000014014000180140001C0140806808401E
:1007A00000D0012070470AB1016170470904FBE7DE
:1007B00001488068704700005400002002488168AA
:1007C000027811448160704754000020074810B53A
:1007D000016841F010010160032000F0A7F80F202C
:1007E00000F006F800F050F8002010BD0020024094
:1007F00030B505461F4887B0C16941F01001C1619D
:10080000C06906A900F01000009001A800F036F9B8
:100810000498B0B100F052F940001749174AB0FBF4
:10082000F1F11748491E0260416040F2E7320021B1
:10083000C0E903218160816100F008FB040003D05E
:1008400015E000F03BF9E8E70D4800F02DFB04004F
:100850000DD1362000F03CF8102D07D20022294699
:10086000362000F043F80748056000E0012407B097
:10087000204630BD0010024040420F0000100040F2
:10088000F0070020580000200F4808B5816941F0AA
:1008900001018161816901F001010091C16941F0AB
:1008A0008051C161C069002200F0805000900F218A
:1008B000901E00F01BF80548416821F0E06141F00E
:1008C0000071416008BD00000010024000000140BE
:1008D000002809DB00F01F0201219140400980003F
:1008E00000F1E020C0F8001170470000F0B40E4B9A
:1008F0001B680C46C3F30223C3F10705042D00D97E
:100900000425191D072901D2002300E0DB1E012662
:1009100006FA05F1491E214099409E40761E164078
:100920003143F0BC01F09DBA0CED00E0064900F047
:10093000070208684FF6FF03184040EA0220034A06
:1009400010430860704700000CED00E00000FA055D
:100950002DE9F0470F46050061D0434E306800F0A6
:100960000700B84209D2306820F0070038433060F1
:10097000306800F00700B84251D128683B4C81072D
:1009800012D5400703D5606840F4E06060602878C5
:10099000000703D5606840F4605060606068A96833
:1009A00020F0F000084360602878C00728D068680D
:1009B000012810D02168022810D0890700292EDADA
:1009C000616821F0030101436160FFF7F1FE804699
:1009D00041F288390DE021688903EFE78901EDE7ED
:1009E000FFF7E6FEA0EB0801494502D90320BDE868
:1009F000F0876068696800F00C00B0EB810FEFD100
:100A0000306800F00700B8420BD9306820F00700CA
:100A100038433060306800F00700B84201D0012050
:100A2000E5E72878400705D56068E96820F4E060CC
:100A3000084360602878000706D56068296920F4BB
:100A4000605040EAC100606000F048F86168084A00
:100A5000C1F30311515CC8400649086006480068AC
:100A6000FFF7C6FE0020C2E700200240001002404F
:100A70008AC3000860000020580000200F22026096
:100A80000C4A536803F003034360536803F0F00318
:100A90008360536803F4E063C36052684FF4E0631B
:100AA00003EAD20202610448006800F0070008600F
:100AB0007047000000100240002002400448054931
:100AC00000684968044AC1F30221515CC84070477C
:100AD00060000020001002409AC300080E4A5168CE
:100AE0000E4801F00C03042B11D0082B0FD10C4839
:100AF000C1F38343C903C05C0AD55168084AC1F3F6
:100B00004041921E515C054A5043B0FBF1F07047E2
:100B100004494843704700000010024000127A0068
:100B20007AC3000800093D002DE9F84F040070D099
:100B30002078C04DC00749D06868C0F38100012803
:100B400007D06868C0F38100022809D16868C00333
:100B500006D52868800339D560680028E7D035E0DD
:100B60006068B0F5803F0BD010B1B0F5A02F11D068
:100B7000286820F480302860286820F4802002E073
:100B8000286840F480302860606890B1FFF710FE5C
:100B900006460AE0286840F480202860F0E700BF9D
:100BA000FFF706FE801B642873D828688003F7D5FA
:100BB0000CE0FFF7FDFD064605E000BFFFF7F8FD7E
:100BC000801B6428F0D828688003F7D420789A4ED8
:100BD00080074FF001094FF0000839D5686810F020
:100BE0000C0F07D06868C0F38100022809D168683B
:100BF000C00306D42868800714D52069012808D1CD
:100C000010E02069B0B1C6F80090FFF7D1FD0746AB
:100C100005E00AE1FFF7CCFDC01B0228C4D8286814
:100C20008007F7D52868616920F0F80040EAC10024
:100C300028600DE0C6F80080FFF7BAFD074604E023
:100C4000FFF7B6FDC01B022823D828688007F7D419
:100C5000207800072CD57948A169D9B1C0F8009057
:100C6000FFF7A6FD074604E0FFF7A2FDC01B022820
:100C70000FD8686A8007F7D571484FF4FA510068B9
:100C8000B0FBF1F0009000BF0098411E0091FAD235
:100C90000EE080E0C0F80080FFF78AFD074604E020
:100CA000FFF786FDC01B022875D8686A8007F7D455
:100CB0002078400760D5E8690027C00008D4E869BB
:100CC00040F08050E861E869012700F08050009012
:100CD0005C480168C90513D40168834641F48071FA
:100CE0000160FFF765FD824606E000BFFFF760FD8B
:100CF000A0EB0A0064284ED8DBF80000C005F5D54B
:100D0000E06801280AD008B1052813D0286A20F02D
:100D100001002862286A20F0040002E0286A40F0FE
:100D200001002862E06841F2883B98B1FFF740FD7E
:100D300082460BE0286A40F004002862EEE700BF1C
:100D4000FFF736FDA0EB0A0159455AD8286A8007FB
:100D5000F6D50CE0FFF72CFD824605E0FFF728FDF5
:100D6000A0EB0A0159454CD8286A8007F6D41FB178
:100D7000E86920F08050E861E06988B36968C1F3F0
:100D80008101022944D00228C6F8608004D0FFF710
:100D90000FFD044638E034E0FFF70AFD074604E0A3
:100DA000FFF706FDC01B02282BD828688001F7D466
:100DB000206AB0F5803F05D16868A16820F4003052
:100DC00008436860D4E908010843696821F4741194
:100DD00008436860C6F86090FFF7EAFC044606E046
:100DE00025E000BFFFF7E4FC001B022809D82868B3
:100DF0008001F7D51BE000BFFFF7DAFC001B0228DB
:100E000002D90320BDE8F88F28688001F4D40EE0F1
:100E10000128F7D06868226A00F48031914204D139
:100E2000616A00F47010884201D00120EAE70020D6
:100E3000E8E7000000100240000042428004424205
:100E400060000020007000407047704710B504003B
:100E500003D094F83D0010B107E0012010BD002040
:100E600084F83C00204600F01EF8022084F83D0083
:100E7000211D206800F0AEFF012084F8460084F8B0
:100E80003E0084F83F0084F8400084F8410084F874
:100E9000420084F8430084F8440084F8450084F854
:100EA0003D00002010BD704790F83D10012901D091
:100EB00001207047022180F83D100168CA6842F0A5
:100EC0000102CA6000680E4988420ED00D4988426E
:100ED0000BD0B0F1804F08D00B49884205D00B49A8
:100EE000884202D00A49884204D1816801F0070192
:100EF000062903D0016841F001010160002070471C
:100F0000002C014000340140000400400008004073
:100F1000000C0040704770B50446006801694FF04E
:100F20000005C943890715D4C168C943890711D48D
:100F3000E91E016101202077206880698007204632
:100F400002D0FFF7E7FF04E000F098F8204600F039
:100F500096F8257720680169C943490717D4C16805
:100F6000C943490713D46FF00401016102202077BF
:100F70002068806910F4407F204602D0FFF7CAFF46
:100F800004E000F07BF8204600F079F8257720682F
:100F90000169C943090716D4C168C943090712D4B6
:100FA0006FF008010161042020772068C069800784
:100FB000204602D0FFF7AEFF04E000F05FF82046C5
:100FC00000F05DF8257720680169C943C90617D488
:100FD000C168C943C90613D46FF01001016108202C
:100FE00020772068C06910F4407F204602D0FFF7C8
:100FF00091FF04E000F042F8204600F040F8257729
:1010000020680169C943C90708D1C168C943C90734
:1010100004D1891E0161204600F032F82068016980
:10102000C943090609D4C168C943090605D46FF04C
:10103000800101612046FFF707FF20680169C9436D
:10104000490609D4C168C943490605D46FF0400177
:101050000161204600F01EF820680169C943890635
:101060000BD4C168C943890607D46FF02001016120
:101070002046BDE87040FFF7E8BE70BD704770477E
:1010800000680349884201D1FFF798BB7047000010
:10109000001000407047FEE72DE9F04104461D4670
:1010A00016460F462A2000F079FA204600F069FA29
:1010B000304600F066FA2B2000F070FA384600F057
:1010C00060FA284600F05DFABDE8F0412C2000F0FF
:1010D00065BA2DE9FE4F151ACDE900104FF0000852
:1010E0005E1A47464FF0FF30002D02DD4FF0010140
:1010F00002E003D14FF000018B4602E08346C5F1C8
:101100000005002E02DD4FF0010002E003D14FF098
:101110000000824602E08246C5F10006B54201DDCC
:101120002C4600E03446601C4FF00009029019E0A4
:1011300000980C9A81B2019880B200F018F8A84487
:101140003744A04504DD0198A8EB040858440190F9
:10115000A74203DD00983F1B5044009009F10100B5
:101160001FFA80F902998945E2DBBDE8FE8F10B5D0
:1011700014460B460246FFF78FFF2046BDE810409D
:1011800000F0FFB92DE9F04780461F46581E83B294
:101190001646501E82B20C464046DDF82090FFF7FE
:1011A0007BFF0AE0454604E0484600F0EAF96D1C82
:1011B000ADB2B542F8D3641CA4B2BC42F2D3BDE8D0
:1011C000F087000010B57B4C002280212046FFF7FD
:1011D000EAFAFFF775F9012280212046FFF7E3FACA
:1011E000FFF76EF9012210212046FFF7DCFAFFF726
:1011F00067F9112000F0D2F9B12000F0CFF90220F8
:1012000000F0E0F9352000F0DDF9362000F0DAF9E1
:10121000B22000F0C3F9022000F0D4F9352000F02C
:10122000D1F9362000F0CEF9B32000F0B7F9022052
:1012300000F0C8F9352000F0C5F9362000F0C2F9F9
:10124000022000F0BFF9352000F0BCF9362000F094
:10125000B9F9B42000F0A2F9032000F0B3F9C020DE
:1012600000F09CF9A22000F0ADF9022000F0AAF9EC
:10127000842000F0A7F9C12000F090F9C52000F00B
:10128000A1F9C22000F08AF90D2000F09BF900209E
:1012900000F098F9C32000F081F98D2000F092F958
:1012A0002A2000F08FF9C42000F078F98D2000F09A
:1012B00089F9EE2000F086F9C52000F06FF90A20C8
:1012C00000F080F9362000F069F9C82000F07AF9C2
:1012D000E02000F063F9122000F074F91C2000F007
:1012E00071F9102000F06EF9182000F06BF933202E
:1012F00000F068F92C2000F065F9252000F062F973
:10130000282000F05FF9282000F05CF9272000F089
:1013100059F92F2000F056F93C2000F053F9002035
:1013200000F050F9032000F04DF9032000F04AF9D5
:10133000102000F047F9E12000F030F9122000F011
:1013400041F91C2000F03EF9102000F03BF9182074
:1013500000F038F92D2000F035F9282000F032F99E
:10136000232000F02FF9282000F02CF9282000F08D
:1013700029F9262000F026F92F2000F023F93B2040
:1013800000F020F9002000F01DF9032000F01AF908
:10139000032000F017F9102000F014F93A2000F0B3
:1013A000FDF8052000F00EF9BDE81040292000F0FE
:1013B000F5B80000000801402DE9FF4F81B0044658
:1013C000DDE90F7B4FEA570800904FEAD80000FB99
:1013D00007FA203AD0B20390029802993844401E8E
:1013E00083B204EB0800401E82B22046FFF754FE91
:1013F000002637E0102F24D0202F35D11C49039828
:1014000001EB80105FF0000510F80690BBF1000FB3
:101410004FF0010000FA05F000EA090016D020B1F3
:101420002046049A0299FFF7A2FE641C0098A4B219
:10143000211A414510D10298009C401C80B20290B4
:101440000EE00C49039801EB0010DBE708B10498AB
:1014500000E00E9800F095F86D1CEDB2082DD5D384
:10146000761CB6B25645C5D305B0BDE8F08F000076
:10147000883D0008983700082DE9FF4F83B000260B
:10148000DDE911B81D4682464FEA58073446B14699
:101490002CE0281B401EC1B20A2000F009FD05996E
:1014A000B1FBF0F00A21B0FBF1F201FB120026B90A
:1014B000691E8C4201DA58B101263030C2B204FBF9
:1014C00007A0CDF800B0CDE9018980B2109B08E0FB
:1014D000CDF800B004FB07A0CDE90189109B80B2D4
:1014E00020220499FFF768FF641CE4B2AC42D0D319
:1014F00007B0BDE8F08F2DE9F0471F469046CA19A6
:10150000521E93B200EB0802521E002492B2DDF884
:101510002090FFF7C1FD002612E000250CE019F82D
:10152000140000F038F809EB4400407800F033F87C
:10153000641C6D1CA4B2ADB2BD42F0D3761CB6B231
:101540004645EAD3BDE8F0872DE9FE4F9946DDE92F
:101550000D6714468A460546DDF830800CE0CDF86C
:1015600000804B4651462846CDE90167FFF724FF2E
:1015700005EB560085B2641C2278002AEFD1BDE845
:10158000FE8F10B50446000A00F01CF8E0B2BDE87A
:10159000104000F017B800F015B8000070B5084C06
:1015A0000546002240212046FFF7FDF8284600F0BE
:1015B00009F82046BDE8704001224021FFF7F3B84A
:1015C000000801402DE9F041144F0546002220217A
:1015D0003846FFF7E8F8124E00240022202130465A
:1015E000FFF7E1F8280601D5012200E000221021D2
:1015F0003046FFF7D8F8012220213046FFF7D3F814
:101600006806641C050EE4B2082CE6D33846BDE833
:10161000F04101222021FFF7C6B800000008014078
:101620000010014010B5064800F0A0FC054C044A2B
:1016300000216063B43A044800F0D8FC206210BD79
:10164000E89D000800000020251900082DE9F04160
:1016500086B0002431480094019402940394816977
:1016600041F010018161816901F0100104918169EB
:1016700041F020018161816901F0200104918169BB
:1016800041F0040181618069DFF8948000F004007A
:1016900042F2B0050490002229464046FFF783F845
:1016A000204F0022F0213846FFF77DF800950326F1
:1016B00001250396CDE9015469464046FEF772FFC5
:1016C000F020CDE90005CDE9024669463846FEF72F
:1016D00069FF4FF4F25000901348CDE901046946C8
:1016E0004046FEF75FFF2802CDE900046946404608
:1016F0000294FEF757FF002205211720FFF7F6F8A6
:101700001720FFF7E5F8002205212820FFF7EEF863
:101710002820FFF7DDF806B0BDE8F0810010024098
:10172000001001400008014000002110FEE7FEE724
:1017300086B07148002614230090ADF80C601A465C
:1017400078212320FFF7D7FE4FF0100B47F6FF71EB
:101750008DE842080323002278213720FFF78CFE12
:10176000664805210090142345220846FFF7C3FE72
:10177000DFF88C8114231A4605215020CDF8008013
:10178000FFF7B9FE5F4FDFF88091604C4FF4027AAB
:101790003878A0B15E483E70002106705D48A023F5
:1017A0008022067008460096FFF7ECFC5A4A00219A
:1017B0005A4800F01BFC6062002001F0EBF903AA1C
:1017C00004A9B9F80000FEF774FEBDF81020A2F1DC
:1017D0001500B0F5A47F14D8BDF80C0030B147F661
:1017E000FF708DE841080323782106E047F6FF717A
:1017F0008DE842080323002278213720FFF73CFEC2
:1018000000E01546BDF80C0010B14548009001E01D
:10181000CDF8008014231A4605215020FFF76BFEF7
:10182000A5F2F46000EB8000010191FBFAF0283092
:1018300080B22082282801D2282002E0782801D90D
:1018400078202082BDF80C0008B950202082A08AA0
:1018500080B20090208AE289C0F1A00083B2608A41
:10186000C0F1A00081B2501E80B2FFF732FCA08A06
:1018700080B20090608AC0F1A00083B2E089411C70
:101880008AB2218AC1F1A00189B2FFF722FCA08AA5
:1018900080B20090208AC0F1A00083B2E089411C90
:1018A0008AB2618AC1F1A00189B2FFF712FCA08A55
:1018B00080B20090608AC0F1A00083B2E089811CF0
:1018C0008AB2218A401CC1F1A00189B280B2FFF71F
:1018D00000FCE089401C80B2E081802808D1012012
:1018E000E08179238022282100200096FFF74AFC1E
:1018F000208A60824CE70000707000089073000836
:10190000587E00084A0000205000002000000020FF
:101910004800002049000020589D0008411A000896
:10192000788100083E4C08B51320A0702B20E07091
:101930004FF0010ADFF8EC90DFF8ECB084F801A07A
:1019400000264FF6E07839480178A1B13849A02344
:1019500080220E7037490E700670002108460096EE
:10196000FFF710FC344A0021344800F03FFB60626E
:10197000002001F00FF96079E0B1CDF80080E17846
:1019800020790B18A078233100F15A022333FFF796
:10199000F9FBCDF8009023235A22E178A078FFF7D5
:1019A000AAFD1823782288210820CDF800B0FFF77F
:1019B000A2FD30E0002547460097E17820790B181A
:1019C000A07823314219401B2D3080B22D322333B1
:1019D000FFF7D8FB284600F073FA6D1CEDB22D2DF1
:1019E000EAD300254F460097E0782B46401B233072
:1019F00081B25A22A078FFF77EFD6D1CEDB2232D37
:101A0000F1D31823782288210820CDF800B0FFF701
:101A100072FD84F805A06670012000F051FA92E78B
:101A20000000002098840008F059000849000020B8
:101A30004A00002048000020589D0008411A000874
:101A40006D4C08B52C2060723C205421A072E172CC
:101A50006A4FDFF8AC81DFF8AC9120734FF0010AD8
:101A6000002504F1380638786178884327D03D7026
:101A70000021A023802208460095FFF783FB2078F1
:101A800020B1012809D002280FD015E05E4A0021BC
:101A90005E4800F0ABFAA0620EE05B4A00212432FF
:101AA0005B4800F0A3FAE06206E0574A00214832A2
:101AB000584800F09BFA2063002001F06BF898F87A
:101AC000001039B188F8005084F801A084F807A00C
:101AD0002572A57199F8001091B189F80050002184
:101AE000A023802208460095FFF74CFB464A0021C0
:101AF000483A494800F07AFA2062002001F04AF89A
:101B0000607800286AD0E07938B3A1794A1E02FBD8
:101B100002F050438446A06101FB01F04843E061BC
:101B2000A02843D80095217BE27A084483B2A07AAA
:101B3000604481B2607AFFF725FB207828231A469B
:101B400056F820000090A07AA18B084481B2607AF8
:101B5000FFF7D1FCA079401CA071207A18B3A279BC
:101B6000501E01464043484302FB02F1514301F13C
:101B70002802C4E90601502A00951CD88BB281B214
:101B8000E27A607AFFF7FEFA2078282306EB8000DD
:101B90001A4640680090A08B81B2607AFFF7ABFCD8
:101BA000A079401CA0716078C0B121E0A571E571F9
:101BB00084F808A0D3E781B2237BE27A607AFFF74A
:101BC000E1FAA571E571257265702078401CC0B2FC
:101BD0000321B0FBF1F201FB1200207020782823D2
:101BE0001A4656F820000090A17A607AFFF783FC2D
:101BF000012000F065F936E70000002048000020D1
:101C0000490000204A0000207C9D00083117000890
:101C1000991C00081D1C0008251900080EB5164D5A
:101C2000164FDFF85C80DFF85C90002410262878DF
:101C3000A0B12C703C7088F800400021A0238022C5
:101C400008460094FFF79EFA0F4A00210F4800F063
:101C5000CDF9C9F82400002000F09CFFCDE9004632
:101C600000211F230AA208460294FFF76DFC012001
:101C700000F026F9DBE700004A00002048000020C1
:101C80004900002000000020589D0008411A00086B
:101C900053455454494E47000EB51F4E00241F4D66
:101CA0004FF4005810273078F8B11D4834700022E6
:101CB00004701C48802104702846FEF774FD002241
:101CC00041462846FEF76FFD0021A02380220846EA
:101CD0000094FFF757FA144A0021144800F086F9DF
:101CE00013494862002000F055FFCDE9004700216C
:101CF0001F2310A208460294FFF726FC012241464A
:101D00002846FEF750FD012280212846FEF74BFDB4
:101D1000012000F0D5F8C6E74A000020001001407D
:101D20004800002049000020589D0008411A000882
:101D300000000020574946490000000010B550201F
:101D400080F31188BFF34F8FBFF36F8F01F082FBD9
:101D500018B104494FF080500860002080F31188CA
:101D600010BD000004ED00E030B58FB028216846BA
:101D7000FEF7E5FA14210AA8FEF7E1FA01210804AA
:101D8000CDE900100024029402250491CDE907500A
:101D90004FF4E01009906846FEF7C6FE08B172B62F
:101DA000FEE70F20CDE90A054FF48060CDE90C4035
:101DB00002210AA80E94FEF7CBFD002801D072B6CE
:101DC000FEE70FB030BD70470148FFF7A4B8000030
:101DD000F0070020F0B502681C4B1D4D1D4E1E4F34
:101DE0001E4C4FF0804C984209D0A04207D060456D
:101DF00005D0A84203D0B04201D0B84204D122F0AD
:101E0000700E4A6842EA0E02984209D0A04207D0FA
:101E1000604505D0A84203D0B04201D0B84203D1FA
:101E200022F44075CA682A434D6922F080022A4391
:101E300002608A68C2620A688262984201D0A04247
:101E400001D10969016301214161F0BD002C01400C
:101E50000004004000080040000C00400034014035
:101E6000FEE70907090E002804DB00F1E02080F8F6
:101E70000014704700F00F0000F1E02080F8141DFE
:101E8000704708B5FEF7A2FCFFF76EFFFFF7DEFB19
:101E9000FFF798F90020A023802201460090FFF769
:101EA00071F900F027F8FFF7BDFB00F03FF8FEE7FF
:101EB0000246012000E05043491EC9B2FBD27047E0
:101EC00010B5EFF3058149B9EFF3108131B9084935
:101ED0000968022905D1EFF3118111B16FF00504F2
:101EE00003E0002408B100F02FFE204610BD0000E2
:101EF000B4000020EFF3058058B9EFF3108040B92B
:101F000009490868022801D030B109E0EFF31180D7
:101F100030B16FF005007047012008600020704765
:101F20004FF0FF3070470000B400002010B5EFF311
:101F3000058060B9EFF3108048B90B4908680228A2
:101F400002D0012806D00BE0EFF3118040B16FF012
:101F5000050010BD0220086000F0A6FE002010BDA4
:101F60004FF0FF3010BD0000B400002070B50546F2
:101F70004FF00004EFF30580A0BBEFF3108088BBA7
:101F800019480068022802D1EFF3118050BB0DB14F
:101F9000686800E00020C10701D0012600E00026AB
:101FA00000071FD46DB1D5E9021021B1502819D313
:101FB0001EB1042002E020B114E0012000F051FF26
:101FC00005E00EB1042000E0012000F03FFF040016
:101FD00008D00DB1296800E0002100F07FFD0EB1AE
:101FE00044F00104204670BDB4000020F0B585B077
:101FF0000B464FF00004EFF305810394A1BBEFF310
:10200000108189BB21490968022902D1EFF31181AE
:1020100051BB48B3802618218DF8104004AD42B35F
:10202000176807B13D4697691FB139467F1E382FA3
:1020300002D21779FF0702D0002005B0F0BD576922
:1020400007B1BE08D2F808C0BCF1000F0DD0D468AB
:102050005C2C18D312693AB137B18DE806103246BC
:10206000294601F0B8F903900DE0D7685FB912690D
:102070004AB903AACDE90012B2B2294601F07EF9AD
:10208000012800D003940398D7E70000B400002093
:102090002DE9F041134C0F46054666692068001D86
:1020A00000F022FC681C07D137B12168BDE8F0417F
:1020B0000D48091D00F068BC20683544B5424560F4
:1020C000216805D2A068BDE8F041091D00F044BCBC
:1020D0006068091D00F040FC206B854200D225633A
:1020E000BDE8F08164000020280D00202DE9F041BA
:1020F000054600F055FC2D4C2069401C20612068ED
:102100002B4F10B1E06930B32BE025602069012826
:1021100027D1002606EB860007EB800000F00EFCBE
:10212000761C382EF6D3234800F008FC21481430E2
:1021300000F004FC1F48283000F000FC1D483C3033
:1021400000F0FCFB1B48503000F0F8FB19486060C1
:102150001430A06005E02068E96AC06A884200D8AF
:102160002560E06A401CE0626864E86AA169884210
:1021700000D9A06100EB800007EB8000291D00F072
:1021800003FC00F02DFCE06900280CD02068E96A0F
:10219000C06A884207D208494FF080500860BFF3F8
:1021A0004F8FBFF36F8FBDE8F08100006400002007
:1021B00078080020D80C002004ED00E038B500F0CD
:1021C000EFFB104CA068C8B90F4800F0B7FB0E48F1
:1021D000143000F0B3FB0C482060143060600A4BF0
:1021E00000202833009003F1500210210A2000F053
:1021F00069FEA06010B105A100F070FCBDE8384098
:1022000000F0EEBBA00000203C0D0020546D725188
:102210000000000030B4026C0B46002A0BD0C168ED
:102220001144C1604468A14201D30168C16030BC5F
:102230001846FEF737B830BC70472DE9F041856B82
:10224000174604460026026C82B1C7B1E068FEF76B
:1022500029F8E168206C091AE1602268914202D2F3
:102260006168081AE060022F16D017E02068A8B94C
:10227000606801F053F90646002060600EE0A06837
:10228000FEF710F8216CA0680844A06061688842DD
:1022900004D32068A06001E005B16D1E6D1CA5632C
:1022A0003046BDE8F08110B5044690F8590058B1A9
:1022B00001280CD002280FD0502080F31188BFF3E2
:1022C0004F8FBFF36F8FFEE7206B00F09DFB204622
:1022D000BDE8104000F098BB10BD000010484FF45E
:1022E0004061420706D0C01D0D4920F00700411A89
:1022F000C1F540610B4A00230144C2E900030839DB
:10230000103A21F0070111604B600B600B1AC0E915
:10231000001393604FF000405360D060704700009E
:102320000C150020C8000020144E154CA6F29C4746
:102330004FF08058DFF84C9012E000BF00F030FB07
:10234000F068C568281D00F0CFFA2069401E2061A2
:10235000E068401EE06000F043FB2846FFF7A3FF63
:10236000E0680028EAD138680128F9D9C9F8008066
:10237000BFF34F8FBFF36F8FF2E70000140D002003
:102380006400002004ED00E0002807D00021416037
:1023900001600B460A46C16000F00CBE70470000A9
:1023A00070B51D46049C51B1C4F80020C4E90F016A
:1023B0000121204600F0BAFD84F84C5070BD246025
:1023C000F4E72DE9F0470E46DDE909841746824619
:1023D00091009946089DA522206BFDF7A8FF6FF09C
:1023E0000301206B01EB8701084420F00707780701
:1023F00007D0502080F31188BFF34F8FBFF36F8F4A
:10240000FEE72218315C82F83410315C11B1401CB7
:102410001028F6D3002684F84360382D00D33725E2
:10242000E562C4E91356201D00F093FA04F1180088
:1024300000F08FFA2461C5F138006462A06166651E
:1024400084F858604A465146384600F03BFA20600E
:10245000B8F1000F01D0C8F80040BDE8F0870000D7
:1024600030B5114900E011460A688242FBD34B683F
:102470005C18844203D140681844486008464368A9
:102480001C18944209D1084C103C2468A24209D07F
:1024900052681A4442600A6812680260814200D0A1
:1024A000086030BD0460F9E7C800002070B5002462
:1024B00041600B4D0061914206D8D11A8269914268
:1024C00006D2011D686807E09A4203D2994201D3FF
:1024D000012403E0011D286800F03EFA204670BD8B
:1024E000A000002010B5044600F05AFAA06B28B1F5
:1024F0005FF0000400F074FA204610BD0124F9E7F3
:1025000030B589B0304D55E00498002806DADDE991
:102510000601059A9047049800284BDB069C6069E9
:1025200010B1201D00F0E0F902A800F0B9F8024651
:1025300004980A283ED2DFE800F00505053D26375D
:1025400005053D260598A169034601442046FFF78D
:10255000ADFF00B3616A20468847E069012829D1B0
:10256000002000900598A1690023421819462046D2
:1025700001F0DEF878B9502080F31188BFF34F8F57
:10258000BFF36F8FFEE70598A06128B1811813464D
:102590002046FFF78BFF0DE0502080F31188BFF33A
:1025A0004F8FBFF36F8FFEE794F82C0010B92046D1
:1025B00000F02AFA002204A9A86800F009FE002809
:1025C000A2D109B030BD0000A00000202DE9FC41DF
:1025D0000F46054600F0ACFB01A800F061F8044688
:1025E000019818B101F012F8BDE8FC81224EAFB19C
:1025F00070680068A8B30027291B3A46B06800F04D
:1026000081FA01F003F80028EED11C494FF0805008
:102610000860BFF34F8FBFF36F8FE5E7A542EBD89C
:1026200000F0F4FF30682746C068C468201D00F041
:102630005BF9E069012810D1A0692B4641193A469F
:102640002046FFF733FF40B10020034601460090CB
:102650002A46204601F06CF820B1616A204688477E
:10266000C2E707E0502080F31188BFF34F8FBFF31C
:102670006F8FFEE70127BFE7A000002004ED00E018
:1026800006484168096829B14168C968C96849684C
:10269000016370474FF0FF31FAE70000640000204B
:1026A00070B5054600F0D0FE064E044630698442FF
:1026B00003D200F009F8012000E000202860204645
:1026C000346170BDA0000020F8B5194D1FE0C0684E
:1026D000C4680668201D00F007F9616A2046884733
:1026E000E069012813D1A0693044B04206D92461C1
:1026F0006060211D286800F02FF908E000200346E3
:10270000014600903246204601F012F838B12868A0
:1027100001680029DBD16968C5E90010F8BD5020C7
:1027200080F31188BFF34F8FBFF36F8FFEE7000078
:10273000A000002008484068401C4FF0500080F383
:10274000118804D0BFF34F8FBFF36F8FFEE7BFF345
:102750004F8FBFF36F8FFEE7D0000020074C20683B
:10276000016841B1C0680021D0F80000FFF72EFFDA
:10277000FFF7C6FEF3E701210020F7E7A0000020E5
:102780002DE9F041044600F00BF994F9455004F1AD
:10279000240609E0606A48B1304600F0FFFE08B147
:1027A00000F048FA6D1E6DB2002DF3DC4FF0FF36DD
:1027B00084F8456000F014F900F0F2F894F9445000
:1027C00004F1100709E0206948B1384600F0E6FE40
:1027D00008B100F02FFA6D1E6DB2002DF3DC84F805
:1027E0004460BDE8F04100F0FBB800002DE9F04185
:1027F0000546002700F09CFA314E306808B9FFF713
:102800006DFDF06805424BD1C5B3083568070ED0A1
:1028100005F00700C0F108000544680707D0502004
:1028200080F31188BFF34F8FBFF36F8FFEE72DB397
:102830007068854234D82248103001460C6801E0A7
:1028400020460C466168A94202D221680029F7D1CE
:1028500031688C4224D007682168016060680837BD
:10286000411B10290FD96019420708D0502080F36E
:102870001188BFF34F8FBFF36F8FFEE710E0416009
:102880006560FFF7EDFD61687068401A7060B268BE
:10289000904200D2B060F06801430020C4E900011A
:1028A00000F0B4FE780707D0502080F31188BFF302
:1028B0004F8FBFF36F8FFEE73846BDE8F081000011
:1028C000B800002010B5031F4FF080741C601B1F60
:1028D00021F001011960191F024B0B6014394038B7
:1028E0000A6010BD35270008D0E9013201699A60FD
:1028F000D0E901235A604A68824201D182684A6065
:10290000002202610868401E0860086870470000E5
:10291000034B036003F15C00086080201060704787
:10292000540E0020044B036003F15C0008604FF478
:102930008070106070470000B010002000F10801A6
:102940004FF0FF32C0E90112C16001610021016056
:10295000704700210161704730B50B685A1C02D0E6
:1029600000F1080202E0026904E02246546825688A
:102970009D42FAD953684B6099608A605160086142
:102980000168491C016030BD42684A6093688B60F1
:1029900093685960916008610168491C0160704743
:1029A000502080F31188BFF34F8FBFF36F8F0A4918
:1029B0004868401C486001280CD10848006810F0A5
:1029C000FF0F07D0502080F31188BFF34F8FBFF364
:1029D0006F8FFEE770470000D000002004ED00E09C
:1029E0000849486828B1401E486001D180F3118829
:1029F0007047502080F31188BFF34F8FBFF36F8F64
:102A0000FEE70000D000002070B5002827D0144D4C
:102A1000A0F108046168E868014207D1502080F302
:102A20001188BFF34F8FBFF36F8FFEE722683AB173
:102A3000502080F31188BFF34F8FBFF36F8FFEE7F5
:102A40008143616000F074F96068696808446860F7
:102A50002046FFF705FDBDE8704000F0D7BD70BD12
:102A6000B80000204FF0E02000210161816105499C
:102A70004FF47A720968B1FBF2F1491E41610721F6
:102A8000016170476000002010B5FDF7E7FB1149B8
:102A900010280ED300F1E02090F8F0030A7890425D
:102AA00007D2502080F31188BFF34F8FBFF36F8F91
:102AB000FEE709480068896800F4E060884207D9A9
:102AC000502080F31188BFF34F8FBFF36F8FFEE765
:102AD00010BD0000D00000200CED00E010B5084B48
:102AE000002200BF53F832401CB1521C082AF9D30F
:102AF00010BD43F8321003EBC201486010BD000066
:102B00003808002070B515460E460446FFF748FF0A
:102B100094F944100020491C01D184F8440094F930
:102B20004510491C01D184F84500FFF759FFA06BFF
:102B300028B92A46314604F1240000F099F82046CD
:102B4000BDE87040FFF71CBE10B5020014D00F485E
:102B5000806B38B1502080F31188BFF34F8FBFF3E3
:102B60006F8FFEE700F0E4F800211046FFF790FABF
:102B700000F04CFD002807D105494FF08050086057
:102B8000BFF34F8FBFF36F8F10BD000064000020B4
:102B900004ED00E070B50546FFF702FF1E4C05B9D5
:102BA0002568281DFFF7A0FEA86A18B105F11800D6
:102BB000FFF79AFEE06A401CE0622068854207D178
:102BC000291D1648FFF7E0FEE068401CE06007E0C2
:102BD0002069401E20612846FFF765FBFFF750FD86
:102BE000FFF7FEFEE069002814D02068854211D16D
:102BF000A06B38B1502080F31188BFF34F8FBFF323
:102C00006F8FFEE706494FF080500860BFF34F8F8B
:102C1000BFF36F8F70BD000064000020140D002012
:102C200004ED00E002498A6A026049694160704728
:102C300064000020014901204862704764000020C0
:102C400010B50C4650B1094909681831FFF784FEE8
:102C50002046BDE810400121FFF71ABA502080F34A
:102C60001188BFF34F8FBFF36F8FFEE76400002022
:102C700070B514460D4668B10A4909681831FFF766
:102C800083FE0CB14FF0FF3521462846BDE8704069
:102C9000FFF7FEB9502080F31188BFF34F8FBFF3C9
:102CA0006F8FFEE76400002030B587B000240394E6
:102CB00005AA04A903A80494FFF72AFEDDE903018D
:102CC0000094CDE90110002315A11748059A00F0E2
:102CD00082FB164D002868631FD000F0F9FC012824
:102CE00009D0401C19D1502080F31188BFF34F8FB9
:102CF000BFF36F8FFEE7502080F31188BFF34F8F33
:102D0000BFF36F8F4FF0FF3028630120E8616C61E3
:102D100007B0BDE8304000F045B807B030BD000056
:102D200049444C45000000002923000864000020AD
:102D30000248816B491C81637047000064000020D9
:102D4000164810B5816B11B10121416210BD0021FF
:102D500041628169124A01E0B9B1491E01EB810368
:102D600052F82330002BF7D001EB810302EB8302F2
:102D700002F1080453685B685360A34201D15B68A9
:102D80005360DA680260816110BD502080F31188C1
:102D9000BFF34F8FBFF36F8FFEE70000640000208A
:102DA000780800201CB5264908780190FF2008709B
:102DB00008788DF800009DF800009DF8002000F0D4
:102DC000F000904207D0502080F31188BFF34F8F5E
:102DD000BFF36F8FFEE79DF800001A4B00F0500024
:102DE00018700720986005E09DF8002052008DF8CB
:102DF0000020401E9DF800201206F5D4986003289C
:102E000007D0502080F31188BFF34F8FBFF36F8F2F
:102E1000FEE74FF440709860019808700A48016816
:102E200041F470010160016841F070410160FFF7F9
:102E300019FE00205860FDF7DBF900201CBD0000E2
:102E400000E400E0D000002020ED00E010B50246D4
:102E50000021012000F012F80446FFF795FA204601
:102E600010BD38B50B46002200901146012000F03D
:102E700029F80446FFF788FA204638BDF8B517460A
:102E80000E46050014D0DEB105FB06F05030FFF70A
:102E9000ADFC04000AD0002084F8460004F1500282
:102EA0003B46314628460094FFF77AFA2046F8BDA3
:102EB000502080F31188BFF34F8FBFF36F8FFEE771
:102EC0000020E3E738B5049D18B153B1CAB181B110
:102ED00020E0502080F31188BFF34F8FBFF36F8F36
:102EE000FEE7502080F31188BFF34F8FBFF36F8F41
:102EF000FEE7502080F31188BFF34F8FBFF36F8F31
:102F0000FEE739B1502080F31188BFF34F8FBFF334
:102F10006F8FFEE750241C46012384F846302B4671
:102F20000094FFF73DFA204638BD000070B50D460D
:102F3000040025D0FFF734FDD4E90F20216802FBFF
:102F4000001161600021A1632168A1600A46D4E9F3
:102F50000F01401E00FB0121E16021464FF0FF30D0
:102F600001F8440F487004F110008DB1FFF7E6FC42
:102F700004F12400FFF7E2FCFFF732FD012070BDF1
:102F8000502080F31188BFF34F8FBFF36F8FFEE7A0
:102F900021690029F0D000F001FB0028ECD00449A1
:102FA0004FF080500860BFF34F8FBFF36F8FE3E7A0
:102FB00004ED00E02DE9FF4782B01D468A464FF040
:102FC0000008040003D0BAF1000F08D011E050202F
:102FD00080F31188BFF34F8FBFF36F8FFEE7206C34
:102FE00038B1502080F31188BFF34F8FBFF36F8F3C
:102FF000FEE7022D0AD1E06B012807D0502080F3B4
:103000001188BFF34F8FBFF36F8FFEE700F00EFA0A
:103010003F4F4FF000094FF0805648B9049838B13F
:10302000502080F31188BFF34F8FBFF36F8FFEE7FF
:10303000FFF7B6FCA06BE16B884207D3022D05D0E9
:103040000498D0B1B8F1000F1AD01EE02A465146BC
:103050002046FFF7F2F8616A19B104F1240000F08C
:103060009DFA20B13E60BFF34F8FBFF36F8FFFF724
:10307000B7FC012006B0BDE8F087FFF7B1FC22E005
:103080006846FFF7CFFD4FF00108FFF7A9FCFFF7F7
:103090004FFEFFF785FC94F94400401C01D184F8F1
:1030A000449094F94500401C01D184F84590FFF705
:1030B00097FC04A9684600F027F930B12046FFF7D5
:1030C0005FFB00F0A3FA0020D4E7FFF769FCA06BD8
:1030D000E16B884213D1FFF783FC04F110000499DF
:1030E000FFF7AEFD2046FFF74BFB00F08FFA0028FC
:1030F0009ED13E60BFF34F8FBFF36F8F98E7FFF70E
:103100006FFC2046FFF73CFB00F080FA90E70000E0
:1031100004ED00E02DE9F0471F4690468946040083
:1031200003D0B9F1000F08D011E0502080F31188CE
:10313000BFF34F8FBFF36F8FFEE7206C38B1502085
:1031400080F31188BFF34F8FBFF36F8FFEE7022F1D
:103150000AD1E06B012807D0502080F31188BFF31B
:103160004F8FBFF36F8FFEE7FFF78EFC5020EFF31A
:10317000118680F31188BFF34F8FBFF36F8FA06B61
:10318000E16B884206D3022F04D0002086F3118819
:10319000BDE8F08794F945503A4649462046FFF786
:1031A0004CF8681C04D06D1C84F845500120EDE7F4
:1031B000606A0028FAD004F1240000F0EFF900283A
:1031C000F4D0B8F1000FF1D00121C8F80010EDE7FC
:1031D0002DE9F747002683B08A46040003D0BAF1F0
:1031E000000F08D011E0502080F31188BFF34F8FFB
:1031F000BFF36F8FFEE7206C38B1502080F3118849
:10320000BFF34F8FBFF36F8FFEE700F00FF9DFF8CA
:10321000F4804FF000094FF0805748B9059838B155
:10322000502080F31188BFF34F8FBFF36F8FFEE7FD
:10323000FFF7B6FBA56BC5B151462046FEF7EAFF86
:103240006D1EA563206950B104F1100000F0A6F9CD
:1032500028B1C8F80070BFF34F8FBFF36F8FFFF72F
:10326000BFFB012006B0BDE8F087059808B11EB18C
:1032700006E0FFF7B5FB27E06846FFF7D3FC012621
:10328000FFF7AEFBFFF754FDFFF78AFB94F944000C
:10329000401C01D184F8449094F94500401C01D1B0
:1032A00084F84590FFF79CFB05A9684600F02CF8D0
:1032B000002820460AD0FFF763FA00F0A7F920465D
:1032C000FFF710F90028B3D00020CBE7FFF70AF989
:1032D00090B104F124000599FFF7B2FC2046FFF7F6
:1032E0004FFA00F093F90028A2D1C8F80070BFF39C
:1032F0004F8FBFF36F8F9BE72046FFF741FA00F037
:1033000085F995E704ED00E02DE9F0410C46050054
:1033100011D0C4B1FFF744FB174B5A696E6820689F
:10332000911B471C17D02F689B6A9F4219D0964269
:1033300017D8012410E0502080F31188BFF34F8F7D
:10334000BFF36F8FFEE7502080F31188BFF34F8FDC
:10335000BFF36F8FFEE70024FFF742FB2046BDE876
:10336000F081884205D9401A20602846FFF75AFCB0
:10337000F1E700202060DCE7640000202DE9FF5F1A
:103380008346DDE90E87994616468A469000FFF788
:103390002DFA05001CD05C20FFF728FA040014D099
:1033A0000020256384F85900CDE90240CDE900876B
:1033B0004B46324651465846FFF703F82046FEF783
:1033C00095FE012004B0BDE8F09F2846FFF71CFBE6
:1033D0004FF0FF30F6E7F0B585B0DDE90B640A9DEC
:1033E000A6B1DCB15C2700972663022684F85960F9
:1033F000002604AFCDE90246CDE90057FEF7E1FF14
:103400002046FEF773FE049805B0F0BD502080F30F
:103410001188BFF34F8FBFF36F8FFEE7502080F30B
:103420001188BFF34F8FBFF36F8FFEE70548C16967
:1034300019B1806B18B1002070470120704702203D
:103440007047000064000020014840697047000098
:10345000640000202DE9F0412E4C0027A06B40B104
:10346000206A401C2062606A00B101273846BDE82E
:10347000F0816669761C666113D16068006838B1B6
:10348000502080F31188BFF34F8FBFF36F8FFEE79B
:103490006068A1686160A060A06A401CA062FFF73C
:1034A000EFF8206BDFF87080864209D3606800680F
:1034B00080B16068C068C568686886420DD22063C4
:1034C0002068C06A00EB800158F821000128CAD9A1
:1034D0000127C8E74FF0FF30F1E7281DFFF704FA96
:1034E000A86A18B105F11800FFF7FEF9E86AA169AA
:1034F000884200D9A06100EB800108EB8100291D02
:10350000FFF742FAE86A2168C96A8842CED30127E8
:10351000CCE70000640000207808002070B50400AB
:103520004FF0000133D01B4D2868844207D0502053
:1035300080F31188BFF34F8FBFF36F8FFEE7206DCD
:1035400038B1401E2065E36CE26A9A421FD040B158
:103550001DE0502080F31188BFF34F8FBFF36F8FB2
:10356000FEE7201DFFF7C0F9E06CE062C0F1380013
:10357000A061E06AA969884200D9A861064900EB08
:10358000800001EB8000211DFFF7FEF901210846B4
:1035900070BD0000640000207808002070B5C0688D
:1035A000C46854B104F118000646FFF79DF9144DA4
:1035B000A86B50B13146134815E0502080F31188B4
:1035C000BFF34F8FBFF36F8FFEE7201DFFF78CF91E
:1035D000E06AA969884200D9A8610B4900EB800024
:1035E00001EB8000211DFFF7CFF9E06A2968C96A65
:1035F000884202D90120686270BD002070BD0000C1
:1036000064000020000D0020780800202DE9F0471C
:103610002C4D00242746A86B38B1FFF7C1F9A86BE1
:10362000401EA863A86B40B146E0502080F311888B
:10363000BFF34F8FBFF36F8FFEE72969224E012042
:10364000D1B3A6F5916980463068E0B1F068C468EE
:1036500004F11800FFF748F9201DFFF745F9E06A6B
:10366000A969884200D9A86100EB800109EB8100BB
:10367000211DFFF789F9E06A2968C96A8842E3D306
:10368000C5F82480E0E70CB1FEF7FAFF2C6A4CB1D4
:103690004FEA0806FFF7DEFE00B16E62641EF9D144
:1036A00000202862686A38B1084901273807086095
:1036B000BFF34F8FBFF36F8FFFF792F93846BDE826
:1036C000F087000064000020000D002004ED00E001
:1036D00010B586B0FEF772FD114CA068B8B100209D
:1036E0000390049005AA04A903A8FFF71BF9DDE9DC
:1036F000032102208DE8070000230AA10B48059A48
:10370000FFF769FEE06010B106B0012010BD502047
:1037100080F31188BFF34F8FBFF36F8FFEE7000078
:10372000A0000020546D7220537663005D270008CE
:103730002DE9FF411E46134602000A9D4FF000008E
:1037400016D0144CA768002F0FD0CDE900130292B9
:10375000062917DAFFF76AFE02284FF000030FD0A0
:1037600000226946A068FFF725FC04B0BDE8F0819F
:10377000502080F31188BFF34F8FBFF36F8FFEE7A8
:103780002A46EEE70023324669463846FFF7C2FC78
:10379000EBE70000A0000020000000000000000097
:1037A00000000000000000000000000808080808F1
:1037B000080800001818000000486C2412000000DF
:1037C00000000000000000000000002424247F12FC
:1037D00012127F12121200000000081C2A2A0A0C82
:1037E0001828282A2A1C080800000022251515156B
:1037F0002A585454542200000000000C1212120ADD
:1038000076252911916E00000006060403000000D1
:103810000000000000000000004020101008080810
:1038200008080810102040000002040808101010BA
:1038300010101008080402000000000008086B1CAB
:103840001C6B0808000000000000000008080808C1
:103850007F080808080000000000000000000000C9
:103860000000000006060403000000000000000045
:10387000FE0000000000000000000000000000004A
:1038800000000000060600000000804040202010DC
:1038900010080804040202000000001824424242FA
:1038A0004242424224180000000000080E080808A6
:1038B00008080808083E00000000003C4242422080
:1038C00020100804427E00000000003C4242201804
:1038D00020404042221C0000000000203028242408
:1038E00022227E20207800000000007E0202021AC0
:1038F00026404042221C0000000000382402021A28
:1039000026424242241800000000007E22221010AD
:1039100008080808080800000000003C4242422451
:1039200018244242423C0000000000182442424257
:1039300064584040241C00000000000000001818DB
:10394000000000001818000000000000000000083F
:1039500000000000000808040000004020100804D7
:1039600002040810204000000000000000007F005A
:1039700000007F000000000000000002040810208A
:1039800040201008040200000000003C4242464073
:1039900020101000181800000000001C225A555575
:1039A00055552D42221C0000000000080818141470
:1039B000243C224242E700000000001F2222221E77
:1039C00022424242221F00000000007C42420101CC
:1039D00001010142221C00000000001F224242425D
:1039E00042424242221F00000000003F4212121ECB
:1039F00012120242423F00000000003F4212121E1B
:103A000012120202020700000000003C2222010103
:103A100001712122221C0000000000E742424242C4
:103A20007E42424242E700000000003E08080808CB
:103A300008080808083E00000000007C1010101064
:103A4000101010101010110F0000007722120A0E33
:103A50000A1212222277000000000007020202026E
:103A600002020202427F000000000077363636363E
:103A70002A2A2A2A2A6B0000000000E346464A4A06
:103A800052525262624700000000001C2241414134
:103A900041414141221C00000000003F424242429D
:103AA0003E020202020700000000001C22414141C8
:103AB00041414D53321C60000000003F4242423EF3
:103AC0001212222242C700000000007C424202047F
:103AD00018204042423E00000000007F49080808CC
:103AE00008080808081C0000000000E742424242A3
:103AF00042424242423C0000000000E7424222248F
:103B000024141418080800000000006B49494949B2
:103B10005555362222220000000000E742242418D6
:103B20001818242442E70000000000772222141411
:103B300008080808081C00000000007E2120101062
:103B400008040442423F00000078080808080808FA
:103B500008080808080878000000020204040808A1
:103B60000810102020204040001E101010101010CF
:103B70001010101010101E0000384400000000004B
:103B80000000000000000000000000000000000035
:103B900000000000000000FF000608000000000018
:103BA0000000000000000000000000000000003CD9
:103BB0004278444242FC0000000000030202021A64
:103BC00026424242261A0000000000000000003891
:103BD0004402020244380000000000604040407887
:103BE0004442424264D80000000000000000003C53
:103BF000427E0202423C0000000000F08808087E7D
:103C000008080808083E0000000000000000007CD2
:103C100022221C023C42423C000000030202023A03
:103C20004642424242E700000000000C0C00000E39
:103C300008080808083E0000000000303000003886
:103C4000202020202020221E0000000302020272F9
:103C5000120A1612227700000000000E0808080859
:103C600008080808083E0000000000000000007F6F
:103C70009292929292B70000000000000000003B78
:103C80004642424242E70000000000000000003CC3
:103C900042424242423C0000000000000000001B83
:103CA00026424242221E0207000000000000007867
:103CB00044424242447840E00000000000000077A7
:103CC0004C040404041F0000000000000000007CFD
:103CD00042023C40423E0000000000000008083E56
:103CE0000808080808300000000000000000006319
:103CF0004242424262DC000000000000000000E797
:103D0000422424140808000000000000000000EB1A
:103D100049495555222200000000000000000076AD
:103D200024181818246E000000000000000000E7AE
:103D30004224241418080807000000000000007E38
:103D400022100808447E000000C0202020202010FF
:103D5000202020202020C000101010101010101063
:103D60001010101010101010000608080808081095
:103D700008080808080806000C32C200000000000D
:103D80000000000000000000000000000000000033
:103D90000000000000000000000000000000000023
:103DA0000000000000000000000000000000000013
:103DB0000000000000000000000000000000000003
:103DC00000000000000000000000000000000000F3
:103DD0000000C001C001C001C001C001C001C0019C
:103DE0008000800080008000800080008000000053
:103DF0000000000000008001C003C003800100003B
:103E00000000000000000000000000000000E01CB6
:103E1000E01CF01E700E3807180308018400000033
:103E20000000000000000000000000000000000092
:103E30000000000000000000000000000000000082
:103E40000000000000000000000000000000000072
:103E50000000000020102010201020102010FE7FF5
:103E6000FE7F10081008100810081008100810082D
:103E7000FE7FFE7F0804080408040804080400000C
:103E80000000000000000000000000000000000032
:103E900000010001C00760191031183118391839B4
:103EA00038017001E001C0038007000F001D0039D8
:103EB00000311C311C310C310C11180DE0070001D0
:103EC00000010001000000000000000000000000F0
:103ED000000000001C1036186308630C63046304C0
:103EE000630263026301361D9C3780228063406356
:103EF000406320632063306310221836081C0000E2
:103F000000000000000000000000000000000000B1
:103F100000000000F00098018C018C018C018C01E4
:103F20008C00CC007800183E1C0836083208630468
:103F30006304C304C303834306438E26781C000036
:103F400000000000000000000000000000001C0055
:103F50003C003C003000300010000C000600000067
:103F60000000000000000000000000000000000051
:103F70000000000000000000000000000000000041
:103F800000000000000000000000000000000040F1
:103F9000002000100008000C0004000600030003CD
:103FA0000003800180018001800180018001800187
:103FB000800100030003000300060006000C000857
:103FC000001000200040000000000000000002007F
:103FD000040008001000300020006000C000C00095
:103FE000C00080018001800180018001800180018A
:103FF0008001C000C000C000600060003000100000
:1040000008000400020000000000000000000000A2
:104010000000000000000000000180038003000198
:104020001C713C79783DC0070001C007783D3C79A0
:104030001C7100018003800380010000000000006B
:104040000000000000000000000000000000000070
:10405000000000000000000000000001000100015D
:104060000001000100010001FC7F000100010001CE
:10407000000100010001000100000000000000003C
:104080000000000000000000000000000000000030
:104090000000000000000000000000000000000020
:1040A0000000000000000000000000000000000010
:1040B00000000000000000001C003C003C0030003C
:1040C000300010000C00060000000000000000009E
:1040D00000000000000000000000000000000000E0
:1040E0000000000000000000FE7F00000000000053
:1040F00000000000000000000000000000000000C0
:1041000000000000000000000000000000000000AF
:10411000000000000000000000000000000000009F
:10412000000000000000000000000000000000008F
:1041300000000000000018003C003C0018000000D7
:10414000000000000000000000000000000000402F
:10415000006000200030001000180008000C00046F
:10416000000600020003000180018000C000400042
:104170006000200030001000180008000C0004004F
:104180000600020000000000000000000000000027
:1041900000000000C007600C3018183018301820DC
:1041A0000C600C600C600C600C600C600C600C60AF
:1041B0000C601820183018303018600CC007000050
:1041C00000000000000000000000000000000000EF
:1041D0000000000000018001F801800180018001E1
:1041E00080018001800180018001800180018001C7
:1041F00080018001800180018001C003F81F000060
:1042000000000000000000000000000000000000AE
:1042100000000000E007101C0818043004300C30C7
:104220000C3000300018000800040002000180007B
:1042300040002020102008200430FC1FFC1F00003C
:10424000000000000000000000000000000000006E
:1042500000000000E003180E0C0C0C180C180C18D1
:104260000018000C0006C003000E001800100030FB
:1042700000300C300C300C100C18180CE00300004F
:10428000000000000000000000000000000000002E
:1042900000000000000C000E000E000F800E800ECB
:1042A000400E600E200E100E100E080E040E040EAE
:1042B000FE7F000E000E000E000E000E000EC07FEE
:1042C00000000000000000000000000000000000EE
:1042D00000000000F03FF03F100010001000080048
:1042E0000800C807280C18180810003000300030EB
:1042F00000300C300C3004180418080CF0030000D7
:1043000000000000000000000000000000000000AD
:1043100000000000800FC01020301030180018007E
:1043200008000C008C0F6C183C301C600C600C609A
:104330000C600C601860182030306018C007000056
:10434000000000000000000000000000000000006D
:1043500000000000F83FF83F1C100C08040804049B
:104360000004000200020001000100018000800042
:104370008000C000C000C000C000C000C00000003D
:10438000000000000000000000000000000000002D
:1043900000000000E007300C18180C300C300C3016
:1043A0001C3038187008E007B007180E0C1C0638CF
:1043B00006300630063006300C18180CE0030000FA
:1043C00000000000000000000000000000000000ED
:1043D00000000000E00318040C080C18061006305A
:1043E00006300630063006380C3C1836F031003006
:1043F0000018001800180C0C0C060C03F00100004B
:1044000000000000000000000000000000000000AC
:10441000000000000000000000000000000000009C
:1044200000008001C003C003800100000000000004
:104430000000000000008001C003C00380010000F4
:10444000000000000000000000000000000000006C
:10445000000000000000000000000000000000005C
:104460000000C000C00000000000000000000000CC
:1044700000000000000000000000C000C00080003C
:10448000800040004000000000000000000000002C
:104490000000002000100008000400060003800156
:1044A000C0006000300018000C00180030006000F0
:1044B000C000800100030006000400080010002076
:1044C00000000000000000000000000000000000EC
:1044D00000000000000000000000000000000000DC
:1044E0000000FE7F00000000000000000000FE7FD2
:1044F00000000000000000000000000000000000BC
:1045000000000000000000000000000000000000AB
:10451000000004000800100020006000C0008001BE
:1045200000030006000C001800300018000C000604
:1045300000038001C000600020001000080004009B
:10454000000000000000000000000000000000006B
:104550000000C0073018083008600C601C601C6048
:104560001C600030001C00060001800080008000FC
:104570008000000000008001C003C0038001000033
:10458000000000000000000000000000000000002B
:1045900000000000C0076018103018200C2F8C4D50
:1045A000864CC64CC64C664C6644664466266626F7
:1045B0006615CC1C0C40082018303018C0070000CD
:1045C00000000000000000000000000000000000EB
:1045D00000000001C001C001C001400160032003D0
:1045E000200320033006100610061006F80F080CF2
:1045F000080C080C0C0C0418041806181F7C00008A
:1046000000000000000000000000000000000000AA
:1046100000000000FE07181C183818301830183039
:1046200018301818180CF8071818183018201860C7
:10463000186018601860186018301818FE0F000015
:10464000000000000000000000000000000000006A
:1046500000000000C0276038103018200C400C40CB
:10466000040006000600060006000600060006001C
:1046700006000C400C400C2018303018C007000019
:10468000000000000000000000000000000000002A
:1046900000000000FE03180E1818183018301830EB
:1046A000186018601860186018601860186018604A
:1046B00018601830183018101818180EFE03000073
:1046C00000000000000000000000000000000000EA
:1046D00000000000FE3F1830182018601840180035
:1046E00018081808180CF80F180C180818081800E3
:1046F000180018001840184018201830FE3F00001D
:1047000000000000000000000000000000000000A9
:1047100000000000FE7F1870184018C018801800B4
:10472000181018101818F81F18181810181018005A
:104730001800180018001800180018007E0000006B
:104740000000000000000000000000000000000069
:1047500000000000C013701C101018100C200C205A
:1047600004000600060006000600060006FC0630EF
:1047700006300C300C30183018303008C0070000FC
:104780000000000000000000000000000000000029
:10479000000000003F7E0C180C180C180C180C18A8
:1047A0000C180C180C180C18FC1F0C180C180C18F2
:1047B0000C180C180C180C180C180C183F7E000064
:1047C00000000000000000000000000000000000E9
:1047D00000000000F81F800180018001800180013D
:1047E00080018001800180018001800180018001C1
:1047F000800180018001800180018001F81F00009C
:1048000000000000000000000000000000000000A8
:1048100000000000E07F000600060006000600061B
:104820000006000600060006000600060006000658
:104830000006000600060006000600060006000648
:104840000E060E038E01FC000000000000000000B8
:10485000000000007E7C18181808180418061802BA
:10486000180198019801D801B803380318071806F1
:10487000180E180C181C1818183018307EFC000080
:104880000000000000000000000000000000000028
:10489000000000007E001800180018001800180022
:1048A0001800180018001800180018001800180048
:1048B000180018001840184018201830FE3F00005B
:1048C00000000000000000000000000000000000E8
:1048D000000000001FF81C381C381C381C3C343405
:1048E0003434343434367432643264326432643191
:1048F000C431C431C431C430C43084309FFC0000A2
:1049000000000000000000000000000000000000A7
:10491000000000001F7C1C103C1034103410741078
:104920006410E410C410C411841184130413041718
:104930000416041E041C041C041C04181F18000088
:104940000000000000000000000000000000000067
:1049500000000000C003300C181808100C300C3098
:104960000660066006600660066006600660066017
:1049700006600C200C3008101818300CC003000022
:104980000000000000000000000000000000000027
:1049900000000000FE0F181818301860186018602A
:1049A0001860186018301818F80F18001800180050
:1049B0001800180018001800180018007E000000E9
:1049C00000000000000000000000000000000000E7
:1049D00000000000C003300C18180C100C300C2024
:1049E0000660066006600660066006600660066097
:1049F0000660E4612C331C321816300EC007004CE0
:104A0000007C0038000000000000000000000000F2
:104A100000000000FE07181C183818301830183035
:104A200018301818180CF8079803180318071806F8
:104A30001806180E180C180C181C18187E78000090
:104A40000000000000000000000000000000000066
:104A500000000000E027303818300C200C200C003B
:104A60000C0018007800E003800F001E0038007072
:104A7000006004600460086018303818C80F000037
:104A80000000000000000000000000000000000026
:104A900000000000FC3F8C21846182418241800142
:104AA00080018001800180018001800180018001FE
:104AB000800180018001800180018001E007000009
:104AC00000000000000000000000000000000000E6
:104AD000000000003F7C0C100C100C100C100C108F
:104AE0000C100C100C100C100C100C100C100C10E6
:104AF0000C100C100C100C1008083804E003000017
:104B000000000000000000000000000000000000A5
:104B1000000000003EF81820182018203010301037
:104B200030103010600860086008E00CC004C00459
:104B3000C0048003800380038003000100010000A3
:104B40000000000000000000000000000000000065
:104B500000000000DFF38661862186218C210C2174
:104B60008C238C138C138C134C1358125816580E1C
:104B7000380E380E380E300C1004100410040000EB
:104B80000000000000000000000000000000000025
:104B9000000000007E3E180838083004300470021F
:104BA0006002E001C001C0018001800340034007B2
:104BB00020062006100C100C081808183E7C000077
:104BC00000000000000000000000000000000000E5
:104BD000000000007E7C1C10181018083008300CF3
:104BE000700460046002C002C002C0018001800144
:104BF000800180018001800180018001E0070000C8
:104C000000000000000000000000000000000000A4
:104C100000000000F83F18180818040C040E0006E5
:104C20000007000380038001C001C000E0006000B5
:104C300070003000382018201C100C18FE1F0000D7
:104C40000000000000000000000000000000C03F65
:104C50004000400040004000400040004000400054
:104C60004000400040004000400040004000400044
:104C70004000400040004000400040004000400034
:104C80004000C03F000000000000000000000000E5
:104C9000000008001800180010003000200060001C
:104CA00060004000C000800080018001000100031E
:104CB0000002000600060004000C0008001800189E
:104CC0000010003000200000000000000000FC0385
:104CD00000020002000200020002000200020002C4
:104CE00000020002000200020002000200020002B4
:104CF00000020002000200020002000200020002A4
:104D00000002FC030000000000000000000080071B
:104D1000C006200810100000000000000000000085
:104D20000000000000000000000000000000000083
:104D30000000000000000000000000000000000073
:104D40000000000000000000000000000000000063
:104D50000000000000000000000000000000000053
:104D60000000000000000000000000000000000043
:104D70000000000000000000000000000000000033
:104D8000000000000000FFFF0000000000007800AD
:104D9000C000000100000000000000000000000052
:104DA0000000000000000000000000000000000003
:104DB00000000000000000000000000000000000F3
:104DC00000000000000000000000000000000000E3
:104DD00000000000000000000000000000000000D3
:104DE0000000F00318060C0C0C0C000C800F700C6B
:104DF0001C0C0C0C060C060C064C0C4FF838000072
:104E000000000000000000000000000000000000A2
:104E1000000010001E0018001800180018001800EC
:104E20001800180FD81838303860186018601860EB
:104E3000186018601860182038307818C80700000B
:104E40000000000000000000000000000000000062
:104E50000000000000000000000000000000000052
:104E60000000C007700C181818180C180C000C0063
:104E70000C000C000C20182018103008C00700008F
:104E80000000000000000000000000000000000022
:104E900000000010001E001800180018001800186C
:104EA0000018E01B301C181818180C180C180C18D7
:104EB0000C180C180C180818181C307AE00900009F
:104EC00000000000000000000000000000000000E2
:104ED00000000000000000000000000000000000D2
:104EE0000000C007300C181808100C300C30FC3FC4
:104EF0000C000C000C00182018107018C0070000DF
:104F000000000000000000000000000000000000A1
:104F100000000000003E80C380C0C0C0C000C000D0
:104F2000C000FC1FC000C000C000C000C000C00026
:104F3000C000C000C000C000C000C000F80F0000EA
:104F40000000000000000000000000000000000061
:104F50000000000000000000000000000000000051
:104F60000000C077306C101818181818181810188E
:104F7000300CF00718001800F00FF03F08700C60BC
:104F80000C600C603838E00F0000000000000000EA
:104F9000000010001E00180018001800180018006B
:104FA0001800980FD81838301830183018301830CA
:104FB0001830183018301830183018307EFC0000C7
:104FC00000000000000000000000000000000000E1
:104FD0000000000080038003800300000000000048
:104FE0000001F801800180018001800180018001C1
:104FF000800180018001800180018001F81F000094
:1050000000000000000000000000000000000000A0
:1050100000000000003800380038000000000000E8
:105020000010801F00180018001800180018001841
:1050300000180018001800180018001800180018B0
:105040000018180C1806F003000000000000000013
:10505000000010001E0018001800180018001800AA
:105060001800183E180C1806180318019801D801EA
:10507000380318071806180C181C18187E7C000036
:105080000000000000000000000000000000000020
:1050900000000001F8018001800180018001800191
:1050A00080018001800180018001800180018001F8
:1050B000800180018001800180018001F81F0000D3
:1050C00000000000000000000000000000000000E0
:1050D00000000000000000000000000000000000D0
:1050E0000800EE1C9C338C318C318C318C318C312E
:1050F0008C318C318C318C318C318C31DE7B0000E9
:10510000000000000000000000000000000000009F
:10511000000000000000000000000000000000008F
:1051200010001E0FD81838301830183018301830CA
:105130001830183018301830183018307EFC000045
:10514000000000000000000000000000000000005F
:10515000000000000000000000000000000000004F
:105160000000C007701C103018300C600C600C6020
:105170000C600C600C60183018303018C00700004C
:10518000000000000000000000000000000000001F
:10519000000000000000000000000000000000000F
:1051A00010009E0F581838301820186018601860CA
:1051B0001860186018601830383078189807180090
:1051C0001800180018007E00000000000000000019
:1051D00000000000000000000000000000000000CF
:1051E0000000C023303C183818300C300C300C3024
:1051F0000C300C300C3008301838303CE0330030C4
:1052000000300030003000FC000000000000000012
:10521000000000000000000000000000000000008E
:1052200060007E3C60666061E000E000600060005D
:10523000600060006000600060006000FE07000029
:10524000000000000000000000000000000000005E
:10525000000000000000000000000000000000004E
:105260000000E02730381830182018007000E003E4
:10527000800F001C043004300C301C18EC0F0000B0
:10528000000000000000000000000000000000001E
:105290000000000000000000800080008000C000CE
:1052A000E000FC1FC000C000C000C000C000C00083
:1052B000C000C000C000C020C0208011000F00004E
:1052C00000000000000000000000000000000000DE
:1052D00000000000000000000000000000000000CE
:1052E00010201E3C18301830183018301830183084
:1052F0001830183018301830183830F4E013000027
:10530000000000000000000000000000000000009D
:10531000000000000000000000000000000000008D
:1053200000007E3C18181808380830043004700259
:1053300060026002E001C001C001C0008000000006
:10534000000000000000000000000000000000005D
:10535000000000000000000000000000000000004D
:105360000000DFF78E630C238C238C239813981393
:1053700058165816700E700E700E2004200400008F
:10538000000000000000000000000000000000001D
:10539000000000000000000000000000000000000D
:1053A0000000FC3E70087004E004C002C0018003ED
:1053B000800340076006200C100C18183E7E000089
:1053C00000000000000000000000000000000000DD
:1053D00000000000000000000000000000000000CD
:1053E00000007E7C1818180830083008300460046B
:1053F0006004C002C002C002800180018001800000
:10540000800080004C003C00000000000000000014
:10541000000000000000000000000000000000008C
:105420000000FC1F0C0C040E040600038003800126
:10543000C000E0007020302038301C18FC1F000035
:10544000000000000000000000000000000000302C
:105450000008000400040004000400040004000428
:1054600000040004000400028001000200040004A3
:10547000000400040004000400040004000400040C
:1054800000040008003000000001000100010001DC
:105490000001000100010001000100010001000104
:1054A00000010001000100010001000100010001F4
:1054B00000010001000100010001000100010001E4
:1054C00000010001000100010000000000000C00CC
:1054D00010002000200020002000200020002000DC
:1054E000200020002000400080014000200020001B
:1054F00020002000200020002000200020002000AC
:10550000200010000C00000000003800C40086409D
:1055100002610022001C00000000000000000000EA
:10552000000000000000000000000000000000007B
:10553000000000000000000000000000000000006B
:105540000000000000000000D6D080008000800035
:105550008000FC1F84108410841084108410FC1FB1
:1055600084108000800080008000BEB0F80F080822
:10557000F80F0808F80F8000FF7F0000F80F0808F8
:105580000808F80F80008410A2204000D4B000006A
:10559000FE3F0220F22702200220FA2F22212221A0
:1055A0002221122912290A2E0220FE3F0220B5E7ED
:1055B000800080008000FC1F841084108410FC1F79
:1055C000841084108410FC1F845080408040007F31
:1055D000D7D30000FE1F00080004000280018000F5
:1055E000FF7F800080008000800080008000A0009D
:1055F0004000D6D0000000000000001800000800A5
:10560000000800000800080818F8FF1F18081818FC
:105610000818180818180818180818180818F8FF93
:105620001F08080800080000080000080000080023
:10563000001800001800001800000000BEB00000B4
:1056400000000000400006C0FF07400006C0FF0742
:10565000400006C0FF07400802003000FEFF3F0088
:105660000000C0FF07C00002C00002C00002C0FF6F
:105670000380100080110160100E3010180C1E30D5
:10568000001C00000000D4B0000000000000080072
:1056900030F8FF1F08001008C010083F1008001065
:1056A000080010080013C8FF100822100822100874
:1056B000221008221008211208211488601648C000
:1056C00013280010080010F8FF1F08001000000049
:1056D000B5E7000000000000001800000800000806
:1056E00000000800F0FF0F10080410080410080460
:1056F000100804F0FF071008041008041008041034
:105700000804F0FF07100800000810000810000847
:105710002000183000F01F000000D7D30000000068
:105720000000000004F0FF0F00000600000100C0B0
:1057300000002800001800001800001830FEFF7F4D
:1057400000180000180000180000180000180000E1
:105750001800001800001800001800001F00000CBE
:1057600000000000D6D00000000000000000008013
:105770000000008001000080010000800100008026
:105780000100008001001080010CF0FFFF0F30804D
:105790000104308001043080010430800104308035
:1057A0000104308001043080010430800104F0FFE6
:1057B000FF07308001043080010400800100008078
:1057C00001000080010000800100008001000080D5
:1057D00001000080010000800100008001000080C5
:1057E000000000000000BEB000000000000000004B
:1057F000000000000001800100FFFF0100038001A4
:105800000003800100FFFF0100038001000380010D
:1058100000FFFF0100818100000003000000031C65
:10582000FCFFFF3F000040000003C00100FFFF013C
:105830000003C0000003C0000003C00000FFFF0021
:105840000001410000040100000E71000007810109
:10585000800101076000010E1898011C04E0011886
:1058600000C0000000000000D4B0000000000000F4
:10587000000000000008F0FFFF1F3000000C3000A7
:10588000000C3000100C30FE3F0C3004000C3000D7
:10589000000C3000000C3000000C3000C00CF0FF99
:1058A000FF0D3030060E3030060C3010060C301074
:1058B000060C3010060C3018860C3018860C300898
:1058C000060D300C860D3006EE0F3002FC0D300157
:1058D000000CF000000C3000000CF0FFFF0F300057
:1058E000000C1000000400000000B5E700000000FC
:1058F0000000000000C0000000C0010000C0000067
:1059000000C0000000C0000000C00000E0FFFF0376
:1059100060C0000360C0000360C0000360C00003FB
:1059200060C0000360C00003E0FFFF0360C000032D
:1059300060C0000360C0000360C0000360C00003DB
:10594000E0FFFF0360C0000160C0000000C000086D
:1059500000C0001000C0001000C0001800C00138D6
:105960000080FF1F0000000000000000D7D30000EF
:105970000000000000000000000000000003C0FF65
:10598000FF07000080070000C0000000600000006A
:10599000180000000C00008003000080030000805D
:1059A0000100008001080080011CFCFFFF3F008017
:1059B00001000080010000800100008001000080E3
:1059C00001000080010000800100008001000080D3
:1059D000010000800100008001000080010000FC47
:1059E000010000E000000040000000000000000096
:1059F00000200020002000200020FFFFFFFFFFFF0D
:105A0000FFFFFFFFFFFFFFFFFFFFFFFFFFFFFFFFA6
:105A1000FFFFFFFFFFFFFFFFFFFFFFFFFFFF002074
:105A20000020002000200020002000200020002076
:105A30000020002000200020002000200020002066
:105A40000020002000200020002000200020002056
:105A50000020002000200020002000200020002046
:105A60000020E71CE71CE71CE71CE71CE71C0020E4
:105A70000020002000200020002000200020002026
:105A80000020002000200020002000200020002016
:105A90000020002000200020002000200020002006
:105AA00000200020002000200020002000200020F6
:105AB00000200020FFDFFFDFFFDFFFDFFFDFFFDF72
:105AC000FFDFFFDFFFDFFFDFFFDFFFDFFFDFFFDFE6
:105AD000FFDFFFDFFFDFFFDFFFDFFFDF00610061D0
