:020000040800F2
:10000000E0060020D5010008771000086F0F0008F7
:1000100075100008D7040008111200080000000045
:100020000000000000000000000000007B1000083D
:10003000D904000800000000791000087D100008B5
:10004000EF010008EF010008EF010008EF010008D0
:10005000EF010008EF010008EF010008DB040008D1
:10006000EF010008EF010008EF010008EF010008B0
:10007000EF010008EF010008EF010008EF010008A0
:10008000EF010008EF010008EF010008EF01000890
:10009000EF010008EF010008EF010008E10400088B
:1000A000EF010008EF010008EF010008EF01000870
:1000B000EF010008EF010008EF010008EF01000860
:1000C000EF010008EF010008EF010008EF01000850
:1000D000EF010008EF010008EF010008EF01000840
:1000E000EF010008EF010008EF010008EF01000830
:1000F000EF010008EF010008EF010008EF01000820
:10010000EF010008EF010008EF010008EF0100080F
:10011000EF010008EF010008EF010008EF010008FF
:10012000EF010008EF010008EF010008EF010008EF
:1001300000F002F800F03FF80AA090E8000C8244BA
:100140008344AAF10107DA4501D100F034F8AFF297
:10015000090EBAE80F0013F0010F18BFFB1A43F0A5
:10016000010318470C1100002C110000103A24BFA5
:1001700078C878C1FAD8520724BF30C830C144BF0C
:1001800004680C607047000000230024002500264E
:10019000103A28BF78C1FBD8520728BF30C148BFEA
:1001A0000B607047642900F07F80002070471FB506
:1001B0001FBD10B510BD00F054F91146FFF7F7FF51
:1001C00001F037F800F072F903B4FFF7F2FF03BC57
:1001D00000F07AF90948804709480047FEE7FEE742
:1001E000FEE7FEE7FEE7FEE7FEE7FEE7FEE7FEE7E7
:1001F00004480549054A064B70470000DF10000817
:1002000031010008E0000020E0060020E0020020AC
:10021000E00200200FB41CB5084B06AA7B446946D7
:100220000090059800F005F904460020694600F0AA
:1002300013F920461CBC5DF814FB000039020000D5
:100240002DE9F0410E460446002020622046E16878
:10025000884730B3252805D0D4E901219047206A8A
:10026000401CF2E7E168204600278847050018D0C7
:10027000A5F14100192802D820354FF40067324615
:10028000294620462760FFF78DFF40B1012804D0A2
:10029000F61D26F007060836D8E7361DD6E72846AD
:1002A000DAE7206ABDE8F0812DE9F0410646002436
:1002B00010687529314616A510D0AFF300800028CC
:1002C00002DA404213A507E031688A0701D512A57A
:1002D00002E0490704D511A5012401E0AFF3008035
:1002E00000210A2206F1240709E0B0FBF2FCB0FB72
:1002F000F2F302FB1C00303078541846491C0028E9
:10030000F3D123462A463046BDE8F04100F032B82A
:10031000000000002D0000002B0000002000000065
:100320004FF0000200B5134694469646203922BF8E
:10033000A0E80C50A0E80C50B1F12001BFF4F7AFD9
:10034000090728BFA0E80C5048BF0CC05DF804EBBB
:10035000890028BF40F8042B08BF704748BF20F829
:10036000022B11F0804F18BF00F8012B7047704727
:10037000704770472DE9F0470D469946924604466E
:1003800000F124080168880604D5E06921F0100115
:10039000216000E00120A84201DD471B00E00027AA
:1003A000A1697A1902EB0900081AA0612078C00639
:1003B00002D42046AFF30080002608E0D4E90121F2
:1003C0001AF806009047206A401C761C20624E45B1
:1003D000F4DB2078C0060AD52046AFF3008006E0A3
:1003E000D4E9012130209047206A401C2062381E49
:1003F000A7F10107F4DC07E0D4E9012118F80500B2
:100400009047206A401C2062281EA5F10105F3DCFC
:100410002046AFF300802078000602D50220BDE818
:10042000F0870120FBE7000001694A1C026108789F
:10043000704700B58FB0CDE9013100210591054924
:100440007944CDE9031011466846FFF7F9FE0FB075
:1004500000BD0000E5FFFFFF0A6802F8010B0A601B
:100460007047754600F02CF8AE46050069465346C5
:1004700020F00700854618B020B5FFF7B9FEBDE8AB
:1004800020404FF000064FF000074FF000084FF0FB
:10049000000B21F00701AC46ACE8C009ACE8C0098C
:1004A000ACE8C009ACE8C0098D46704710B50446F9
:1004B000AFF300802046BDE81040FFF785BE000086
:1004C000004870477C00002001491820ABBEFEE7C1
:1004D000260002007047FEE77047022000F058B87F
:1004E00010B5402000F054F8BDE810404FF4007003
:1004F00000F04EB872B6FEE770B501461E480229FC
:1005000007D01E4C402911D0B1F5007F32D1012017
:100510002FE00221054600F043F928B110212846BA
:10052000BDE8704000F041B92021F8E7617800296A
:1005300020D0A1784900A170802100F031F9012874
:1005400003D1A07840F00100A0702078401CC0B218
:10055000207008280ED1A27809A10B48FFF75AFE97
:1005600082B24FF6FF730849084800F0B3FC002040
:100570002070607070BD000000100140000000207D
:1005800025640D0A00000000140000203400002043
:10059000044910B50A68024202D00860FFF7ACFFB8
:1005A00010BD0000140401402DE9F84FDFF8C89198
:1005B0000024A9F1040B23460F2709F1040AABF12B
:1005C000040ED1E00125A54006EA0502AA4276D133
:1005D000DFF8A8C14E68A6EB0C0866452BD00DDCF1
:1005E000032E34D005DC36B3012E19D0022E2FD1C4
:1005F0001BE0112E16D0122E2AD119E0B8F5881F53
:1006000019D006DCB8F5803F15D0B8F5801F1FD192
:1006100011E0B8F5001F0ED0B8F5041F18D10AE09C
:10062000CB6815E0CB681B1D12E0CB6808330FE0E8
:10063000CB680C330CE08B682BB1012B4FF0080317
:1006400003D0456104E0042302E0056100E00023DB
:10065000FF2A01D8064601E000F104064FEA8405AE
:1006600001D9A5F12005D6F8008007FA05FC28EA93
:100670000C0803FA05F548EA0508C6F800804D683D
:10068000ED0070D53E4DAE6946F00106AE61AD6934
:1006900024F0030605F0010500953A4D06EB050C24
:1006A000DCF80850A607360F07FA06F825EA080511
:1006B000DFF8D480404503D14FF0000825E052E038
:1006C000DFF8C880404502D14FF001081DE0DFF897
:1006D000C080404502D14FF0020816E0DFF8B48038
:1006E000404502D14FF003080FE0DFF8AC804045F1
:1006F00002D14FF0040808E0DFF8A080404502D1A5
:100700004FF0050801E04FF0060808FA06F848EA3D
:100710000508CCF808804D68D9F80060ED024D4618
:1007200001D5164300E096432E604D68DAF800606C
:10073000AD02554601D5164300E096432E604D6844
:10074000DBF80060AD035D4601D5164300E096433B
:100750002E604D68DEF80060ED03754601D5164346
:1007600000E096432E60641C0A681646E2407FF45F
:1007700029AFBDE8F88F0000080401400000111007
:10078000001002400000014000080140000C014040
:10079000001001400014014000180140001C0140FD
:1007A0008068084000D001207047C26821EA020337
:1007B0000A4043EA0241016170470AB10161704792
:1007C0000904FBE70148806870470000040000202E
:1007D000024881680278114481607047040000205B
:1007E000074810B5016841F010010160032000F0D6
:1007F00075F80F2000F006F800F024F8002010BD76
:100800000020024070B50D4D04464FF47A712878EF
:10081000B1FBF0F00A490968B1FBF0F000F0DCFA36
:1008200048B9102C07D200222146501E00F036F89D
:1008300000206C6070BD012070BD0000040000202D
:10084000100000200C4808B5816941F00101816168
:10085000816901F001010091C16941F08051C161DC
:10086000C06900F0805000900448416821F0E061C8
:1008700041F00071416008BD0010024000000140DD
:10088000002809DB00F01F0201219140400980008F
:1008900000F1E020C0F8001170470000F0B40E4BEA
:1008A0001B680C46C3F30223C3F10705042D00D9CE
:1008B0000425191D072901D2002300E0DB1E0126B3
:1008C00006FA05F1491E214099409E40761E1640C9
:1008D0003143F0BC00F09DBC0CED00E0064900F097
:1008E000070208684FF6FF03184040EA0220034A57
:1008F00010430860704700000CED00E00000FA05AE
:100900002DE9F0470F46050061D0434E306800F0F6
:100910000700B84209D2306820F007003843306041
:10092000306800F00700B84251D128683B4C81077D
:1009300012D5400703D5606840F4E0606060287815
:10094000000703D5606840F4605060606068A96883
:1009500020F0F000084360602878C00728D068685D
:10096000012810D02168022810D0890700292EDA2A
:10097000616821F0030101436160FFF723FF8046B6
:1009800041F288390DE021688903EFE78901EDE73D
:10099000FFF718FFA0EB0801494502D90320BDE885
:1009A000F0876068696800F00C00B0EB810FEFD150
:1009B000306800F00700B8420BD9306820F007001B
:1009C00038433060306800F00700B84201D00120A1
:1009D000E5E72878400705D56068E96820F4E0601D
:1009E000084360602878000706D56068296920F40C
:1009F000605040EAC100606000F038F86168084A61
:100A0000C1F30311515CC8400649086006480068FC
:100A1000FFF7F8FE0020C2E700200240001002406D
:100A20005612000810000020080000200448054964
:100A300000684968044AC1F30221515CC84070470C
:100A4000100000200010024066120008044805490A
:100A500000684968044AC1F3C221515CC84070472C
:100A60001000002000100240661200080E4A516873
:100A70000E4801F00C03042B11D0082B0FD10C48A9
:100A8000C1F38343C903C05C0AD55168084AC1F366
:100A90004041921E515C054A5043B0FBF1F0704753
:100AA00004494843704700000010024000127A00D9
:100AB0004612000800093D002DE9F84F040070D0EF
:100AC0002078C04DC00749D06868C0F38100012874
:100AD00007D06868C0F38100022809D16868C003A4
:100AE00006D52868800339D560680028E7D035E04E
:100AF0006068B0F5803F0BD010B1B0F5A02F11D0D9
:100B0000286820F480302860286820F4802002E0E3
:100B1000286840F480302860606890B1FFF752FE8A
:100B200006460AE0286840F480202860F0E700BF0D
:100B3000FFF748FE801B642873D828688003F7D528
:100B40000CE0FFF73FFE064605E000BFFFF73AFE68
:100B5000801B6428F0D828688003F7D420789A4E48
:100B600080074FF001094FF0000839D5686810F090
:100B70000C0F07D06868C0F38100022809D16868AB
:100B8000C00306D42868800714D52069012808D13D
:100B900010E02069B0B1C6F80090FFF713FE0746D9
:100BA00005E00AE1FFF70EFEC01B0228C4D8286842
:100BB0008007F7D52868616920F0F80040EAC10095
:100BC00028600DE0C6F80080FFF7FCFD074604E052
:100BD000FFF7F8FDC01B022823D828688007F7D448
:100BE000207800072CD57948A169D9B1C0F80090C8
:100BF000FFF7E8FD074604E0FFF7E4FDC01B02280D
:100C00000FD8686A8007F7D571484FF4FA51006829
:100C1000B0FBF1F0009000BF0098411E0091FAD2A5
:100C20000EE080E0C0F80080FFF7CCFD074604E04E
:100C3000FFF7C8FDC01B022875D8686A8007F7D483
:100C40002078400760D5E8690027C00008D4E8692B
:100C500040F08050E861E869012700F08050009082
:100C60005C480168C90513D40168834641F480716A
:100C70000160FFF7A7FD824606E000BFFFF7A2FD77
:100C8000A0EB0A0064284ED8DBF80000C005F5D5BB
:100C9000E06801280AD008B1052813D0286A20F09E
:100CA00001002862286A20F0040002E0286A40F06F
:100CB00001002862E06841F2883B98B1FFF782FDAD
:100CC00082460BE0286A40F004002862EEE700BF8D
:100CD000FFF778FDA0EB0A0159455AD8286A80072A
:100CE000F6D50CE0FFF76EFD824605E0FFF76AFDE2
:100CF000A0EB0A0159454CD8286A8007F6D41FB1E9
:100D0000E86920F08050E861E06988B36968C1F360
:100D10008101022944D00228C6F8608004D0FFF780
:100D200051FD044638E034E0FFF74CFD074604E08F
:100D3000FFF748FDC01B02282BD828688001F7D494
:100D4000206AB0F5803F05D16868A16820F40030C2
:100D500008436860D4E908010843696821F4741104
:100D600008436860C6F86090FFF72CFD044606E073
:100D700025E000BFFFF726FD001B022809D82868E0
:100D80008001F7D51BE000BFFFF71CFD001B022808
:100D900002D90320BDE8F88F28688001F4D40EE062
:100DA0000128F7D06868226A00F48031914204D1AA
:100DB000616A00F47010884201D00120EAE7002047
:100DC000E8E7000000100240000042428004424276
:100DD000100000200070004010B5401EB0F1807F70
:100DE00001D3012010BD4FF0E02460610F21601796
:100DF00000F00FFA0020A06107202061002010BD44
:100E000070B5040004D094F84100002510B106E04C
:100E1000012070BD84F84050204600F023F82420C3
:100E200084F841002068C16821F40051C160204667
:100E300000F056F92068016921F4904101612068B1
:100E4000416921F02A0141612068C16841F40051E3
:100E5000C1606564202084F8410084F84200656325
:100E6000002070BD30B585B0002400940194029438
:100E7000039400681449884224D11448816941F4DC
:100E800080418161816901F480410491816941F06F
:100E90000401816180690E4D00F0040004904FF45C
:100EA00000700090022001900320039069462846BC
:100EB000FFF77AFB2815CDE900046946284602941D
:100EC000FFF772FB05B030BD003801400010024052
:100ED000000801402DE9F843044690F841001F4600
:100EE00016460D46202802D00220BDE8F8837DB1C9
:100EF00076B100206064212084F84100FFF762FC95
:100F0000A6848046E684A068B0F5805F02D003E046
:100F10000120EAE7206910B12E4600250EE00026E8
:100F20000CE08021204600F037F9A0B9AEB116F8E8
:100F3000010B21684860E08C401EE084E08C434651
:100F40004FF0000200970028EBD14FF040012046FF
:100F500000F022F930B10320C7E735F8020BC0F3E7
:100F60000800E6E7202084F841000020BDE7FEE706
:100F700030B585B000242D48009401940294039468
:100F8000816941F020018161816901F020010491B2
:100F9000816941F010018161816901F010010491C2
:100FA000816941F0040181618069214D00F00400F4
:100FB0000490012230212846FFF7FFFB0220009019
:100FC0001C48CDE9010469462846FFF7EDFA3020B8
:100FD00000900120CDE901040320039069462846D2
:100FE000FFF7E2FA4FF4107000901348CDE90104C6
:100FF00069462846FFF7D8FA8020CDE90004694603
:1010000028460294FFF7D0FA002203210720FFF7B9
:1010100045FC0720FFF734FC002203211720FFF7CF
:101020003DFC1720FFF72CFC05B030BD001002403E
:101030000010014000003110000021100C4810B5D4
:101040000A4901604FF4E1314160002181600C22C6
:10105000C160C0E904128161C161FFF7D1FE0028BF
:1010600003D0BDE81040FFF745BA10BD003801407D
:1010700034000020FEE7FEE770477047FFF7A8BB8B
:1010800030B58FB028216846FFF74AF914210AA825
:10109000FFF746F901210804CDE90010002402946D
:1010A00002250491CDE907504FF4E01009906846FD
:1010B000FFF702FD08B172B6FEE70F20CDE90A0581
:1010C0004FF48060CDE90C4002210AA80E94FFF78E
:1010D00017FC002801D072B6FEE70FB030BD704794
:1010E00070B5044600680169E26821F4405111437B
:1010F00001612169A0680843616908432168CA68E1
:1011000041F20C639A430243CA6020684169A269B4
:1011100021F44071114341611E492068884202D187
:10112000FFF794FC01E0FFF781FC00EBC00101EB4D
:101130000012606864218000B2FBF0F3B3FBF1F3AE
:101140006FF018067343B2FBF0F5B2FBF0F605EB57
:101150008305322303EB0515B5FBF1F5B6FBF1F67C
:1011600005F0F00505EB0615B2FBF0F6B2FBF0F06A
:10117000B0FBF1F06FF01802504306EB800003EB78
:101180000010B0FBF1F0216800F00F0028448860E7
:1011900070BD0000003801402DE9F0419846174627
:1011A0000E460446069D27E0681C25D02DB1FFF7AA
:1011B00009FBA0EB0800A8421ED920680C3050E8BB
:1011C000001F21F4D07140E80012002AF5D12068F8
:1011D000143050E8001F21F0010140E80012002AFD
:1011E000F5D1202084F8410084F84200002084F8E2
:1011F00040000320BDE8F0812068006836EA000066
:1012000004D00020B842CFD00020F3E70120F9E756
:10121000FEE70907090E002804DB00F1E02080F852
:101220000014704700F00F0000F1E02080F8141D5A
:101230007047FFF7D5FAFFF723FFFFF799FEFFF797
:10124000FDFEFEE7010202030405060708090A0B7A
:101250000C0D0E0F10100000000000000000010235
:10126000030406070809000000000102030400004F
:101270009012000800000020140000006C0100081B
:10128000A412000814000020CC0600008801000809
:10129000000000000100000010000000000000003D
:0412A0000024F40032
:0400000508000131BD
:00000001FF
