:020000040800F2
:100000001008002099010008D104000861040008CC
:10001000CD040008E10100084B0D000800000000BD
:1000200000000000000000000000000001010008C6
:10003000E50200080000000045010008BB090008B7
:10004000B3010008B3010008B3010008B3010008C0
:10005000B3010008B3010008B3010008B3010008B0
:10006000B3010008B3010008B3010008B3010008A0
:10007000B3010008B3010008B3010008B301000890
:10008000B3010008B3010008B3010008B301000880
:10009000B3010008B3010008B3010008B301000870
:1000A000B3010008B3010008B3010008B301000860
:1000B0002D0A0008B3010008690A0008B30100080E
:1000C000B3010008B3010008B3010008B301000840
:1000D000B3010008B90B0008B3010008B301000820
:1000E000B3010008B3010008B3010008DFF80CD029
:1000F00000F064F800480047890D0008100800204F
:10010000224B19680868B0E8F00F80F30988BFF344
:100110006F8F4FF0000080F311884EF00D0E704786
:100120000000000006480068006880F3088862B696
:1001300061B6BFF34F8FBFF36F8F00DF00BF00BF0B
:1001400008ED00E0EFF30980BFF36F8F0F4B1A68E3
:1001500020E9F00F106008B54FF0BF0080F3118860
:10016000BFF34F8FBFF36F8F00F03CFE4FF00000E6
:1001700080F31188BDE8084019680868B0E8F00FFE
:1001800080F30988BFF36F8F704700BF080000201D
:10019000EFF3058070470000064880470648004797
:1001A000FEE7FEE7FEE7FEE7FEE7FEE7FEE7FEE727
:1001B000FEE7FEE7CD090008ED000008064C074DFC
:1001C00006E0E06840F0010394E807009847103427
:1001D000AC42F6D3FFF78EFF181600083816000859
:1001E00000BFFEE77FB505460C460121084600F03A
:1001F00041FB0020ADF80600ADF80200ADF8045058
:10020000ADF800408DF8080069464FF0804000F0DE
:1002100067FC01221146900700F058FC1C208DF865
:100220000C0001208DF80F008DF80D008DF80E00E8
:1002300003A800F05BF90121880700F02AFC7FBDCC
:100240007FB505460C460121042000F013FB002079
:10025000ADF80A00ADF80600ADF80850ADF804405E
:100260008DF80C0001A90D4800F03AFC012211465E
:100270000A4800F02BFC1E208DF8000001208DF8AC
:1002800003008DF801008DF80200684600F02EF999
:100290000121024800F0FDFB7FBD00000008004086
:1002A00030B50346002016E0B3F900509C68645D49
:1002B0000C541C88641C24B21C80B3F90040B3F9B0
:1002C0000450AC4201DB00241C80441C20B2DC88BA
:1002D000641E24B2DC80B3F90640002C01DD90429C
:1002E000E2DB30BD704770B50346002016E00C5CC1
:1002F000B3F902609D68AC555C88641C24B25C80D4
:10030000B3F90240B3F90450AC4201DB00245C8035
:10031000441C20B2DC88641C24B2DC80B3F90640A3
:10032000B3F90450AC4201DA9042E0DB70BD2DE934
:10033000F04102460025002600200023002400276B
:1003400091F803C00CF00F0591F803C00CF0100CED
:10035000BCF1000F03D091F802C04CEA050591F8FA
:1003600000C0BCF1000F31D0146800202BE04FF02A
:10037000010C0CFA00F3B1F800C00CEA03069E422F
:1003800020D183004FF00F0C0CFA03F7BC4305FAA1
:1003900003FC4CEA040491F803C0BCF1280F06D119
:1003A0004FF0010C0CFA00FCC2F814C00AE091F8FE
:1003B00003C0BCF1480F05D14FF0010C0CFA00FC52
:1003C000C2F810C0401C0828D1D31460B1F800C096
:1003D000BCF1FF0F34DD546800202EE000F1080C62
:1003E0004FF0010808FA0CF3B1F800C00CEA03065C
:1003F0009E4221D183004FF00F0C0CFA03F7BC434F
:1004000005FA03FC4CEA040491F803C0BCF1280F80
:1004100005D100F1080C08FA0CF8C2F8148091F824
:1004200003C0BCF1480F07D100F1080C4FF00108E0
:1004300008FA0CF8C2F81080401C0828CED354608B
:10044000BDE8F08102460020D3680B400BB10120CB
:1004500000E0002070470AB1016100E0416170478F
:1004600000BFFEE710B500F00FF900F097FB00F0B9
:1004700029F810BD08B50121102000F00BFA4FF447
:100480000050ADF8000003208DF8020010208DF818
:10049000030069460148FFF74AFF08BD001001400C
:1004A00010B54FF400510648FFF7CCFFC0F1010032
:1004B000C4B222464FF400510148FFF7CCFF10BDF3
:1004C0000010014010B5FFF7D5FF10BD00BFFEE7DB
:1004D0007047000000F01F0201219140024A4309C9
:1004E00042F823107047000080E200E070B5002160
:1004F00000230F22C47804B3154C246804F4E0648C
:10050000C4F5E064210AC1F10403CA40447804FA46
:1005100003F184781440214309010E4C0678A1555B
:10052000047804F01F050124AC4005786D11AD007E
:1005300005F1E025C5F8004109E0047804F01F0545
:100540000124AC40044D0678761145F8264070BD74
:100550000CED00E000E400E080E100E070B5002474
:100560000EE00021204600F0E6F8002504E000201F
:1005700000F050F9681CC5B2802DF8DB601CC4B2D5
:10058000082CEEDB70BD000008B50121082000F04A
:1005900081F914208DF8030003208DF802004FF438
:1005A0008070ADF8000069460A48FFF7C0FE4FF4BE
:1005B0000070ADF8000069460648FFF7B8FE01225A
:1005C00011020448FFF747FF012251020148FFF7DB
:1005D00042FF08BD000C014070B50546002415E03F
:1005E0008020204100EA05024FF400710E48FFF719
:1005F00032FF012211020C48FFF72DFF00224FF4B9
:1006000080710948FFF727FF601CC4B2082CE7DBA4
:10061000012211020448FFF71EFF00224FF48071EF
:100620000148FFF718FF70BD000C014010B5012212
:1006300051020A48FFF70FFF012211020748FFF796
:100640000AFF00224FF400710448FFF704FF002264
:100650004FF480710148FFF7FEFE10BD000C014011
:1006600010B500224FF400710648FFF7F4FE012296
:1006700011020448FFF7EFFE012251020148FFF783
:10068000EAFE10BD000C014070B5002406E0002514
:1006900000E06D1CB5F57A7FFBD3641CB4F57A7F5E
:1006A000F5D3FFF771FFAE2000F0A4F8D52000F0DD
:1006B000A1F8802000F09EF8A82000F09BF83F20D1
:1006C00000F098F8D32000F095F8002000F092F8A0
:1006D000402000F08FF8A12000F08CF8C82000F036
:1006E00089F8DA2000F086F8122000F083F88120E3
:1006F00000F080F8CF2000F07DF8D92000F07AF8E3
:10070000F12000F077F8DB2000F074F8302000F0E2
:1007100071F8A42000F06EF8A62000F06BF88D2090
:1007200000F068F8142000F065F8AF2000F062F8DF
:10073000FFF714FF70BD70B505460C4645F0B000DC
:1007400000F058F8102141EA141000F053F804F0BA
:100750000F0000F04FF870BD2DE9F04105460E4640
:100760001746721ED206110E6A1E5206100EFFF7B1
:10077000E2FF002409E0A7F12001134A02EB011176
:10078000085D00F047F8601CC4B2082CF3DB721E51
:10079000D206110E6A1E012303EB4202D0B2FFF70C
:1007A000CAFF00240BE0A7F12001074A02EB011267
:1007B00004F10801505C00F02DF8601CC4B2082C54
:1007C000F1DBBDE8F0810000281000082DE9F041C0
:1007D00007460E461546002407E02A5D3019C1B2CF
:1007E0003846FFF7B9FF601CC4B2285D0028F4D179
:1007F000BDE8F08110B50446FFF718FF7820FFF739
:10080000EBFE0020FFF7E8FE2046FFF7E5FEFFF7CE
:1008100027FF10BD10B50446FFF708FF7820FFF74B
:10082000DBFE4020FFF7D8FE2046FFF7D5FEFFF79E
:1008300017FF10BD10B500F0ABF978B1084800887B
:10084000642804DBFFF72CFE0020054908800448DB
:100850000088401C0249088000F094F910BD000097
:10086000000000200146C88808B901207047002018
:10087000FCE7000029B1064AD2690243044BDA6161
:1008800004E0034AD2698243014BDA6170470000F9
:100890000010024029B1064A92690243044B9A6152
:1008A00004E0034A92698243014B9A617047000059
:1008B0000010024070B5044600250122214603487D
:1008C000FFF7EEFCC5B2284670BD000048000020CE
:1008D00010B500F001F810BD0CB50020019000909B
:1008E0003348006840F480303149086000BF304828
:1008F000006800F4003000900198401C01900098BE
:1009000018B90198B0F5A06FF1D12948006800F43A
:10091000003010B10120009001E00020009000980C
:10092000012843D12348006840F0100021490860A5
:100930000846006820F0030008600846006840F0A0
:10094000020008601A484068194948600846406833
:1009500048600846406840F4806048600846406847
:1009600020F47C1048600846406840F4E810486075
:100970000846006840F08070086000BF0C480068BE
:1009800000F000700028F9D00948406820F003000A
:10099000074948600846406840F00200486000BFD0
:1009A0000348406800F00C000828F9D10CBD000095
:1009B0000010024000200240704710B500F05CFAC1
:1009C000012801D000F03EFA10BD000010B5134818
:1009D000006840F00100114908600846406810496D
:1009E00008400E494860084600680E4908400B4917
:1009F00008600846006820F48020086008464068C7
:100A000020F4FE0048604FF41F008860FFF760FF8D
:100A10004FF000600449086010BD00000010024063
:100A20000000FFF8FFFFF6FE08ED00E010B5012121
:100A3000880700F03AF8012811D109480078401CD5
:100A40000749087008460078022804DB0020087077
:100A50000120044908700121880700F017F810BD33
:100A6000040000200200002010B50121054800F01C
:100A70001CF8012805D1044908700121014800F043
:100A800005F810BD0008004003000020CA430282A0
:100A9000704721B1028842F00102028004E002881E
:100AA0004FF6FE731A400280704730B502460020B0
:100AB00000230024158A05EA0103958905EA01044B
:100AC00013B10CB1012000E0002030BD1AB18389C0
:100AD0000B43838102E083898B438381704700004D
:100AE000002202881D4B98420ED01D4B98420BD01D
:100AF000B0F1804F08D01B4B984205D01A4B98425A
:100B000002D01A4B984204D14FF68F731A404B888B
:100B10001A43174B984207D0164B984204D04FF611
:100B2000FF431A40CB881A4302808B8883850B8849
:100B300003850A4B98420BD0094B984208D00E4BC4
:100B4000984205D00D4B984202D00D4B984201D1EE
:100B50000B7A03860123838270470000002C01403A
:100B6000003401400004004000080040000C004038
:100B700000100040001400400040014000440140CB
:100B80000048014000200149087070470200002021
:100B900001480078704700000200002010B547218E
:100BA00040F2E730FFF71EFB41F61F4142F20F70A3
:100BB000FFF746FB10BD000008B50020009040F292
:100BC0002551204800F069F858B12520FFF782FC34
:100BD0001C4800F0B1F8C0B200909DF8000000F091
:100BE000B7F80821174800F04BF8012806D1082172
:100BF000144800F02DF8134800F09EF840F22771D9
:100C0000104800F04AF8E0B140F227710D4800F0BA
:100C100028F82520FFF75EFC6846FFF74BFE9DF89D
:100C20000010084800F08DF80748FFF71BFE40B1A0
:100C3000002006490870002240F22771014800F0A8
:100C400056F808BD0038014048000020050000208B
:100C500001F40072B2F5007F00D100BFCA430280E8
:100C6000704710B50022002340F66A14A14200D15B
:100C700000BF0A1201249440A3B2DC43048010BDDB
:100C800002460020B1F5007F00D100BF13880B4061
:100C90000BB1012000E00020704770B5024600242F
:100CA00000230025002040F66A16B14200D100BFA3
:100CB000C1F3421501F01F03012606FA03F3012DCB
:100CC00002D19689334006E0022D02D1168A3340C4
:100CD00001E0968A33400C12012606FA04F41688C5
:100CE000344013B10CB1012000E0002070BDF0B51C
:100CF0000346002400260025002040F66A17B9426A
:100D000000D100BF1846C1F3421401F01F060127AD
:100D100007FA06F5012C01D10C3004E0022C01D1B8
:100D2000103000E014301AB107682F43076002E06A
:100D30000768AF430760F0BD01468888C0F308002C
:100D40007047C1F308028280704700BFFEE70000D1
:100D500031B50024012269460248FFF7C4FAC4B243
:100D6000204638BD5400002002E008C8121F08C108
:100D7000002AFAD170477047002001E001C1121F1C
:100D8000002AFBD170470000FFF76CFBFFF714FE51
:100D900004A201210846FFF719FD01E0FFF74AFD13
:100DA000FCE7000050726F6772616D206973204F1D
:100DB0004B21000009480068006808B9012000E0E4
:100DC000002020B14FF0FF300549086005E00348DE
:100DD0000068C06800680249086070470C00002085
:100DE000380000201248006818B10120114908603D
:100DF0001DE000200F4908600F480068B0FA80F03D
:100E0000C0F11F0101EB81020C4B03EB8200426831
:100E10005268426000F108024368934202D142687E
:100E2000526842604268D268054B1A6000BF704742
:100E3000440000202C000020200000202801002079
:100E40000800002010B500BFBF2080F31188BFF359
:100E50004F8FBFF36F8F00BF00F01EF818B14FF037
:100E600080500449086000BF002080F3118800BF53
:100E700010BD000004ED00E00549096809B9012032
:100E800005E00449096809B9022000E00020704724
:100E900024000020440000202DE9F041002757489D
:100EA000006800287ED156480068451C54480560FB
:100EB0008DB95448D0F80080534800685149086003
:100EC0005148C0F8008051480068401C4F490860F4
:100ED000FFF770FF00BF4E480068854276D300BF21
:100EE00048480068006808B9012000E0002020B1EF
:100EF0004FF0FF304649086067E042480068C0682C
:100F0000C4686668B54202D2414806605DE0606927
:100F1000D4E902128A60D4E902214A60211D4268A4
:100F20008A4201D1E1684160002262610168491E84
:100F30000160A06A98B1A06AD4E907128A60D4E976
:100F400007214A6004F1180142688A4201D1216AEE
:100F500041600022A2620168491E016000BF94F84E
:100F60002C10012088402B49096808432949086052
:100F7000E16A01EB8101284A02EB81014868A06027
:100F80008268E260211D826851608160E16A01EB44
:100F90008101214A02EB81026261E16A01EB810178
:100FA0001D4A00E022E052F82110491CE26A02EBDF
:100FB0008202194B43F822101849E06A0968C96A8D
:100FC00088428DD901278BE700E000BF13480068F5
:100FD000C06A00EB8000104951F82000012800D9B8
:100FE00001270F48006800B1012704E00D480068A0
:100FF000401C0C4908603846BDE8F08144000020E0
:101000001C0000200C0000201000002030000020F8
:1010100038000020200000202801002008000020C7
:101020002C0000202800002000000000000000002C
:101030000000000000000000000000F800000000B8
:10104000000000333000000000100C06100C0600F9
:10105000000000000000000040C07840C078400060
:10106000043F04043F040400007088FC08300000C2
:10107000001820FF211E0000F008F000E01800001A
:1010800000211C031E211E0000F0088870000000D3
:101090001E2123241927211010160E000000000025
:1010A0000000000000000000000000E01804020042
:1010B000000000071820400000020418E0000000B3
:1010C0000040201807000000404080F080404000B1
:1010D0000202010F01020200000000F00000000007
:1010E0000101011F010101000000000000000000DB
:1010F00080B0700000000000000000000000000050
:1011000000010101010101010000000000000000D8
:101110000030300000000000000000008060180473
:10112000006018060100000000E010080810E00050
:10113000000F102020100F00001010F80000000019
:101140000020203F20200000007008080888700060
:1011500000302824222130000030088888483000E0
:101160000018202020110E000000C02010F8000000
:1011700000070424243F240000F808888808080099
:101180000019212020110E0000E0108888180000AE
:10119000000F112020110E0000380808C838080080
:1011A0000000003F00000000007088080888700000
:1011B000001C222121221C0000E010080810E00081
:1011C0000000312222110F00000000C0C00000000A
:1011D000000000303000000000000080000000002F
:1011E0000000806000000000000080402010080027
:1011F00000010204081020004040404040404000F0
:1012000004040404040404000008102040800000CA
:101210000020100804020100007048080808F000CF
:101220000000003036010000C030C828E810E0009F
:101230000718272423140B000000C038E00000002A
:10124000203C23020227382008F888888870000094
:10125000203F202020110E00C03008080808380068
:10126000071820202010080008F808080810E000DF
:10127000203F202020100F0008F88888E808100080
:10128000203F20202320180008F88888E808100054
:10129000203F200003000000C0300808083800008C
:1012A00007182020221E020008F808000008F8088D
:1012B000203F210101213F20000808F80808000014
:1012C0000020203F2020000000000808F808080047
:1012D000C08080807F00000008F888C028180800BF
:1012E000203F20012638200008F8080000000000F8
:1012F000203F20202020300008F8F800F8F80800EF
:10130000203F003F003F200008F830C00008F808E8
:10131000203F200007183F00E01008080810E000F8
:101320000F10202020100F0008F808080808F0000F
:10133000203F210101010000E01008080810E00032
:101340000F18242438504F0008F8888888887000C7
:10135000203F2000030C3020007088080808380067
:101360000038202121221C00180808F8080818005D
:101370000000203F2000000008F808000008F808DE
:10138000001F202020201F000878880000C838088F
:10139000000007380E010000F80800F80008F80007
:1013A000033C0700073C03000818688080681808A1
:1013B00020302C03032C30200838C800C83808001F
:1013C0000000203F2000000010080808C83808006E
:1013D0002038262120201800000000FE0202020012
:1013E0000000007F40404000000C30C000000000C2
:1013F000000000010638C00000020202FE000000EA
:10140000004040407F00000000000402020204008F
:1014100000000000000000000000000000000000CC
:1014200080808080808080800002020400000000B4
:1014300000000000000000000000808080800000AC
:101440000019242222223F2008F80080800000009A
:10145000003F112020110E0000000080808000005D
:10146000000E112020201100000000808088F8006C
:10147000000E112020103F2000008080808000009E
:10148000001F222222221300008080F08888881802
:101490000020203F2020000000008080808080000D
:1014A000006B94949493600008F8008080800000A2
:1014B000203F210000203F2000809898000000007D
:1014C0000020203F202000000000008098980000AD
:1014D00000C08080807F000008F8000080808000CD
:1014E000203F24022D302000000808F800000000F2
:1014F0000020203F202000008080808080808000AD
:10150000203F20003F20003F80800080808000003E
:10151000203F210000203F200000808080800000CC
:10152000001F202020201F008080008080000000FD
:1015300080FFA12020110E0000000080808080002C
:10154000000E112020A0FF8080808000808080001D
:1015500020203F212000010000008080808080004A
:101560000033242424241900008080E080800000BF
:101570000000001F2020000080800000008080000C
:10158000001F202020103F2080808000008080806D
:1015900000010E30080601008080008000808080FD
:1015A0000F300C030C300F00008080008080800022
:1015B0000020312E0E31200080808000008080804D
:1015C00080818E70180601000080808080808000FD
:1015D0000021302C2221300000000000807C02021B
:1015E00000000000003F404000000000FF0000003D
:1015F00000000000FF0000000002027C80000000EC
:101600000040403F00000000000601010202040407
:101610000000000000000000381600080000002054
:1016200048000000680D00088016000848000020EF
:10163000C8070000780D000800000000000000004E
:10164000000000000000000000000000000000009A
:10165000000000000000000000000000000000008A
:10166000000000000000000000000000000000007A
:1016700000000000000000001F000000000000004B
:04000005080000ED02
:00000001FF
