:020000040800F2
:10000000A84C0020DD0100088D0D0008B107000894
:10001000890D00086D020008331800080000000078
:100020000000000000000000000000004501000882
:10003000BD0400080000000089010008ED1200085E
:10004000F7010008F7010008F7010008F7010008B0
:10005000F7010008F7010008F7010008F7010008A0
:10006000F7010008F7010008F7010008F701000890
:10007000F7010008F7010008F7010008F701000880
:10008000F7010008F7010008F7010008F701000870
:10009000F7010008F7010008F7010008F701000860
:1000A000F7010008F7010008F7010008F701000850
:1000B000C5130008F7010008F7010008F701000860
:1000C000F7010008F7010008F7010008F701000830
:1000D000F701000899150008F7010008F70100086A
:1000E000F7010008F7010008F7010008F701000810
:1000F000F7010008F7010008F7010008F701000800
:10010000F7010008F701000801140008F7010008D2
:10011000F7010008F7010008F7010008F7010008DF
:10012000F7010008F7010008F7010008F7010008CF
:10013000DFF80CD000F088F8004800476F1800087E
:10014000A84C0020224B19680868B0E8F00F80F333
:100150000988BFF36F8F4FF0000080F311884EF0D5
:100160000D0E70470000000006480068006880F32C
:10017000088862B661B6BFF34F8FBFF36F8F00DFA1
:1001800000BF00BF08ED00E0EFF30980BFF36F8F01
:100190000F4B1A6820E9F00F106008B54FF0BF0050
:1001A00080F31188BFF34F8FBFF36F8F02F06AFAAD
:1001B0004FF0000080F31188BDE808401968086816
:1001C000B0E8F00F80F30988BFF36F8F704700BF6E
:1001D00044000020EFF30580704700000648804788
:1001E00006480047FEE7FEE7FEE7FEE7FEE7FEE71C
:1001F000FEE7FEE7FEE7FEE76513000831010008B1
:1002000040EA01039B0703D009E008C9121F08C098
:10021000042AFAD203E011F8013B00F8013B521E18
:10022000F9D27047D2B201E000F8012B491EFBD28F
:1002300070470022F6E710B513460A4604461946F1
:10024000FFF7F0FF204610BD064C074D06E0E068C2
:1002500040F0010394E8070098471034AC42F6D30D
:10026000FFF76AFF642E0008842E000800BFFEE737
:100270000020014908707047130000200020014948
:10028000087070471200002010B54FF4A06000F015
:10029000C3FD10BD10B500F00BFE4FF4803000F030
:1002A000C9FE00F025FF0446012C24D1102000F0E7
:1002B0006BF9022000F076F9002000F0AFFE00207C
:1002C00000F0EAFEA00200F0DBFE4FF4E011200493
:1002D00000F0F4FE012000F0EBFE00BF392000F03A
:1002E00077FE0028FAD0022000F0F6FE00BF00F0F2
:1002F0008DFE0828FBD110BD7FB505460C460121B7
:10030000084600F0B5FDADF80850ADF804400020F7
:10031000ADF80A00ADF8060001A94FF0804001F0E9
:10032000BDF801221146900701F0AEF81C208DF8AF
:10033000000000208DF8010003208DF8020001204C
:100340008DF80300684600F02FFD0121880701F0B9
:100350007EF87FBD7FB505460C460121082000F0E0
:1003600087FDADF80850ADF804400020ADF80A0054
:10037000ADF8060001A90E4801F090F801221146DF
:100380000B4801F081F832208DF8000000208DF834
:10039000010003208DF8020001208DF8030068465B
:1003A00000F002FD0121024801F051F87FBD00007C
:1003B000000C004010B586B004460121880300F00F
:1003C00067FD0121042000F063FD4FF40070ADF8DB
:1003D000140018208DF8170003208DF8160005A9C9
:1003E000224800F003F94FF48060ADF814000420B7
:1003F0008DF8170005A91D4800F0F8F801A801F0D4
:100400000CFA01940020ADF80800ADF80A00ADF830
:100410000C000C20ADF80E000020ADF8100001A972
:10042000134801F085F925208DF8000001208DF892
:1004300001008DF802008DF80300684600F0B4FC5E
:10044000012240F225510A4801F04DF9012240F203
:100450002771074801F047F90121054801F000F92B
:1004600000200449087006B010BD000000080140DB
:10047000003801401800002030B50346002016E087
:10048000B3F900509C68645D0C541C88641C24B251
:100490001C80B3F90040B3F90450AC4201DB0024E6
:1004A0001C80441C20B2DC88641E24B2DC80B3F9BA
:1004B0000640002C01DD9042E2DB30BD7047F8B50C
:1004C00004460D4616461F4644F208202B46324687
:1004D00029460090204600F0EAF948F210406A1CD4
:1004E00093B291B2621C009090B2324600F0DFF9F4
:1004F00044F208203B46224629460090204600F060
:10050000D6F948F21040631C9AB26B1C99B2631C76
:10051000009098B23B4600F0CAF94FF6FF703B4698
:10052000324639460090204600F0C1F94FF6FF7080
:100530003B46324629460090304600F0B8F9F8BDF7
:1005400070B50346002016E00C5CB3F902609D68AC
:10055000AC555C88641C24B25C80B3F90240B3F9EA
:100560000450AC4201DB00245C80441C20B2DC88D7
:10057000641C24B2DC80B3F90640B3F90450AC42E9
:1005800001DA9042E0DB70BD0549096821F01001F5
:10059000034A116011460968014311607047000069
:1005A0000020024001460020034A106800F0380095
:1005B0000843106070470000002002401CB5064848
:1005C000012100238022CDE9001004A1064802F099
:1005D000E5F902F013F81CBD0000002053746172AD
:1005E000745F5461736B00006D1200082DE9F041D7
:1005F000024600250026002000230024002791F851
:1006000003C00CF00F0591F803C00CF0100CBCF106
:10061000000F03D091F802C04CEA050591F800C024
:10062000BCF1000F31D0146800202BE04FF0010C1A
:100630000CFA00F3B1F800C00CEA03069E4220D188
:1006400083004FF00F0C0CFA03F7BC4305FA03FCD0
:100650004CEA040491F803C0BCF1280F06D14FF016
:10066000010C0CFA00FCC2F814C00AE091F803C0B7
:10067000BCF1480F05D14FF0010C0CFA00FCC2F898
:1006800010C0401C0828D1D31460B1F800C0BCF1E0
:10069000FF0F34DD546800202EE000F1080C4FF00D
:1006A000010808FA0CF3B1F800C00CEA03069E42F8
:1006B00021D183004FF00F0C0CFA03F7BC4305FA6D
:1006C00003FC4CEA040491F803C0BCF1280F05D1E7
:1006D00000F1080C08FA0CF8C2F8148091F803C075
:1006E000BCF1480F07D100F1080C4FF0010808FADF
:1006F0000CF8C2F81080401C0828CED35460BDE826
:10070000F0810000F0B50A460023002400210025F6
:1007100000F00046B6F1004F02D11D4EF16901E034
:100720001B4E7168C0F3034583B200F44016B6F562
:10073000401F08D121F07061154E766826F0706672
:10074000134F7E6012E000F48016B6F5801F06D1CC
:10075000032606FA05F4A14341F0706106E0460D58
:10076000360103FA06F6B14341F0706122B1460D3D
:10077000360103FA06F6314300F00046B6F1004FA9
:1007800002D1034EF16101E0014E7160F0BD000045
:100790000000014041617047014800787047000047
:1007A000130000200148007870470000120000206C
:1007B00000BFFEE710B500F0D5FD00F00DF800F029
:1007C00021F84FF4E13000F031F800F023F800F0A8
:1007D00095FD00F0B7FA10BD10B5FFF755FD10BD3F
:1007E00030B50B460024048044808280C48083603E
:1007F000002104E0002485686C544C1C21B2914215
:10080000F8DB30BD10B5FFF745FD10BD10B5FFF7A3
:10081000D5FE10BD10B5472140F2E730FFF76CFD63
:10082000472140F2E730FFF795FD10BD10B50446B3
:1008300000F004F82046FFF7BDFD10BD10B5002400
:1008400006E000200949085509490855601C04B212
:10085000642CF6DB642205490648FFF7C1FF6422D9
:1008600003490548FFF7BCFF10BD0000D000002081
:1008700034010020B8000020C400002070B50646F6
:100880007F231A460021084600F0E6F92C2000F0EC
:1008900045FA002408E0002503E0304600F026FA7F
:1008A0006D1C802DF9D3641C802CF4D370BD2DE910
:1008B000FF4F82B0804689464946404600F0F7F92E
:1008C0000498A0EB08050598A0EB0906002D02DBB3
:1008D0000120019003E04FF0FF3001906D42002EA7
:1008E00002DB0120009003E04FF0FF3000907642E1
:1008F0004FEA450A4FEA460BB54219DDABEB05045A
:10090000002712E0494640460F9A00F02DF8002CCF
:1009100005DBA4EB0A04009848441FFA80F95C4404
:10092000019840441FFA80F87F1CAF42EADD18E0CE
:10093000AAEB0604002712E0494640460F9A00F051
:1009400013F8002C05DBA4EB0B04019840441FFABC
:1009500080F85444009848441FFA80F97F1CB7423D
:10096000EADD06B0BDE8F08F70B504460D461646C8
:10097000681C83B2601C82B22946204600F06CF9E4
:10098000304600F0B3F970BD08B50121082000F031
:100990007FFA4FF48070ADF8000010208DF803004E
:1009A00003208DF8020069461348FFF71FFE4FF43D
:1009B0000070ADF8000069460F48FFF717FE4020B1
:1009C000ADF8000069460C48FFF710FE2020ADF896
:1009D000000069460848FFF709FE8020ADF80000D6
:1009E00069460548FFF702FE1020ADF80000694691
:1009F0000148FFF7FBFD08BD000C014010B5FFF7F3
:100A0000C3FF00F015F9112000F088F9782001F0FB
:100A100029FDB12000F082F9012000F053F92C20CB
:100A200000F050F92D2000F04DF9B22000F076F9D9
:100A3000012000F047F92C2000F044F92D2000F0AF
:100A400041F9B32000F06AF9012000F03BF92C20B5
:100A500000F038F92D2000F035F9012000F032F9CE
:100A60002C2000F02FF92D2000F02CF9B42000F0FC
:100A700055F9072000F026F9C02000F04FF9A22018
:100A800000F020F9022000F01DF9842000F01AF98E
:100A9000C12000F043F9C52000F014F9C22000F095
:100AA0003DF90A2000F00EF9002000F00BF9C320F8
:100AB00000F034F98A2000F005F92A2000F002F94C
:100AC000C42000F02BF98A2000F0FCF8EE2000F0A2
:100AD000F9F8C52000F022F90E2000F0F3F83620D6
:100AE00000F01CF9C82000F0EDF8E02000F016F945
:100AF0000F2000F0E7F81A2000F0E4F80F2000F0D3
:100B0000E1F8182000F0DEF82F2000F0DBF82820B4
:100B100000F0D8F8202000F0D5F8222000F0D2F81C
:100B20001F2000F0CFF81B2000F0CCF8232000F0AD
:100B3000C9F8372000F0C6F8002000F0C3F80720FD
:100B400000F0C0F8022000F0BDF8102000F0BAF864
:100B5000E12000F0E3F80F2000F0B4F81B2000F0D3
:100B6000B1F80F2000F0AEF8172000F0ABF83320FA
:100B700000F0A8F82C2000F0A5F8292000F0A2F839
:100B80002E2000F09FF8302000F09CF8302000F07C
:100B900099F8392000F096F83F2000F093F80020F3
:100BA00000F090F8072000F08DF8032000F08AF89C
:100BB000102000F087F82A2000F0B0F8002000F0A4
:100BC00081F8002000F07EF8002000F07BF87F2004
:100BD00000F078F82B2000F0A1F8002000F072F867
:100BE000002000F06FF8002000F06CF89F2000F06B
:100BF00069F8F02000F092F8012000F063F8F62088
:100C000000F08CF8002000F05DF83A2000F086F843
:100C1000052000F057F8292000F080F810BD10B52D
:100C20000446FFF7EBFE002001F036FC10BD00008B
:100C300010B5002006490860052001F013FC0120D2
:100C40000449C1F89801322001F00CFC10BD0000ED
:100C50009881214200802142F0B504460D46164697
:100C60001F462A2000F05AF8002000F02BF8A11CA3
:100C7000C8B200F027F8002000F024F8B11CC8B278
:100C800000F020F82B2000F049F8002000F01AF8BE
:100C9000E91CC8B200F016F8002000F013F8F91CA7
:100CA000C8B200F00FF82C2000F038F8F0BD30B5D5
:100CB00004460D462B46224629462046FFF7CCFF28
:100CC00030BD000010B50446002006490860012030
:100CD0000549C1F89401204600F034FA0120014989
:100CE000086010BD9C8121420080214210B504465D
:100CF00000200849086001200749C1F8940120122A
:100D000000F020FAE0B200F01DFA0120014908606D
:100D100010BD00009C8121420080214210B5044694
:100D20000020064908600649C1F89401204600F0F9
:100D300009FA01200149086010BD00009C81214290
:100D40000080214208B50121052000F0A1F8012111
:100D50000B48FFF7D7FC4FF48070ADF8000010206F
:100D60008DF8030003208DF8020069460548FFF75F
:100D70003DFC4FF480710348FFF70CFD08BD0000F7
:100D8000000230000008014000BFFEE7704700008D
:100D900000F01F0201219140024A430942F823104A
:100DA0007047000080E200E070B5002100230F22B0
:100DB000C47804B3154C246804F4E064C4F5E0641A
:100DC000210AC1F10403CA40447804FA03F184788B
:100DD0001440214309010E4C0678A155047804F013
:100DE0001F050124AC4005786D11AD0005F1E0252B
:100DF000C5F8004109E0047804F01F050124AC4067
:100E0000044D0678761145F8264070BD0CED00E0E3
:100E100000E400E080E100E002490143024A116081
:100E2000704700000000FA050CED00E010B5FFF778
:100E3000B3FC08B1FFF71CFA10BD000010B5FFF7B6
:100E4000B1FC38B104480068C0430449C1F8A001AE
:100E5000FFF714FA10BD0000A0012142000021425A
:100E60000146C88808B9012070470020FCE700004F
:100E700029B1064AD2690243044BDA6104E0034A0D
:100E8000D2698243014BDA617047000000100240D2
:100E900029B1064A92690243044B9A6104E0034A6D
:100EA00092698243014B9A61704700000010024032
:100EB0000F48006840F001000D490860084640688E
:100EC0000C4908400A494860084600680A49084039
:100ED000074908600846006820F48020086008463A
:100EE000406820F4FE0048604FF41F00886070479F
:100EF000001002400000FFF8FFFFF6FE30B50021B1
:100F00000022002400232D4D6D6805F00C0121B155
:100F1000042905D0082923D105E0294D056022E0E8
:100F2000274D05601FE0254D6D6805F47012234DB7
:100F30006D6805F48034022505EB92421CB9214D01
:100F4000554305600BE01D4D6D6805F400351DB17E
:100F50001C4D5543056002E0194D5543056002E004
:100F6000174D056000BF00BF144D6D6805F0F0011E
:100F70000909154D6B5C0568DD4045600F4D6D68D6
:100F800005F4E061090A104D6B5C4568DD40856041
:100F90000A4D6D6805F46051C90A0B4D6B5C4568DC
:100FA000DD40C560054D6D6805F44041890B074D76
:100FB0006B5CC568B5FBF3F5056130BD0010024000
:100FC00000127A0000093D001900002029000020CD
:100FD00010B501460022002300204A11012A02D147
:100FE000094C236806E0022A02D1074C236A01E07B
:100FF000054C636A01F01F02012494401C400CB1AF
:10100000012000E0002010BD0010024002484068AE
:1010100000F00C0070470000001002400146002064
:10102000034A506820F0F000084350607047000009
:10103000001002401149096821F480310F4A116003
:101040001146096821F480211160B0F5803F03D07A
:10105000B0F5802F0ED106E00849096841F48031CF
:10106000064A116007E00549096841F4A021034AD6
:10107000116000E000BF00BF704700000010024098
:1010800001460020034A506820F4E06008435060A5
:10109000704700000010024001460020034A5068DB
:1010A00020F4605040EAC1005060704700100240D8
:1010B00001490866704700000000424202460020D5
:1010C000044B586820F47C1042EA01031843014B9A
:1010D000586070470010024001460020034A5068E3
:1010E00020F00300084350607047000000100240E9
:1010F00038B5002000900024002500BF3120FFF704
:1011000067FF05460098401C00900098B0F5A06F5E
:1011100001D0002DF2D03120FFF75AFF08B1012491
:1011200000E00024204638BD70B5044600250122A9
:1011300021460348FFF7A0F9C5B2284670BD00005C
:10114000B80000200021082115E000F080021AB14B
:1011500001220A4B1A6002E00022084B1A600022AA
:10116000064B1B1F1A600122054BC3F8A021420643
:10117000100E4A1ED1B20029E7DC7047A48121423B
:101180000080214210B500F001F810BD0CB5002020
:10119000019000903348006840F480303149086085
:1011A00000BF3048006800F4003000900198401CF7
:1011B0000190009818B90198B0F5A06FF1D12948B5
:1011C000006800F4003010B10120009001E0002020
:1011D00000900098012843D12348006840F0100097
:1011E000214908600846006820F0030008600846AE
:1011F000006840F0020008601A48406819494860D9
:101200000846406848600846406840F4806048608E
:101210000846406820F47C1048600846406840F466
:10122000E81048600846006840F08070086000BF21
:101230000C48006800F000700028F9D009484068A8
:1012400020F00300074948600846406840F002006B
:10125000486000BF0348406800F00C000828F9D13E
:101260000CBD000000100240002002401CB50446E6
:101270001048022100238022CDE900100EA1104861
:1012800001F08CFB0F48032100238022CDE90010E0
:101290000DA10F4801F082FB0E480121002380229E
:1012A000CDE900100CA1104801F078FB002001F0FE
:1012B000F3F81CBD040000205461736B3100000082
:1012C00041150008080000205461736B32000000D3
:1012D000611500080C0000204C43445F496E69749E
:1012E0005F7461736B0000001F0C000810B501F003
:1012F00089FB012801D001F00FFA10BD30B5164866
:1013000000684FF47A72B0FBF2F1B1F1807F01D343
:1013100001201DE021F07F40401E4FF0E02250618F
:1013200050170F22002807DA13071D0E0B4B00F091
:101330000F04241F1D5503E013071C0E084B1C54FB
:1013400000BF00204FF0E0229061072010610020D4
:1013500008B100BFFEE730BD3000002018ED00E00E
:1013600000E400E010B51348006840F001001149A6
:10137000086008464068104908400E494860084621
:1013800000680E4908400B4908600846006820F4D0
:10139000802008600846406820F4FE0048604FF452
:1013A0001F008860FFF7EEFE4FF000600449086000
:1013B00010BD0000001002400000FFF8FFFFF6FE25
:1013C00008ED00E010B50121880700F04CF8012875
:1013D00003D10121800700F037F807480088401C3E
:1013E0000549088008460088022804DB00200880A0
:1013F00001200249087010BD1400002012000020D6
:1014000010B501210D4800F02EF8012803D101216B
:101410000A4800F019F80A480088401C00B2084940
:1014200008800846B0F90000B0F57A7F04DB0020A0
:10143000088001200349087010BD0000000C004026
:101440001600002013000020CA430282704721B119
:10145000028842F00102028004E002884FF6FE7327
:101460001A400280704730B5024600200023002455
:10147000158A05EA0103958905EA010413B10CB147
:10148000012000E0002030BD1AB183890B43838125
:1014900002E083898B438381704700000022028829
:1014A0001D4B98420ED01D4B98420BD0B0F1804F8F
:1014B00008D01B4B984205D01A4B984202D01A4BC9
:1014C000984204D14FF68F731A404B881A43174B3A
:1014D000984207D0164B984204D04FF6FF431A406B
:1014E000CB881A4302808B8883850B8803850A4B3F
:1014F00098420BD0094B984208D00E4B984205D029
:101500000D4B984202D00D4B984201D10B7A0386C5
:101510000123838270470000002C01400034014009
:101520000004004000080040000C00400010004093
:1015300000140040004001400044014000480140C8
:1015400009E005480068C0430449C1F8A0014FF410
:10155000FA7000F087FFF4E7A00121420000214269
:1015600015E04FF6FF720A4801780A480078FFF745
:10157000FBF908480078401C0649087004480078C8
:10158000401C034908704FF4FA7000F06BFFE8E765
:10159000110000201000002008B50020009040F24B
:1015A0002551204800F075F858B12520FFF7F0FBD1
:1015B0001C4800F029F9C0B200909DF8000000F02E
:1015C0003BF90821174800F057F8012806D10821F7
:1015D000144800F02DF8134800F016F940F2277176
:1015E000104800F056F8E0B140F227710D4800F0C5
:1015F00028F82520FFF7CCFB6846FFF795FD9DF8FE
:101600000010084800F005F90748FFF729FC40B131
:10161000002006490870002240F22771014800F0BE
:1016200062F808BD00380140B80000201800002012
:1016300001F40072B2F5007F00D100BFCA430280FE
:10164000704710B50022002340F66A14A14200D171
:1016500000BF0A1201249440A3B2DC43048010BDF1
:1016600021B1828942F40052828104E082894DF6E0
:10167000FF731A408281704702460020B1F5007F57
:1016800000D100BF13880B400BB1012000E0002007
:10169000704770B50246002400230025002040F664
:1016A0006A16B14200D100BFC1F3421501F01F0319
:1016B000012606FA03F3012D02D19689334006E094
:1016C000022D02D1168A334001E0968A33400C1273
:1016D000012606FA04F41688344013B10CB1012037
:1016E00000E0002070BDF0B5034600240026002570
:1016F000002040F66A17B94200D100BF1846C1F376
:10170000421401F01F06012707FA06F5012C01D14A
:101710000C3004E0022C01D1103000E014301AB17A
:1017200007682F43076002E00768AF430760F0BD1A
:101730002DE9F04786B005460E460024A24600BFBC
:10174000A1460027B08900B100BF2F462C8A4CF675
:10175000FF700440F08804432C82AC894EF6F310ED
:101760000440B08831890843718908430443AC813F
:10177000AC8A4FF6FF400440B0890443AC8201A814
:10178000FFF7BCFB1F48874202D1DDF810A001E043
:10179000DDF80CA0A88900F4004040B10AEBCA00B3
:1017A00000EB0A1031684900B0FBF1F807E00AEBE2
:1017B000CA0000EB0A1031688900B0FBF1F8642020
:1017C000B8FBF0F004012009642101FB1089A8890D
:1017D00000F4004040B1322000EBC900B0FBF1F052
:1017E00000F00700044308E0322000EB09106421F8
:1017F000B0FBF1F000F00F0004432C8106B0BDE80F
:10180000F08700000038014001468888C0F30800D6
:101810007047C1F30802828070474FF4165101608F
:1018200000218180C18001810C21418100218181C1
:10183000704700BFFEE7000031B500240122694671
:101840000248FEF77DFEC4B2204638BDC400002029
:1018500002E008C8121F08C1002AFAD17047704779
:10186000002001E001C1121F002AFBD17047FEF7E2
:10187000A1FFFEF7CBFF0020FFF700F828231A4650
:101880001E210846FEF71BFE03E0FFF7D7FAFFF71D
:10189000CDFAFAE72DE9F04105460E4626480768DD
:1018A00026480068001D00F013FD50B92348006869
:1018B00090F82C1001208840214909688143204874
:1018C0000160681CD8B9D6B11E4948681B4909682F
:1018D00088601A4982680968CA6018490968091D40
:1018E0008268516015490968091D8160154A1349CC
:1018F00009684A6111460968491C11601AE07C199F
:101900000E4800684460BC4207D20C480168091DBB
:101910000D48006800F006FD0CE008480168091D4C
:101920000A48006800F0FEFC09480068844201D2C1
:1019300007480460BDE8F081580000204400002002
:101940005C000020680400204C00002048000020BB
:101950007400002010B5044600F00AFD314800680C
:10196000401C304908603048006840B92E48046087
:101970000846006801280DD100F0BCF90AE02B48A8
:10198000006838B928480068C06AE16A884201D80E
:101990002548046026480068401C25490860084620
:1019A0000068606494F82C1001208840214909687F
:1019B000084320490860E16A01EB81011E4A02EBFD
:1019C00081014868A0608268E260211D82685160E0
:1019D0008160E16A01EB8101174A02EB81026261D9
:1019E000E16A01EB8101144A52F82110491CE26AB4
:1019F00002EB8202104B43F8221000F0CBFC0B48A4
:101A0000006868B108480068C06AE16A884207D285
:101A10004FF0805009490860BFF34F8FBFF36F8FBD
:101A200010BD000054000020440000206000002091
:101A3000700000205C0000209801002004ED00E010
:101A400010B500F095FC0C48006890B90B4800F008
:101A500059FC0B4800F056FC08480A490860084841
:101A60000949086000220C21052000F06FFE0249A0
:101A7000086000F08FFC10BD8C0000207C0400206A
:101A800090040020840000208800002010B516E09B
:101A900000F06EFC0C48C068C468201D00F018FC03
:101AA0000A480068401E0949086009480068401E4D
:101AB0000749086000F06EFC204600F055F8044825
:101AC00000680028E4D110BD540400205400002018
:101AD0005000002070B504460D46206C70B1216C9A
:101AE000E0680144E160D4E90210884201D3216832
:101AF000E1602846226CE168FEF782FB70BD2DE9AB
:101B0000F04104460F4615464FF00008A66B206CC6
:101B100028B37DB93946226C6068FEF771FB216CF1
:101B2000606808446060D4E90101884217D32068E6
:101B3000606014E03946226CE068FEF761FB216CBE
:101B4000E068411AE1602168E068884203D2216CB4
:101B5000A068411AE160022D01D106B1761E701C09
:101B6000A0634046BDE8F08110B50446206B00F04C
:101B700021FC204600F01EFC10BD00000146084A72
:101B8000126812680AB9012200E000220A600A689D
:101B900022B9034A1268D268106800E0002070473A
:101BA0008400002030B54FF48843154800F0070446
:101BB0002CB1C01D20F00700114C041B1B1B02465A
:101BC000104C226000240F4D6C60D018083820F0B3
:101BD00007000D4C206000240B4D2D686C600A4DF1
:101BE0002D682C601146441A4C60074C24680C6028
:101BF000064D4C682C60064D4C682C6030BD0000D2
:101C0000A404002098000020A0000020A8000020CC
:101C1000A400002000BFFFF739FF06480068012834
:101C2000F9D94FF0805004490860BFF34F8FBFF3DC
:101C30006F8FF0E79801002004ED00E02DE9F041FE
:101C400006460D4617469846069C0DB9246000E0EE
:101C50002760E66325640121204600F09DFD84F89D
:101C600050800020A064BDE8F0812DE9F05F81463E
:101C70000E4617469A46DDF828800C9CB900A5222E
:101C8000206BFEF7CFFA781E216B01EB800B2BF057
:101C9000070B7EB1002507E0715D04F1340041556A
:101CA000705D00B902E06D1C102DF5D300BF00215E
:101CB00043200155B8F1200F01D34FF01F08C4F89D
:101CC0002C80201D00F02BFB04F1180000F027FBF6
:101CD0002461C8F12000A06164625246494658461A
:101CE00000F0E4FA20600B9808B10B980460BDE89E
:101CF000F09F000010B5002407E004EB84010F4AB8
:101D000002EB810000F0FEFA641C202CF5D30C4895
:101D100000F0F8FA0B4800F0F5FA0B4800F0F2FA80
:101D20000A4800F0EFFA0A4800F0ECFA04480949C2
:101D3000086004480849086010BD000098010020B0
:101D4000180400202C04002040040020540400202B
:101D500068040020480000204C00002010B5014617
:101D6000164800E0006803688B42FBD302464368D4
:101D700013448B4204D143684C68234443600146BA
:101D80000A464B6813440468A34211D10C4C036803
:101D90002468A34208D04B680468646823444B60FD
:101DA00003681B680B6005E0054B1B680B6001E0D6
:101DB00003680B60884200D0016010BD98000020CD
:101DC000A00000202DE9F04104460D4616461F46AE
:101DD0004FF0000865602461B5420CD8F01BA16982
:101DE000884202D34FF0010811E0211D0948006824
:101DF00000F098FA0BE0BE4204D2BD4202D34FF08D
:101E0000010804E0211D0448006800F08BFA4046F8
:101E1000BDE8F081880000208400002070B50546F0
:101E200000F0A6FAA86B08B9012400E0002400F035
:101E3000B1FA204670BDF1B50098846C0026A06B05
:101E4000E16B884221D294F9455000226946204630
:101E5000FFF755FE0646681C60B9606A08B90120A4
:101E600000E0002080B904F1240000F0A9FE58B180
:101E7000012609E000F040FA0746BD4203D2681C83
:101E800040B284F8450000BF00BF3046F8BD0000F6
:101E900070B505460E460E480068C068C468201D2F
:101EA00000F016FA94F8280000F0040028B1324639
:101EB0002946204600F0C4F805E094F8280000F018
:101EC000FE0084F828002046216A884770BD000083
:101ED000840000207FB56EE0019800286BDB039C36
:101EE000606908B9012000E0002010B9201D00F051
:101EF000EFF9684600F0D0F8054601980A2858D254
:101F0000DFE800F05705072E364706082F3700BFD9
:101F100000BF00BF94F8280040F0010084F82800BA
:101F20000298A269811803462A462046FFF74AFF15
:101F3000A8B194F8280000F0040038B10298A26912
:101F400081182A46204600F07BF805E094F8280026
:101F500000F0FE0084F828002046216A884729E026
:101F600000BF94F8280000F0FE0084F8280021E06B
:101F700000BF94F8280040F0010084F8280002987F
:101F8000A061A06941192B462A462046FFF71AFF97
:101F900010E094F8280000F0020018B9204600F084
:101FA00009FA05E094F8280000F0FE0084F8280003
:101FB00000E000BF00BF002201A90348006800F054
:101FC0003BFC002888D17FBD8C000020F8B5054679
:101FD0000C4600F04FFB684600F05EF8064600989D
:101FE00020BB44B9B54206D800F06EFE3146284603
:101FF000FFF74EFF1CE03CB10E480068006808B9CE
:10200000012000E000200446A91B22460A4800687F
:1020100000F002FA00F058FE50B94FF08050074926
:102020000860BFF34F8FBFF36F8F01E000F04CFEED
:10203000F8BD0000880000208C00002004ED00E0C6
:1020400070B504460D46164604E0A06905442046D6
:10205000216A8847A06941192B4632462046FFF77E
:10206000B1FE0028F1D170BD09480068006808B9C8
:10207000012000E0002020B14FF0FF30054908604A
:1020800005E003480068C0680068024908607047BE
:10209000480000207400002070B5044600F0C2FC27
:1020A000054607480068854204D200F00BF801207D
:1020B000206001E00020206001480560284670BDD6
:1020C0009400002070B508E00D480068C0680468FE
:1020D0004FF0FF312046FFF7DBFE0948006800683B
:1020E00008B9012000E000200028EDD00448056870
:1020F00004480068024908600248056070BD00009D
:10210000840000208800002000BFBF2080F31188D9
:10211000BFF34F8FBFF36F8F00BF00BFFEE708B55F
:1021200000BF6846FFF72AFD044620460099FFF7E6
:102130004DFFFFF7CFFEF4E770B5044600F018F945
:1021400094F9455019E0A06C30B12046FFF773FEBA
:1021500088B100F017FA0EE0606A08B9012000E0CB
:10216000002038B904F1240000F02AFD18B100F075
:1021700009FA00E003E0681E45B2002DE3DC00BF71
:10218000FF2084F8450000F005F900F0F1F894F91B
:10219000445010E0206908B9012000E0002048B94F
:1021A00004F1100000F00CFD08B100F0EBF9681E1E
:1021B00045B200E001E0002DECDC00BFFF2084F818
:1021C000440000F0E7F870BD2DE9F04705464FF0F8
:1021D000000900F04FFA3048006808B9FFF7E2FC48
:1021E00075B105F00700C0F11008C8F1FF30A84232
:1021F00001D2012000E0002008B9454400E000259C
:10220000012000EBE570002841D0002D3FD023488D
:10221000006885423BD8224E3046046801E02646DD
:1022200024686068A84202D220680028F7D11A48C2
:10223000006884422BD0306800F1080920683060C3
:102240006068401B102807D967196068401B7860D8
:1022500065603846FFF782FD104960680968081A12
:102260000E490860084600680E490968884203D292
:102270000A4800680B490860606840F000406060F0
:102280000020206008480068401C0749086000F0F2
:102290001BFD4846BDE8F087A0000020A4000020F8
:1022A00098000020A8000020AC000020001F4FF084
:1022B00080730360001F21F001030360001F034BC4
:1022C00003601438026020387047000009210008BC
:1022D00001460A69D1E901309860D1E901035860EB
:1022E0005068884201D188685060002008611068F9
:1022F000401E106010687047014800687047000079
:102300005400002000F1080141604FF0FF3181606E
:1023100000F10801C16001610021016070470021E6
:102320000161704710B502460B685C1C0CB910695E
:1023300007E002F1080000E04068446824689C421D
:10234000FAD944684C604C68A160886041600A61B9
:102350001468641C146010BD42684A6093688B6006
:10236000936859609160086103685B1C0360704763
:1023700000BFBF2080F31188BFF34F8FBFF36F8F73
:1023800000BF03480068401C014908607047000016
:10239000B400002006480068401E05490860084651
:1023A000006820B9002080F3118800BF00BF70478B
:1023B000B400002070B506463546E6B1083D2C460F
:1023C0006068C00FB8B12068A8B9606820F000400C
:1023D000606000F04FF908496068096808440649E0
:1023E00008602046FFF7BAFC04480068401C034917
:1023F000086000F069FC70BDA4000020B00000205F
:1024000000204FF0E0210861886102484861072000
:10241000086170473F1901002DE9F04105460E465D
:1024200017462C46FFF7A4FF94F94400401C10B94E
:10243000002084F8440094F94500401C10B90020A5
:1024400084F84500FFF7A6FFA06B28B93A4631464D
:1024500004F1240000F0ACF82046FFF76DFEBDE863
:10246000F081000070B50446002544B100F002F987
:1024700000212046FFF70EFA00F026FC05463DB984
:102480004FF0805003490860BFF34F8FBFF36F8F49
:1024900070BD000004ED00E070B50546FFF768FF71
:1024A00015B92948006800E028460446201DFFF7BA
:1024B0000FFF78B9E06A00EB8000244951F8200052
:1024C00040B994F82C1001208840214909688143C3
:1024D0001F480160A06A18B104F11800FFF7F8FE68
:1024E0001C480068401C1B4908601748006884426B
:1024F00009D1211D1848FFF72FFF18480068401C1C
:102500001649086006E016480068401E1449086035
:10251000FFF7AAFDFFF73EFF0B480068844202D098
:102520002046FFF721FB0F48006858B106480068B5
:10253000844207D14FF080500B490860BFF34F8FA2
:10254000BFF36F8F70BD0000440000209801002091
:102550005C00002070000020540400205000002087
:10256000540000206000002004ED00E003490968E9
:102570000160034909684160704700006C00002059
:1025800058000020012001490860704768000020C1
:1025900070B505460C460548016818312846FFF716
:1025A000C1FE01212046FFF775F970BD44000020EF
:1025B00070B504460E46154660680F490968C86143
:1025C0000D49826809680A620B49096818318268F6
:1025D00051600949096818318160074909688C62AE
:1025E0002168491C21600DB14FF0FF362946304665
:1025F000FFF750F970BD0000440000201CB51548DD
:1026000000210B468022CDE9001013A1144800F0F0
:10261000C5F90446012C02D100F004FC0446012C4B
:1026200014D100BFBF2080F31188BFF34F8FBFF3D9
:102630006F8F00BF4FF0FF300A49086001200A4940
:10264000086000200949086000F04CF8084800685C
:102650001CBD00007800002049444C4500000000EB
:10266000151C0008740000206000002058000020A5
:102670007C00002002480068401C01490860704747
:10268000800000201248006818B10120114908603C
:102690001DE000200F4908600F480068B0FA80F084
:1026A000C0F11F0101EB81020C4B03EB8200426879
:1026B0005268426000F108024368934202D14268C6
:1026C000526842604268D268054B1A6000BF70478A
:1026D00080000020680000205C000020980100209D
:1026E0004400002010B50A48006840F47F00084903
:1026F00008600846006840F07F400860FFF780FEF1
:10270000002004490860FDF72FFD002010BD0000E7
:1027100020ED00E0B400002010B500BFBF2080F322
:102720001188BFF34F8FBFF36F8F00BF00F080F9A8
:1027300018B14FF080500449086000BF002080F3BA
:10274000118800BF10BD000004ED00E02DE9F84342
:1027500004460E4617460025DCB1681EB0FBF4F0B7
:10276000B04216D304FB06F010F1550F11D804FB4C
:1027700006F909F15400FFF727FD05464DB1A846BB
:1027800008F154083B464246314620460095FFF783
:1027900055FA2846BDE8F8832DE9F04105460E4676
:1027A00001272C46002C41D0E06B00283ED0B91EFA
:1027B000E06BB1FBF0F0216C884237D3FFF7D8FD16
:1027C000D4E90F12206801FB0200A0600020A06382
:1027D00020686060E06B401E226C216800FB0211E3
:1027E000E160FF2084F8440084F845009EB9206928
:1027F00008B9012000E00020A8B904F1100000F0A1
:10280000DFF980B14FF080500A490860BFF34F8F65
:10281000BFF36F8F07E004F11000FFF773FD04F1C1
:102820002400FFF76FFDFFF7B5FD00E000273846F5
:10283000BDE8F08104ED00E02DE9F74183B00546E5
:102840000F464FF000082C4600BFFFF791FDA66B26
:10285000F6B139462046FFF73DF9701EA0632069A6
:1028600008B9012000E0002060B904F1100000F078
:10287000A7F938B14FF080502F490860BFF34F8F50
:10288000BFF36F8FFFF786FD012006B0BDE8F08132
:10289000059818B9FFF77EFD0020F6E7B8F1000FA4
:1028A00004D101A8FFF762FE4FF00108FFF772FDA7
:1028B000FFF7E0FEFFF75CFD94F94400401C10B9FF
:1028C000002084F8440094F94500401C10B9002011
:1028D00084F84500FFF75EFD05A901A800F02EF879
:1028E000F0B92046FFF79AFAA0B104F12400059947
:1028F000FFF74EFE2046FFF71FFC00F0E5F9002829
:10290000A3D14FF080500C490860BFF34F8FBFF345
:102910006F8F9AE72046FFF70FFC00F0D5F994E798
:102920002046FFF709FC00F0CFF92046FFF776FAC2
:1029300000288AD00020A8E704ED00E070B5064624
:102940000C46FFF715FD134802687068131A2068DB
:10295000401C08B9002519E00F4930680968884211
:1029600006D07068904203D80125002020600DE059
:102970002068984207D92068C01A20603046FFF7C7
:10298000F5FD002502E0002020600125FFF702FD93
:10299000284670BD580000206C0000202DE9FF4F34
:1029A00085B0804689461746DDE912ABB800FFF7CF
:1029B0000BFC064676B15420FFF706FC04462CB10A
:1029C00054212046FDF735FC266304E03046FFF72E
:1029D000F1FC00E000247CB10020CDE900ABCDE9A2
:1029E00002403A4649464046089BFFF73EF92046DA
:1029F000FEF7B0FF012501E04FF0FF35284609B092
:102A0000BDE8F08F0549096809B9012005E00449CE
:102A1000096809B9022000E000207047600000202A
:102A2000800000200149086870470000580000201D
:102A30002DE9F04100275748006800287ED156480C
:102A40000068451C544805608DB95448D0F8008092
:102A500053480068514908605148C0F80080514807
:102A60000068401C4F490860FFF7FEFA00BF4E485F
:102A70000068854276D300BF48480068006808B9FE
:102A8000012000E0002020B14FF0FF3046490860EF
:102A900067E042480068C068C4686668B54202D210
:102AA000414806605DE06069D4E902128A60D4E9B9
:102AB00002214A60211D42688A4201D1E1684160D9
:102AC000002262610168491E0160A06A98B1A06A93
:102AD000D4E907128A60D4E907214A6004F1180199
:102AE00042688A4201D1216A41600022A2620168E3
:102AF000491E016000BF94F82C10012088402B492A
:102B00000968084329490860E16A01EB8101284A04
:102B100002EB81014868A0608268E260211D826842
:102B200051608160E16A01EB8101214A02EB81027F
:102B30006261E16A01EB81011D4A00E022E052F886
:102B40002110491CE26A02EB8202194B43F8221061
:102B50001849E06A0968C96A88428DD901278BE75C
:102B600000E000BF13480068C06A00EB8000104915
:102B700051F82000012800D901270F48006800B152
:102B8000012704E00D480068401C0C4908603846E5
:102B9000BDE8F0818000002058000020480000209F
:102BA0004C0000206C000020740000205C0000201D
:102BB00098010020440000206800002064000020EC
:102BC00070B50346D868C168886AD1E90745A56031
:102BD000D1E90754656001F118044568A54201D1A7
:102BE0000C6A446000258D620468641E04603048ED
:102BF000006800283DD14869D1E90245A560D1E9C6
:102C0000025465600C1D4568A54201D1CC68446042
:102C100000254D610468641E046091F82C40012079
:102C2000A040244C24682043224C2060CC6A04EB52
:102C30008404214D05EB8404606888608568CD605C
:102C40000C1D85686C608460CC6A04EB84041A4DAA
:102C500005EB84054D61CC6A04EB8404164D55F8F0
:102C60002440641CCD6A05EB8505134E46F82540CB
:102C700010E0124C6068C86185680D6201F11804AB
:102C800085686C6084600D4D8D622C462468641CE0
:102C90002C6000BF0A4CC86A2468E46AA04204D9C8
:102CA00001220120074C206000E00022104670BD88
:102CB000800000205C0000209801002040040020DB
:102CC000440000206800002070B500240026FFF7B3
:102CD0004FFB4B480068401E4949086008460068A1
:102CE00000287DD147480068002879D05BE046483D
:102CF000C068C468A06AD4E907128A60D4E90721D1
:102D00004A6004F1180142688A4201D1216A416097
:102D10000022A2620168491E01606069D4E90212C2
:102D20008A60D4E902214A60211D42688A4201D1A9
:102D3000E1684160002262610168491E016094F807
:102D40002C10012088403149096808432F49086048
:102D5000E16A01EB81012E4A02EB81014868A06023
:102D60008268E260211D826851608160E16A01EB46
:102D70008101274A02EB81026261E16A01EB810174
:102D8000234A52F82110491CE26A02EB8202204BCE
:102D900043F822101F49E06A0968C96A884202D3D1
:102DA00001201D4908601848006808B9012000E0AA
:102DB000002000289BD00CB1FFF756F91748056892
:102DC00065B100BFFFF734FE10B101201249086061
:102DD0006D1E002DF6D10020104908600E4800E05D
:102DE00009E0006838B1012630070D490860BFF3DB
:102DF0004F8FBFF36F8FFFF7CDFA304670BD0000E5
:102E00008000002054000020400400205C000020CE
:102E10009801002044000020680000206400002089
:102E200004ED00E01CB50024FEF70AFE0848006827
:102E300058B108481F2100234FF48072CDE90010DB
:102E400005A10748FFF7AAFD044620461CBD000067
:102E50008C00002090000020546D72205376630097
:102E60001F210008842E000800000020B800000088
:102E7000501800083C2F0008B8000020F04B00005C
:102E800060180008000000000000000000000000C2
:102E90000000000000000000000000000000000032
:102EA00000010203040102030406070809020406E4
:102EB0000800000000A24A0400000000000000001A
:102EC00001020304060708090000000000000000DA
:102ED00000000000000000000000000000000000F2
:102EE00000000000000000000000000000000000E2
:102EF00000000000000000000000000000000000D2
:102F00001F000000000000000000000000000000A2
:102F100000000000000000000000000000000000B1
:102F200000000000000000000000000000000000A1
:0C2F30000000000000000000AAAAAAAAED
:0400000508000131BD
:00000001FF
